{
	"practise/Bank.sol": {
		"Bankuser": {
			"abi": [
				{
					"stateMutability": "payable",
					"type": "fallback"
				},
				{
					"inputs": [
						{
							"internalType": "address",
							"name": "bankAddress",
							"type": "address"
						}
					],
					"name": "depositToBank",
					"outputs": [],
					"stateMutability": "payable",
					"type": "function"
				},
				{
					"inputs": [
						{
							"internalType": "address",
							"name": "bankAddress",
							"type": "address"
						}
					],
					"name": "getBankBalance",
					"outputs": [
						{
							"internalType": "uint256",
							"name": "",
							"type": "uint256"
						}
					],
					"stateMutability": "view",
					"type": "function"
				},
				{
					"inputs": [
						{
							"internalType": "address",
							"name": "bankAddress",
							"type": "address"
						},
						{
							"internalType": "uint256",
							"name": "amount",
							"type": "uint256"
						}
					],
					"name": "withdrawFromBank",
					"outputs": [],
					"stateMutability": "nonpayable",
					"type": "function"
				},
				{
					"stateMutability": "payable",
					"type": "receive"
				}
			],
			"devdoc": {
				"kind": "dev",
				"methods": {},
				"version": 1
			},
			"evm": {
				"assembly": "    /* \"practise/Bank.sol\":822:1457  contract Bankuser{... */\n  mstore(0x40, 0x80)\n  callvalue\n  dup1\n  iszero\n  tag_1\n  jumpi\n  revert(0x00, 0x00)\ntag_1:\n  pop\n  dataSize(sub_0)\n  dup1\n  dataOffset(sub_0)\n  0x00\n  codecopy\n  0x00\n  return\nstop\n\nsub_0: assembly {\n        /* \"practise/Bank.sol\":822:1457  contract Bankuser{... */\n      mstore(0x40, 0x80)\n      jumpi(tag_1, lt(calldatasize, 0x04))\n      shr(0xe0, calldataload(0x00))\n      dup1\n      0x04cdb171\n      eq\n      tag_3\n      jumpi\n      dup1\n      0x2bfe8dd7\n      eq\n      tag_4\n      jumpi\n      dup1\n      0x5d74f844\n      eq\n      tag_5\n      jumpi\n      jump(tag_2)\n    tag_1:\n    tag_2:\n      stop\n        /* \"practise/Bank.sol\":1214:1376  function getBankBalance(address bankAddress) external view returns (uint256) {... */\n    tag_3:\n      callvalue\n      dup1\n      iszero\n      tag_10\n      jumpi\n      revert(0x00, 0x00)\n    tag_10:\n      pop\n      tag_11\n      0x04\n      dup1\n      calldatasize\n      sub\n      dup2\n      add\n      swap1\n      tag_12\n      swap2\n      swap1\n      tag_13\n      jump\t// in\n    tag_12:\n      tag_14\n      jump\t// in\n    tag_11:\n      mload(0x40)\n      tag_15\n      swap2\n      swap1\n      tag_16\n      jump\t// in\n    tag_15:\n      mload(0x40)\n      dup1\n      swap2\n      sub\n      swap1\n      return\n        /* \"practise/Bank.sol\":848:1044  function depositToBank(address bankAddress) external payable {... */\n    tag_4:\n      tag_17\n      0x04\n      dup1\n      calldatasize\n      sub\n      dup2\n      add\n      swap1\n      tag_18\n      swap2\n      swap1\n      tag_13\n      jump\t// in\n    tag_18:\n      tag_19\n      jump\t// in\n    tag_17:\n      stop\n        /* \"practise/Bank.sol\":1052:1206  function withdrawFromBank(address bankAddress, uint256 amount) external {... */\n    tag_5:\n      callvalue\n      dup1\n      iszero\n      tag_20\n      jumpi\n      revert(0x00, 0x00)\n    tag_20:\n      pop\n      tag_21\n      0x04\n      dup1\n      calldatasize\n      sub\n      dup2\n      add\n      swap1\n      tag_22\n      swap2\n      swap1\n      tag_23\n      jump\t// in\n    tag_22:\n      tag_24\n      jump\t// in\n    tag_21:\n      stop\n        /* \"practise/Bank.sol\":1214:1376  function getBankBalance(address bankAddress) external view returns (uint256) {... */\n    tag_14:\n        /* \"practise/Bank.sol\":1282:1289  uint256 */\n      0x00\n        /* \"practise/Bank.sol\":1302:1312  IBank bank */\n      0x00\n        /* \"practise/Bank.sol\":1321:1332  bankAddress */\n      dup3\n        /* \"practise/Bank.sol\":1302:1333  IBank bank = IBank(bankAddress) */\n      swap1\n      pop\n        /* \"practise/Bank.sol\":1351:1355  bank */\n      dup1\n        /* \"practise/Bank.sol\":1351:1366  bank.getBalance */\n      0xffffffffffffffffffffffffffffffffffffffff\n      and\n      0x12065fe0\n        /* \"practise/Bank.sol\":1351:1368  bank.getBalance() */\n      mload(0x40)\n      dup2\n      0xffffffff\n      and\n      0xe0\n      shl\n      dup2\n      mstore\n      0x04\n      add\n      0x20\n      mload(0x40)\n      dup1\n      dup4\n      sub\n      dup2\n      dup7\n      gas\n      staticcall\n      iszero\n      dup1\n      iszero\n      tag_27\n      jumpi\n      returndatacopy(0x00, 0x00, returndatasize)\n      revert(0x00, returndatasize)\n    tag_27:\n      pop\n      pop\n      pop\n      pop\n      mload(0x40)\n      returndatasize\n      not(0x1f)\n      0x1f\n      dup3\n      add\n      and\n      dup3\n      add\n      dup1\n      0x40\n      mstore\n      pop\n      dup2\n      add\n      swap1\n      tag_28\n      swap2\n      swap1\n      tag_29\n      jump\t// in\n    tag_28:\n        /* \"practise/Bank.sol\":1344:1368  return bank.getBalance() */\n      swap2\n      pop\n      pop\n        /* \"practise/Bank.sol\":1214:1376  function getBankBalance(address bankAddress) external view returns (uint256) {... */\n      swap2\n      swap1\n      pop\n      jump\t// out\n        /* \"practise/Bank.sol\":848:1044  function depositToBank(address bankAddress) external payable {... */\n    tag_19:\n        /* \"practise/Bank.sol\":920:930  IBank bank */\n      0x00\n        /* \"practise/Bank.sol\":939:950  bankAddress */\n      dup2\n        /* \"practise/Bank.sol\":920:951  IBank bank = IBank(bankAddress) */\n      swap1\n      pop\n        /* \"practise/Bank.sol\":1005:1009  bank */\n      dup1\n        /* \"practise/Bank.sol\":1005:1017  bank.deposit */\n      0xffffffffffffffffffffffffffffffffffffffff\n      and\n      0xd0e30db0\n        /* \"practise/Bank.sol\":1024:1033  msg.value */\n      callvalue\n        /* \"practise/Bank.sol\":1005:1036  bank.deposit{value:msg.value}() */\n      mload(0x40)\n      dup3\n      0xffffffff\n      and\n      0xe0\n      shl\n      dup2\n      mstore\n      0x04\n      add\n      0x00\n      mload(0x40)\n      dup1\n      dup4\n      sub\n      dup2\n      dup6\n      dup9\n      dup1\n      extcodesize\n      iszero\n      dup1\n      iszero\n      tag_31\n      jumpi\n      revert(0x00, 0x00)\n    tag_31:\n      pop\n      gas\n      call\n      iszero\n      dup1\n      iszero\n      tag_33\n      jumpi\n      returndatacopy(0x00, 0x00, returndatasize)\n      revert(0x00, returndatasize)\n    tag_33:\n      pop\n      pop\n      pop\n      pop\n      pop\n        /* \"practise/Bank.sol\":909:1044  {... */\n      pop\n        /* \"practise/Bank.sol\":848:1044  function depositToBank(address bankAddress) external payable {... */\n      pop\n      jump\t// out\n        /* \"practise/Bank.sol\":1052:1206  function withdrawFromBank(address bankAddress, uint256 amount) external {... */\n    tag_24:\n        /* \"practise/Bank.sol\":1135:1145  IBank bank */\n      0x00\n        /* \"practise/Bank.sol\":1154:1165  bankAddress */\n      dup3\n        /* \"practise/Bank.sol\":1135:1166  IBank bank = IBank(bankAddress) */\n      swap1\n      pop\n        /* \"practise/Bank.sol\":1177:1181  bank */\n      dup1\n        /* \"practise/Bank.sol\":1177:1190  bank.withdraw */\n      0xffffffffffffffffffffffffffffffffffffffff\n      and\n      0x2e1a7d4d\n        /* \"practise/Bank.sol\":1191:1197  amount */\n      dup4\n        /* \"practise/Bank.sol\":1177:1198  bank.withdraw(amount) */\n      mload(0x40)\n      dup3\n      0xffffffff\n      and\n      0xe0\n      shl\n      dup2\n      mstore\n      0x04\n      add\n      tag_35\n      swap2\n      swap1\n      tag_16\n      jump\t// in\n    tag_35:\n      0x00\n      mload(0x40)\n      dup1\n      dup4\n      sub\n      dup2\n      0x00\n      dup8\n      dup1\n      extcodesize\n      iszero\n      dup1\n      iszero\n      tag_36\n      jumpi\n      revert(0x00, 0x00)\n    tag_36:\n      pop\n      gas\n      call\n      iszero\n      dup1\n      iszero\n      tag_38\n      jumpi\n      returndatacopy(0x00, 0x00, returndatasize)\n      revert(0x00, returndatasize)\n    tag_38:\n      pop\n      pop\n      pop\n      pop\n        /* \"practise/Bank.sol\":1124:1206  {... */\n      pop\n        /* \"practise/Bank.sol\":1052:1206  function withdrawFromBank(address bankAddress, uint256 amount) external {... */\n      pop\n      pop\n      jump\t// out\n        /* \"#utility.yul\":88:205   */\n    tag_40:\n        /* \"#utility.yul\":197:198   */\n      0x00\n        /* \"#utility.yul\":194:195   */\n      0x00\n        /* \"#utility.yul\":187:199   */\n      revert\n        /* \"#utility.yul\":334:460   */\n    tag_42:\n        /* \"#utility.yul\":371:378   */\n      0x00\n        /* \"#utility.yul\":411:453   */\n      0xffffffffffffffffffffffffffffffffffffffff\n        /* \"#utility.yul\":404:409   */\n      dup3\n        /* \"#utility.yul\":400:454   */\n      and\n        /* \"#utility.yul\":389:454   */\n      swap1\n      pop\n        /* \"#utility.yul\":334:460   */\n      swap2\n      swap1\n      pop\n      jump\t// out\n        /* \"#utility.yul\":466:562   */\n    tag_43:\n        /* \"#utility.yul\":503:510   */\n      0x00\n        /* \"#utility.yul\":532:556   */\n      tag_57\n        /* \"#utility.yul\":550:555   */\n      dup3\n        /* \"#utility.yul\":532:556   */\n      tag_42\n      jump\t// in\n    tag_57:\n        /* \"#utility.yul\":521:556   */\n      swap1\n      pop\n        /* \"#utility.yul\":466:562   */\n      swap2\n      swap1\n      pop\n      jump\t// out\n        /* \"#utility.yul\":568:690   */\n    tag_44:\n        /* \"#utility.yul\":641:665   */\n      tag_59\n        /* \"#utility.yul\":659:664   */\n      dup2\n        /* \"#utility.yul\":641:665   */\n      tag_43\n      jump\t// in\n    tag_59:\n        /* \"#utility.yul\":634:639   */\n      dup2\n        /* \"#utility.yul\":631:666   */\n      eq\n        /* \"#utility.yul\":621:684   */\n      tag_60\n      jumpi\n        /* \"#utility.yul\":680:681   */\n      0x00\n        /* \"#utility.yul\":677:678   */\n      0x00\n        /* \"#utility.yul\":670:682   */\n      revert\n        /* \"#utility.yul\":621:684   */\n    tag_60:\n        /* \"#utility.yul\":568:690   */\n      pop\n      jump\t// out\n        /* \"#utility.yul\":696:835   */\n    tag_45:\n        /* \"#utility.yul\":742:747   */\n      0x00\n        /* \"#utility.yul\":780:786   */\n      dup2\n        /* \"#utility.yul\":767:787   */\n      calldataload\n        /* \"#utility.yul\":758:787   */\n      swap1\n      pop\n        /* \"#utility.yul\":796:829   */\n      tag_62\n        /* \"#utility.yul\":823:828   */\n      dup2\n        /* \"#utility.yul\":796:829   */\n      tag_44\n      jump\t// in\n    tag_62:\n        /* \"#utility.yul\":696:835   */\n      swap3\n      swap2\n      pop\n      pop\n      jump\t// out\n        /* \"#utility.yul\":841:1170   */\n    tag_13:\n        /* \"#utility.yul\":900:906   */\n      0x00\n        /* \"#utility.yul\":949:951   */\n      0x20\n        /* \"#utility.yul\":937:946   */\n      dup3\n        /* \"#utility.yul\":928:935   */\n      dup5\n        /* \"#utility.yul\":924:947   */\n      sub\n        /* \"#utility.yul\":920:952   */\n      slt\n        /* \"#utility.yul\":917:1036   */\n      iszero\n      tag_64\n      jumpi\n        /* \"#utility.yul\":955:1034   */\n      tag_65\n      tag_40\n      jump\t// in\n    tag_65:\n        /* \"#utility.yul\":917:1036   */\n    tag_64:\n        /* \"#utility.yul\":1075:1076   */\n      0x00\n        /* \"#utility.yul\":1100:1153   */\n      tag_66\n        /* \"#utility.yul\":1145:1152   */\n      dup5\n        /* \"#utility.yul\":1136:1142   */\n      dup3\n        /* \"#utility.yul\":1125:1134   */\n      dup6\n        /* \"#utility.yul\":1121:1143   */\n      add\n        /* \"#utility.yul\":1100:1153   */\n      tag_45\n      jump\t// in\n    tag_66:\n        /* \"#utility.yul\":1090:1153   */\n      swap2\n      pop\n        /* \"#utility.yul\":1046:1163   */\n      pop\n        /* \"#utility.yul\":841:1170   */\n      swap3\n      swap2\n      pop\n      pop\n      jump\t// out\n        /* \"#utility.yul\":1176:1253   */\n    tag_46:\n        /* \"#utility.yul\":1213:1220   */\n      0x00\n        /* \"#utility.yul\":1242:1247   */\n      dup2\n        /* \"#utility.yul\":1231:1247   */\n      swap1\n      pop\n        /* \"#utility.yul\":1176:1253   */\n      swap2\n      swap1\n      pop\n      jump\t// out\n        /* \"#utility.yul\":1259:1377   */\n    tag_47:\n        /* \"#utility.yul\":1346:1370   */\n      tag_69\n        /* \"#utility.yul\":1364:1369   */\n      dup2\n        /* \"#utility.yul\":1346:1370   */\n      tag_46\n      jump\t// in\n    tag_69:\n        /* \"#utility.yul\":1341:1344   */\n      dup3\n        /* \"#utility.yul\":1334:1371   */\n      mstore\n        /* \"#utility.yul\":1259:1377   */\n      pop\n      pop\n      jump\t// out\n        /* \"#utility.yul\":1383:1605   */\n    tag_16:\n        /* \"#utility.yul\":1476:1480   */\n      0x00\n        /* \"#utility.yul\":1514:1516   */\n      0x20\n        /* \"#utility.yul\":1503:1512   */\n      dup3\n        /* \"#utility.yul\":1499:1517   */\n      add\n        /* \"#utility.yul\":1491:1517   */\n      swap1\n      pop\n        /* \"#utility.yul\":1527:1598   */\n      tag_71\n        /* \"#utility.yul\":1595:1596   */\n      0x00\n        /* \"#utility.yul\":1584:1593   */\n      dup4\n        /* \"#utility.yul\":1580:1597   */\n      add\n        /* \"#utility.yul\":1571:1577   */\n      dup5\n        /* \"#utility.yul\":1527:1598   */\n      tag_47\n      jump\t// in\n    tag_71:\n        /* \"#utility.yul\":1383:1605   */\n      swap3\n      swap2\n      pop\n      pop\n      jump\t// out\n        /* \"#utility.yul\":1611:1733   */\n    tag_48:\n        /* \"#utility.yul\":1684:1708   */\n      tag_73\n        /* \"#utility.yul\":1702:1707   */\n      dup2\n        /* \"#utility.yul\":1684:1708   */\n      tag_46\n      jump\t// in\n    tag_73:\n        /* \"#utility.yul\":1677:1682   */\n      dup2\n        /* \"#utility.yul\":1674:1709   */\n      eq\n        /* \"#utility.yul\":1664:1727   */\n      tag_74\n      jumpi\n        /* \"#utility.yul\":1723:1724   */\n      0x00\n        /* \"#utility.yul\":1720:1721   */\n      0x00\n        /* \"#utility.yul\":1713:1725   */\n      revert\n        /* \"#utility.yul\":1664:1727   */\n    tag_74:\n        /* \"#utility.yul\":1611:1733   */\n      pop\n      jump\t// out\n        /* \"#utility.yul\":1739:1878   */\n    tag_49:\n        /* \"#utility.yul\":1785:1790   */\n      0x00\n        /* \"#utility.yul\":1823:1829   */\n      dup2\n        /* \"#utility.yul\":1810:1830   */\n      calldataload\n        /* \"#utility.yul\":1801:1830   */\n      swap1\n      pop\n        /* \"#utility.yul\":1839:1872   */\n      tag_76\n        /* \"#utility.yul\":1866:1871   */\n      dup2\n        /* \"#utility.yul\":1839:1872   */\n      tag_48\n      jump\t// in\n    tag_76:\n        /* \"#utility.yul\":1739:1878   */\n      swap3\n      swap2\n      pop\n      pop\n      jump\t// out\n        /* \"#utility.yul\":1884:2358   */\n    tag_23:\n        /* \"#utility.yul\":1952:1958   */\n      0x00\n        /* \"#utility.yul\":1960:1966   */\n      0x00\n        /* \"#utility.yul\":2009:2011   */\n      0x40\n        /* \"#utility.yul\":1997:2006   */\n      dup4\n        /* \"#utility.yul\":1988:1995   */\n      dup6\n        /* \"#utility.yul\":1984:2007   */\n      sub\n        /* \"#utility.yul\":1980:2012   */\n      slt\n        /* \"#utility.yul\":1977:2096   */\n      iszero\n      tag_78\n      jumpi\n        /* \"#utility.yul\":2015:2094   */\n      tag_79\n      tag_40\n      jump\t// in\n    tag_79:\n        /* \"#utility.yul\":1977:2096   */\n    tag_78:\n        /* \"#utility.yul\":2135:2136   */\n      0x00\n        /* \"#utility.yul\":2160:2213   */\n      tag_80\n        /* \"#utility.yul\":2205:2212   */\n      dup6\n        /* \"#utility.yul\":2196:2202   */\n      dup3\n        /* \"#utility.yul\":2185:2194   */\n      dup7\n        /* \"#utility.yul\":2181:2203   */\n      add\n        /* \"#utility.yul\":2160:2213   */\n      tag_45\n      jump\t// in\n    tag_80:\n        /* \"#utility.yul\":2150:2213   */\n      swap3\n      pop\n        /* \"#utility.yul\":2106:2223   */\n      pop\n        /* \"#utility.yul\":2262:2264   */\n      0x20\n        /* \"#utility.yul\":2288:2341   */\n      tag_81\n        /* \"#utility.yul\":2333:2340   */\n      dup6\n        /* \"#utility.yul\":2324:2330   */\n      dup3\n        /* \"#utility.yul\":2313:2322   */\n      dup7\n        /* \"#utility.yul\":2309:2331   */\n      add\n        /* \"#utility.yul\":2288:2341   */\n      tag_49\n      jump\t// in\n    tag_81:\n        /* \"#utility.yul\":2278:2341   */\n      swap2\n      pop\n        /* \"#utility.yul\":2233:2351   */\n      pop\n        /* \"#utility.yul\":1884:2358   */\n      swap3\n      pop\n      swap3\n      swap1\n      pop\n      jump\t// out\n        /* \"#utility.yul\":2364:2507   */\n    tag_50:\n        /* \"#utility.yul\":2421:2426   */\n      0x00\n        /* \"#utility.yul\":2452:2458   */\n      dup2\n        /* \"#utility.yul\":2446:2459   */\n      mload\n        /* \"#utility.yul\":2437:2459   */\n      swap1\n      pop\n        /* \"#utility.yul\":2468:2501   */\n      tag_83\n        /* \"#utility.yul\":2495:2500   */\n      dup2\n        /* \"#utility.yul\":2468:2501   */\n      tag_48\n      jump\t// in\n    tag_83:\n        /* \"#utility.yul\":2364:2507   */\n      swap3\n      swap2\n      pop\n      pop\n      jump\t// out\n        /* \"#utility.yul\":2513:2864   */\n    tag_29:\n        /* \"#utility.yul\":2583:2589   */\n      0x00\n        /* \"#utility.yul\":2632:2634   */\n      0x20\n        /* \"#utility.yul\":2620:2629   */\n      dup3\n        /* \"#utility.yul\":2611:2618   */\n      dup5\n        /* \"#utility.yul\":2607:2630   */\n      sub\n        /* \"#utility.yul\":2603:2635   */\n      slt\n        /* \"#utility.yul\":2600:2719   */\n      iszero\n      tag_85\n      jumpi\n        /* \"#utility.yul\":2638:2717   */\n      tag_86\n      tag_40\n      jump\t// in\n    tag_86:\n        /* \"#utility.yul\":2600:2719   */\n    tag_85:\n        /* \"#utility.yul\":2758:2759   */\n      0x00\n        /* \"#utility.yul\":2783:2847   */\n      tag_87\n        /* \"#utility.yul\":2839:2846   */\n      dup5\n        /* \"#utility.yul\":2830:2836   */\n      dup3\n        /* \"#utility.yul\":2819:2828   */\n      dup6\n        /* \"#utility.yul\":2815:2837   */\n      add\n        /* \"#utility.yul\":2783:2847   */\n      tag_50\n      jump\t// in\n    tag_87:\n        /* \"#utility.yul\":2773:2847   */\n      swap2\n      pop\n        /* \"#utility.yul\":2729:2857   */\n      pop\n        /* \"#utility.yul\":2513:2864   */\n      swap3\n      swap2\n      pop\n      pop\n      jump\t// out\n\n    auxdata: 0xa26469706673582212205747edb167c3922f2938fc14d056cdb9bad234c4388e93ed7de9279127eacbb164736f6c634300081e0033\n}\n",
				"bytecode": {
					"linkReferences": {},
					"object": "6080604052348015600e575f5ffd5b5061039f8061001c5f395ff3fe608060405260043610610037575f3560e01c806304cdb1711461003a5780632bfe8dd7146100765780635d74f8441461009257610038565b5b005b348015610045575f5ffd5b50610060600480360381019061005b9190610266565b6100ba565b60405161006d91906102a9565b60405180910390f35b610090600480360381019061008b9190610266565b610134565b005b34801561009d575f5ffd5b506100b860048036038101906100b391906102ec565b610199565b005b5f5f8290508073ffffffffffffffffffffffffffffffffffffffff166312065fe06040518163ffffffff1660e01b8152600401602060405180830381865afa158015610108573d5f5f3e3d5ffd5b505050506040513d601f19601f8201168201806040525081019061012c919061033e565b915050919050565b5f8190508073ffffffffffffffffffffffffffffffffffffffff1663d0e30db0346040518263ffffffff1660e01b81526004015f604051808303818588803b15801561017e575f5ffd5b505af1158015610190573d5f5f3e3d5ffd5b50505050505050565b5f8290508073ffffffffffffffffffffffffffffffffffffffff16632e1a7d4d836040518263ffffffff1660e01b81526004016101d691906102a9565b5f604051808303815f87803b1580156101ed575f5ffd5b505af11580156101ff573d5f5f3e3d5ffd5b50505050505050565b5f5ffd5b5f73ffffffffffffffffffffffffffffffffffffffff82169050919050565b5f6102358261020c565b9050919050565b6102458161022b565b811461024f575f5ffd5b50565b5f813590506102608161023c565b92915050565b5f6020828403121561027b5761027a610208565b5b5f61028884828501610252565b91505092915050565b5f819050919050565b6102a381610291565b82525050565b5f6020820190506102bc5f83018461029a565b92915050565b6102cb81610291565b81146102d5575f5ffd5b50565b5f813590506102e6816102c2565b92915050565b5f5f6040838503121561030257610301610208565b5b5f61030f85828601610252565b9250506020610320858286016102d8565b9150509250929050565b5f81519050610338816102c2565b92915050565b5f6020828403121561035357610352610208565b5b5f6103608482850161032a565b9150509291505056fea26469706673582212205747edb167c3922f2938fc14d056cdb9bad234c4388e93ed7de9279127eacbb164736f6c634300081e0033",
					"opcodes": "PUSH1 0x80 PUSH1 0x40 MSTORE CALLVALUE DUP1 ISZERO PUSH1 0xE JUMPI PUSH0 PUSH0 REVERT JUMPDEST POP PUSH2 0x39F DUP1 PUSH2 0x1C PUSH0 CODECOPY PUSH0 RETURN INVALID PUSH1 0x80 PUSH1 0x40 MSTORE PUSH1 0x4 CALLDATASIZE LT PUSH2 0x37 JUMPI PUSH0 CALLDATALOAD PUSH1 0xE0 SHR DUP1 PUSH4 0x4CDB171 EQ PUSH2 0x3A JUMPI DUP1 PUSH4 0x2BFE8DD7 EQ PUSH2 0x76 JUMPI DUP1 PUSH4 0x5D74F844 EQ PUSH2 0x92 JUMPI PUSH2 0x38 JUMP JUMPDEST JUMPDEST STOP JUMPDEST CALLVALUE DUP1 ISZERO PUSH2 0x45 JUMPI PUSH0 PUSH0 REVERT JUMPDEST POP PUSH2 0x60 PUSH1 0x4 DUP1 CALLDATASIZE SUB DUP2 ADD SWAP1 PUSH2 0x5B SWAP2 SWAP1 PUSH2 0x266 JUMP JUMPDEST PUSH2 0xBA JUMP JUMPDEST PUSH1 0x40 MLOAD PUSH2 0x6D SWAP2 SWAP1 PUSH2 0x2A9 JUMP JUMPDEST PUSH1 0x40 MLOAD DUP1 SWAP2 SUB SWAP1 RETURN JUMPDEST PUSH2 0x90 PUSH1 0x4 DUP1 CALLDATASIZE SUB DUP2 ADD SWAP1 PUSH2 0x8B SWAP2 SWAP1 PUSH2 0x266 JUMP JUMPDEST PUSH2 0x134 JUMP JUMPDEST STOP JUMPDEST CALLVALUE DUP1 ISZERO PUSH2 0x9D JUMPI PUSH0 PUSH0 REVERT JUMPDEST POP PUSH2 0xB8 PUSH1 0x4 DUP1 CALLDATASIZE SUB DUP2 ADD SWAP1 PUSH2 0xB3 SWAP2 SWAP1 PUSH2 0x2EC JUMP JUMPDEST PUSH2 0x199 JUMP JUMPDEST STOP JUMPDEST PUSH0 PUSH0 DUP3 SWAP1 POP DUP1 PUSH20 0xFFFFFFFFFFFFFFFFFFFFFFFFFFFFFFFFFFFFFFFF AND PUSH4 0x12065FE0 PUSH1 0x40 MLOAD DUP2 PUSH4 0xFFFFFFFF AND PUSH1 0xE0 SHL DUP2 MSTORE PUSH1 0x4 ADD PUSH1 0x20 PUSH1 0x40 MLOAD DUP1 DUP4 SUB DUP2 DUP7 GAS STATICCALL ISZERO DUP1 ISZERO PUSH2 0x108 JUMPI RETURNDATASIZE PUSH0 PUSH0 RETURNDATACOPY RETURNDATASIZE PUSH0 REVERT JUMPDEST POP POP POP POP PUSH1 0x40 MLOAD RETURNDATASIZE PUSH1 0x1F NOT PUSH1 0x1F DUP3 ADD AND DUP3 ADD DUP1 PUSH1 0x40 MSTORE POP DUP2 ADD SWAP1 PUSH2 0x12C SWAP2 SWAP1 PUSH2 0x33E JUMP JUMPDEST SWAP2 POP POP SWAP2 SWAP1 POP JUMP JUMPDEST PUSH0 DUP2 SWAP1 POP DUP1 PUSH20 0xFFFFFFFFFFFFFFFFFFFFFFFFFFFFFFFFFFFFFFFF AND PUSH4 0xD0E30DB0 CALLVALUE PUSH1 0x40 MLOAD DUP3 PUSH4 0xFFFFFFFF AND PUSH1 0xE0 SHL DUP2 MSTORE PUSH1 0x4 ADD PUSH0 PUSH1 0x40 MLOAD DUP1 DUP4 SUB DUP2 DUP6 DUP9 DUP1 EXTCODESIZE ISZERO DUP1 ISZERO PUSH2 0x17E JUMPI PUSH0 PUSH0 REVERT JUMPDEST POP GAS CALL ISZERO DUP1 ISZERO PUSH2 0x190 JUMPI RETURNDATASIZE PUSH0 PUSH0 RETURNDATACOPY RETURNDATASIZE PUSH0 REVERT JUMPDEST POP POP POP POP POP POP POP JUMP JUMPDEST PUSH0 DUP3 SWAP1 POP DUP1 PUSH20 0xFFFFFFFFFFFFFFFFFFFFFFFFFFFFFFFFFFFFFFFF AND PUSH4 0x2E1A7D4D DUP4 PUSH1 0x40 MLOAD DUP3 PUSH4 0xFFFFFFFF AND PUSH1 0xE0 SHL DUP2 MSTORE PUSH1 0x4 ADD PUSH2 0x1D6 SWAP2 SWAP1 PUSH2 0x2A9 JUMP JUMPDEST PUSH0 PUSH1 0x40 MLOAD DUP1 DUP4 SUB DUP2 PUSH0 DUP8 DUP1 EXTCODESIZE ISZERO DUP1 ISZERO PUSH2 0x1ED JUMPI PUSH0 PUSH0 REVERT JUMPDEST POP GAS CALL ISZERO DUP1 ISZERO PUSH2 0x1FF JUMPI RETURNDATASIZE PUSH0 PUSH0 RETURNDATACOPY RETURNDATASIZE PUSH0 REVERT JUMPDEST POP POP POP POP POP POP POP JUMP JUMPDEST PUSH0 PUSH0 REVERT JUMPDEST PUSH0 PUSH20 0xFFFFFFFFFFFFFFFFFFFFFFFFFFFFFFFFFFFFFFFF DUP3 AND SWAP1 POP SWAP2 SWAP1 POP JUMP JUMPDEST PUSH0 PUSH2 0x235 DUP3 PUSH2 0x20C JUMP JUMPDEST SWAP1 POP SWAP2 SWAP1 POP JUMP JUMPDEST PUSH2 0x245 DUP2 PUSH2 0x22B JUMP JUMPDEST DUP2 EQ PUSH2 0x24F JUMPI PUSH0 PUSH0 REVERT JUMPDEST POP JUMP JUMPDEST PUSH0 DUP2 CALLDATALOAD SWAP1 POP PUSH2 0x260 DUP2 PUSH2 0x23C JUMP JUMPDEST SWAP3 SWAP2 POP POP JUMP JUMPDEST PUSH0 PUSH1 0x20 DUP3 DUP5 SUB SLT ISZERO PUSH2 0x27B JUMPI PUSH2 0x27A PUSH2 0x208 JUMP JUMPDEST JUMPDEST PUSH0 PUSH2 0x288 DUP5 DUP3 DUP6 ADD PUSH2 0x252 JUMP JUMPDEST SWAP2 POP POP SWAP3 SWAP2 POP POP JUMP JUMPDEST PUSH0 DUP2 SWAP1 POP SWAP2 SWAP1 POP JUMP JUMPDEST PUSH2 0x2A3 DUP2 PUSH2 0x291 JUMP JUMPDEST DUP3 MSTORE POP POP JUMP JUMPDEST PUSH0 PUSH1 0x20 DUP3 ADD SWAP1 POP PUSH2 0x2BC PUSH0 DUP4 ADD DUP5 PUSH2 0x29A JUMP JUMPDEST SWAP3 SWAP2 POP POP JUMP JUMPDEST PUSH2 0x2CB DUP2 PUSH2 0x291 JUMP JUMPDEST DUP2 EQ PUSH2 0x2D5 JUMPI PUSH0 PUSH0 REVERT JUMPDEST POP JUMP JUMPDEST PUSH0 DUP2 CALLDATALOAD SWAP1 POP PUSH2 0x2E6 DUP2 PUSH2 0x2C2 JUMP JUMPDEST SWAP3 SWAP2 POP POP JUMP JUMPDEST PUSH0 PUSH0 PUSH1 0x40 DUP4 DUP6 SUB SLT ISZERO PUSH2 0x302 JUMPI PUSH2 0x301 PUSH2 0x208 JUMP JUMPDEST JUMPDEST PUSH0 PUSH2 0x30F DUP6 DUP3 DUP7 ADD PUSH2 0x252 JUMP JUMPDEST SWAP3 POP POP PUSH1 0x20 PUSH2 0x320 DUP6 DUP3 DUP7 ADD PUSH2 0x2D8 JUMP JUMPDEST SWAP2 POP POP SWAP3 POP SWAP3 SWAP1 POP JUMP JUMPDEST PUSH0 DUP2 MLOAD SWAP1 POP PUSH2 0x338 DUP2 PUSH2 0x2C2 JUMP JUMPDEST SWAP3 SWAP2 POP POP JUMP JUMPDEST PUSH0 PUSH1 0x20 DUP3 DUP5 SUB SLT ISZERO PUSH2 0x353 JUMPI PUSH2 0x352 PUSH2 0x208 JUMP JUMPDEST JUMPDEST PUSH0 PUSH2 0x360 DUP5 DUP3 DUP6 ADD PUSH2 0x32A JUMP JUMPDEST SWAP2 POP POP SWAP3 SWAP2 POP POP JUMP INVALID LOG2 PUSH5 0x6970667358 0x22 SLT KECCAK256 JUMPI SELFBALANCE 0xED 0xB1 PUSH8 0xC3922F2938FC14D0 JUMP 0xCD 0xB9 0xBA 0xD2 CALLVALUE 0xC4 CODESIZE DUP15 SWAP4 0xED PUSH30 0xE9279127EACBB164736F6C634300081E0033000000000000000000000000 "
				},
				"gasEstimates": {
					"creation": {
						"codeDepositCost": "185400",
						"executionCost": "224",
						"totalCost": "185624"
					},
					"external": {
						"": "128",
						"depositToBank(address)": "infinite",
						"getBankBalance(address)": "infinite",
						"withdrawFromBank(address,uint256)": "infinite"
					}
				},
				"methodIdentifiers": {
					"depositToBank(address)": "2bfe8dd7",
					"getBankBalance(address)": "04cdb171",
					"withdrawFromBank(address,uint256)": "5d74f844"
				}
			},
			"storageLayout": {
				"storage": [],
				"types": null
			},
			"userdoc": {
				"kind": "user",
				"methods": {},
				"version": 1
			}
		}
	}
}