{
	"practise/StructContract.sol": {
		"StructContract": {
			"abi": [
				{
					"inputs": [
						{
							"components": [
								{
									"internalType": "uint8",
									"name": "age",
									"type": "uint8"
								},
								{
									"internalType": "string",
									"name": "name",
									"type": "string"
								}
							],
							"internalType": "struct StructContract.Person",
							"name": "p",
							"type": "tuple"
						}
					],
					"name": "addPerson",
					"outputs": [],
					"stateMutability": "nonpayable",
					"type": "function"
				},
				{
					"inputs": [
						{
							"internalType": "uint256",
							"name": "",
							"type": "uint256"
						}
					],
					"name": "users",
					"outputs": [
						{
							"internalType": "uint8",
							"name": "age",
							"type": "uint8"
						},
						{
							"internalType": "string",
							"name": "name",
							"type": "string"
						}
					],
					"stateMutability": "view",
					"type": "function"
				}
			],
			"devdoc": {
				"kind": "dev",
				"methods": {},
				"version": 1
			},
			"evm": {
				"assembly": "    /* \"practise/StructContract.sol\":60:353  contract StructContract{... */\n  mstore(0x40, 0x80)\n  callvalue\n  dup1\n  iszero\n  tag_1\n  jumpi\n  revert(0x00, 0x00)\ntag_1:\n  pop\n  dataSize(sub_0)\n  dup1\n  dataOffset(sub_0)\n  0x00\n  codecopy\n  0x00\n  return\nstop\n\nsub_0: assembly {\n        /* \"practise/StructContract.sol\":60:353  contract StructContract{... */\n      mstore(0x40, 0x80)\n      callvalue\n      dup1\n      iszero\n      tag_1\n      jumpi\n      revert(0x00, 0x00)\n    tag_1:\n      pop\n      jumpi(tag_2, lt(calldatasize, 0x04))\n      shr(0xe0, calldataload(0x00))\n      dup1\n      0x365b98b2\n      eq\n      tag_3\n      jumpi\n      dup1\n      0x391475f4\n      eq\n      tag_4\n      jumpi\n    tag_2:\n      revert(0x00, 0x00)\n        /* \"practise/StructContract.sol\":241:262  Person[] public users */\n    tag_3:\n      tag_5\n      0x04\n      dup1\n      calldatasize\n      sub\n      dup2\n      add\n      swap1\n      tag_6\n      swap2\n      swap1\n      tag_7\n      jump\t// in\n    tag_6:\n      tag_8\n      jump\t// in\n    tag_5:\n      mload(0x40)\n      tag_9\n      swap3\n      swap2\n      swap1\n      tag_10\n      jump\t// in\n    tag_9:\n      mload(0x40)\n      dup1\n      swap2\n      sub\n      swap1\n      return\n        /* \"practise/StructContract.sol\":271:348  function addPerson(Person calldata p) public {... */\n    tag_4:\n      tag_11\n      0x04\n      dup1\n      calldatasize\n      sub\n      dup2\n      add\n      swap1\n      tag_12\n      swap2\n      swap1\n      tag_13\n      jump\t// in\n    tag_12:\n      tag_14\n      jump\t// in\n    tag_11:\n      stop\n        /* \"practise/StructContract.sol\":241:262  Person[] public users */\n    tag_8:\n      0x00\n      dup2\n      dup2\n      sload\n      dup2\n      lt\n      tag_15\n      jumpi\n      0x00\n      dup1\n      revert\n    tag_15:\n      swap1\n      0x00\n      mstore\n      keccak256(0x00, 0x20)\n      swap1\n      0x02\n      mul\n      add\n      0x00\n      swap2\n      pop\n      swap1\n      pop\n      dup1\n      0x00\n      add\n      0x00\n      swap1\n      sload\n      swap1\n      0x0100\n      exp\n      swap1\n      div\n      0xff\n      and\n      swap1\n      dup1\n      0x01\n      add\n      dup1\n      sload\n      tag_17\n      swap1\n      tag_18\n      jump\t// in\n    tag_17:\n      dup1\n      0x1f\n      add\n      0x20\n      dup1\n      swap2\n      div\n      mul\n      0x20\n      add\n      mload(0x40)\n      swap1\n      dup2\n      add\n      0x40\n      mstore\n      dup1\n      swap3\n      swap2\n      swap1\n      dup2\n      dup2\n      mstore\n      0x20\n      add\n      dup3\n      dup1\n      sload\n      tag_19\n      swap1\n      tag_18\n      jump\t// in\n    tag_19:\n      dup1\n      iszero\n      tag_20\n      jumpi\n      dup1\n      0x1f\n      lt\n      tag_21\n      jumpi\n      0x0100\n      dup1\n      dup4\n      sload\n      div\n      mul\n      dup4\n      mstore\n      swap2\n      0x20\n      add\n      swap2\n      jump(tag_20)\n    tag_21:\n      dup3\n      add\n      swap2\n      swap1\n      0x00\n      mstore\n      keccak256(0x00, 0x20)\n      swap1\n    tag_22:\n      dup2\n      sload\n      dup2\n      mstore\n      swap1\n      0x01\n      add\n      swap1\n      0x20\n      add\n      dup1\n      dup4\n      gt\n      tag_22\n      jumpi\n      dup3\n      swap1\n      sub\n      0x1f\n      and\n      dup3\n      add\n      swap2\n    tag_20:\n      pop\n      pop\n      pop\n      pop\n      pop\n      swap1\n      pop\n      dup3\n      jump\t// out\n        /* \"practise/StructContract.sol\":271:348  function addPerson(Person calldata p) public {... */\n    tag_14:\n        /* \"practise/StructContract.sol\":327:332  users */\n      0x00\n        /* \"practise/StructContract.sol\":338:339  p */\n      dup2\n        /* \"practise/StructContract.sol\":327:340  users.push(p) */\n      swap1\n      dup1\n      0x01\n      dup2\n      sload\n      add\n      dup1\n      dup3\n      sstore\n      dup1\n      swap2\n      pop\n      pop\n      0x01\n      swap1\n      sub\n      swap1\n      0x00\n      mstore\n      keccak256(0x00, 0x20)\n      swap1\n      0x02\n      mul\n      add\n      0x00\n      swap1\n      swap2\n      swap1\n      swap2\n      swap1\n      swap2\n      pop\n      dup2\n      dup2\n      tag_25\n      swap2\n      swap1\n      tag_26\n      jump\t// in\n    tag_25:\n      pop\n      pop\n        /* \"practise/StructContract.sol\":271:348  function addPerson(Person calldata p) public {... */\n      pop\n      jump\t// out\n        /* \"#utility.yul\":88:205   */\n    tag_28:\n        /* \"#utility.yul\":197:198   */\n      0x00\n        /* \"#utility.yul\":194:195   */\n      0x00\n        /* \"#utility.yul\":187:199   */\n      revert\n        /* \"#utility.yul\":211:328   */\n    tag_29:\n        /* \"#utility.yul\":320:321   */\n      0x00\n        /* \"#utility.yul\":317:318   */\n      0x00\n        /* \"#utility.yul\":310:322   */\n      revert\n        /* \"#utility.yul\":334:411   */\n    tag_30:\n        /* \"#utility.yul\":371:378   */\n      0x00\n        /* \"#utility.yul\":400:405   */\n      dup2\n        /* \"#utility.yul\":389:405   */\n      swap1\n      pop\n        /* \"#utility.yul\":334:411   */\n      swap2\n      swap1\n      pop\n      jump\t// out\n        /* \"#utility.yul\":417:539   */\n    tag_31:\n        /* \"#utility.yul\":490:514   */\n      tag_81\n        /* \"#utility.yul\":508:513   */\n      dup2\n        /* \"#utility.yul\":490:514   */\n      tag_30\n      jump\t// in\n    tag_81:\n        /* \"#utility.yul\":483:488   */\n      dup2\n        /* \"#utility.yul\":480:515   */\n      eq\n        /* \"#utility.yul\":470:533   */\n      tag_82\n      jumpi\n        /* \"#utility.yul\":529:530   */\n      0x00\n        /* \"#utility.yul\":526:527   */\n      0x00\n        /* \"#utility.yul\":519:531   */\n      revert\n        /* \"#utility.yul\":470:533   */\n    tag_82:\n        /* \"#utility.yul\":417:539   */\n      pop\n      jump\t// out\n        /* \"#utility.yul\":545:684   */\n    tag_32:\n        /* \"#utility.yul\":591:596   */\n      0x00\n        /* \"#utility.yul\":629:635   */\n      dup2\n        /* \"#utility.yul\":616:636   */\n      calldataload\n        /* \"#utility.yul\":607:636   */\n      swap1\n      pop\n        /* \"#utility.yul\":645:678   */\n      tag_84\n        /* \"#utility.yul\":672:677   */\n      dup2\n        /* \"#utility.yul\":645:678   */\n      tag_31\n      jump\t// in\n    tag_84:\n        /* \"#utility.yul\":545:684   */\n      swap3\n      swap2\n      pop\n      pop\n      jump\t// out\n        /* \"#utility.yul\":690:1019   */\n    tag_7:\n        /* \"#utility.yul\":749:755   */\n      0x00\n        /* \"#utility.yul\":798:800   */\n      0x20\n        /* \"#utility.yul\":786:795   */\n      dup3\n        /* \"#utility.yul\":777:784   */\n      dup5\n        /* \"#utility.yul\":773:796   */\n      sub\n        /* \"#utility.yul\":769:801   */\n      slt\n        /* \"#utility.yul\":766:885   */\n      iszero\n      tag_86\n      jumpi\n        /* \"#utility.yul\":804:883   */\n      tag_87\n      tag_28\n      jump\t// in\n    tag_87:\n        /* \"#utility.yul\":766:885   */\n    tag_86:\n        /* \"#utility.yul\":924:925   */\n      0x00\n        /* \"#utility.yul\":949:1002   */\n      tag_88\n        /* \"#utility.yul\":994:1001   */\n      dup5\n        /* \"#utility.yul\":985:991   */\n      dup3\n        /* \"#utility.yul\":974:983   */\n      dup6\n        /* \"#utility.yul\":970:992   */\n      add\n        /* \"#utility.yul\":949:1002   */\n      tag_32\n      jump\t// in\n    tag_88:\n        /* \"#utility.yul\":939:1002   */\n      swap2\n      pop\n        /* \"#utility.yul\":895:1012   */\n      pop\n        /* \"#utility.yul\":690:1019   */\n      swap3\n      swap2\n      pop\n      pop\n      jump\t// out\n        /* \"#utility.yul\":1025:1111   */\n    tag_33:\n        /* \"#utility.yul\":1060:1067   */\n      0x00\n        /* \"#utility.yul\":1100:1104   */\n      0xff\n        /* \"#utility.yul\":1093:1098   */\n      dup3\n        /* \"#utility.yul\":1089:1105   */\n      and\n        /* \"#utility.yul\":1078:1105   */\n      swap1\n      pop\n        /* \"#utility.yul\":1025:1111   */\n      swap2\n      swap1\n      pop\n      jump\t// out\n        /* \"#utility.yul\":1117:1229   */\n    tag_34:\n        /* \"#utility.yul\":1200:1222   */\n      tag_91\n        /* \"#utility.yul\":1216:1221   */\n      dup2\n        /* \"#utility.yul\":1200:1222   */\n      tag_33\n      jump\t// in\n    tag_91:\n        /* \"#utility.yul\":1195:1198   */\n      dup3\n        /* \"#utility.yul\":1188:1223   */\n      mstore\n        /* \"#utility.yul\":1117:1229   */\n      pop\n      pop\n      jump\t// out\n        /* \"#utility.yul\":1235:1334   */\n    tag_35:\n        /* \"#utility.yul\":1287:1293   */\n      0x00\n        /* \"#utility.yul\":1321:1326   */\n      dup2\n        /* \"#utility.yul\":1315:1327   */\n      mload\n        /* \"#utility.yul\":1305:1327   */\n      swap1\n      pop\n        /* \"#utility.yul\":1235:1334   */\n      swap2\n      swap1\n      pop\n      jump\t// out\n        /* \"#utility.yul\":1340:1509   */\n    tag_36:\n        /* \"#utility.yul\":1424:1435   */\n      0x00\n        /* \"#utility.yul\":1458:1464   */\n      dup3\n        /* \"#utility.yul\":1453:1456   */\n      dup3\n        /* \"#utility.yul\":1446:1465   */\n      mstore\n        /* \"#utility.yul\":1498:1502   */\n      0x20\n        /* \"#utility.yul\":1493:1496   */\n      dup3\n        /* \"#utility.yul\":1489:1503   */\n      add\n        /* \"#utility.yul\":1474:1503   */\n      swap1\n      pop\n        /* \"#utility.yul\":1340:1509   */\n      swap3\n      swap2\n      pop\n      pop\n      jump\t// out\n        /* \"#utility.yul\":1515:1654   */\n    tag_37:\n        /* \"#utility.yul\":1604:1610   */\n      dup3\n        /* \"#utility.yul\":1599:1602   */\n      dup2\n        /* \"#utility.yul\":1594:1597   */\n      dup4\n        /* \"#utility.yul\":1588:1611   */\n      mcopy\n        /* \"#utility.yul\":1645:1646   */\n      0x00\n        /* \"#utility.yul\":1636:1642   */\n      dup4\n        /* \"#utility.yul\":1631:1634   */\n      dup4\n        /* \"#utility.yul\":1627:1643   */\n      add\n        /* \"#utility.yul\":1620:1647   */\n      mstore\n        /* \"#utility.yul\":1515:1654   */\n      pop\n      pop\n      pop\n      jump\t// out\n        /* \"#utility.yul\":1660:1762   */\n    tag_38:\n        /* \"#utility.yul\":1701:1707   */\n      0x00\n        /* \"#utility.yul\":1752:1754   */\n      0x1f\n        /* \"#utility.yul\":1748:1755   */\n      not\n        /* \"#utility.yul\":1743:1745   */\n      0x1f\n        /* \"#utility.yul\":1736:1741   */\n      dup4\n        /* \"#utility.yul\":1732:1746   */\n      add\n        /* \"#utility.yul\":1728:1756   */\n      and\n        /* \"#utility.yul\":1718:1756   */\n      swap1\n      pop\n        /* \"#utility.yul\":1660:1762   */\n      swap2\n      swap1\n      pop\n      jump\t// out\n        /* \"#utility.yul\":1768:2145   */\n    tag_39:\n        /* \"#utility.yul\":1856:1859   */\n      0x00\n        /* \"#utility.yul\":1884:1923   */\n      tag_97\n        /* \"#utility.yul\":1917:1922   */\n      dup3\n        /* \"#utility.yul\":1884:1923   */\n      tag_35\n      jump\t// in\n    tag_97:\n        /* \"#utility.yul\":1939:2010   */\n      tag_98\n        /* \"#utility.yul\":2003:2009   */\n      dup2\n        /* \"#utility.yul\":1998:2001   */\n      dup6\n        /* \"#utility.yul\":1939:2010   */\n      tag_36\n      jump\t// in\n    tag_98:\n        /* \"#utility.yul\":1932:2010   */\n      swap4\n      pop\n        /* \"#utility.yul\":2019:2084   */\n      tag_99\n        /* \"#utility.yul\":2077:2083   */\n      dup2\n        /* \"#utility.yul\":2072:2075   */\n      dup6\n        /* \"#utility.yul\":2065:2069   */\n      0x20\n        /* \"#utility.yul\":2058:2063   */\n      dup7\n        /* \"#utility.yul\":2054:2070   */\n      add\n        /* \"#utility.yul\":2019:2084   */\n      tag_37\n      jump\t// in\n    tag_99:\n        /* \"#utility.yul\":2109:2138   */\n      tag_100\n        /* \"#utility.yul\":2131:2137   */\n      dup2\n        /* \"#utility.yul\":2109:2138   */\n      tag_38\n      jump\t// in\n    tag_100:\n        /* \"#utility.yul\":2104:2107   */\n      dup5\n        /* \"#utility.yul\":2100:2139   */\n      add\n        /* \"#utility.yul\":2093:2139   */\n      swap2\n      pop\n        /* \"#utility.yul\":1860:2145   */\n      pop\n        /* \"#utility.yul\":1768:2145   */\n      swap3\n      swap2\n      pop\n      pop\n      jump\t// out\n        /* \"#utility.yul\":2151:2566   */\n    tag_10:\n        /* \"#utility.yul\":2288:2292   */\n      0x00\n        /* \"#utility.yul\":2326:2328   */\n      0x40\n        /* \"#utility.yul\":2315:2324   */\n      dup3\n        /* \"#utility.yul\":2311:2329   */\n      add\n        /* \"#utility.yul\":2303:2329   */\n      swap1\n      pop\n        /* \"#utility.yul\":2339:2406   */\n      tag_102\n        /* \"#utility.yul\":2403:2404   */\n      0x00\n        /* \"#utility.yul\":2392:2401   */\n      dup4\n        /* \"#utility.yul\":2388:2405   */\n      add\n        /* \"#utility.yul\":2379:2385   */\n      dup6\n        /* \"#utility.yul\":2339:2406   */\n      tag_34\n      jump\t// in\n    tag_102:\n        /* \"#utility.yul\":2453:2462   */\n      dup2\n        /* \"#utility.yul\":2447:2451   */\n      dup2\n        /* \"#utility.yul\":2443:2463   */\n      sub\n        /* \"#utility.yul\":2438:2440   */\n      0x20\n        /* \"#utility.yul\":2427:2436   */\n      dup4\n        /* \"#utility.yul\":2423:2441   */\n      add\n        /* \"#utility.yul\":2416:2464   */\n      mstore\n        /* \"#utility.yul\":2481:2559   */\n      tag_103\n        /* \"#utility.yul\":2554:2558   */\n      dup2\n        /* \"#utility.yul\":2545:2551   */\n      dup5\n        /* \"#utility.yul\":2481:2559   */\n      tag_39\n      jump\t// in\n    tag_103:\n        /* \"#utility.yul\":2473:2559   */\n      swap1\n      pop\n        /* \"#utility.yul\":2151:2566   */\n      swap4\n      swap3\n      pop\n      pop\n      pop\n      jump\t// out\n        /* \"#utility.yul\":2572:2689   */\n    tag_40:\n        /* \"#utility.yul\":2681:2682   */\n      0x00\n        /* \"#utility.yul\":2678:2679   */\n      0x00\n        /* \"#utility.yul\":2671:2683   */\n      revert\n        /* \"#utility.yul\":2731:2958   */\n    tag_41:\n        /* \"#utility.yul\":2800:2805   */\n      0x00\n        /* \"#utility.yul\":2841:2843   */\n      0x40\n        /* \"#utility.yul\":2832:2838   */\n      dup3\n        /* \"#utility.yul\":2827:2830   */\n      dup5\n        /* \"#utility.yul\":2823:2839   */\n      sub\n        /* \"#utility.yul\":2819:2844   */\n      slt\n        /* \"#utility.yul\":2816:2928   */\n      iszero\n      tag_106\n      jumpi\n        /* \"#utility.yul\":2847:2926   */\n      tag_107\n      tag_40\n      jump\t// in\n    tag_107:\n        /* \"#utility.yul\":2816:2928   */\n    tag_106:\n        /* \"#utility.yul\":2946:2952   */\n      dup2\n        /* \"#utility.yul\":2937:2952   */\n      swap1\n      pop\n        /* \"#utility.yul\":2731:2958   */\n      swap3\n      swap2\n      pop\n      pop\n      jump\t// out\n        /* \"#utility.yul\":2964:3499   */\n    tag_13:\n        /* \"#utility.yul\":3046:3052   */\n      0x00\n        /* \"#utility.yul\":3095:3097   */\n      0x20\n        /* \"#utility.yul\":3083:3092   */\n      dup3\n        /* \"#utility.yul\":3074:3081   */\n      dup5\n        /* \"#utility.yul\":3070:3093   */\n      sub\n        /* \"#utility.yul\":3066:3098   */\n      slt\n        /* \"#utility.yul\":3063:3182   */\n      iszero\n      tag_109\n      jumpi\n        /* \"#utility.yul\":3101:3180   */\n      tag_110\n      tag_28\n      jump\t// in\n    tag_110:\n        /* \"#utility.yul\":3063:3182   */\n    tag_109:\n        /* \"#utility.yul\":3249:3250   */\n      0x00\n        /* \"#utility.yul\":3238:3247   */\n      dup3\n        /* \"#utility.yul\":3234:3251   */\n      add\n        /* \"#utility.yul\":3221:3252   */\n      calldataload\n        /* \"#utility.yul\":3279:3297   */\n      0xffffffffffffffff\n        /* \"#utility.yul\":3271:3277   */\n      dup2\n        /* \"#utility.yul\":3268:3298   */\n      gt\n        /* \"#utility.yul\":3265:3382   */\n      iszero\n      tag_111\n      jumpi\n        /* \"#utility.yul\":3301:3380   */\n      tag_112\n      tag_29\n      jump\t// in\n    tag_112:\n        /* \"#utility.yul\":3265:3382   */\n    tag_111:\n        /* \"#utility.yul\":3406:3482   */\n      tag_113\n        /* \"#utility.yul\":3474:3481   */\n      dup5\n        /* \"#utility.yul\":3465:3471   */\n      dup3\n        /* \"#utility.yul\":3454:3463   */\n      dup6\n        /* \"#utility.yul\":3450:3472   */\n      add\n        /* \"#utility.yul\":3406:3482   */\n      tag_41\n      jump\t// in\n    tag_113:\n        /* \"#utility.yul\":3396:3482   */\n      swap2\n      pop\n        /* \"#utility.yul\":3192:3492   */\n      pop\n        /* \"#utility.yul\":2964:3499   */\n      swap3\n      swap2\n      pop\n      pop\n      jump\t// out\n        /* \"#utility.yul\":3505:3685   */\n    tag_42:\n        /* \"#utility.yul\":3553:3630   */\n      0x4e487b7100000000000000000000000000000000000000000000000000000000\n        /* \"#utility.yul\":3550:3551   */\n      0x00\n        /* \"#utility.yul\":3543:3631   */\n      mstore\n        /* \"#utility.yul\":3650:3654   */\n      0x22\n        /* \"#utility.yul\":3647:3648   */\n      0x04\n        /* \"#utility.yul\":3640:3655   */\n      mstore\n        /* \"#utility.yul\":3674:3678   */\n      0x24\n        /* \"#utility.yul\":3671:3672   */\n      0x00\n        /* \"#utility.yul\":3664:3679   */\n      revert\n        /* \"#utility.yul\":3691:4011   */\n    tag_18:\n        /* \"#utility.yul\":3735:3741   */\n      0x00\n        /* \"#utility.yul\":3772:3773   */\n      0x02\n        /* \"#utility.yul\":3766:3770   */\n      dup3\n        /* \"#utility.yul\":3762:3774   */\n      div\n        /* \"#utility.yul\":3752:3774   */\n      swap1\n      pop\n        /* \"#utility.yul\":3819:3820   */\n      0x01\n        /* \"#utility.yul\":3813:3817   */\n      dup3\n        /* \"#utility.yul\":3809:3821   */\n      and\n        /* \"#utility.yul\":3840:3858   */\n      dup1\n        /* \"#utility.yul\":3830:3911   */\n      tag_116\n      jumpi\n        /* \"#utility.yul\":3896:3900   */\n      0x7f\n        /* \"#utility.yul\":3888:3894   */\n      dup3\n        /* \"#utility.yul\":3884:3901   */\n      and\n        /* \"#utility.yul\":3874:3901   */\n      swap2\n      pop\n        /* \"#utility.yul\":3830:3911   */\n    tag_116:\n        /* \"#utility.yul\":3958:3960   */\n      0x20\n        /* \"#utility.yul\":3950:3956   */\n      dup3\n        /* \"#utility.yul\":3947:3961   */\n      lt\n        /* \"#utility.yul\":3927:3945   */\n      dup2\n        /* \"#utility.yul\":3924:3962   */\n      sub\n        /* \"#utility.yul\":3921:4005   */\n      tag_117\n      jumpi\n        /* \"#utility.yul\":3977:3995   */\n      tag_118\n      tag_42\n      jump\t// in\n    tag_118:\n        /* \"#utility.yul\":3921:4005   */\n    tag_117:\n        /* \"#utility.yul\":3742:4011   */\n      pop\n        /* \"#utility.yul\":3691:4011   */\n      swap2\n      swap1\n      pop\n      jump\t// out\n        /* \"#utility.yul\":4203:4321   */\n    tag_44:\n        /* \"#utility.yul\":4274:4296   */\n      tag_121\n        /* \"#utility.yul\":4290:4295   */\n      dup2\n        /* \"#utility.yul\":4274:4296   */\n      tag_33\n      jump\t// in\n    tag_121:\n        /* \"#utility.yul\":4267:4272   */\n      dup2\n        /* \"#utility.yul\":4264:4297   */\n      eq\n        /* \"#utility.yul\":4254:4315   */\n      tag_122\n      jumpi\n        /* \"#utility.yul\":4311:4312   */\n      0x00\n        /* \"#utility.yul\":4308:4309   */\n      0x00\n        /* \"#utility.yul\":4301:4313   */\n      revert\n        /* \"#utility.yul\":4254:4315   */\n    tag_122:\n        /* \"#utility.yul\":4203:4321   */\n      pop\n      jump\t// out\n        /* \"#utility.yul\":4327:4509   */\n    tag_45:\n        /* \"#utility.yul\":4370:4381   */\n      0x00\n        /* \"#utility.yul\":4419:4422   */\n      dup2\n        /* \"#utility.yul\":4406:4423   */\n      calldataload\n        /* \"#utility.yul\":4432:4463   */\n      tag_124\n        /* \"#utility.yul\":4457:4462   */\n      dup2\n        /* \"#utility.yul\":4432:4463   */\n      tag_44\n      jump\t// in\n    tag_124:\n        /* \"#utility.yul\":4497:4502   */\n      dup1\n        /* \"#utility.yul\":4473:4502   */\n      swap2\n      pop\n        /* \"#utility.yul\":4382:4509   */\n      pop\n        /* \"#utility.yul\":4327:4509   */\n      swap2\n      swap1\n      pop\n      jump\t// out\n        /* \"#utility.yul\":4515:4607   */\n    tag_46:\n        /* \"#utility.yul\":4547:4555   */\n      0x00\n        /* \"#utility.yul\":4594:4599   */\n      dup2\n        /* \"#utility.yul\":4591:4592   */\n      0x00\n        /* \"#utility.yul\":4587:4600   */\n      shl\n        /* \"#utility.yul\":4566:4600   */\n      swap1\n      pop\n        /* \"#utility.yul\":4515:4607   */\n      swap2\n      swap1\n      pop\n      jump\t// out\n        /* \"#utility.yul\":4613:4839   */\n    tag_47:\n        /* \"#utility.yul\":4670:4676   */\n      0x00\n        /* \"#utility.yul\":4699:4702   */\n      0xff\n        /* \"#utility.yul\":4723:4745   */\n      tag_127\n        /* \"#utility.yul\":4736:4744   */\n      dup5\n        /* \"#utility.yul\":4723:4745   */\n      tag_46\n      jump\t// in\n    tag_127:\n        /* \"#utility.yul\":4711:4745   */\n      swap4\n      pop\n        /* \"#utility.yul\":4778:4782   */\n      dup1\n        /* \"#utility.yul\":4774:4783   */\n      not\n        /* \"#utility.yul\":4767:4772   */\n      dup4\n        /* \"#utility.yul\":4763:4784   */\n      and\n        /* \"#utility.yul\":4754:4784   */\n      swap3\n      pop\n        /* \"#utility.yul\":4827:4831   */\n      dup1\n        /* \"#utility.yul\":4817:4825   */\n      dup5\n        /* \"#utility.yul\":4813:4832   */\n      and\n        /* \"#utility.yul\":4806:4811   */\n      dup4\n        /* \"#utility.yul\":4803:4833   */\n      or\n        /* \"#utility.yul\":4793:4833   */\n      swap2\n      pop\n        /* \"#utility.yul\":4677:4839   */\n      pop\n        /* \"#utility.yul\":4613:4839   */\n      swap3\n      swap2\n      pop\n      pop\n      jump\t// out\n        /* \"#utility.yul\":4845:4905   */\n    tag_48:\n        /* \"#utility.yul\":4873:4876   */\n      0x00\n        /* \"#utility.yul\":4894:4899   */\n      dup2\n        /* \"#utility.yul\":4887:4899   */\n      swap1\n      pop\n        /* \"#utility.yul\":4845:4905   */\n      swap2\n      swap1\n      pop\n      jump\t// out\n        /* \"#utility.yul\":4911:5045   */\n    tag_49:\n        /* \"#utility.yul\":4957:4966   */\n      0x00\n        /* \"#utility.yul\":4990:5039   */\n      tag_130\n        /* \"#utility.yul\":5006:5038   */\n      tag_131\n        /* \"#utility.yul\":5015:5037   */\n      tag_132\n        /* \"#utility.yul\":5031:5036   */\n      dup5\n        /* \"#utility.yul\":5015:5037   */\n      tag_33\n      jump\t// in\n    tag_132:\n        /* \"#utility.yul\":5006:5038   */\n      tag_48\n      jump\t// in\n    tag_131:\n        /* \"#utility.yul\":4990:5039   */\n      tag_33\n      jump\t// in\n    tag_130:\n        /* \"#utility.yul\":4977:5039   */\n      swap1\n      pop\n        /* \"#utility.yul\":4911:5045   */\n      swap2\n      swap1\n      pop\n      jump\t// out\n        /* \"#utility.yul\":5051:5124   */\n    tag_50:\n        /* \"#utility.yul\":5092:5095   */\n      0x00\n        /* \"#utility.yul\":5113:5118   */\n      dup2\n        /* \"#utility.yul\":5106:5118   */\n      swap1\n      pop\n        /* \"#utility.yul\":5051:5124   */\n      swap2\n      swap1\n      pop\n      jump\t// out\n        /* \"#utility.yul\":5130:5382   */\n    tag_51:\n        /* \"#utility.yul\":5237:5272   */\n      tag_135\n        /* \"#utility.yul\":5264:5271   */\n      dup3\n        /* \"#utility.yul\":5237:5272   */\n      tag_49\n      jump\t// in\n    tag_135:\n        /* \"#utility.yul\":5294:5375   */\n      tag_136\n        /* \"#utility.yul\":5335:5374   */\n      tag_137\n        /* \"#utility.yul\":5357:5373   */\n      dup3\n        /* \"#utility.yul\":5335:5374   */\n      tag_50\n      jump\t// in\n    tag_137:\n        /* \"#utility.yul\":5328:5332   */\n      dup4\n        /* \"#utility.yul\":5322:5333   */\n      sload\n        /* \"#utility.yul\":5294:5375   */\n      tag_47\n      jump\t// in\n    tag_136:\n        /* \"#utility.yul\":5288:5292   */\n      dup3\n        /* \"#utility.yul\":5281:5376   */\n      sstore\n        /* \"#utility.yul\":5203:5382   */\n      pop\n        /* \"#utility.yul\":5130:5382   */\n      pop\n      pop\n      jump\t// out\n        /* \"#utility.yul\":5388:5505   */\n    tag_52:\n        /* \"#utility.yul\":5497:5498   */\n      0x00\n        /* \"#utility.yul\":5494:5495   */\n      0x00\n        /* \"#utility.yul\":5487:5499   */\n      revert\n        /* \"#utility.yul\":5511:5628   */\n    tag_53:\n        /* \"#utility.yul\":5620:5621   */\n      0x00\n        /* \"#utility.yul\":5617:5618   */\n      0x00\n        /* \"#utility.yul\":5610:5622   */\n      revert\n        /* \"#utility.yul\":5634:5751   */\n    tag_54:\n        /* \"#utility.yul\":5743:5744   */\n      0x00\n        /* \"#utility.yul\":5740:5741   */\n      0x00\n        /* \"#utility.yul\":5733:5745   */\n      revert\n        /* \"#utility.yul\":5757:6482   */\n    tag_55:\n        /* \"#utility.yul\":5835:5839   */\n      0x00\n        /* \"#utility.yul\":5841:5847   */\n      0x00\n        /* \"#utility.yul\":5897:5908   */\n      dup4\n        /* \"#utility.yul\":5884:5909   */\n      calldataload\n        /* \"#utility.yul\":5997:5998   */\n      0x01\n        /* \"#utility.yul\":5991:5995   */\n      0x20\n        /* \"#utility.yul\":5987:5999   */\n      sub\n        /* \"#utility.yul\":5976:5984   */\n      dup5\n        /* \"#utility.yul\":5960:5974   */\n      calldatasize\n        /* \"#utility.yul\":5956:5985   */\n      sub\n        /* \"#utility.yul\":5952:6000   */\n      sub\n        /* \"#utility.yul\":5932:5950   */\n      dup2\n        /* \"#utility.yul\":5928:6001   */\n      slt\n        /* \"#utility.yul\":5918:6086   */\n      tag_142\n      jumpi\n        /* \"#utility.yul\":6005:6084   */\n      tag_143\n      tag_52\n      jump\t// in\n    tag_143:\n        /* \"#utility.yul\":5918:6086   */\n    tag_142:\n        /* \"#utility.yul\":6117:6135   */\n      dup1\n        /* \"#utility.yul\":6107:6115   */\n      dup5\n        /* \"#utility.yul\":6103:6136   */\n      add\n        /* \"#utility.yul\":6095:6136   */\n      swap3\n      pop\n        /* \"#utility.yul\":6169:6173   */\n      dup3\n        /* \"#utility.yul\":6156:6174   */\n      calldataload\n        /* \"#utility.yul\":6146:6174   */\n      swap2\n      pop\n        /* \"#utility.yul\":6197:6215   */\n      0xffffffffffffffff\n        /* \"#utility.yul\":6189:6195   */\n      dup3\n        /* \"#utility.yul\":6186:6216   */\n      gt\n        /* \"#utility.yul\":6183:6300   */\n      iszero\n      tag_144\n      jumpi\n        /* \"#utility.yul\":6219:6298   */\n      tag_145\n      tag_53\n      jump\t// in\n    tag_145:\n        /* \"#utility.yul\":6183:6300   */\n    tag_144:\n        /* \"#utility.yul\":6327:6329   */\n      0x20\n        /* \"#utility.yul\":6321:6325   */\n      dup4\n        /* \"#utility.yul\":6317:6330   */\n      add\n        /* \"#utility.yul\":6309:6330   */\n      swap3\n      pop\n        /* \"#utility.yul\":6384:6388   */\n      0x01\n        /* \"#utility.yul\":6376:6382   */\n      dup3\n        /* \"#utility.yul\":6372:6389   */\n      mul\n        /* \"#utility.yul\":6356:6370   */\n      calldatasize\n        /* \"#utility.yul\":6352:6390   */\n      sub\n        /* \"#utility.yul\":6346:6350   */\n      dup4\n        /* \"#utility.yul\":6342:6391   */\n      sgt\n        /* \"#utility.yul\":6339:6475   */\n      iszero\n      tag_146\n      jumpi\n        /* \"#utility.yul\":6394:6473   */\n      tag_147\n      tag_54\n      jump\t// in\n    tag_147:\n        /* \"#utility.yul\":6339:6475   */\n    tag_146:\n        /* \"#utility.yul\":5848:6482   */\n      pop\n        /* \"#utility.yul\":5757:6482   */\n      swap3\n      pop\n      swap3\n      swap1\n      pop\n      jump\t// out\n        /* \"#utility.yul\":6488:6585   */\n    tag_56:\n        /* \"#utility.yul\":6547:6553   */\n      0x00\n        /* \"#utility.yul\":6575:6578   */\n      dup3\n        /* \"#utility.yul\":6565:6578   */\n      swap1\n      pop\n        /* \"#utility.yul\":6488:6585   */\n      swap3\n      swap2\n      pop\n      pop\n      jump\t// out\n        /* \"#utility.yul\":6591:6771   */\n    tag_57:\n        /* \"#utility.yul\":6639:6716   */\n      0x4e487b7100000000000000000000000000000000000000000000000000000000\n        /* \"#utility.yul\":6636:6637   */\n      0x00\n        /* \"#utility.yul\":6629:6717   */\n      mstore\n        /* \"#utility.yul\":6736:6740   */\n      0x41\n        /* \"#utility.yul\":6733:6734   */\n      0x04\n        /* \"#utility.yul\":6726:6741   */\n      mstore\n        /* \"#utility.yul\":6760:6764   */\n      0x24\n        /* \"#utility.yul\":6757:6758   */\n      0x00\n        /* \"#utility.yul\":6750:6765   */\n      revert\n        /* \"#utility.yul\":6777:6918   */\n    tag_58:\n        /* \"#utility.yul\":6826:6830   */\n      0x00\n        /* \"#utility.yul\":6849:6852   */\n      dup2\n        /* \"#utility.yul\":6841:6852   */\n      swap1\n      pop\n        /* \"#utility.yul\":6872:6875   */\n      dup2\n        /* \"#utility.yul\":6869:6870   */\n      0x00\n        /* \"#utility.yul\":6862:6876   */\n      mstore\n        /* \"#utility.yul\":6906:6910   */\n      0x20\n        /* \"#utility.yul\":6903:6904   */\n      0x00\n        /* \"#utility.yul\":6893:6911   */\n      keccak256\n        /* \"#utility.yul\":6885:6911   */\n      swap1\n      pop\n        /* \"#utility.yul\":6777:6918   */\n      swap2\n      swap1\n      pop\n      jump\t// out\n        /* \"#utility.yul\":6924:7017   */\n    tag_59:\n        /* \"#utility.yul\":6961:6967   */\n      0x00\n        /* \"#utility.yul\":7008:7010   */\n      0x20\n        /* \"#utility.yul\":7003:7005   */\n      0x1f\n        /* \"#utility.yul\":6996:7001   */\n      dup4\n        /* \"#utility.yul\":6992:7006   */\n      add\n        /* \"#utility.yul\":6988:7011   */\n      div\n        /* \"#utility.yul\":6978:7011   */\n      swap1\n      pop\n        /* \"#utility.yul\":6924:7017   */\n      swap2\n      swap1\n      pop\n      jump\t// out\n        /* \"#utility.yul\":7023:7130   */\n    tag_60:\n        /* \"#utility.yul\":7067:7075   */\n      0x00\n        /* \"#utility.yul\":7117:7122   */\n      dup3\n        /* \"#utility.yul\":7111:7115   */\n      dup3\n        /* \"#utility.yul\":7107:7123   */\n      shl\n        /* \"#utility.yul\":7086:7123   */\n      swap1\n      pop\n        /* \"#utility.yul\":7023:7130   */\n      swap3\n      swap2\n      pop\n      pop\n      jump\t// out\n        /* \"#utility.yul\":7136:7529   */\n    tag_61:\n        /* \"#utility.yul\":7205:7211   */\n      0x00\n        /* \"#utility.yul\":7255:7256   */\n      0x08\n        /* \"#utility.yul\":7243:7253   */\n      dup4\n        /* \"#utility.yul\":7239:7257   */\n      mul\n        /* \"#utility.yul\":7278:7375   */\n      tag_154\n        /* \"#utility.yul\":7308:7374   */\n      0xffffffffffffffffffffffffffffffffffffffffffffffffffffffffffffffff\n        /* \"#utility.yul\":7297:7306   */\n      dup3\n        /* \"#utility.yul\":7278:7375   */\n      tag_60\n      jump\t// in\n    tag_154:\n        /* \"#utility.yul\":7396:7435   */\n      tag_155\n        /* \"#utility.yul\":7426:7434   */\n      dup7\n        /* \"#utility.yul\":7415:7424   */\n      dup4\n        /* \"#utility.yul\":7396:7435   */\n      tag_60\n      jump\t// in\n    tag_155:\n        /* \"#utility.yul\":7384:7435   */\n      swap6\n      pop\n        /* \"#utility.yul\":7468:7472   */\n      dup1\n        /* \"#utility.yul\":7464:7473   */\n      not\n        /* \"#utility.yul\":7457:7462   */\n      dup5\n        /* \"#utility.yul\":7453:7474   */\n      and\n        /* \"#utility.yul\":7444:7474   */\n      swap4\n      pop\n        /* \"#utility.yul\":7517:7521   */\n      dup1\n        /* \"#utility.yul\":7507:7515   */\n      dup7\n        /* \"#utility.yul\":7503:7522   */\n      and\n        /* \"#utility.yul\":7496:7501   */\n      dup5\n        /* \"#utility.yul\":7493:7523   */\n      or\n        /* \"#utility.yul\":7483:7523   */\n      swap3\n      pop\n        /* \"#utility.yul\":7212:7529   */\n      pop\n      pop\n        /* \"#utility.yul\":7136:7529   */\n      swap4\n      swap3\n      pop\n      pop\n      pop\n      jump\t// out\n        /* \"#utility.yul\":7535:7677   */\n    tag_62:\n        /* \"#utility.yul\":7585:7594   */\n      0x00\n        /* \"#utility.yul\":7618:7671   */\n      tag_157\n        /* \"#utility.yul\":7636:7670   */\n      tag_158\n        /* \"#utility.yul\":7645:7669   */\n      tag_159\n        /* \"#utility.yul\":7663:7668   */\n      dup5\n        /* \"#utility.yul\":7645:7669   */\n      tag_30\n      jump\t// in\n    tag_159:\n        /* \"#utility.yul\":7636:7670   */\n      tag_48\n      jump\t// in\n    tag_158:\n        /* \"#utility.yul\":7618:7671   */\n      tag_30\n      jump\t// in\n    tag_157:\n        /* \"#utility.yul\":7605:7671   */\n      swap1\n      pop\n        /* \"#utility.yul\":7535:7677   */\n      swap2\n      swap1\n      pop\n      jump\t// out\n        /* \"#utility.yul\":7683:7758   */\n    tag_63:\n        /* \"#utility.yul\":7726:7729   */\n      0x00\n        /* \"#utility.yul\":7747:7752   */\n      dup2\n        /* \"#utility.yul\":7740:7752   */\n      swap1\n      pop\n        /* \"#utility.yul\":7683:7758   */\n      swap2\n      swap1\n      pop\n      jump\t// out\n        /* \"#utility.yul\":7764:8033   */\n    tag_64:\n        /* \"#utility.yul\":7874:7913   */\n      tag_162\n        /* \"#utility.yul\":7905:7912   */\n      dup4\n        /* \"#utility.yul\":7874:7913   */\n      tag_62\n      jump\t// in\n    tag_162:\n        /* \"#utility.yul\":7935:8026   */\n      tag_163\n        /* \"#utility.yul\":7984:8025   */\n      tag_164\n        /* \"#utility.yul\":8008:8024   */\n      dup3\n        /* \"#utility.yul\":7984:8025   */\n      tag_63\n      jump\t// in\n    tag_164:\n        /* \"#utility.yul\":7976:7982   */\n      dup5\n        /* \"#utility.yul\":7969:7973   */\n      dup5\n        /* \"#utility.yul\":7963:7974   */\n      sload\n        /* \"#utility.yul\":7935:8026   */\n      tag_61\n      jump\t// in\n    tag_163:\n        /* \"#utility.yul\":7929:7933   */\n      dup3\n        /* \"#utility.yul\":7922:8027   */\n      sstore\n        /* \"#utility.yul\":7840:8033   */\n      pop\n        /* \"#utility.yul\":7764:8033   */\n      pop\n      pop\n      pop\n      jump\t// out\n        /* \"#utility.yul\":8039:8112   */\n    tag_65:\n        /* \"#utility.yul\":8084:8087   */\n      0x00\n        /* \"#utility.yul\":8105:8106   */\n      0x00\n        /* \"#utility.yul\":8098:8106   */\n      swap1\n      pop\n        /* \"#utility.yul\":8039:8112   */\n      swap1\n      jump\t// out\n        /* \"#utility.yul\":8118:8307   */\n    tag_66:\n        /* \"#utility.yul\":8195:8227   */\n      tag_167\n      tag_65\n      jump\t// in\n    tag_167:\n        /* \"#utility.yul\":8236:8301   */\n      tag_168\n        /* \"#utility.yul\":8294:8300   */\n      dup2\n        /* \"#utility.yul\":8286:8292   */\n      dup5\n        /* \"#utility.yul\":8280:8284   */\n      dup5\n        /* \"#utility.yul\":8236:8301   */\n      tag_64\n      jump\t// in\n    tag_168:\n        /* \"#utility.yul\":8171:8307   */\n      pop\n        /* \"#utility.yul\":8118:8307   */\n      pop\n      pop\n      jump\t// out\n        /* \"#utility.yul\":8313:8499   */\n    tag_67:\n        /* \"#utility.yul\":8373:8493   */\n    tag_170:\n        /* \"#utility.yul\":8390:8393   */\n      dup2\n        /* \"#utility.yul\":8383:8388   */\n      dup2\n        /* \"#utility.yul\":8380:8394   */\n      lt\n        /* \"#utility.yul\":8373:8493   */\n      iszero\n      tag_172\n      jumpi\n        /* \"#utility.yul\":8444:8483   */\n      tag_173\n        /* \"#utility.yul\":8481:8482   */\n      0x00\n        /* \"#utility.yul\":8474:8479   */\n      dup3\n        /* \"#utility.yul\":8444:8483   */\n      tag_66\n      jump\t// in\n    tag_173:\n        /* \"#utility.yul\":8417:8418   */\n      0x01\n        /* \"#utility.yul\":8410:8415   */\n      dup2\n        /* \"#utility.yul\":8406:8419   */\n      add\n        /* \"#utility.yul\":8397:8419   */\n      swap1\n      pop\n        /* \"#utility.yul\":8373:8493   */\n      jump(tag_170)\n    tag_172:\n        /* \"#utility.yul\":8313:8499   */\n      pop\n      pop\n      jump\t// out\n        /* \"#utility.yul\":8505:9048   */\n    tag_68:\n        /* \"#utility.yul\":8606:8608   */\n      0x1f\n        /* \"#utility.yul\":8601:8604   */\n      dup3\n        /* \"#utility.yul\":8598:8609   */\n      gt\n        /* \"#utility.yul\":8595:9041   */\n      iszero\n      tag_175\n      jumpi\n        /* \"#utility.yul\":8640:8678   */\n      tag_176\n        /* \"#utility.yul\":8672:8677   */\n      dup2\n        /* \"#utility.yul\":8640:8678   */\n      tag_58\n      jump\t// in\n    tag_176:\n        /* \"#utility.yul\":8724:8753   */\n      tag_177\n        /* \"#utility.yul\":8742:8752   */\n      dup5\n        /* \"#utility.yul\":8724:8753   */\n      tag_59\n      jump\t// in\n    tag_177:\n        /* \"#utility.yul\":8714:8722   */\n      dup2\n        /* \"#utility.yul\":8710:8754   */\n      add\n        /* \"#utility.yul\":8907:8909   */\n      0x20\n        /* \"#utility.yul\":8895:8905   */\n      dup6\n        /* \"#utility.yul\":8892:8910   */\n      lt\n        /* \"#utility.yul\":8889:8938   */\n      iszero\n      tag_178\n      jumpi\n        /* \"#utility.yul\":8928:8936   */\n      dup2\n        /* \"#utility.yul\":8913:8936   */\n      swap1\n      pop\n        /* \"#utility.yul\":8889:8938   */\n    tag_178:\n        /* \"#utility.yul\":8951:9031   */\n      tag_179\n        /* \"#utility.yul\":9007:9029   */\n      tag_180\n        /* \"#utility.yul\":9025:9028   */\n      dup6\n        /* \"#utility.yul\":9007:9029   */\n      tag_59\n      jump\t// in\n    tag_180:\n        /* \"#utility.yul\":8997:9005   */\n      dup4\n        /* \"#utility.yul\":8993:9030   */\n      add\n        /* \"#utility.yul\":8980:8991   */\n      dup3\n        /* \"#utility.yul\":8951:9031   */\n      tag_67\n      jump\t// in\n    tag_179:\n        /* \"#utility.yul\":8610:9041   */\n      pop\n      pop\n        /* \"#utility.yul\":8595:9041   */\n    tag_175:\n        /* \"#utility.yul\":8505:9048   */\n      pop\n      pop\n      pop\n      jump\t// out\n        /* \"#utility.yul\":9054:9171   */\n    tag_69:\n        /* \"#utility.yul\":9108:9116   */\n      0x00\n        /* \"#utility.yul\":9158:9163   */\n      dup3\n        /* \"#utility.yul\":9152:9156   */\n      dup3\n        /* \"#utility.yul\":9148:9164   */\n      shr\n        /* \"#utility.yul\":9127:9164   */\n      swap1\n      pop\n        /* \"#utility.yul\":9054:9171   */\n      swap3\n      swap2\n      pop\n      pop\n      jump\t// out\n        /* \"#utility.yul\":9177:9346   */\n    tag_70:\n        /* \"#utility.yul\":9221:9227   */\n      0x00\n        /* \"#utility.yul\":9254:9305   */\n      tag_183\n        /* \"#utility.yul\":9302:9303   */\n      0x00\n        /* \"#utility.yul\":9298:9304   */\n      not\n        /* \"#utility.yul\":9290:9295   */\n      dup5\n        /* \"#utility.yul\":9287:9288   */\n      0x08\n        /* \"#utility.yul\":9283:9296   */\n      mul\n        /* \"#utility.yul\":9254:9305   */\n      tag_69\n      jump\t// in\n    tag_183:\n        /* \"#utility.yul\":9250:9306   */\n      not\n        /* \"#utility.yul\":9335:9339   */\n      dup1\n        /* \"#utility.yul\":9329:9333   */\n      dup4\n        /* \"#utility.yul\":9325:9340   */\n      and\n        /* \"#utility.yul\":9315:9340   */\n      swap2\n      pop\n        /* \"#utility.yul\":9228:9346   */\n      pop\n        /* \"#utility.yul\":9177:9346   */\n      swap3\n      swap2\n      pop\n      pop\n      jump\t// out\n        /* \"#utility.yul\":9351:9646   */\n    tag_71:\n        /* \"#utility.yul\":9427:9431   */\n      0x00\n        /* \"#utility.yul\":9573:9602   */\n      tag_185\n        /* \"#utility.yul\":9598:9601   */\n      dup4\n        /* \"#utility.yul\":9592:9596   */\n      dup4\n        /* \"#utility.yul\":9573:9602   */\n      tag_70\n      jump\t// in\n    tag_185:\n        /* \"#utility.yul\":9565:9602   */\n      swap2\n      pop\n        /* \"#utility.yul\":9635:9638   */\n      dup3\n        /* \"#utility.yul\":9632:9633   */\n      0x02\n        /* \"#utility.yul\":9628:9639   */\n      mul\n        /* \"#utility.yul\":9622:9626   */\n      dup3\n        /* \"#utility.yul\":9619:9640   */\n      or\n        /* \"#utility.yul\":9611:9640   */\n      swap1\n      pop\n        /* \"#utility.yul\":9351:9646   */\n      swap3\n      swap2\n      pop\n      pop\n      jump\t// out\n        /* \"#utility.yul\":9651:11054   */\n    tag_72:\n        /* \"#utility.yul\":9775:9819   */\n      tag_187\n        /* \"#utility.yul\":9815:9818   */\n      dup4\n        /* \"#utility.yul\":9810:9813   */\n      dup4\n        /* \"#utility.yul\":9775:9819   */\n      tag_56\n      jump\t// in\n    tag_187:\n        /* \"#utility.yul\":9884:9902   */\n      0xffffffffffffffff\n        /* \"#utility.yul\":9876:9882   */\n      dup2\n        /* \"#utility.yul\":9873:9903   */\n      gt\n        /* \"#utility.yul\":9870:9926   */\n      iszero\n      tag_188\n      jumpi\n        /* \"#utility.yul\":9906:9924   */\n      tag_189\n      tag_57\n      jump\t// in\n    tag_189:\n        /* \"#utility.yul\":9870:9926   */\n    tag_188:\n        /* \"#utility.yul\":9950:9988   */\n      tag_190\n        /* \"#utility.yul\":9982:9986   */\n      dup3\n        /* \"#utility.yul\":9976:9987   */\n      sload\n        /* \"#utility.yul\":9950:9988   */\n      tag_18\n      jump\t// in\n    tag_190:\n        /* \"#utility.yul\":10035:10102   */\n      tag_191\n        /* \"#utility.yul\":10095:10101   */\n      dup3\n        /* \"#utility.yul\":10087:10093   */\n      dup3\n        /* \"#utility.yul\":10081:10085   */\n      dup6\n        /* \"#utility.yul\":10035:10102   */\n      tag_68\n      jump\t// in\n    tag_191:\n        /* \"#utility.yul\":10129:10130   */\n      0x00\n        /* \"#utility.yul\":10158:10160   */\n      0x1f\n        /* \"#utility.yul\":10150:10156   */\n      dup4\n        /* \"#utility.yul\":10147:10161   */\n      gt\n        /* \"#utility.yul\":10175:10176   */\n      0x01\n        /* \"#utility.yul\":10170:10802   */\n      dup2\n      eq\n      tag_193\n      jumpi\n        /* \"#utility.yul\":10846:10847   */\n      0x00\n        /* \"#utility.yul\":10863:10869   */\n      dup5\n        /* \"#utility.yul\":10860:10944   */\n      iszero\n      tag_194\n      jumpi\n        /* \"#utility.yul\":10919:10928   */\n      dup3\n        /* \"#utility.yul\":10914:10917   */\n      dup8\n        /* \"#utility.yul\":10910:10929   */\n      add\n        /* \"#utility.yul\":10897:10930   */\n      calldataload\n        /* \"#utility.yul\":10888:10930   */\n      swap1\n      pop\n        /* \"#utility.yul\":10860:10944   */\n    tag_194:\n        /* \"#utility.yul\":10970:11037   */\n      tag_195\n        /* \"#utility.yul\":11030:11036   */\n      dup6\n        /* \"#utility.yul\":11023:11028   */\n      dup3\n        /* \"#utility.yul\":10970:11037   */\n      tag_71\n      jump\t// in\n    tag_195:\n        /* \"#utility.yul\":10964:10968   */\n      dup7\n        /* \"#utility.yul\":10957:11038   */\n      sstore\n        /* \"#utility.yul\":10819:11048   */\n      pop\n        /* \"#utility.yul\":10140:11048   */\n      jump(tag_192)\n        /* \"#utility.yul\":10170:10802   */\n    tag_193:\n        /* \"#utility.yul\":10222:10226   */\n      0x1f\n        /* \"#utility.yul\":10218:10227   */\n      not\n        /* \"#utility.yul\":10210:10216   */\n      dup5\n        /* \"#utility.yul\":10206:10228   */\n      and\n        /* \"#utility.yul\":10256:10293   */\n      tag_196\n        /* \"#utility.yul\":10288:10292   */\n      dup7\n        /* \"#utility.yul\":10256:10293   */\n      tag_58\n      jump\t// in\n    tag_196:\n        /* \"#utility.yul\":10315:10316   */\n      0x00\n        /* \"#utility.yul\":10329:10544   */\n    tag_197:\n        /* \"#utility.yul\":10343:10350   */\n      dup3\n        /* \"#utility.yul\":10340:10341   */\n      dup2\n        /* \"#utility.yul\":10337:10351   */\n      lt\n        /* \"#utility.yul\":10329:10544   */\n      iszero\n      tag_199\n      jumpi\n        /* \"#utility.yul\":10429:10438   */\n      dup5\n        /* \"#utility.yul\":10424:10427   */\n      dup10\n        /* \"#utility.yul\":10420:10439   */\n      add\n        /* \"#utility.yul\":10407:10440   */\n      calldataload\n        /* \"#utility.yul\":10399:10405   */\n      dup3\n        /* \"#utility.yul\":10392:10441   */\n      sstore\n        /* \"#utility.yul\":10480:10481   */\n      0x01\n        /* \"#utility.yul\":10472:10478   */\n      dup3\n        /* \"#utility.yul\":10468:10482   */\n      add\n        /* \"#utility.yul\":10458:10482   */\n      swap2\n      pop\n        /* \"#utility.yul\":10527:10529   */\n      0x20\n        /* \"#utility.yul\":10516:10525   */\n      dup6\n        /* \"#utility.yul\":10512:10530   */\n      add\n        /* \"#utility.yul\":10499:10530   */\n      swap5\n      pop\n        /* \"#utility.yul\":10366:10370   */\n      0x20\n        /* \"#utility.yul\":10363:10364   */\n      dup2\n        /* \"#utility.yul\":10359:10371   */\n      add\n        /* \"#utility.yul\":10354:10371   */\n      swap1\n      pop\n        /* \"#utility.yul\":10329:10544   */\n      jump(tag_197)\n    tag_199:\n        /* \"#utility.yul\":10572:10578   */\n      dup7\n        /* \"#utility.yul\":10563:10570   */\n      dup4\n        /* \"#utility.yul\":10560:10579   */\n      lt\n        /* \"#utility.yul\":10557:10743   */\n      iszero\n      tag_200\n      jumpi\n        /* \"#utility.yul\":10637:10646   */\n      dup5\n        /* \"#utility.yul\":10632:10635   */\n      dup10\n        /* \"#utility.yul\":10628:10647   */\n      add\n        /* \"#utility.yul\":10615:10648   */\n      calldataload\n        /* \"#utility.yul\":10680:10728   */\n      tag_201\n        /* \"#utility.yul\":10722:10726   */\n      0x1f\n        /* \"#utility.yul\":10714:10720   */\n      dup10\n        /* \"#utility.yul\":10710:10727   */\n      and\n        /* \"#utility.yul\":10699:10708   */\n      dup3\n        /* \"#utility.yul\":10680:10728   */\n      tag_70\n      jump\t// in\n    tag_201:\n        /* \"#utility.yul\":10672:10678   */\n      dup4\n        /* \"#utility.yul\":10665:10729   */\n      sstore\n        /* \"#utility.yul\":10580:10743   */\n      pop\n        /* \"#utility.yul\":10557:10743   */\n    tag_200:\n        /* \"#utility.yul\":10789:10790   */\n      0x01\n        /* \"#utility.yul\":10785:10786   */\n      0x02\n        /* \"#utility.yul\":10777:10783   */\n      dup9\n        /* \"#utility.yul\":10773:10787   */\n      mul\n        /* \"#utility.yul\":10769:10791   */\n      add\n        /* \"#utility.yul\":10763:10767   */\n      dup9\n        /* \"#utility.yul\":10756:10792   */\n      sstore\n        /* \"#utility.yul\":10177:10802   */\n      pop\n      pop\n      pop\n        /* \"#utility.yul\":10140:11048   */\n    tag_192:\n      pop\n        /* \"#utility.yul\":9750:11054   */\n      pop\n      pop\n      pop\n        /* \"#utility.yul\":9651:11054   */\n      pop\n      pop\n      pop\n      jump\t// out\n        /* \"#utility.yul\":11060:11279   */\n    tag_73:\n        /* \"#utility.yul\":11176:11273   */\n      tag_203\n        /* \"#utility.yul\":11265:11272   */\n      dup4\n        /* \"#utility.yul\":11256:11263   */\n      dup4\n        /* \"#utility.yul\":11250:11254   */\n      dup4\n        /* \"#utility.yul\":11176:11273   */\n      tag_72\n      jump\t// in\n    tag_203:\n        /* \"#utility.yul\":11060:11279   */\n      pop\n      pop\n      pop\n      jump\t// out\n        /* \"#utility.yul\":11285:12105   */\n    tag_74:\n        /* \"#utility.yul\":11453:11454   */\n      0x00\n        /* \"#utility.yul\":11447:11451   */\n      dup2\n        /* \"#utility.yul\":11443:11455   */\n      add\n        /* \"#utility.yul\":11499:11500   */\n      0x00\n        /* \"#utility.yul\":11492:11497   */\n      dup4\n        /* \"#utility.yul\":11488:11501   */\n      add\n        /* \"#utility.yul\":11549:11561   */\n      dup1\n        /* \"#utility.yul\":11592:11632   */\n      tag_205\n        /* \"#utility.yul\":11618:11631   */\n      dup2\n        /* \"#utility.yul\":11592:11632   */\n      tag_45\n      jump\t// in\n    tag_205:\n        /* \"#utility.yul\":11575:11632   */\n      swap1\n      pop\n        /* \"#utility.yul\":11646:11721   */\n      tag_206\n        /* \"#utility.yul\":11707:11720   */\n      dup2\n        /* \"#utility.yul\":11695:11705   */\n      dup5\n        /* \"#utility.yul\":11646:11721   */\n      tag_51\n      jump\t// in\n    tag_206:\n        /* \"#utility.yul\":11410:11732   */\n      pop\n      pop\n      pop\n        /* \"#utility.yul\":11785:11786   */\n      0x01\n        /* \"#utility.yul\":11779:11783   */\n      dup2\n        /* \"#utility.yul\":11775:11787   */\n      add\n        /* \"#utility.yul\":11831:11833   */\n      0x20\n        /* \"#utility.yul\":11824:11829   */\n      dup4\n        /* \"#utility.yul\":11820:11834   */\n      add\n        /* \"#utility.yul\":11897:11960   */\n      tag_207\n        /* \"#utility.yul\":11947:11959   */\n      dup2\n        /* \"#utility.yul\":11940:11945   */\n      dup6\n        /* \"#utility.yul\":11897:11960   */\n      tag_55\n      jump\t// in\n    tag_207:\n        /* \"#utility.yul\":11974:12087   */\n      tag_208\n        /* \"#utility.yul\":12073:12086   */\n      dup2\n        /* \"#utility.yul\":12058:12071   */\n      dup4\n        /* \"#utility.yul\":12046:12056   */\n      dup7\n        /* \"#utility.yul\":11974:12087   */\n      tag_73\n      jump\t// in\n    tag_208:\n        /* \"#utility.yul\":11742:12098   */\n      pop\n      pop\n      pop\n      pop\n        /* \"#utility.yul\":11285:12105   */\n      pop\n      pop\n      jump\t// out\n        /* \"#utility.yul\":12111:12352   */\n    tag_26:\n        /* \"#utility.yul\":12240:12346   */\n      tag_210\n        /* \"#utility.yul\":12338:12345   */\n      dup3\n        /* \"#utility.yul\":12332:12336   */\n      dup3\n        /* \"#utility.yul\":12240:12346   */\n      tag_74\n      jump\t// in\n    tag_210:\n        /* \"#utility.yul\":12111:12352   */\n      pop\n      pop\n      jump\t// out\n\n    auxdata: 0xa264697066735822122068045b278b974dd09c030315d5ec42c1b5697a9a002fc804ed8a23c3c6449b6d64736f6c634300081e0033\n}\n",
				"bytecode": {
					"linkReferences": {},
					"object": "6080604052348015600e575f5ffd5b506107b28061001c5f395ff3fe608060405234801561000f575f5ffd5b5060043610610034575f3560e01c8063365b98b214610038578063391475f414610069575b5f5ffd5b610052600480360381019061004d91906101b9565b610085565b60405161006092919061026f565b60405180910390f35b610083600480360381019061007e91906102bf565b610145565b005b5f8181548110610093575f80fd5b905f5260205f2090600202015f91509050805f015f9054906101000a900460ff16908060010180546100c490610333565b80601f01602080910402602001604051908101604052809291908181526020018280546100f090610333565b801561013b5780601f106101125761010080835404028352916020019161013b565b820191905f5260205f20905b81548152906001019060200180831161011e57829003601f168201915b5050505050905082565b5f81908060018154018082558091505060019003905f5260205f2090600202015f909190919091508181610179919061076e565b505050565b5f5ffd5b5f5ffd5b5f819050919050565b61019881610186565b81146101a2575f5ffd5b50565b5f813590506101b38161018f565b92915050565b5f602082840312156101ce576101cd61017e565b5b5f6101db848285016101a5565b91505092915050565b5f60ff82169050919050565b6101f9816101e4565b82525050565b5f81519050919050565b5f82825260208201905092915050565b8281835e5f83830152505050565b5f601f19601f8301169050919050565b5f610241826101ff565b61024b8185610209565b935061025b818560208601610219565b61026481610227565b840191505092915050565b5f6040820190506102825f8301856101f0565b81810360208301526102948184610237565b90509392505050565b5f5ffd5b5f604082840312156102b6576102b561029d565b5b81905092915050565b5f602082840312156102d4576102d361017e565b5b5f82013567ffffffffffffffff8111156102f1576102f0610182565b5b6102fd848285016102a1565b91505092915050565b7f4e487b71000000000000000000000000000000000000000000000000000000005f52602260045260245ffd5b5f600282049050600182168061034a57607f821691505b60208210810361035d5761035c610306565b5b50919050565b61036c816101e4565b8114610376575f5ffd5b50565b5f813561038581610363565b80915050919050565b5f815f1b9050919050565b5f60ff6103a58461038e565b9350801983169250808416831791505092915050565b5f819050919050565b5f6103de6103d96103d4846101e4565b6103bb565b6101e4565b9050919050565b5f819050919050565b6103f7826103c4565b61040a610403826103e5565b8354610399565b8255505050565b5f5ffd5b5f5ffd5b5f5ffd5b5f5f8335600160200384360303811261043957610438610411565b5b80840192508235915067ffffffffffffffff82111561045b5761045a610415565b5b60208301925060018202360383131561047757610476610419565b5b509250929050565b5f82905092915050565b7f4e487b71000000000000000000000000000000000000000000000000000000005f52604160045260245ffd5b5f819050815f5260205f209050919050565b5f6020601f8301049050919050565b5f82821b905092915050565b5f600883026105127fffffffffffffffffffffffffffffffffffffffffffffffffffffffffffffffff826104d7565b61051c86836104d7565b95508019841693508086168417925050509392505050565b5f61054e61054961054484610186565b6103bb565b610186565b9050919050565b5f819050919050565b61056783610534565b61057b61057382610555565b8484546104e3565b825550505050565b5f5f905090565b610592610583565b61059d81848461055e565b505050565b5b818110156105c0576105b55f8261058a565b6001810190506105a3565b5050565b601f821115610605576105d6816104b6565b6105df846104c8565b810160208510156105ee578190505b6106026105fa856104c8565b8301826105a2565b50505b505050565b5f82821c905092915050565b5f6106255f198460080261060a565b1980831691505092915050565b5f61063d8383610616565b9150826002028217905092915050565b610657838361047f565b67ffffffffffffffff8111156106705761066f610489565b5b61067a8254610333565b6106858282856105c4565b5f601f8311600181146106b2575f84156106a0578287013590505b6106aa8582610632565b865550610711565b601f1984166106c0866104b6565b5f5b828110156106e7578489013582556001820191506020850194506020810190506106c2565b868310156107045784890135610700601f891682610616565b8355505b6001600288020188555050505b50505050505050565b61072583838361064d565b505050565b5f81015f83018061073a81610379565b905061074681846103ee565b505050600181016020830161075b818561041d565b61076681838661071a565b505050505050565b610778828261072a565b505056fea264697066735822122068045b278b974dd09c030315d5ec42c1b5697a9a002fc804ed8a23c3c6449b6d64736f6c634300081e0033",
					"opcodes": "PUSH1 0x80 PUSH1 0x40 MSTORE CALLVALUE DUP1 ISZERO PUSH1 0xE JUMPI PUSH0 PUSH0 REVERT JUMPDEST POP PUSH2 0x7B2 DUP1 PUSH2 0x1C PUSH0 CODECOPY PUSH0 RETURN INVALID PUSH1 0x80 PUSH1 0x40 MSTORE CALLVALUE DUP1 ISZERO PUSH2 0xF JUMPI PUSH0 PUSH0 REVERT JUMPDEST POP PUSH1 0x4 CALLDATASIZE LT PUSH2 0x34 JUMPI PUSH0 CALLDATALOAD PUSH1 0xE0 SHR DUP1 PUSH4 0x365B98B2 EQ PUSH2 0x38 JUMPI DUP1 PUSH4 0x391475F4 EQ PUSH2 0x69 JUMPI JUMPDEST PUSH0 PUSH0 REVERT JUMPDEST PUSH2 0x52 PUSH1 0x4 DUP1 CALLDATASIZE SUB DUP2 ADD SWAP1 PUSH2 0x4D SWAP2 SWAP1 PUSH2 0x1B9 JUMP JUMPDEST PUSH2 0x85 JUMP JUMPDEST PUSH1 0x40 MLOAD PUSH2 0x60 SWAP3 SWAP2 SWAP1 PUSH2 0x26F JUMP JUMPDEST PUSH1 0x40 MLOAD DUP1 SWAP2 SUB SWAP1 RETURN JUMPDEST PUSH2 0x83 PUSH1 0x4 DUP1 CALLDATASIZE SUB DUP2 ADD SWAP1 PUSH2 0x7E SWAP2 SWAP1 PUSH2 0x2BF JUMP JUMPDEST PUSH2 0x145 JUMP JUMPDEST STOP JUMPDEST PUSH0 DUP2 DUP2 SLOAD DUP2 LT PUSH2 0x93 JUMPI PUSH0 DUP1 REVERT JUMPDEST SWAP1 PUSH0 MSTORE PUSH1 0x20 PUSH0 KECCAK256 SWAP1 PUSH1 0x2 MUL ADD PUSH0 SWAP2 POP SWAP1 POP DUP1 PUSH0 ADD PUSH0 SWAP1 SLOAD SWAP1 PUSH2 0x100 EXP SWAP1 DIV PUSH1 0xFF AND SWAP1 DUP1 PUSH1 0x1 ADD DUP1 SLOAD PUSH2 0xC4 SWAP1 PUSH2 0x333 JUMP JUMPDEST DUP1 PUSH1 0x1F ADD PUSH1 0x20 DUP1 SWAP2 DIV MUL PUSH1 0x20 ADD PUSH1 0x40 MLOAD SWAP1 DUP2 ADD PUSH1 0x40 MSTORE DUP1 SWAP3 SWAP2 SWAP1 DUP2 DUP2 MSTORE PUSH1 0x20 ADD DUP3 DUP1 SLOAD PUSH2 0xF0 SWAP1 PUSH2 0x333 JUMP JUMPDEST DUP1 ISZERO PUSH2 0x13B JUMPI DUP1 PUSH1 0x1F LT PUSH2 0x112 JUMPI PUSH2 0x100 DUP1 DUP4 SLOAD DIV MUL DUP4 MSTORE SWAP2 PUSH1 0x20 ADD SWAP2 PUSH2 0x13B JUMP JUMPDEST DUP3 ADD SWAP2 SWAP1 PUSH0 MSTORE PUSH1 0x20 PUSH0 KECCAK256 SWAP1 JUMPDEST DUP2 SLOAD DUP2 MSTORE SWAP1 PUSH1 0x1 ADD SWAP1 PUSH1 0x20 ADD DUP1 DUP4 GT PUSH2 0x11E JUMPI DUP3 SWAP1 SUB PUSH1 0x1F AND DUP3 ADD SWAP2 JUMPDEST POP POP POP POP POP SWAP1 POP DUP3 JUMP JUMPDEST PUSH0 DUP2 SWAP1 DUP1 PUSH1 0x1 DUP2 SLOAD ADD DUP1 DUP3 SSTORE DUP1 SWAP2 POP POP PUSH1 0x1 SWAP1 SUB SWAP1 PUSH0 MSTORE PUSH1 0x20 PUSH0 KECCAK256 SWAP1 PUSH1 0x2 MUL ADD PUSH0 SWAP1 SWAP2 SWAP1 SWAP2 SWAP1 SWAP2 POP DUP2 DUP2 PUSH2 0x179 SWAP2 SWAP1 PUSH2 0x76E JUMP JUMPDEST POP POP POP JUMP JUMPDEST PUSH0 PUSH0 REVERT JUMPDEST PUSH0 PUSH0 REVERT JUMPDEST PUSH0 DUP2 SWAP1 POP SWAP2 SWAP1 POP JUMP JUMPDEST PUSH2 0x198 DUP2 PUSH2 0x186 JUMP JUMPDEST DUP2 EQ PUSH2 0x1A2 JUMPI PUSH0 PUSH0 REVERT JUMPDEST POP JUMP JUMPDEST PUSH0 DUP2 CALLDATALOAD SWAP1 POP PUSH2 0x1B3 DUP2 PUSH2 0x18F JUMP JUMPDEST SWAP3 SWAP2 POP POP JUMP JUMPDEST PUSH0 PUSH1 0x20 DUP3 DUP5 SUB SLT ISZERO PUSH2 0x1CE JUMPI PUSH2 0x1CD PUSH2 0x17E JUMP JUMPDEST JUMPDEST PUSH0 PUSH2 0x1DB DUP5 DUP3 DUP6 ADD PUSH2 0x1A5 JUMP JUMPDEST SWAP2 POP POP SWAP3 SWAP2 POP POP JUMP JUMPDEST PUSH0 PUSH1 0xFF DUP3 AND SWAP1 POP SWAP2 SWAP1 POP JUMP JUMPDEST PUSH2 0x1F9 DUP2 PUSH2 0x1E4 JUMP JUMPDEST DUP3 MSTORE POP POP JUMP JUMPDEST PUSH0 DUP2 MLOAD SWAP1 POP SWAP2 SWAP1 POP JUMP JUMPDEST PUSH0 DUP3 DUP3 MSTORE PUSH1 0x20 DUP3 ADD SWAP1 POP SWAP3 SWAP2 POP POP JUMP JUMPDEST DUP3 DUP2 DUP4 MCOPY PUSH0 DUP4 DUP4 ADD MSTORE POP POP POP JUMP JUMPDEST PUSH0 PUSH1 0x1F NOT PUSH1 0x1F DUP4 ADD AND SWAP1 POP SWAP2 SWAP1 POP JUMP JUMPDEST PUSH0 PUSH2 0x241 DUP3 PUSH2 0x1FF JUMP JUMPDEST PUSH2 0x24B DUP2 DUP6 PUSH2 0x209 JUMP JUMPDEST SWAP4 POP PUSH2 0x25B DUP2 DUP6 PUSH1 0x20 DUP7 ADD PUSH2 0x219 JUMP JUMPDEST PUSH2 0x264 DUP2 PUSH2 0x227 JUMP JUMPDEST DUP5 ADD SWAP2 POP POP SWAP3 SWAP2 POP POP JUMP JUMPDEST PUSH0 PUSH1 0x40 DUP3 ADD SWAP1 POP PUSH2 0x282 PUSH0 DUP4 ADD DUP6 PUSH2 0x1F0 JUMP JUMPDEST DUP2 DUP2 SUB PUSH1 0x20 DUP4 ADD MSTORE PUSH2 0x294 DUP2 DUP5 PUSH2 0x237 JUMP JUMPDEST SWAP1 POP SWAP4 SWAP3 POP POP POP JUMP JUMPDEST PUSH0 PUSH0 REVERT JUMPDEST PUSH0 PUSH1 0x40 DUP3 DUP5 SUB SLT ISZERO PUSH2 0x2B6 JUMPI PUSH2 0x2B5 PUSH2 0x29D JUMP JUMPDEST JUMPDEST DUP2 SWAP1 POP SWAP3 SWAP2 POP POP JUMP JUMPDEST PUSH0 PUSH1 0x20 DUP3 DUP5 SUB SLT ISZERO PUSH2 0x2D4 JUMPI PUSH2 0x2D3 PUSH2 0x17E JUMP JUMPDEST JUMPDEST PUSH0 DUP3 ADD CALLDATALOAD PUSH8 0xFFFFFFFFFFFFFFFF DUP2 GT ISZERO PUSH2 0x2F1 JUMPI PUSH2 0x2F0 PUSH2 0x182 JUMP JUMPDEST JUMPDEST PUSH2 0x2FD DUP5 DUP3 DUP6 ADD PUSH2 0x2A1 JUMP JUMPDEST SWAP2 POP POP SWAP3 SWAP2 POP POP JUMP JUMPDEST PUSH32 0x4E487B7100000000000000000000000000000000000000000000000000000000 PUSH0 MSTORE PUSH1 0x22 PUSH1 0x4 MSTORE PUSH1 0x24 PUSH0 REVERT JUMPDEST PUSH0 PUSH1 0x2 DUP3 DIV SWAP1 POP PUSH1 0x1 DUP3 AND DUP1 PUSH2 0x34A JUMPI PUSH1 0x7F DUP3 AND SWAP2 POP JUMPDEST PUSH1 0x20 DUP3 LT DUP2 SUB PUSH2 0x35D JUMPI PUSH2 0x35C PUSH2 0x306 JUMP JUMPDEST JUMPDEST POP SWAP2 SWAP1 POP JUMP JUMPDEST PUSH2 0x36C DUP2 PUSH2 0x1E4 JUMP JUMPDEST DUP2 EQ PUSH2 0x376 JUMPI PUSH0 PUSH0 REVERT JUMPDEST POP JUMP JUMPDEST PUSH0 DUP2 CALLDATALOAD PUSH2 0x385 DUP2 PUSH2 0x363 JUMP JUMPDEST DUP1 SWAP2 POP POP SWAP2 SWAP1 POP JUMP JUMPDEST PUSH0 DUP2 PUSH0 SHL SWAP1 POP SWAP2 SWAP1 POP JUMP JUMPDEST PUSH0 PUSH1 0xFF PUSH2 0x3A5 DUP5 PUSH2 0x38E JUMP JUMPDEST SWAP4 POP DUP1 NOT DUP4 AND SWAP3 POP DUP1 DUP5 AND DUP4 OR SWAP2 POP POP SWAP3 SWAP2 POP POP JUMP JUMPDEST PUSH0 DUP2 SWAP1 POP SWAP2 SWAP1 POP JUMP JUMPDEST PUSH0 PUSH2 0x3DE PUSH2 0x3D9 PUSH2 0x3D4 DUP5 PUSH2 0x1E4 JUMP JUMPDEST PUSH2 0x3BB JUMP JUMPDEST PUSH2 0x1E4 JUMP JUMPDEST SWAP1 POP SWAP2 SWAP1 POP JUMP JUMPDEST PUSH0 DUP2 SWAP1 POP SWAP2 SWAP1 POP JUMP JUMPDEST PUSH2 0x3F7 DUP3 PUSH2 0x3C4 JUMP JUMPDEST PUSH2 0x40A PUSH2 0x403 DUP3 PUSH2 0x3E5 JUMP JUMPDEST DUP4 SLOAD PUSH2 0x399 JUMP JUMPDEST DUP3 SSTORE POP POP POP JUMP JUMPDEST PUSH0 PUSH0 REVERT JUMPDEST PUSH0 PUSH0 REVERT JUMPDEST PUSH0 PUSH0 REVERT JUMPDEST PUSH0 PUSH0 DUP4 CALLDATALOAD PUSH1 0x1 PUSH1 0x20 SUB DUP5 CALLDATASIZE SUB SUB DUP2 SLT PUSH2 0x439 JUMPI PUSH2 0x438 PUSH2 0x411 JUMP JUMPDEST JUMPDEST DUP1 DUP5 ADD SWAP3 POP DUP3 CALLDATALOAD SWAP2 POP PUSH8 0xFFFFFFFFFFFFFFFF DUP3 GT ISZERO PUSH2 0x45B JUMPI PUSH2 0x45A PUSH2 0x415 JUMP JUMPDEST JUMPDEST PUSH1 0x20 DUP4 ADD SWAP3 POP PUSH1 0x1 DUP3 MUL CALLDATASIZE SUB DUP4 SGT ISZERO PUSH2 0x477 JUMPI PUSH2 0x476 PUSH2 0x419 JUMP JUMPDEST JUMPDEST POP SWAP3 POP SWAP3 SWAP1 POP JUMP JUMPDEST PUSH0 DUP3 SWAP1 POP SWAP3 SWAP2 POP POP JUMP JUMPDEST PUSH32 0x4E487B7100000000000000000000000000000000000000000000000000000000 PUSH0 MSTORE PUSH1 0x41 PUSH1 0x4 MSTORE PUSH1 0x24 PUSH0 REVERT JUMPDEST PUSH0 DUP2 SWAP1 POP DUP2 PUSH0 MSTORE PUSH1 0x20 PUSH0 KECCAK256 SWAP1 POP SWAP2 SWAP1 POP JUMP JUMPDEST PUSH0 PUSH1 0x20 PUSH1 0x1F DUP4 ADD DIV SWAP1 POP SWAP2 SWAP1 POP JUMP JUMPDEST PUSH0 DUP3 DUP3 SHL SWAP1 POP SWAP3 SWAP2 POP POP JUMP JUMPDEST PUSH0 PUSH1 0x8 DUP4 MUL PUSH2 0x512 PUSH32 0xFFFFFFFFFFFFFFFFFFFFFFFFFFFFFFFFFFFFFFFFFFFFFFFFFFFFFFFFFFFFFFFF DUP3 PUSH2 0x4D7 JUMP JUMPDEST PUSH2 0x51C DUP7 DUP4 PUSH2 0x4D7 JUMP JUMPDEST SWAP6 POP DUP1 NOT DUP5 AND SWAP4 POP DUP1 DUP7 AND DUP5 OR SWAP3 POP POP POP SWAP4 SWAP3 POP POP POP JUMP JUMPDEST PUSH0 PUSH2 0x54E PUSH2 0x549 PUSH2 0x544 DUP5 PUSH2 0x186 JUMP JUMPDEST PUSH2 0x3BB JUMP JUMPDEST PUSH2 0x186 JUMP JUMPDEST SWAP1 POP SWAP2 SWAP1 POP JUMP JUMPDEST PUSH0 DUP2 SWAP1 POP SWAP2 SWAP1 POP JUMP JUMPDEST PUSH2 0x567 DUP4 PUSH2 0x534 JUMP JUMPDEST PUSH2 0x57B PUSH2 0x573 DUP3 PUSH2 0x555 JUMP JUMPDEST DUP5 DUP5 SLOAD PUSH2 0x4E3 JUMP JUMPDEST DUP3 SSTORE POP POP POP POP JUMP JUMPDEST PUSH0 PUSH0 SWAP1 POP SWAP1 JUMP JUMPDEST PUSH2 0x592 PUSH2 0x583 JUMP JUMPDEST PUSH2 0x59D DUP2 DUP5 DUP5 PUSH2 0x55E JUMP JUMPDEST POP POP POP JUMP JUMPDEST JUMPDEST DUP2 DUP2 LT ISZERO PUSH2 0x5C0 JUMPI PUSH2 0x5B5 PUSH0 DUP3 PUSH2 0x58A JUMP JUMPDEST PUSH1 0x1 DUP2 ADD SWAP1 POP PUSH2 0x5A3 JUMP JUMPDEST POP POP JUMP JUMPDEST PUSH1 0x1F DUP3 GT ISZERO PUSH2 0x605 JUMPI PUSH2 0x5D6 DUP2 PUSH2 0x4B6 JUMP JUMPDEST PUSH2 0x5DF DUP5 PUSH2 0x4C8 JUMP JUMPDEST DUP2 ADD PUSH1 0x20 DUP6 LT ISZERO PUSH2 0x5EE JUMPI DUP2 SWAP1 POP JUMPDEST PUSH2 0x602 PUSH2 0x5FA DUP6 PUSH2 0x4C8 JUMP JUMPDEST DUP4 ADD DUP3 PUSH2 0x5A2 JUMP JUMPDEST POP POP JUMPDEST POP POP POP JUMP JUMPDEST PUSH0 DUP3 DUP3 SHR SWAP1 POP SWAP3 SWAP2 POP POP JUMP JUMPDEST PUSH0 PUSH2 0x625 PUSH0 NOT DUP5 PUSH1 0x8 MUL PUSH2 0x60A JUMP JUMPDEST NOT DUP1 DUP4 AND SWAP2 POP POP SWAP3 SWAP2 POP POP JUMP JUMPDEST PUSH0 PUSH2 0x63D DUP4 DUP4 PUSH2 0x616 JUMP JUMPDEST SWAP2 POP DUP3 PUSH1 0x2 MUL DUP3 OR SWAP1 POP SWAP3 SWAP2 POP POP JUMP JUMPDEST PUSH2 0x657 DUP4 DUP4 PUSH2 0x47F JUMP JUMPDEST PUSH8 0xFFFFFFFFFFFFFFFF DUP2 GT ISZERO PUSH2 0x670 JUMPI PUSH2 0x66F PUSH2 0x489 JUMP JUMPDEST JUMPDEST PUSH2 0x67A DUP3 SLOAD PUSH2 0x333 JUMP JUMPDEST PUSH2 0x685 DUP3 DUP3 DUP6 PUSH2 0x5C4 JUMP JUMPDEST PUSH0 PUSH1 0x1F DUP4 GT PUSH1 0x1 DUP2 EQ PUSH2 0x6B2 JUMPI PUSH0 DUP5 ISZERO PUSH2 0x6A0 JUMPI DUP3 DUP8 ADD CALLDATALOAD SWAP1 POP JUMPDEST PUSH2 0x6AA DUP6 DUP3 PUSH2 0x632 JUMP JUMPDEST DUP7 SSTORE POP PUSH2 0x711 JUMP JUMPDEST PUSH1 0x1F NOT DUP5 AND PUSH2 0x6C0 DUP7 PUSH2 0x4B6 JUMP JUMPDEST PUSH0 JUMPDEST DUP3 DUP2 LT ISZERO PUSH2 0x6E7 JUMPI DUP5 DUP10 ADD CALLDATALOAD DUP3 SSTORE PUSH1 0x1 DUP3 ADD SWAP2 POP PUSH1 0x20 DUP6 ADD SWAP5 POP PUSH1 0x20 DUP2 ADD SWAP1 POP PUSH2 0x6C2 JUMP JUMPDEST DUP7 DUP4 LT ISZERO PUSH2 0x704 JUMPI DUP5 DUP10 ADD CALLDATALOAD PUSH2 0x700 PUSH1 0x1F DUP10 AND DUP3 PUSH2 0x616 JUMP JUMPDEST DUP4 SSTORE POP JUMPDEST PUSH1 0x1 PUSH1 0x2 DUP9 MUL ADD DUP9 SSTORE POP POP POP JUMPDEST POP POP POP POP POP POP POP JUMP JUMPDEST PUSH2 0x725 DUP4 DUP4 DUP4 PUSH2 0x64D JUMP JUMPDEST POP POP POP JUMP JUMPDEST PUSH0 DUP2 ADD PUSH0 DUP4 ADD DUP1 PUSH2 0x73A DUP2 PUSH2 0x379 JUMP JUMPDEST SWAP1 POP PUSH2 0x746 DUP2 DUP5 PUSH2 0x3EE JUMP JUMPDEST POP POP POP PUSH1 0x1 DUP2 ADD PUSH1 0x20 DUP4 ADD PUSH2 0x75B DUP2 DUP6 PUSH2 0x41D JUMP JUMPDEST PUSH2 0x766 DUP2 DUP4 DUP7 PUSH2 0x71A JUMP JUMPDEST POP POP POP POP POP POP JUMP JUMPDEST PUSH2 0x778 DUP3 DUP3 PUSH2 0x72A JUMP JUMPDEST POP POP JUMP INVALID LOG2 PUSH5 0x6970667358 0x22 SLT KECCAK256 PUSH9 0x45B278B974DD09C03 SUB ISZERO 0xD5 EOFCREATE 0x42 0xC1 0xB5 PUSH10 0x7A9A002FC804ED8A23C3 0xC6 PREVRANDAO SWAP12 PUSH14 0x64736F6C634300081E0033000000 "
				},
				"gasEstimates": {
					"creation": {
						"codeDepositCost": "394000",
						"executionCost": "428",
						"totalCost": "394428"
					},
					"external": {
						"addPerson((uint8,string))": "infinite",
						"users(uint256)": "infinite"
					}
				},
				"methodIdentifiers": {
					"addPerson((uint8,string))": "391475f4",
					"users(uint256)": "365b98b2"
				}
			},
			"storageLayout": {
				"storage": [
					{
						"astId": 15,
						"contract": "practise/StructContract.sol:StructContract",
						"label": "users",
						"offset": 0,
						"slot": "0",
						"type": "t_array(t_struct(Person)6_storage)dyn_storage"
					}
				],
				"types": {
					"t_array(t_struct(Person)6_storage)dyn_storage": {
						"base": "t_struct(Person)6_storage",
						"encoding": "dynamic_array",
						"label": "struct StructContract.Person[]",
						"numberOfBytes": "32"
					},
					"t_string_storage": {
						"encoding": "bytes",
						"label": "string",
						"numberOfBytes": "32"
					},
					"t_struct(Person)6_storage": {
						"encoding": "inplace",
						"label": "struct StructContract.Person",
						"members": [
							{
								"astId": 3,
								"contract": "practise/StructContract.sol:StructContract",
								"label": "age",
								"offset": 0,
								"slot": "0",
								"type": "t_uint8"
							},
							{
								"astId": 5,
								"contract": "practise/StructContract.sol:StructContract",
								"label": "name",
								"offset": 0,
								"slot": "1",
								"type": "t_string_storage"
							}
						],
						"numberOfBytes": "64"
					},
					"t_uint8": {
						"encoding": "inplace",
						"label": "uint8",
						"numberOfBytes": "1"
					}
				}
			},
			"userdoc": {
				"kind": "user",
				"methods": {},
				"version": 1
			}
		}
	}
}