{
	"practise/VulnerableVault.sol": {
		"VulnerableVault": {
			"abi": [
				{
					"inputs": [
						{
							"internalType": "address",
							"name": "",
							"type": "address"
						}
					],
					"name": "balances",
					"outputs": [
						{
							"internalType": "uint256",
							"name": "",
							"type": "uint256"
						}
					],
					"stateMutability": "view",
					"type": "function"
				},
				{
					"inputs": [],
					"name": "deposit",
					"outputs": [],
					"stateMutability": "payable",
					"type": "function"
				},
				{
					"inputs": [],
					"name": "withdraw",
					"outputs": [],
					"stateMutability": "nonpayable",
					"type": "function"
				}
			],
			"devdoc": {
				"kind": "dev",
				"methods": {},
				"version": 1
			},
			"evm": {
				"assembly": "    /* \"practise/VulnerableVault.sol\":84:651  contract VulnerableVault {... */\n  mstore(0x40, 0x80)\n  callvalue\n  dup1\n  iszero\n  tag_1\n  jumpi\n  revert(0x00, 0x00)\ntag_1:\n  pop\n  dataSize(sub_0)\n  dup1\n  dataOffset(sub_0)\n  0x00\n  codecopy\n  0x00\n  return\nstop\n\nsub_0: assembly {\n        /* \"practise/VulnerableVault.sol\":84:651  contract VulnerableVault {... */\n      mstore(0x40, 0x80)\n      jumpi(tag_1, lt(calldatasize, 0x04))\n      shr(0xe0, calldataload(0x00))\n      dup1\n      0x27e235e3\n      eq\n      tag_2\n      jumpi\n      dup1\n      0x3ccfd60b\n      eq\n      tag_3\n      jumpi\n      dup1\n      0xd0e30db0\n      eq\n      tag_4\n      jumpi\n    tag_1:\n      revert(0x00, 0x00)\n        /* \"practise/VulnerableVault.sol\":116:156  mapping(address => uint) public balances */\n    tag_2:\n      callvalue\n      dup1\n      iszero\n      tag_5\n      jumpi\n      revert(0x00, 0x00)\n    tag_5:\n      pop\n      tag_6\n      0x04\n      dup1\n      calldatasize\n      sub\n      dup2\n      add\n      swap1\n      tag_7\n      swap2\n      swap1\n      tag_8\n      jump\t// in\n    tag_7:\n      tag_9\n      jump\t// in\n    tag_6:\n      mload(0x40)\n      tag_10\n      swap2\n      swap1\n      tag_11\n      jump\t// in\n    tag_10:\n      mload(0x40)\n      dup1\n      swap2\n      sub\n      swap1\n      return\n        /* \"practise/VulnerableVault.sol\":261:648  function withdraw() external {... */\n    tag_3:\n      callvalue\n      dup1\n      iszero\n      tag_12\n      jumpi\n      revert(0x00, 0x00)\n    tag_12:\n      pop\n      tag_13\n      tag_14\n      jump\t// in\n    tag_13:\n      stop\n        /* \"practise/VulnerableVault.sol\":165:253  function deposit() external payable {... */\n    tag_4:\n      tag_15\n      tag_16\n      jump\t// in\n    tag_15:\n      stop\n        /* \"practise/VulnerableVault.sol\":116:156  mapping(address => uint) public balances */\n    tag_9:\n      mstore(0x20, 0x00)\n      dup1\n      0x00\n      mstore\n      keccak256(0x00, 0x40)\n      0x00\n      swap2\n      pop\n      swap1\n      pop\n      sload\n      dup2\n      jump\t// out\n        /* \"practise/VulnerableVault.sol\":261:648  function withdraw() external {... */\n    tag_14:\n        /* \"practise/VulnerableVault.sol\":332:333  0 */\n      0x00\n        /* \"practise/VulnerableVault.sol\":309:317  balances */\n      0x00\n        /* \"practise/VulnerableVault.sol\":309:329  balances[msg.sender] */\n      0x00\n        /* \"practise/VulnerableVault.sol\":318:328  msg.sender */\n      caller\n        /* \"practise/VulnerableVault.sol\":309:329  balances[msg.sender] */\n      0xffffffffffffffffffffffffffffffffffffffff\n      and\n      0xffffffffffffffffffffffffffffffffffffffff\n      and\n      dup2\n      mstore\n      0x20\n      add\n      swap1\n      dup2\n      mstore\n      0x20\n      add\n      0x00\n      keccak256\n      sload\n        /* \"practise/VulnerableVault.sol\":309:333  balances[msg.sender] > 0 */\n      gt\n        /* \"practise/VulnerableVault.sol\":301:348  require(balances[msg.sender] > 0, \"No balance\") */\n      tag_18\n      jumpi\n      mload(0x40)\n      0x08c379a000000000000000000000000000000000000000000000000000000000\n      dup2\n      mstore\n      0x04\n      add\n      tag_19\n      swap1\n      tag_20\n      jump\t// in\n    tag_19:\n      mload(0x40)\n      dup1\n      swap2\n      sub\n      swap1\n      revert\n    tag_18:\n        /* \"practise/VulnerableVault.sol\":430:442  bool success */\n      0x00\n        /* \"practise/VulnerableVault.sol\":448:458  msg.sender */\n      caller\n        /* \"practise/VulnerableVault.sol\":448:463  msg.sender.call */\n      0xffffffffffffffffffffffffffffffffffffffff\n      and\n        /* \"practise/VulnerableVault.sol\":471:479  balances */\n      0x00\n        /* \"practise/VulnerableVault.sol\":471:491  balances[msg.sender] */\n      0x00\n        /* \"practise/VulnerableVault.sol\":480:490  msg.sender */\n      caller\n        /* \"practise/VulnerableVault.sol\":471:491  balances[msg.sender] */\n      0xffffffffffffffffffffffffffffffffffffffff\n      and\n      0xffffffffffffffffffffffffffffffffffffffff\n      and\n      dup2\n      mstore\n      0x20\n      add\n      swap1\n      dup2\n      mstore\n      0x20\n      add\n      0x00\n      keccak256\n      sload\n        /* \"practise/VulnerableVault.sol\":448:496  msg.sender.call{value: balances[msg.sender]}(\"\") */\n      mload(0x40)\n      tag_21\n      swap1\n      tag_22\n      jump\t// in\n    tag_21:\n      0x00\n      mload(0x40)\n      dup1\n      dup4\n      sub\n      dup2\n      dup6\n      dup8\n      gas\n      call\n      swap3\n      pop\n      pop\n      pop\n      returndatasize\n      dup1\n      0x00\n      dup2\n      eq\n      tag_25\n      jumpi\n      mload(0x40)\n      swap2\n      pop\n      and(add(returndatasize, 0x3f), not(0x1f))\n      dup3\n      add\n      0x40\n      mstore\n      returndatasize\n      dup3\n      mstore\n      returndatasize\n      0x00\n      0x20\n      dup5\n      add\n      returndatacopy\n      jump(tag_24)\n    tag_25:\n      0x60\n      swap2\n      pop\n    tag_24:\n      pop\n        /* \"practise/VulnerableVault.sol\":429:496  (bool success, ) = msg.sender.call{value: balances[msg.sender]}(\"\") */\n      pop\n      swap1\n      pop\n        /* \"practise/VulnerableVault.sol\":515:522  success */\n      dup1\n        /* \"practise/VulnerableVault.sol\":507:542  require(success, \"Transfer failed\") */\n      tag_26\n      jumpi\n      mload(0x40)\n      0x08c379a000000000000000000000000000000000000000000000000000000000\n      dup2\n      mstore\n      0x04\n      add\n      tag_27\n      swap1\n      tag_28\n      jump\t// in\n    tag_27:\n      mload(0x40)\n      dup1\n      swap2\n      sub\n      swap1\n      revert\n    tag_26:\n        /* \"practise/VulnerableVault.sol\":639:640  0 */\n      0x00\n        /* \"practise/VulnerableVault.sol\":616:624  balances */\n      0x00\n        /* \"practise/VulnerableVault.sol\":616:636  balances[msg.sender] */\n      0x00\n        /* \"practise/VulnerableVault.sol\":625:635  msg.sender */\n      caller\n        /* \"practise/VulnerableVault.sol\":616:636  balances[msg.sender] */\n      0xffffffffffffffffffffffffffffffffffffffff\n      and\n      0xffffffffffffffffffffffffffffffffffffffff\n      and\n      dup2\n      mstore\n      0x20\n      add\n      swap1\n      dup2\n      mstore\n      0x20\n      add\n      0x00\n      keccak256\n        /* \"practise/VulnerableVault.sol\":616:640  balances[msg.sender] = 0 */\n      dup2\n      swap1\n      sstore\n      pop\n        /* \"practise/VulnerableVault.sol\":290:648  {... */\n      pop\n        /* \"practise/VulnerableVault.sol\":261:648  function withdraw() external {... */\n      jump\t// out\n        /* \"practise/VulnerableVault.sol\":165:253  function deposit() external payable {... */\n    tag_16:\n        /* \"practise/VulnerableVault.sol\":236:245  msg.value */\n      callvalue\n        /* \"practise/VulnerableVault.sol\":212:220  balances */\n      0x00\n        /* \"practise/VulnerableVault.sol\":212:232  balances[msg.sender] */\n      0x00\n        /* \"practise/VulnerableVault.sol\":221:231  msg.sender */\n      caller\n        /* \"practise/VulnerableVault.sol\":212:232  balances[msg.sender] */\n      0xffffffffffffffffffffffffffffffffffffffff\n      and\n      0xffffffffffffffffffffffffffffffffffffffff\n      and\n      dup2\n      mstore\n      0x20\n      add\n      swap1\n      dup2\n      mstore\n      0x20\n      add\n      0x00\n      keccak256\n      0x00\n        /* \"practise/VulnerableVault.sol\":212:245  balances[msg.sender] += msg.value */\n      dup3\n      dup3\n      sload\n      tag_30\n      swap2\n      swap1\n      tag_31\n      jump\t// in\n    tag_30:\n      swap3\n      pop\n      pop\n      dup2\n      swap1\n      sstore\n      pop\n        /* \"practise/VulnerableVault.sol\":165:253  function deposit() external payable {... */\n      jump\t// out\n        /* \"#utility.yul\":88:205   */\n    tag_33:\n        /* \"#utility.yul\":197:198   */\n      0x00\n        /* \"#utility.yul\":194:195   */\n      0x00\n        /* \"#utility.yul\":187:199   */\n      revert\n        /* \"#utility.yul\":334:460   */\n    tag_35:\n        /* \"#utility.yul\":371:378   */\n      0x00\n        /* \"#utility.yul\":411:453   */\n      0xffffffffffffffffffffffffffffffffffffffff\n        /* \"#utility.yul\":404:409   */\n      dup3\n        /* \"#utility.yul\":400:454   */\n      and\n        /* \"#utility.yul\":389:454   */\n      swap1\n      pop\n        /* \"#utility.yul\":334:460   */\n      swap2\n      swap1\n      pop\n      jump\t// out\n        /* \"#utility.yul\":466:562   */\n    tag_36:\n        /* \"#utility.yul\":503:510   */\n      0x00\n        /* \"#utility.yul\":532:556   */\n      tag_56\n        /* \"#utility.yul\":550:555   */\n      dup3\n        /* \"#utility.yul\":532:556   */\n      tag_35\n      jump\t// in\n    tag_56:\n        /* \"#utility.yul\":521:556   */\n      swap1\n      pop\n        /* \"#utility.yul\":466:562   */\n      swap2\n      swap1\n      pop\n      jump\t// out\n        /* \"#utility.yul\":568:690   */\n    tag_37:\n        /* \"#utility.yul\":641:665   */\n      tag_58\n        /* \"#utility.yul\":659:664   */\n      dup2\n        /* \"#utility.yul\":641:665   */\n      tag_36\n      jump\t// in\n    tag_58:\n        /* \"#utility.yul\":634:639   */\n      dup2\n        /* \"#utility.yul\":631:666   */\n      eq\n        /* \"#utility.yul\":621:684   */\n      tag_59\n      jumpi\n        /* \"#utility.yul\":680:681   */\n      0x00\n        /* \"#utility.yul\":677:678   */\n      0x00\n        /* \"#utility.yul\":670:682   */\n      revert\n        /* \"#utility.yul\":621:684   */\n    tag_59:\n        /* \"#utility.yul\":568:690   */\n      pop\n      jump\t// out\n        /* \"#utility.yul\":696:835   */\n    tag_38:\n        /* \"#utility.yul\":742:747   */\n      0x00\n        /* \"#utility.yul\":780:786   */\n      dup2\n        /* \"#utility.yul\":767:787   */\n      calldataload\n        /* \"#utility.yul\":758:787   */\n      swap1\n      pop\n        /* \"#utility.yul\":796:829   */\n      tag_61\n        /* \"#utility.yul\":823:828   */\n      dup2\n        /* \"#utility.yul\":796:829   */\n      tag_37\n      jump\t// in\n    tag_61:\n        /* \"#utility.yul\":696:835   */\n      swap3\n      swap2\n      pop\n      pop\n      jump\t// out\n        /* \"#utility.yul\":841:1170   */\n    tag_8:\n        /* \"#utility.yul\":900:906   */\n      0x00\n        /* \"#utility.yul\":949:951   */\n      0x20\n        /* \"#utility.yul\":937:946   */\n      dup3\n        /* \"#utility.yul\":928:935   */\n      dup5\n        /* \"#utility.yul\":924:947   */\n      sub\n        /* \"#utility.yul\":920:952   */\n      slt\n        /* \"#utility.yul\":917:1036   */\n      iszero\n      tag_63\n      jumpi\n        /* \"#utility.yul\":955:1034   */\n      tag_64\n      tag_33\n      jump\t// in\n    tag_64:\n        /* \"#utility.yul\":917:1036   */\n    tag_63:\n        /* \"#utility.yul\":1075:1076   */\n      0x00\n        /* \"#utility.yul\":1100:1153   */\n      tag_65\n        /* \"#utility.yul\":1145:1152   */\n      dup5\n        /* \"#utility.yul\":1136:1142   */\n      dup3\n        /* \"#utility.yul\":1125:1134   */\n      dup6\n        /* \"#utility.yul\":1121:1143   */\n      add\n        /* \"#utility.yul\":1100:1153   */\n      tag_38\n      jump\t// in\n    tag_65:\n        /* \"#utility.yul\":1090:1153   */\n      swap2\n      pop\n        /* \"#utility.yul\":1046:1163   */\n      pop\n        /* \"#utility.yul\":841:1170   */\n      swap3\n      swap2\n      pop\n      pop\n      jump\t// out\n        /* \"#utility.yul\":1176:1253   */\n    tag_39:\n        /* \"#utility.yul\":1213:1220   */\n      0x00\n        /* \"#utility.yul\":1242:1247   */\n      dup2\n        /* \"#utility.yul\":1231:1247   */\n      swap1\n      pop\n        /* \"#utility.yul\":1176:1253   */\n      swap2\n      swap1\n      pop\n      jump\t// out\n        /* \"#utility.yul\":1259:1377   */\n    tag_40:\n        /* \"#utility.yul\":1346:1370   */\n      tag_68\n        /* \"#utility.yul\":1364:1369   */\n      dup2\n        /* \"#utility.yul\":1346:1370   */\n      tag_39\n      jump\t// in\n    tag_68:\n        /* \"#utility.yul\":1341:1344   */\n      dup3\n        /* \"#utility.yul\":1334:1371   */\n      mstore\n        /* \"#utility.yul\":1259:1377   */\n      pop\n      pop\n      jump\t// out\n        /* \"#utility.yul\":1383:1605   */\n    tag_11:\n        /* \"#utility.yul\":1476:1480   */\n      0x00\n        /* \"#utility.yul\":1514:1516   */\n      0x20\n        /* \"#utility.yul\":1503:1512   */\n      dup3\n        /* \"#utility.yul\":1499:1517   */\n      add\n        /* \"#utility.yul\":1491:1517   */\n      swap1\n      pop\n        /* \"#utility.yul\":1527:1598   */\n      tag_70\n        /* \"#utility.yul\":1595:1596   */\n      0x00\n        /* \"#utility.yul\":1584:1593   */\n      dup4\n        /* \"#utility.yul\":1580:1597   */\n      add\n        /* \"#utility.yul\":1571:1577   */\n      dup5\n        /* \"#utility.yul\":1527:1598   */\n      tag_40\n      jump\t// in\n    tag_70:\n        /* \"#utility.yul\":1383:1605   */\n      swap3\n      swap2\n      pop\n      pop\n      jump\t// out\n        /* \"#utility.yul\":1611:1780   */\n    tag_41:\n        /* \"#utility.yul\":1695:1706   */\n      0x00\n        /* \"#utility.yul\":1729:1735   */\n      dup3\n        /* \"#utility.yul\":1724:1727   */\n      dup3\n        /* \"#utility.yul\":1717:1736   */\n      mstore\n        /* \"#utility.yul\":1769:1773   */\n      0x20\n        /* \"#utility.yul\":1764:1767   */\n      dup3\n        /* \"#utility.yul\":1760:1774   */\n      add\n        /* \"#utility.yul\":1745:1774   */\n      swap1\n      pop\n        /* \"#utility.yul\":1611:1780   */\n      swap3\n      swap2\n      pop\n      pop\n      jump\t// out\n        /* \"#utility.yul\":1786:1946   */\n    tag_42:\n        /* \"#utility.yul\":1926:1938   */\n      0x4e6f2062616c616e636500000000000000000000000000000000000000000000\n        /* \"#utility.yul\":1922:1923   */\n      0x00\n        /* \"#utility.yul\":1914:1920   */\n      dup3\n        /* \"#utility.yul\":1910:1924   */\n      add\n        /* \"#utility.yul\":1903:1939   */\n      mstore\n        /* \"#utility.yul\":1786:1946   */\n      pop\n      jump\t// out\n        /* \"#utility.yul\":1952:2318   */\n    tag_43:\n        /* \"#utility.yul\":2094:2097   */\n      0x00\n        /* \"#utility.yul\":2115:2182   */\n      tag_74\n        /* \"#utility.yul\":2179:2181   */\n      0x0a\n        /* \"#utility.yul\":2174:2177   */\n      dup4\n        /* \"#utility.yul\":2115:2182   */\n      tag_41\n      jump\t// in\n    tag_74:\n        /* \"#utility.yul\":2108:2182   */\n      swap2\n      pop\n        /* \"#utility.yul\":2191:2284   */\n      tag_75\n        /* \"#utility.yul\":2280:2283   */\n      dup3\n        /* \"#utility.yul\":2191:2284   */\n      tag_42\n      jump\t// in\n    tag_75:\n        /* \"#utility.yul\":2309:2311   */\n      0x20\n        /* \"#utility.yul\":2304:2307   */\n      dup3\n        /* \"#utility.yul\":2300:2312   */\n      add\n        /* \"#utility.yul\":2293:2312   */\n      swap1\n      pop\n        /* \"#utility.yul\":1952:2318   */\n      swap2\n      swap1\n      pop\n      jump\t// out\n        /* \"#utility.yul\":2324:2743   */\n    tag_20:\n        /* \"#utility.yul\":2490:2494   */\n      0x00\n        /* \"#utility.yul\":2528:2530   */\n      0x20\n        /* \"#utility.yul\":2517:2526   */\n      dup3\n        /* \"#utility.yul\":2513:2531   */\n      add\n        /* \"#utility.yul\":2505:2531   */\n      swap1\n      pop\n        /* \"#utility.yul\":2577:2586   */\n      dup2\n        /* \"#utility.yul\":2571:2575   */\n      dup2\n        /* \"#utility.yul\":2567:2587   */\n      sub\n        /* \"#utility.yul\":2563:2564   */\n      0x00\n        /* \"#utility.yul\":2552:2561   */\n      dup4\n        /* \"#utility.yul\":2548:2565   */\n      add\n        /* \"#utility.yul\":2541:2588   */\n      mstore\n        /* \"#utility.yul\":2605:2736   */\n      tag_77\n        /* \"#utility.yul\":2731:2735   */\n      dup2\n        /* \"#utility.yul\":2605:2736   */\n      tag_43\n      jump\t// in\n    tag_77:\n        /* \"#utility.yul\":2597:2736   */\n      swap1\n      pop\n        /* \"#utility.yul\":2324:2743   */\n      swap2\n      swap1\n      pop\n      jump\t// out\n        /* \"#utility.yul\":2749:2896   */\n    tag_44:\n        /* \"#utility.yul\":2850:2861   */\n      0x00\n        /* \"#utility.yul\":2887:2890   */\n      dup2\n        /* \"#utility.yul\":2872:2890   */\n      swap1\n      pop\n        /* \"#utility.yul\":2749:2896   */\n      swap3\n      swap2\n      pop\n      pop\n      jump\t// out\n        /* \"#utility.yul\":2902:3016   */\n    tag_45:\n      pop\n      jump\t// out\n        /* \"#utility.yul\":3022:3420   */\n    tag_46:\n        /* \"#utility.yul\":3181:3184   */\n      0x00\n        /* \"#utility.yul\":3202:3285   */\n      tag_81\n        /* \"#utility.yul\":3283:3284   */\n      0x00\n        /* \"#utility.yul\":3278:3281   */\n      dup4\n        /* \"#utility.yul\":3202:3285   */\n      tag_44\n      jump\t// in\n    tag_81:\n        /* \"#utility.yul\":3195:3285   */\n      swap2\n      pop\n        /* \"#utility.yul\":3294:3387   */\n      tag_82\n        /* \"#utility.yul\":3383:3386   */\n      dup3\n        /* \"#utility.yul\":3294:3387   */\n      tag_45\n      jump\t// in\n    tag_82:\n        /* \"#utility.yul\":3412:3413   */\n      0x00\n        /* \"#utility.yul\":3407:3410   */\n      dup3\n        /* \"#utility.yul\":3403:3414   */\n      add\n        /* \"#utility.yul\":3396:3414   */\n      swap1\n      pop\n        /* \"#utility.yul\":3022:3420   */\n      swap2\n      swap1\n      pop\n      jump\t// out\n        /* \"#utility.yul\":3426:3805   */\n    tag_22:\n        /* \"#utility.yul\":3610:3613   */\n      0x00\n        /* \"#utility.yul\":3632:3779   */\n      tag_84\n        /* \"#utility.yul\":3775:3778   */\n      dup3\n        /* \"#utility.yul\":3632:3779   */\n      tag_46\n      jump\t// in\n    tag_84:\n        /* \"#utility.yul\":3625:3779   */\n      swap2\n      pop\n        /* \"#utility.yul\":3796:3799   */\n      dup2\n        /* \"#utility.yul\":3789:3799   */\n      swap1\n      pop\n        /* \"#utility.yul\":3426:3805   */\n      swap2\n      swap1\n      pop\n      jump\t// out\n        /* \"#utility.yul\":3811:3976   */\n    tag_47:\n        /* \"#utility.yul\":3951:3968   */\n      0x5472616e73666572206661696c65640000000000000000000000000000000000\n        /* \"#utility.yul\":3947:3948   */\n      0x00\n        /* \"#utility.yul\":3939:3945   */\n      dup3\n        /* \"#utility.yul\":3935:3949   */\n      add\n        /* \"#utility.yul\":3928:3969   */\n      mstore\n        /* \"#utility.yul\":3811:3976   */\n      pop\n      jump\t// out\n        /* \"#utility.yul\":3982:4348   */\n    tag_48:\n        /* \"#utility.yul\":4124:4127   */\n      0x00\n        /* \"#utility.yul\":4145:4212   */\n      tag_87\n        /* \"#utility.yul\":4209:4211   */\n      0x0f\n        /* \"#utility.yul\":4204:4207   */\n      dup4\n        /* \"#utility.yul\":4145:4212   */\n      tag_41\n      jump\t// in\n    tag_87:\n        /* \"#utility.yul\":4138:4212   */\n      swap2\n      pop\n        /* \"#utility.yul\":4221:4314   */\n      tag_88\n        /* \"#utility.yul\":4310:4313   */\n      dup3\n        /* \"#utility.yul\":4221:4314   */\n      tag_47\n      jump\t// in\n    tag_88:\n        /* \"#utility.yul\":4339:4341   */\n      0x20\n        /* \"#utility.yul\":4334:4337   */\n      dup3\n        /* \"#utility.yul\":4330:4342   */\n      add\n        /* \"#utility.yul\":4323:4342   */\n      swap1\n      pop\n        /* \"#utility.yul\":3982:4348   */\n      swap2\n      swap1\n      pop\n      jump\t// out\n        /* \"#utility.yul\":4354:4773   */\n    tag_28:\n        /* \"#utility.yul\":4520:4524   */\n      0x00\n        /* \"#utility.yul\":4558:4560   */\n      0x20\n        /* \"#utility.yul\":4547:4556   */\n      dup3\n        /* \"#utility.yul\":4543:4561   */\n      add\n        /* \"#utility.yul\":4535:4561   */\n      swap1\n      pop\n        /* \"#utility.yul\":4607:4616   */\n      dup2\n        /* \"#utility.yul\":4601:4605   */\n      dup2\n        /* \"#utility.yul\":4597:4617   */\n      sub\n        /* \"#utility.yul\":4593:4594   */\n      0x00\n        /* \"#utility.yul\":4582:4591   */\n      dup4\n        /* \"#utility.yul\":4578:4595   */\n      add\n        /* \"#utility.yul\":4571:4618   */\n      mstore\n        /* \"#utility.yul\":4635:4766   */\n      tag_90\n        /* \"#utility.yul\":4761:4765   */\n      dup2\n        /* \"#utility.yul\":4635:4766   */\n      tag_48\n      jump\t// in\n    tag_90:\n        /* \"#utility.yul\":4627:4766   */\n      swap1\n      pop\n        /* \"#utility.yul\":4354:4773   */\n      swap2\n      swap1\n      pop\n      jump\t// out\n        /* \"#utility.yul\":4779:4959   */\n    tag_49:\n        /* \"#utility.yul\":4827:4904   */\n      0x4e487b7100000000000000000000000000000000000000000000000000000000\n        /* \"#utility.yul\":4824:4825   */\n      0x00\n        /* \"#utility.yul\":4817:4905   */\n      mstore\n        /* \"#utility.yul\":4924:4928   */\n      0x11\n        /* \"#utility.yul\":4921:4922   */\n      0x04\n        /* \"#utility.yul\":4914:4929   */\n      mstore\n        /* \"#utility.yul\":4948:4952   */\n      0x24\n        /* \"#utility.yul\":4945:4946   */\n      0x00\n        /* \"#utility.yul\":4938:4953   */\n      revert\n        /* \"#utility.yul\":4965:5156   */\n    tag_31:\n        /* \"#utility.yul\":5005:5008   */\n      0x00\n        /* \"#utility.yul\":5024:5044   */\n      tag_93\n        /* \"#utility.yul\":5042:5043   */\n      dup3\n        /* \"#utility.yul\":5024:5044   */\n      tag_39\n      jump\t// in\n    tag_93:\n        /* \"#utility.yul\":5019:5044   */\n      swap2\n      pop\n        /* \"#utility.yul\":5058:5078   */\n      tag_94\n        /* \"#utility.yul\":5076:5077   */\n      dup4\n        /* \"#utility.yul\":5058:5078   */\n      tag_39\n      jump\t// in\n    tag_94:\n        /* \"#utility.yul\":5053:5078   */\n      swap3\n      pop\n        /* \"#utility.yul\":5101:5102   */\n      dup3\n        /* \"#utility.yul\":5098:5099   */\n      dup3\n        /* \"#utility.yul\":5094:5103   */\n      add\n        /* \"#utility.yul\":5087:5103   */\n      swap1\n      pop\n        /* \"#utility.yul\":5122:5125   */\n      dup1\n        /* \"#utility.yul\":5119:5120   */\n      dup3\n        /* \"#utility.yul\":5116:5126   */\n      gt\n        /* \"#utility.yul\":5113:5149   */\n      iszero\n      tag_95\n      jumpi\n        /* \"#utility.yul\":5129:5147   */\n      tag_96\n      tag_49\n      jump\t// in\n    tag_96:\n        /* \"#utility.yul\":5113:5149   */\n    tag_95:\n        /* \"#utility.yul\":4965:5156   */\n      swap3\n      swap2\n      pop\n      pop\n      jump\t// out\n\n    auxdata: 0xa26469706673582212200d86ecef5dfb564d1e40d31bc3f38414c04925630ff590e49b3ded4555c20ca264736f6c634300081e0033\n}\n",
				"bytecode": {
					"linkReferences": {},
					"object": "6080604052348015600e575f5ffd5b506105128061001c5f395ff3fe608060405260043610610033575f3560e01c806327e235e3146100375780633ccfd60b14610073578063d0e30db014610089575b5f5ffd5b348015610042575f5ffd5b5061005d600480360381019061005891906102ff565b610093565b60405161006a9190610342565b60405180910390f35b34801561007e575f5ffd5b506100876100a7565b005b61009161024d565b005b5f602052805f5260405f205f915090505481565b5f5f5f3373ffffffffffffffffffffffffffffffffffffffff1673ffffffffffffffffffffffffffffffffffffffff1681526020019081526020015f205411610125576040517f08c379a000000000000000000000000000000000000000000000000000000000815260040161011c906103b5565b60405180910390fd5b5f3373ffffffffffffffffffffffffffffffffffffffff165f5f3373ffffffffffffffffffffffffffffffffffffffff1673ffffffffffffffffffffffffffffffffffffffff1681526020019081526020015f205460405161018690610400565b5f6040518083038185875af1925050503d805f81146101c0576040519150601f19603f3d011682016040523d82523d5f602084013e6101c5565b606091505b5050905080610209576040517f08c379a00000000000000000000000000000000000000000000000000000000081526004016102009061045e565b60405180910390fd5b5f5f5f3373ffffffffffffffffffffffffffffffffffffffff1673ffffffffffffffffffffffffffffffffffffffff1681526020019081526020015f208190555050565b345f5f3373ffffffffffffffffffffffffffffffffffffffff1673ffffffffffffffffffffffffffffffffffffffff1681526020019081526020015f205f82825461029891906104a9565b92505081905550565b5f5ffd5b5f73ffffffffffffffffffffffffffffffffffffffff82169050919050565b5f6102ce826102a5565b9050919050565b6102de816102c4565b81146102e8575f5ffd5b50565b5f813590506102f9816102d5565b92915050565b5f60208284031215610314576103136102a1565b5b5f610321848285016102eb565b91505092915050565b5f819050919050565b61033c8161032a565b82525050565b5f6020820190506103555f830184610333565b92915050565b5f82825260208201905092915050565b7f4e6f2062616c616e6365000000000000000000000000000000000000000000005f82015250565b5f61039f600a8361035b565b91506103aa8261036b565b602082019050919050565b5f6020820190508181035f8301526103cc81610393565b9050919050565b5f81905092915050565b50565b5f6103eb5f836103d3565b91506103f6826103dd565b5f82019050919050565b5f61040a826103e0565b9150819050919050565b7f5472616e73666572206661696c656400000000000000000000000000000000005f82015250565b5f610448600f8361035b565b915061045382610414565b602082019050919050565b5f6020820190508181035f8301526104758161043c565b9050919050565b7f4e487b71000000000000000000000000000000000000000000000000000000005f52601160045260245ffd5b5f6104b38261032a565b91506104be8361032a565b92508282019050808211156104d6576104d561047c565b5b9291505056fea26469706673582212200d86ecef5dfb564d1e40d31bc3f38414c04925630ff590e49b3ded4555c20ca264736f6c634300081e0033",
					"opcodes": "PUSH1 0x80 PUSH1 0x40 MSTORE CALLVALUE DUP1 ISZERO PUSH1 0xE JUMPI PUSH0 PUSH0 REVERT JUMPDEST POP PUSH2 0x512 DUP1 PUSH2 0x1C PUSH0 CODECOPY PUSH0 RETURN INVALID PUSH1 0x80 PUSH1 0x40 MSTORE PUSH1 0x4 CALLDATASIZE LT PUSH2 0x33 JUMPI PUSH0 CALLDATALOAD PUSH1 0xE0 SHR DUP1 PUSH4 0x27E235E3 EQ PUSH2 0x37 JUMPI DUP1 PUSH4 0x3CCFD60B EQ PUSH2 0x73 JUMPI DUP1 PUSH4 0xD0E30DB0 EQ PUSH2 0x89 JUMPI JUMPDEST PUSH0 PUSH0 REVERT JUMPDEST CALLVALUE DUP1 ISZERO PUSH2 0x42 JUMPI PUSH0 PUSH0 REVERT JUMPDEST POP PUSH2 0x5D PUSH1 0x4 DUP1 CALLDATASIZE SUB DUP2 ADD SWAP1 PUSH2 0x58 SWAP2 SWAP1 PUSH2 0x2FF JUMP JUMPDEST PUSH2 0x93 JUMP JUMPDEST PUSH1 0x40 MLOAD PUSH2 0x6A SWAP2 SWAP1 PUSH2 0x342 JUMP JUMPDEST PUSH1 0x40 MLOAD DUP1 SWAP2 SUB SWAP1 RETURN JUMPDEST CALLVALUE DUP1 ISZERO PUSH2 0x7E JUMPI PUSH0 PUSH0 REVERT JUMPDEST POP PUSH2 0x87 PUSH2 0xA7 JUMP JUMPDEST STOP JUMPDEST PUSH2 0x91 PUSH2 0x24D JUMP JUMPDEST STOP JUMPDEST PUSH0 PUSH1 0x20 MSTORE DUP1 PUSH0 MSTORE PUSH1 0x40 PUSH0 KECCAK256 PUSH0 SWAP2 POP SWAP1 POP SLOAD DUP2 JUMP JUMPDEST PUSH0 PUSH0 PUSH0 CALLER PUSH20 0xFFFFFFFFFFFFFFFFFFFFFFFFFFFFFFFFFFFFFFFF AND PUSH20 0xFFFFFFFFFFFFFFFFFFFFFFFFFFFFFFFFFFFFFFFF AND DUP2 MSTORE PUSH1 0x20 ADD SWAP1 DUP2 MSTORE PUSH1 0x20 ADD PUSH0 KECCAK256 SLOAD GT PUSH2 0x125 JUMPI PUSH1 0x40 MLOAD PUSH32 0x8C379A000000000000000000000000000000000000000000000000000000000 DUP2 MSTORE PUSH1 0x4 ADD PUSH2 0x11C SWAP1 PUSH2 0x3B5 JUMP JUMPDEST PUSH1 0x40 MLOAD DUP1 SWAP2 SUB SWAP1 REVERT JUMPDEST PUSH0 CALLER PUSH20 0xFFFFFFFFFFFFFFFFFFFFFFFFFFFFFFFFFFFFFFFF AND PUSH0 PUSH0 CALLER PUSH20 0xFFFFFFFFFFFFFFFFFFFFFFFFFFFFFFFFFFFFFFFF AND PUSH20 0xFFFFFFFFFFFFFFFFFFFFFFFFFFFFFFFFFFFFFFFF AND DUP2 MSTORE PUSH1 0x20 ADD SWAP1 DUP2 MSTORE PUSH1 0x20 ADD PUSH0 KECCAK256 SLOAD PUSH1 0x40 MLOAD PUSH2 0x186 SWAP1 PUSH2 0x400 JUMP JUMPDEST PUSH0 PUSH1 0x40 MLOAD DUP1 DUP4 SUB DUP2 DUP6 DUP8 GAS CALL SWAP3 POP POP POP RETURNDATASIZE DUP1 PUSH0 DUP2 EQ PUSH2 0x1C0 JUMPI PUSH1 0x40 MLOAD SWAP2 POP PUSH1 0x1F NOT PUSH1 0x3F RETURNDATASIZE ADD AND DUP3 ADD PUSH1 0x40 MSTORE RETURNDATASIZE DUP3 MSTORE RETURNDATASIZE PUSH0 PUSH1 0x20 DUP5 ADD RETURNDATACOPY PUSH2 0x1C5 JUMP JUMPDEST PUSH1 0x60 SWAP2 POP JUMPDEST POP POP SWAP1 POP DUP1 PUSH2 0x209 JUMPI PUSH1 0x40 MLOAD PUSH32 0x8C379A000000000000000000000000000000000000000000000000000000000 DUP2 MSTORE PUSH1 0x4 ADD PUSH2 0x200 SWAP1 PUSH2 0x45E JUMP JUMPDEST PUSH1 0x40 MLOAD DUP1 SWAP2 SUB SWAP1 REVERT JUMPDEST PUSH0 PUSH0 PUSH0 CALLER PUSH20 0xFFFFFFFFFFFFFFFFFFFFFFFFFFFFFFFFFFFFFFFF AND PUSH20 0xFFFFFFFFFFFFFFFFFFFFFFFFFFFFFFFFFFFFFFFF AND DUP2 MSTORE PUSH1 0x20 ADD SWAP1 DUP2 MSTORE PUSH1 0x20 ADD PUSH0 KECCAK256 DUP2 SWAP1 SSTORE POP POP JUMP JUMPDEST CALLVALUE PUSH0 PUSH0 CALLER PUSH20 0xFFFFFFFFFFFFFFFFFFFFFFFFFFFFFFFFFFFFFFFF AND PUSH20 0xFFFFFFFFFFFFFFFFFFFFFFFFFFFFFFFFFFFFFFFF AND DUP2 MSTORE PUSH1 0x20 ADD SWAP1 DUP2 MSTORE PUSH1 0x20 ADD PUSH0 KECCAK256 PUSH0 DUP3 DUP3 SLOAD PUSH2 0x298 SWAP2 SWAP1 PUSH2 0x4A9 JUMP JUMPDEST SWAP3 POP POP DUP2 SWAP1 SSTORE POP JUMP JUMPDEST PUSH0 PUSH0 REVERT JUMPDEST PUSH0 PUSH20 0xFFFFFFFFFFFFFFFFFFFFFFFFFFFFFFFFFFFFFFFF DUP3 AND SWAP1 POP SWAP2 SWAP1 POP JUMP JUMPDEST PUSH0 PUSH2 0x2CE DUP3 PUSH2 0x2A5 JUMP JUMPDEST SWAP1 POP SWAP2 SWAP1 POP JUMP JUMPDEST PUSH2 0x2DE DUP2 PUSH2 0x2C4 JUMP JUMPDEST DUP2 EQ PUSH2 0x2E8 JUMPI PUSH0 PUSH0 REVERT JUMPDEST POP JUMP JUMPDEST PUSH0 DUP2 CALLDATALOAD SWAP1 POP PUSH2 0x2F9 DUP2 PUSH2 0x2D5 JUMP JUMPDEST SWAP3 SWAP2 POP POP JUMP JUMPDEST PUSH0 PUSH1 0x20 DUP3 DUP5 SUB SLT ISZERO PUSH2 0x314 JUMPI PUSH2 0x313 PUSH2 0x2A1 JUMP JUMPDEST JUMPDEST PUSH0 PUSH2 0x321 DUP5 DUP3 DUP6 ADD PUSH2 0x2EB JUMP JUMPDEST SWAP2 POP POP SWAP3 SWAP2 POP POP JUMP JUMPDEST PUSH0 DUP2 SWAP1 POP SWAP2 SWAP1 POP JUMP JUMPDEST PUSH2 0x33C DUP2 PUSH2 0x32A JUMP JUMPDEST DUP3 MSTORE POP POP JUMP JUMPDEST PUSH0 PUSH1 0x20 DUP3 ADD SWAP1 POP PUSH2 0x355 PUSH0 DUP4 ADD DUP5 PUSH2 0x333 JUMP JUMPDEST SWAP3 SWAP2 POP POP JUMP JUMPDEST PUSH0 DUP3 DUP3 MSTORE PUSH1 0x20 DUP3 ADD SWAP1 POP SWAP3 SWAP2 POP POP JUMP JUMPDEST PUSH32 0x4E6F2062616C616E636500000000000000000000000000000000000000000000 PUSH0 DUP3 ADD MSTORE POP JUMP JUMPDEST PUSH0 PUSH2 0x39F PUSH1 0xA DUP4 PUSH2 0x35B JUMP JUMPDEST SWAP2 POP PUSH2 0x3AA DUP3 PUSH2 0x36B JUMP JUMPDEST PUSH1 0x20 DUP3 ADD SWAP1 POP SWAP2 SWAP1 POP JUMP JUMPDEST PUSH0 PUSH1 0x20 DUP3 ADD SWAP1 POP DUP2 DUP2 SUB PUSH0 DUP4 ADD MSTORE PUSH2 0x3CC DUP2 PUSH2 0x393 JUMP JUMPDEST SWAP1 POP SWAP2 SWAP1 POP JUMP JUMPDEST PUSH0 DUP2 SWAP1 POP SWAP3 SWAP2 POP POP JUMP JUMPDEST POP JUMP JUMPDEST PUSH0 PUSH2 0x3EB PUSH0 DUP4 PUSH2 0x3D3 JUMP JUMPDEST SWAP2 POP PUSH2 0x3F6 DUP3 PUSH2 0x3DD JUMP JUMPDEST PUSH0 DUP3 ADD SWAP1 POP SWAP2 SWAP1 POP JUMP JUMPDEST PUSH0 PUSH2 0x40A DUP3 PUSH2 0x3E0 JUMP JUMPDEST SWAP2 POP DUP2 SWAP1 POP SWAP2 SWAP1 POP JUMP JUMPDEST PUSH32 0x5472616E73666572206661696C65640000000000000000000000000000000000 PUSH0 DUP3 ADD MSTORE POP JUMP JUMPDEST PUSH0 PUSH2 0x448 PUSH1 0xF DUP4 PUSH2 0x35B JUMP JUMPDEST SWAP2 POP PUSH2 0x453 DUP3 PUSH2 0x414 JUMP JUMPDEST PUSH1 0x20 DUP3 ADD SWAP1 POP SWAP2 SWAP1 POP JUMP JUMPDEST PUSH0 PUSH1 0x20 DUP3 ADD SWAP1 POP DUP2 DUP2 SUB PUSH0 DUP4 ADD MSTORE PUSH2 0x475 DUP2 PUSH2 0x43C JUMP JUMPDEST SWAP1 POP SWAP2 SWAP1 POP JUMP JUMPDEST PUSH32 0x4E487B7100000000000000000000000000000000000000000000000000000000 PUSH0 MSTORE PUSH1 0x11 PUSH1 0x4 MSTORE PUSH1 0x24 PUSH0 REVERT JUMPDEST PUSH0 PUSH2 0x4B3 DUP3 PUSH2 0x32A JUMP JUMPDEST SWAP2 POP PUSH2 0x4BE DUP4 PUSH2 0x32A JUMP JUMPDEST SWAP3 POP DUP3 DUP3 ADD SWAP1 POP DUP1 DUP3 GT ISZERO PUSH2 0x4D6 JUMPI PUSH2 0x4D5 PUSH2 0x47C JUMP JUMPDEST JUMPDEST SWAP3 SWAP2 POP POP JUMP INVALID LOG2 PUSH5 0x6970667358 0x22 SLT KECCAK256 0xD DUP7 EOFCREATE 0xEF TSTORE EXTSTATICCALL JUMP 0x4D 0x1E BLOCKHASH 0xD3 SHL 0xC3 RETURN DUP5 EQ 0xC0 BLOBHASH 0x25 PUSH4 0xFF590E4 SWAP12 RETURNDATASIZE 0xED GASLIMIT SSTORE 0xC2 0xC LOG2 PUSH5 0x736F6C6343 STOP ADDMOD 0x1E STOP CALLER "
				},
				"gasEstimates": {
					"creation": {
						"codeDepositCost": "259600",
						"executionCost": "298",
						"totalCost": "259898"
					},
					"external": {
						"balances(address)": "2779",
						"deposit()": "infinite",
						"withdraw()": "infinite"
					}
				},
				"methodIdentifiers": {
					"balances(address)": "27e235e3",
					"deposit()": "d0e30db0",
					"withdraw()": "3ccfd60b"
				}
			},
			"storageLayout": {
				"storage": [
					{
						"astId": 5,
						"contract": "practise/VulnerableVault.sol:VulnerableVault",
						"label": "balances",
						"offset": 0,
						"slot": "0",
						"type": "t_mapping(t_address,t_uint256)"
					}
				],
				"types": {
					"t_address": {
						"encoding": "inplace",
						"label": "address",
						"numberOfBytes": "20"
					},
					"t_mapping(t_address,t_uint256)": {
						"encoding": "mapping",
						"key": "t_address",
						"label": "mapping(address => uint256)",
						"numberOfBytes": "32",
						"value": "t_uint256"
					},
					"t_uint256": {
						"encoding": "inplace",
						"label": "uint256",
						"numberOfBytes": "32"
					}
				}
			},
			"userdoc": {
				"kind": "user",
				"methods": {},
				"version": 1
			}
		}
	}
}