{
	"practise/MappingContract.sol": {
		"MappingContract": {
			"abi": [
				{
					"inputs": [
						{
							"internalType": "address",
							"name": "",
							"type": "address"
						}
					],
					"name": "balances",
					"outputs": [
						{
							"internalType": "uint256",
							"name": "",
							"type": "uint256"
						}
					],
					"stateMutability": "view",
					"type": "function"
				},
				{
					"inputs": [
						{
							"internalType": "address",
							"name": "addr",
							"type": "address"
						},
						{
							"internalType": "string",
							"name": "currency",
							"type": "string"
						}
					],
					"name": "deleteUserBalance",
					"outputs": [],
					"stateMutability": "nonpayable",
					"type": "function"
				},
				{
					"inputs": [
						{
							"internalType": "address",
							"name": "user",
							"type": "address"
						}
					],
					"name": "getBalance",
					"outputs": [
						{
							"internalType": "uint256",
							"name": "",
							"type": "uint256"
						}
					],
					"stateMutability": "view",
					"type": "function"
				},
				{
					"inputs": [
						{
							"internalType": "address",
							"name": "user",
							"type": "address"
						},
						{
							"internalType": "string",
							"name": "currency",
							"type": "string"
						}
					],
					"name": "getUserBalance",
					"outputs": [
						{
							"internalType": "uint256",
							"name": "",
							"type": "uint256"
						}
					],
					"stateMutability": "view",
					"type": "function"
				},
				{
					"inputs": [
						{
							"internalType": "address",
							"name": "account",
							"type": "address"
						}
					],
					"name": "map",
					"outputs": [
						{
							"internalType": "uint256",
							"name": "amount",
							"type": "uint256"
						}
					],
					"stateMutability": "view",
					"type": "function"
				},
				{
					"inputs": [
						{
							"internalType": "uint256",
							"name": "amount",
							"type": "uint256"
						}
					],
					"name": "setBalance",
					"outputs": [],
					"stateMutability": "nonpayable",
					"type": "function"
				},
				{
					"inputs": [
						{
							"internalType": "address",
							"name": "key",
							"type": "address"
						},
						{
							"internalType": "uint256",
							"name": "value",
							"type": "uint256"
						}
					],
					"name": "setMap",
					"outputs": [],
					"stateMutability": "nonpayable",
					"type": "function"
				},
				{
					"inputs": [
						{
							"internalType": "string",
							"name": "currency",
							"type": "string"
						},
						{
							"internalType": "uint256",
							"name": "amount",
							"type": "uint256"
						}
					],
					"name": "setUserBalance",
					"outputs": [],
					"stateMutability": "nonpayable",
					"type": "function"
				},
				{
					"inputs": [
						{
							"internalType": "address",
							"name": "",
							"type": "address"
						},
						{
							"internalType": "string",
							"name": "",
							"type": "string"
						}
					],
					"name": "userBalances",
					"outputs": [
						{
							"internalType": "uint256",
							"name": "",
							"type": "uint256"
						}
					],
					"stateMutability": "view",
					"type": "function"
				}
			],
			"devdoc": {
				"kind": "dev",
				"methods": {},
				"version": 1
			},
			"evm": {
				"assembly": "    /* \"practise/MappingContract.sol\":60:1052  contract MappingContract{... */\n  mstore(0x40, 0x80)\n  callvalue\n  dup1\n  iszero\n  tag_1\n  jumpi\n  revert(0x00, 0x00)\ntag_1:\n  pop\n  dataSize(sub_0)\n  dup1\n  dataOffset(sub_0)\n  0x00\n  codecopy\n  0x00\n  return\nstop\n\nsub_0: assembly {\n        /* \"practise/MappingContract.sol\":60:1052  contract MappingContract{... */\n      mstore(0x40, 0x80)\n      callvalue\n      dup1\n      iszero\n      tag_1\n      jumpi\n      revert(0x00, 0x00)\n    tag_1:\n      pop\n      jumpi(tag_2, lt(calldatasize, 0x04))\n      shr(0xe0, calldataload(0x00))\n      dup1\n      0xb721ef6e\n      gt\n      tag_12\n      jumpi\n      dup1\n      0xb721ef6e\n      eq\n      tag_7\n      jumpi\n      dup1\n      0xd59d65c1\n      eq\n      tag_8\n      jumpi\n      dup1\n      0xe8827cec\n      eq\n      tag_9\n      jumpi\n      dup1\n      0xf8b2cb4f\n      eq\n      tag_10\n      jumpi\n      dup1\n      0xfb1669ca\n      eq\n      tag_11\n      jumpi\n      jump(tag_2)\n    tag_12:\n      dup1\n      0x09e89648\n      eq\n      tag_3\n      jumpi\n      dup1\n      0x12bd4d74\n      eq\n      tag_4\n      jumpi\n      dup1\n      0x27e235e3\n      eq\n      tag_5\n      jumpi\n      dup1\n      0xaf9ef29f\n      eq\n      tag_6\n      jumpi\n    tag_2:\n      revert(0x00, 0x00)\n        /* \"practise/MappingContract.sol\":629:762  function setUserBalance(string memory currency, uint256 amount) public {... */\n    tag_3:\n      tag_13\n      0x04\n      dup1\n      calldatasize\n      sub\n      dup2\n      add\n      swap1\n      tag_14\n      swap2\n      swap1\n      tag_15\n      jump\t// in\n    tag_14:\n      tag_16\n      jump\t// in\n    tag_13:\n      stop\n        /* \"practise/MappingContract.sol\":556:622  mapping(address => mapping(string => uint256)) public userBalances */\n    tag_4:\n      tag_17\n      0x04\n      dup1\n      calldatasize\n      sub\n      dup2\n      add\n      swap1\n      tag_18\n      swap2\n      swap1\n      tag_19\n      jump\t// in\n    tag_18:\n      tag_20\n      jump\t// in\n    tag_17:\n      mload(0x40)\n      tag_21\n      swap2\n      swap1\n      tag_22\n      jump\t// in\n    tag_21:\n      mload(0x40)\n      dup1\n      swap2\n      sub\n      swap1\n      return\n        /* \"practise/MappingContract.sol\":161:204  mapping(address => uint256) public balances */\n    tag_5:\n      tag_23\n      0x04\n      dup1\n      calldatasize\n      sub\n      dup2\n      add\n      swap1\n      tag_24\n      swap2\n      swap1\n      tag_25\n      jump\t// in\n    tag_24:\n      tag_26\n      jump\t// in\n    tag_23:\n      mload(0x40)\n      tag_27\n      swap2\n      swap1\n      tag_22\n      jump\t// in\n    tag_27:\n      mload(0x40)\n      dup1\n      swap2\n      sub\n      swap1\n      return\n        /* \"practise/MappingContract.sol\":420:548  function setMap(address key, uint256 value) public {... */\n    tag_6:\n      tag_28\n      0x04\n      dup1\n      calldatasize\n      sub\n      dup2\n      add\n      swap1\n      tag_29\n      swap2\n      swap1\n      tag_30\n      jump\t// in\n    tag_29:\n      tag_31\n      jump\t// in\n    tag_28:\n      stop\n        /* \"practise/MappingContract.sol\":97:150  mapping(address account => uint256 amount) public map */\n    tag_7:\n      tag_32\n      0x04\n      dup1\n      calldatasize\n      sub\n      dup2\n      add\n      swap1\n      tag_33\n      swap2\n      swap1\n      tag_25\n      jump\t// in\n    tag_33:\n      tag_34\n      jump\t// in\n    tag_32:\n      mload(0x40)\n      tag_35\n      swap2\n      swap1\n      tag_22\n      jump\t// in\n    tag_35:\n      mload(0x40)\n      dup1\n      swap2\n      sub\n      swap1\n      return\n        /* \"practise/MappingContract.sol\":922:1047  function deleteUserBalance(address addr,string memory currency) public {... */\n    tag_8:\n      tag_36\n      0x04\n      dup1\n      calldatasize\n      sub\n      dup2\n      add\n      swap1\n      tag_37\n      swap2\n      swap1\n      tag_19\n      jump\t// in\n    tag_37:\n      tag_38\n      jump\t// in\n    tag_36:\n      stop\n        /* \"practise/MappingContract.sol\":768:914  function getUserBalance(address user, string memory currency) public view returns (uint256) {... */\n    tag_9:\n      tag_39\n      0x04\n      dup1\n      calldatasize\n      sub\n      dup2\n      add\n      swap1\n      tag_40\n      swap2\n      swap1\n      tag_19\n      jump\t// in\n    tag_40:\n      tag_41\n      jump\t// in\n    tag_39:\n      mload(0x40)\n      tag_42\n      swap2\n      swap1\n      tag_22\n      jump\t// in\n    tag_42:\n      mload(0x40)\n      dup1\n      swap2\n      sub\n      swap1\n      return\n        /* \"practise/MappingContract.sol\":308:412  function getBalance(address user) public view returns (uint256) {... */\n    tag_10:\n      tag_43\n      0x04\n      dup1\n      calldatasize\n      sub\n      dup2\n      add\n      swap1\n      tag_44\n      swap2\n      swap1\n      tag_25\n      jump\t// in\n    tag_44:\n      tag_45\n      jump\t// in\n    tag_43:\n      mload(0x40)\n      tag_46\n      swap2\n      swap1\n      tag_22\n      jump\t// in\n    tag_46:\n      mload(0x40)\n      dup1\n      swap2\n      sub\n      swap1\n      return\n        /* \"practise/MappingContract.sol\":211:302  function setBalance(uint256 amount) public {... */\n    tag_11:\n      tag_47\n      0x04\n      dup1\n      calldatasize\n      sub\n      dup2\n      add\n      swap1\n      tag_48\n      swap2\n      swap1\n      tag_49\n      jump\t// in\n    tag_48:\n      tag_50\n      jump\t// in\n    tag_47:\n      stop\n        /* \"practise/MappingContract.sol\":629:762  function setUserBalance(string memory currency, uint256 amount) public {... */\n    tag_16:\n        /* \"practise/MappingContract.sol\":748:754  amount */\n      dup1\n        /* \"practise/MappingContract.sol\":711:723  userBalances */\n      0x02\n        /* \"practise/MappingContract.sol\":711:735  userBalances[msg.sender] */\n      0x00\n        /* \"practise/MappingContract.sol\":724:734  msg.sender */\n      caller\n        /* \"practise/MappingContract.sol\":711:735  userBalances[msg.sender] */\n      0xffffffffffffffffffffffffffffffffffffffff\n      and\n      0xffffffffffffffffffffffffffffffffffffffff\n      and\n      dup2\n      mstore\n      0x20\n      add\n      swap1\n      dup2\n      mstore\n      0x20\n      add\n      0x00\n      keccak256\n        /* \"practise/MappingContract.sol\":736:744  currency */\n      dup4\n        /* \"practise/MappingContract.sol\":711:745  userBalances[msg.sender][currency] */\n      mload(0x40)\n      tag_52\n      swap2\n      swap1\n      tag_53\n      jump\t// in\n    tag_52:\n      swap1\n      dup2\n      mstore\n      0x20\n      add\n      mload(0x40)\n      dup1\n      swap2\n      sub\n      swap1\n      keccak256\n        /* \"practise/MappingContract.sol\":711:754  userBalances[msg.sender][currency] = amount */\n      dup2\n      swap1\n      sstore\n      pop\n        /* \"practise/MappingContract.sol\":629:762  function setUserBalance(string memory currency, uint256 amount) public {... */\n      pop\n      pop\n      jump\t// out\n        /* \"practise/MappingContract.sol\":556:622  mapping(address => mapping(string => uint256)) public userBalances */\n    tag_20:\n      mstore(0x20, 0x02)\n      dup2\n      0x00\n      mstore\n      keccak256(0x00, 0x40)\n      dup2\n      dup1\n      mload\n      0x20\n      dup2\n      add\n      dup3\n      add\n      dup1\n      mload\n      dup5\n      dup3\n      mstore\n      0x20\n      dup4\n      add\n      0x20\n      dup6\n      add\n      keccak256\n      dup2\n      dup4\n      mstore\n      dup1\n      swap6\n      pop\n      pop\n      pop\n      pop\n      pop\n      pop\n      0x00\n      swap2\n      pop\n      swap2\n      pop\n      pop\n      sload\n      dup2\n      jump\t// out\n        /* \"practise/MappingContract.sol\":161:204  mapping(address => uint256) public balances */\n    tag_26:\n      mstore(0x20, 0x01)\n      dup1\n      0x00\n      mstore\n      keccak256(0x00, 0x40)\n      0x00\n      swap2\n      pop\n      swap1\n      pop\n      sload\n      dup2\n      jump\t// out\n        /* \"practise/MappingContract.sol\":420:548  function setMap(address key, uint256 value) public {... */\n    tag_31:\n        /* \"practise/MappingContract.sol\":499:504  value */\n      dup1\n        /* \"practise/MappingContract.sol\":488:491  map */\n      0x00\n        /* \"practise/MappingContract.sol\":488:496  map[key] */\n      0x00\n        /* \"practise/MappingContract.sol\":492:495  key */\n      dup5\n        /* \"practise/MappingContract.sol\":488:496  map[key] */\n      0xffffffffffffffffffffffffffffffffffffffff\n      and\n      0xffffffffffffffffffffffffffffffffffffffff\n      and\n      dup2\n      mstore\n      0x20\n      add\n      swap1\n      dup2\n      mstore\n      0x20\n      add\n      0x00\n      keccak256\n        /* \"practise/MappingContract.sol\":488:504  map[key] = value */\n      dup2\n      swap1\n      sstore\n      pop\n        /* \"practise/MappingContract.sol\":420:548  function setMap(address key, uint256 value) public {... */\n      pop\n      pop\n      jump\t// out\n        /* \"practise/MappingContract.sol\":97:150  mapping(address account => uint256 amount) public map */\n    tag_34:\n      mstore(0x20, 0x00)\n      dup1\n      0x00\n      mstore\n      keccak256(0x00, 0x40)\n      0x00\n      swap2\n      pop\n      swap1\n      pop\n      sload\n      dup2\n      jump\t// out\n        /* \"practise/MappingContract.sol\":922:1047  function deleteUserBalance(address addr,string memory currency) public {... */\n    tag_38:\n        /* \"practise/MappingContract.sol\":1011:1023  userBalances */\n      0x02\n        /* \"practise/MappingContract.sol\":1011:1029  userBalances[addr] */\n      0x00\n        /* \"practise/MappingContract.sol\":1024:1028  addr */\n      dup4\n        /* \"practise/MappingContract.sol\":1011:1029  userBalances[addr] */\n      0xffffffffffffffffffffffffffffffffffffffff\n      and\n      0xffffffffffffffffffffffffffffffffffffffff\n      and\n      dup2\n      mstore\n      0x20\n      add\n      swap1\n      dup2\n      mstore\n      0x20\n      add\n      0x00\n      keccak256\n        /* \"practise/MappingContract.sol\":1030:1038  currency */\n      dup2\n        /* \"practise/MappingContract.sol\":1011:1039  userBalances[addr][currency] */\n      mload(0x40)\n      tag_56\n      swap2\n      swap1\n      tag_53\n      jump\t// in\n    tag_56:\n      swap1\n      dup2\n      mstore\n      0x20\n      add\n      mload(0x40)\n      dup1\n      swap2\n      sub\n      swap1\n      keccak256\n        /* \"practise/MappingContract.sol\":1004:1039  delete userBalances[addr][currency] */\n      0x00\n      swap1\n      sstore\n        /* \"practise/MappingContract.sol\":922:1047  function deleteUserBalance(address addr,string memory currency) public {... */\n      pop\n      pop\n      jump\t// out\n        /* \"practise/MappingContract.sol\":768:914  function getUserBalance(address user, string memory currency) public view returns (uint256) {... */\n    tag_41:\n        /* \"practise/MappingContract.sol\":851:858  uint256 */\n      0x00\n        /* \"practise/MappingContract.sol\":878:890  userBalances */\n      0x02\n        /* \"practise/MappingContract.sol\":878:896  userBalances[user] */\n      0x00\n        /* \"practise/MappingContract.sol\":891:895  user */\n      dup5\n        /* \"practise/MappingContract.sol\":878:896  userBalances[user] */\n      0xffffffffffffffffffffffffffffffffffffffff\n      and\n      0xffffffffffffffffffffffffffffffffffffffff\n      and\n      dup2\n      mstore\n      0x20\n      add\n      swap1\n      dup2\n      mstore\n      0x20\n      add\n      0x00\n      keccak256\n        /* \"practise/MappingContract.sol\":897:905  currency */\n      dup3\n        /* \"practise/MappingContract.sol\":878:906  userBalances[user][currency] */\n      mload(0x40)\n      tag_58\n      swap2\n      swap1\n      tag_53\n      jump\t// in\n    tag_58:\n      swap1\n      dup2\n      mstore\n      0x20\n      add\n      mload(0x40)\n      dup1\n      swap2\n      sub\n      swap1\n      keccak256\n      sload\n        /* \"practise/MappingContract.sol\":871:906  return userBalances[user][currency] */\n      swap1\n      pop\n        /* \"practise/MappingContract.sol\":768:914  function getUserBalance(address user, string memory currency) public view returns (uint256) {... */\n      swap3\n      swap2\n      pop\n      pop\n      jump\t// out\n        /* \"practise/MappingContract.sol\":308:412  function getBalance(address user) public view returns (uint256) {... */\n    tag_45:\n        /* \"practise/MappingContract.sol\":363:370  uint256 */\n      0x00\n        /* \"practise/MappingContract.sol\":390:398  balances */\n      0x01\n        /* \"practise/MappingContract.sol\":390:404  balances[user] */\n      0x00\n        /* \"practise/MappingContract.sol\":399:403  user */\n      dup4\n        /* \"practise/MappingContract.sol\":390:404  balances[user] */\n      0xffffffffffffffffffffffffffffffffffffffff\n      and\n      0xffffffffffffffffffffffffffffffffffffffff\n      and\n      dup2\n      mstore\n      0x20\n      add\n      swap1\n      dup2\n      mstore\n      0x20\n      add\n      0x00\n      keccak256\n      sload\n        /* \"practise/MappingContract.sol\":383:404  return balances[user] */\n      swap1\n      pop\n        /* \"practise/MappingContract.sol\":308:412  function getBalance(address user) public view returns (uint256) {... */\n      swap2\n      swap1\n      pop\n      jump\t// out\n        /* \"practise/MappingContract.sol\":211:302  function setBalance(uint256 amount) public {... */\n    tag_50:\n        /* \"practise/MappingContract.sol\":288:294  amount */\n      dup1\n        /* \"practise/MappingContract.sol\":265:273  balances */\n      0x01\n        /* \"practise/MappingContract.sol\":265:285  balances[msg.sender] */\n      0x00\n        /* \"practise/MappingContract.sol\":274:284  msg.sender */\n      caller\n        /* \"practise/MappingContract.sol\":265:285  balances[msg.sender] */\n      0xffffffffffffffffffffffffffffffffffffffff\n      and\n      0xffffffffffffffffffffffffffffffffffffffff\n      and\n      dup2\n      mstore\n      0x20\n      add\n      swap1\n      dup2\n      mstore\n      0x20\n      add\n      0x00\n      keccak256\n        /* \"practise/MappingContract.sol\":265:294  balances[msg.sender] = amount */\n      dup2\n      swap1\n      sstore\n      pop\n        /* \"practise/MappingContract.sol\":211:302  function setBalance(uint256 amount) public {... */\n      pop\n      jump\t// out\n        /* \"#utility.yul\":7:82   */\n    tag_61:\n        /* \"#utility.yul\":40:46   */\n      0x00\n        /* \"#utility.yul\":73:75   */\n      0x40\n        /* \"#utility.yul\":67:76   */\n      mload\n        /* \"#utility.yul\":57:76   */\n      swap1\n      pop\n        /* \"#utility.yul\":7:82   */\n      swap1\n      jump\t// out\n        /* \"#utility.yul\":88:205   */\n    tag_62:\n        /* \"#utility.yul\":197:198   */\n      0x00\n        /* \"#utility.yul\":194:195   */\n      0x00\n        /* \"#utility.yul\":187:199   */\n      revert\n        /* \"#utility.yul\":211:328   */\n    tag_63:\n        /* \"#utility.yul\":320:321   */\n      0x00\n        /* \"#utility.yul\":317:318   */\n      0x00\n        /* \"#utility.yul\":310:322   */\n      revert\n        /* \"#utility.yul\":334:451   */\n    tag_64:\n        /* \"#utility.yul\":443:444   */\n      0x00\n        /* \"#utility.yul\":440:441   */\n      0x00\n        /* \"#utility.yul\":433:445   */\n      revert\n        /* \"#utility.yul\":457:574   */\n    tag_65:\n        /* \"#utility.yul\":566:567   */\n      0x00\n        /* \"#utility.yul\":563:564   */\n      0x00\n        /* \"#utility.yul\":556:568   */\n      revert\n        /* \"#utility.yul\":580:682   */\n    tag_66:\n        /* \"#utility.yul\":621:627   */\n      0x00\n        /* \"#utility.yul\":672:674   */\n      0x1f\n        /* \"#utility.yul\":668:675   */\n      not\n        /* \"#utility.yul\":663:665   */\n      0x1f\n        /* \"#utility.yul\":656:661   */\n      dup4\n        /* \"#utility.yul\":652:666   */\n      add\n        /* \"#utility.yul\":648:676   */\n      and\n        /* \"#utility.yul\":638:676   */\n      swap1\n      pop\n        /* \"#utility.yul\":580:682   */\n      swap2\n      swap1\n      pop\n      jump\t// out\n        /* \"#utility.yul\":688:868   */\n    tag_67:\n        /* \"#utility.yul\":736:813   */\n      0x4e487b7100000000000000000000000000000000000000000000000000000000\n        /* \"#utility.yul\":733:734   */\n      0x00\n        /* \"#utility.yul\":726:814   */\n      mstore\n        /* \"#utility.yul\":833:837   */\n      0x41\n        /* \"#utility.yul\":830:831   */\n      0x04\n        /* \"#utility.yul\":823:838   */\n      mstore\n        /* \"#utility.yul\":857:861   */\n      0x24\n        /* \"#utility.yul\":854:855   */\n      0x00\n        /* \"#utility.yul\":847:862   */\n      revert\n        /* \"#utility.yul\":874:1155   */\n    tag_68:\n        /* \"#utility.yul\":957:984   */\n      tag_95\n        /* \"#utility.yul\":979:983   */\n      dup3\n        /* \"#utility.yul\":957:984   */\n      tag_66\n      jump\t// in\n    tag_95:\n        /* \"#utility.yul\":949:955   */\n      dup2\n        /* \"#utility.yul\":945:985   */\n      add\n        /* \"#utility.yul\":1087:1093   */\n      dup2\n        /* \"#utility.yul\":1075:1085   */\n      dup2\n        /* \"#utility.yul\":1072:1094   */\n      lt\n        /* \"#utility.yul\":1051:1069   */\n      0xffffffffffffffff\n        /* \"#utility.yul\":1039:1049   */\n      dup3\n        /* \"#utility.yul\":1036:1070   */\n      gt\n        /* \"#utility.yul\":1033:1095   */\n      or\n        /* \"#utility.yul\":1030:1118   */\n      iszero\n      tag_96\n      jumpi\n        /* \"#utility.yul\":1098:1116   */\n      tag_97\n      tag_67\n      jump\t// in\n    tag_97:\n        /* \"#utility.yul\":1030:1118   */\n    tag_96:\n        /* \"#utility.yul\":1138:1148   */\n      dup1\n        /* \"#utility.yul\":1134:1136   */\n      0x40\n        /* \"#utility.yul\":1127:1149   */\n      mstore\n        /* \"#utility.yul\":917:1155   */\n      pop\n        /* \"#utility.yul\":874:1155   */\n      pop\n      pop\n      jump\t// out\n        /* \"#utility.yul\":1161:1290   */\n    tag_69:\n        /* \"#utility.yul\":1195:1201   */\n      0x00\n        /* \"#utility.yul\":1222:1242   */\n      tag_99\n      tag_61\n      jump\t// in\n    tag_99:\n        /* \"#utility.yul\":1212:1242   */\n      swap1\n      pop\n        /* \"#utility.yul\":1251:1284   */\n      tag_100\n        /* \"#utility.yul\":1279:1283   */\n      dup3\n        /* \"#utility.yul\":1271:1277   */\n      dup3\n        /* \"#utility.yul\":1251:1284   */\n      tag_68\n      jump\t// in\n    tag_100:\n        /* \"#utility.yul\":1161:1290   */\n      swap2\n      swap1\n      pop\n      jump\t// out\n        /* \"#utility.yul\":1296:1604   */\n    tag_70:\n        /* \"#utility.yul\":1358:1362   */\n      0x00\n        /* \"#utility.yul\":1448:1466   */\n      0xffffffffffffffff\n        /* \"#utility.yul\":1440:1446   */\n      dup3\n        /* \"#utility.yul\":1437:1467   */\n      gt\n        /* \"#utility.yul\":1434:1490   */\n      iszero\n      tag_102\n      jumpi\n        /* \"#utility.yul\":1470:1488   */\n      tag_103\n      tag_67\n      jump\t// in\n    tag_103:\n        /* \"#utility.yul\":1434:1490   */\n    tag_102:\n        /* \"#utility.yul\":1508:1537   */\n      tag_104\n        /* \"#utility.yul\":1530:1536   */\n      dup3\n        /* \"#utility.yul\":1508:1537   */\n      tag_66\n      jump\t// in\n    tag_104:\n        /* \"#utility.yul\":1500:1537   */\n      swap1\n      pop\n        /* \"#utility.yul\":1592:1596   */\n      0x20\n        /* \"#utility.yul\":1586:1590   */\n      dup2\n        /* \"#utility.yul\":1582:1597   */\n      add\n        /* \"#utility.yul\":1574:1597   */\n      swap1\n      pop\n        /* \"#utility.yul\":1296:1604   */\n      swap2\n      swap1\n      pop\n      jump\t// out\n        /* \"#utility.yul\":1610:1758   */\n    tag_71:\n        /* \"#utility.yul\":1708:1714   */\n      dup3\n        /* \"#utility.yul\":1703:1706   */\n      dup2\n        /* \"#utility.yul\":1698:1701   */\n      dup4\n        /* \"#utility.yul\":1685:1715   */\n      calldatacopy\n        /* \"#utility.yul\":1749:1750   */\n      0x00\n        /* \"#utility.yul\":1740:1746   */\n      dup4\n        /* \"#utility.yul\":1735:1738   */\n      dup4\n        /* \"#utility.yul\":1731:1747   */\n      add\n        /* \"#utility.yul\":1724:1751   */\n      mstore\n        /* \"#utility.yul\":1610:1758   */\n      pop\n      pop\n      pop\n      jump\t// out\n        /* \"#utility.yul\":1764:2189   */\n    tag_72:\n        /* \"#utility.yul\":1842:1847   */\n      0x00\n        /* \"#utility.yul\":1867:1933   */\n      tag_107\n        /* \"#utility.yul\":1883:1932   */\n      tag_108\n        /* \"#utility.yul\":1925:1931   */\n      dup5\n        /* \"#utility.yul\":1883:1932   */\n      tag_70\n      jump\t// in\n    tag_108:\n        /* \"#utility.yul\":1867:1933   */\n      tag_69\n      jump\t// in\n    tag_107:\n        /* \"#utility.yul\":1858:1933   */\n      swap1\n      pop\n        /* \"#utility.yul\":1956:1962   */\n      dup3\n        /* \"#utility.yul\":1949:1954   */\n      dup2\n        /* \"#utility.yul\":1942:1963   */\n      mstore\n        /* \"#utility.yul\":1994:1998   */\n      0x20\n        /* \"#utility.yul\":1987:1992   */\n      dup2\n        /* \"#utility.yul\":1983:1999   */\n      add\n        /* \"#utility.yul\":2032:2035   */\n      dup5\n        /* \"#utility.yul\":2023:2029   */\n      dup5\n        /* \"#utility.yul\":2018:2021   */\n      dup5\n        /* \"#utility.yul\":2014:2030   */\n      add\n        /* \"#utility.yul\":2011:2036   */\n      gt\n        /* \"#utility.yul\":2008:2120   */\n      iszero\n      tag_109\n      jumpi\n        /* \"#utility.yul\":2039:2118   */\n      tag_110\n      tag_65\n      jump\t// in\n    tag_110:\n        /* \"#utility.yul\":2008:2120   */\n    tag_109:\n        /* \"#utility.yul\":2129:2183   */\n      tag_111\n        /* \"#utility.yul\":2176:2182   */\n      dup5\n        /* \"#utility.yul\":2171:2174   */\n      dup3\n        /* \"#utility.yul\":2166:2169   */\n      dup6\n        /* \"#utility.yul\":2129:2183   */\n      tag_71\n      jump\t// in\n    tag_111:\n        /* \"#utility.yul\":1848:2189   */\n      pop\n        /* \"#utility.yul\":1764:2189   */\n      swap4\n      swap3\n      pop\n      pop\n      pop\n      jump\t// out\n        /* \"#utility.yul\":2209:2549   */\n    tag_73:\n        /* \"#utility.yul\":2265:2270   */\n      0x00\n        /* \"#utility.yul\":2314:2317   */\n      dup3\n        /* \"#utility.yul\":2307:2311   */\n      0x1f\n        /* \"#utility.yul\":2299:2305   */\n      dup4\n        /* \"#utility.yul\":2295:2312   */\n      add\n        /* \"#utility.yul\":2291:2318   */\n      slt\n        /* \"#utility.yul\":2281:2403   */\n      tag_113\n      jumpi\n        /* \"#utility.yul\":2322:2401   */\n      tag_114\n      tag_64\n      jump\t// in\n    tag_114:\n        /* \"#utility.yul\":2281:2403   */\n    tag_113:\n        /* \"#utility.yul\":2439:2445   */\n      dup2\n        /* \"#utility.yul\":2426:2446   */\n      calldataload\n        /* \"#utility.yul\":2464:2543   */\n      tag_115\n        /* \"#utility.yul\":2539:2542   */\n      dup5\n        /* \"#utility.yul\":2531:2537   */\n      dup3\n        /* \"#utility.yul\":2524:2528   */\n      0x20\n        /* \"#utility.yul\":2516:2522   */\n      dup7\n        /* \"#utility.yul\":2512:2529   */\n      add\n        /* \"#utility.yul\":2464:2543   */\n      tag_72\n      jump\t// in\n    tag_115:\n        /* \"#utility.yul\":2455:2543   */\n      swap2\n      pop\n        /* \"#utility.yul\":2271:2549   */\n      pop\n        /* \"#utility.yul\":2209:2549   */\n      swap3\n      swap2\n      pop\n      pop\n      jump\t// out\n        /* \"#utility.yul\":2555:2632   */\n    tag_74:\n        /* \"#utility.yul\":2592:2599   */\n      0x00\n        /* \"#utility.yul\":2621:2626   */\n      dup2\n        /* \"#utility.yul\":2610:2626   */\n      swap1\n      pop\n        /* \"#utility.yul\":2555:2632   */\n      swap2\n      swap1\n      pop\n      jump\t// out\n        /* \"#utility.yul\":2638:2760   */\n    tag_75:\n        /* \"#utility.yul\":2711:2735   */\n      tag_118\n        /* \"#utility.yul\":2729:2734   */\n      dup2\n        /* \"#utility.yul\":2711:2735   */\n      tag_74\n      jump\t// in\n    tag_118:\n        /* \"#utility.yul\":2704:2709   */\n      dup2\n        /* \"#utility.yul\":2701:2736   */\n      eq\n        /* \"#utility.yul\":2691:2754   */\n      tag_119\n      jumpi\n        /* \"#utility.yul\":2750:2751   */\n      0x00\n        /* \"#utility.yul\":2747:2748   */\n      0x00\n        /* \"#utility.yul\":2740:2752   */\n      revert\n        /* \"#utility.yul\":2691:2754   */\n    tag_119:\n        /* \"#utility.yul\":2638:2760   */\n      pop\n      jump\t// out\n        /* \"#utility.yul\":2766:2905   */\n    tag_76:\n        /* \"#utility.yul\":2812:2817   */\n      0x00\n        /* \"#utility.yul\":2850:2856   */\n      dup2\n        /* \"#utility.yul\":2837:2857   */\n      calldataload\n        /* \"#utility.yul\":2828:2857   */\n      swap1\n      pop\n        /* \"#utility.yul\":2866:2899   */\n      tag_121\n        /* \"#utility.yul\":2893:2898   */\n      dup2\n        /* \"#utility.yul\":2866:2899   */\n      tag_75\n      jump\t// in\n    tag_121:\n        /* \"#utility.yul\":2766:2905   */\n      swap3\n      swap2\n      pop\n      pop\n      jump\t// out\n        /* \"#utility.yul\":2911:3565   */\n    tag_15:\n        /* \"#utility.yul\":2989:2995   */\n      0x00\n        /* \"#utility.yul\":2997:3003   */\n      0x00\n        /* \"#utility.yul\":3046:3048   */\n      0x40\n        /* \"#utility.yul\":3034:3043   */\n      dup4\n        /* \"#utility.yul\":3025:3032   */\n      dup6\n        /* \"#utility.yul\":3021:3044   */\n      sub\n        /* \"#utility.yul\":3017:3049   */\n      slt\n        /* \"#utility.yul\":3014:3133   */\n      iszero\n      tag_123\n      jumpi\n        /* \"#utility.yul\":3052:3131   */\n      tag_124\n      tag_62\n      jump\t// in\n    tag_124:\n        /* \"#utility.yul\":3014:3133   */\n    tag_123:\n        /* \"#utility.yul\":3200:3201   */\n      0x00\n        /* \"#utility.yul\":3189:3198   */\n      dup4\n        /* \"#utility.yul\":3185:3202   */\n      add\n        /* \"#utility.yul\":3172:3203   */\n      calldataload\n        /* \"#utility.yul\":3230:3248   */\n      0xffffffffffffffff\n        /* \"#utility.yul\":3222:3228   */\n      dup2\n        /* \"#utility.yul\":3219:3249   */\n      gt\n        /* \"#utility.yul\":3216:3333   */\n      iszero\n      tag_125\n      jumpi\n        /* \"#utility.yul\":3252:3331   */\n      tag_126\n      tag_63\n      jump\t// in\n    tag_126:\n        /* \"#utility.yul\":3216:3333   */\n    tag_125:\n        /* \"#utility.yul\":3357:3420   */\n      tag_127\n        /* \"#utility.yul\":3412:3419   */\n      dup6\n        /* \"#utility.yul\":3403:3409   */\n      dup3\n        /* \"#utility.yul\":3392:3401   */\n      dup7\n        /* \"#utility.yul\":3388:3410   */\n      add\n        /* \"#utility.yul\":3357:3420   */\n      tag_73\n      jump\t// in\n    tag_127:\n        /* \"#utility.yul\":3347:3420   */\n      swap3\n      pop\n        /* \"#utility.yul\":3143:3430   */\n      pop\n        /* \"#utility.yul\":3469:3471   */\n      0x20\n        /* \"#utility.yul\":3495:3548   */\n      tag_128\n        /* \"#utility.yul\":3540:3547   */\n      dup6\n        /* \"#utility.yul\":3531:3537   */\n      dup3\n        /* \"#utility.yul\":3520:3529   */\n      dup7\n        /* \"#utility.yul\":3516:3538   */\n      add\n        /* \"#utility.yul\":3495:3548   */\n      tag_76\n      jump\t// in\n    tag_128:\n        /* \"#utility.yul\":3485:3548   */\n      swap2\n      pop\n        /* \"#utility.yul\":3440:3558   */\n      pop\n        /* \"#utility.yul\":2911:3565   */\n      swap3\n      pop\n      swap3\n      swap1\n      pop\n      jump\t// out\n        /* \"#utility.yul\":3571:3697   */\n    tag_77:\n        /* \"#utility.yul\":3608:3615   */\n      0x00\n        /* \"#utility.yul\":3648:3690   */\n      0xffffffffffffffffffffffffffffffffffffffff\n        /* \"#utility.yul\":3641:3646   */\n      dup3\n        /* \"#utility.yul\":3637:3691   */\n      and\n        /* \"#utility.yul\":3626:3691   */\n      swap1\n      pop\n        /* \"#utility.yul\":3571:3697   */\n      swap2\n      swap1\n      pop\n      jump\t// out\n        /* \"#utility.yul\":3703:3799   */\n    tag_78:\n        /* \"#utility.yul\":3740:3747   */\n      0x00\n        /* \"#utility.yul\":3769:3793   */\n      tag_131\n        /* \"#utility.yul\":3787:3792   */\n      dup3\n        /* \"#utility.yul\":3769:3793   */\n      tag_77\n      jump\t// in\n    tag_131:\n        /* \"#utility.yul\":3758:3793   */\n      swap1\n      pop\n        /* \"#utility.yul\":3703:3799   */\n      swap2\n      swap1\n      pop\n      jump\t// out\n        /* \"#utility.yul\":3805:3927   */\n    tag_79:\n        /* \"#utility.yul\":3878:3902   */\n      tag_133\n        /* \"#utility.yul\":3896:3901   */\n      dup2\n        /* \"#utility.yul\":3878:3902   */\n      tag_78\n      jump\t// in\n    tag_133:\n        /* \"#utility.yul\":3871:3876   */\n      dup2\n        /* \"#utility.yul\":3868:3903   */\n      eq\n        /* \"#utility.yul\":3858:3921   */\n      tag_134\n      jumpi\n        /* \"#utility.yul\":3917:3918   */\n      0x00\n        /* \"#utility.yul\":3914:3915   */\n      0x00\n        /* \"#utility.yul\":3907:3919   */\n      revert\n        /* \"#utility.yul\":3858:3921   */\n    tag_134:\n        /* \"#utility.yul\":3805:3927   */\n      pop\n      jump\t// out\n        /* \"#utility.yul\":3933:4072   */\n    tag_80:\n        /* \"#utility.yul\":3979:3984   */\n      0x00\n        /* \"#utility.yul\":4017:4023   */\n      dup2\n        /* \"#utility.yul\":4004:4024   */\n      calldataload\n        /* \"#utility.yul\":3995:4024   */\n      swap1\n      pop\n        /* \"#utility.yul\":4033:4066   */\n      tag_136\n        /* \"#utility.yul\":4060:4065   */\n      dup2\n        /* \"#utility.yul\":4033:4066   */\n      tag_79\n      jump\t// in\n    tag_136:\n        /* \"#utility.yul\":3933:4072   */\n      swap3\n      swap2\n      pop\n      pop\n      jump\t// out\n        /* \"#utility.yul\":4078:4732   */\n    tag_19:\n        /* \"#utility.yul\":4156:4162   */\n      0x00\n        /* \"#utility.yul\":4164:4170   */\n      0x00\n        /* \"#utility.yul\":4213:4215   */\n      0x40\n        /* \"#utility.yul\":4201:4210   */\n      dup4\n        /* \"#utility.yul\":4192:4199   */\n      dup6\n        /* \"#utility.yul\":4188:4211   */\n      sub\n        /* \"#utility.yul\":4184:4216   */\n      slt\n        /* \"#utility.yul\":4181:4300   */\n      iszero\n      tag_138\n      jumpi\n        /* \"#utility.yul\":4219:4298   */\n      tag_139\n      tag_62\n      jump\t// in\n    tag_139:\n        /* \"#utility.yul\":4181:4300   */\n    tag_138:\n        /* \"#utility.yul\":4339:4340   */\n      0x00\n        /* \"#utility.yul\":4364:4417   */\n      tag_140\n        /* \"#utility.yul\":4409:4416   */\n      dup6\n        /* \"#utility.yul\":4400:4406   */\n      dup3\n        /* \"#utility.yul\":4389:4398   */\n      dup7\n        /* \"#utility.yul\":4385:4407   */\n      add\n        /* \"#utility.yul\":4364:4417   */\n      tag_80\n      jump\t// in\n    tag_140:\n        /* \"#utility.yul\":4354:4417   */\n      swap3\n      pop\n        /* \"#utility.yul\":4310:4427   */\n      pop\n        /* \"#utility.yul\":4494:4496   */\n      0x20\n        /* \"#utility.yul\":4483:4492   */\n      dup4\n        /* \"#utility.yul\":4479:4497   */\n      add\n        /* \"#utility.yul\":4466:4498   */\n      calldataload\n        /* \"#utility.yul\":4525:4543   */\n      0xffffffffffffffff\n        /* \"#utility.yul\":4517:4523   */\n      dup2\n        /* \"#utility.yul\":4514:4544   */\n      gt\n        /* \"#utility.yul\":4511:4628   */\n      iszero\n      tag_141\n      jumpi\n        /* \"#utility.yul\":4547:4626   */\n      tag_142\n      tag_63\n      jump\t// in\n    tag_142:\n        /* \"#utility.yul\":4511:4628   */\n    tag_141:\n        /* \"#utility.yul\":4652:4715   */\n      tag_143\n        /* \"#utility.yul\":4707:4714   */\n      dup6\n        /* \"#utility.yul\":4698:4704   */\n      dup3\n        /* \"#utility.yul\":4687:4696   */\n      dup7\n        /* \"#utility.yul\":4683:4705   */\n      add\n        /* \"#utility.yul\":4652:4715   */\n      tag_73\n      jump\t// in\n    tag_143:\n        /* \"#utility.yul\":4642:4715   */\n      swap2\n      pop\n        /* \"#utility.yul\":4437:4725   */\n      pop\n        /* \"#utility.yul\":4078:4732   */\n      swap3\n      pop\n      swap3\n      swap1\n      pop\n      jump\t// out\n        /* \"#utility.yul\":4738:4856   */\n    tag_81:\n        /* \"#utility.yul\":4825:4849   */\n      tag_145\n        /* \"#utility.yul\":4843:4848   */\n      dup2\n        /* \"#utility.yul\":4825:4849   */\n      tag_74\n      jump\t// in\n    tag_145:\n        /* \"#utility.yul\":4820:4823   */\n      dup3\n        /* \"#utility.yul\":4813:4850   */\n      mstore\n        /* \"#utility.yul\":4738:4856   */\n      pop\n      pop\n      jump\t// out\n        /* \"#utility.yul\":4862:5084   */\n    tag_22:\n        /* \"#utility.yul\":4955:4959   */\n      0x00\n        /* \"#utility.yul\":4993:4995   */\n      0x20\n        /* \"#utility.yul\":4982:4991   */\n      dup3\n        /* \"#utility.yul\":4978:4996   */\n      add\n        /* \"#utility.yul\":4970:4996   */\n      swap1\n      pop\n        /* \"#utility.yul\":5006:5077   */\n      tag_147\n        /* \"#utility.yul\":5074:5075   */\n      0x00\n        /* \"#utility.yul\":5063:5072   */\n      dup4\n        /* \"#utility.yul\":5059:5076   */\n      add\n        /* \"#utility.yul\":5050:5056   */\n      dup5\n        /* \"#utility.yul\":5006:5077   */\n      tag_81\n      jump\t// in\n    tag_147:\n        /* \"#utility.yul\":4862:5084   */\n      swap3\n      swap2\n      pop\n      pop\n      jump\t// out\n        /* \"#utility.yul\":5090:5419   */\n    tag_25:\n        /* \"#utility.yul\":5149:5155   */\n      0x00\n        /* \"#utility.yul\":5198:5200   */\n      0x20\n        /* \"#utility.yul\":5186:5195   */\n      dup3\n        /* \"#utility.yul\":5177:5184   */\n      dup5\n        /* \"#utility.yul\":5173:5196   */\n      sub\n        /* \"#utility.yul\":5169:5201   */\n      slt\n        /* \"#utility.yul\":5166:5285   */\n      iszero\n      tag_149\n      jumpi\n        /* \"#utility.yul\":5204:5283   */\n      tag_150\n      tag_62\n      jump\t// in\n    tag_150:\n        /* \"#utility.yul\":5166:5285   */\n    tag_149:\n        /* \"#utility.yul\":5324:5325   */\n      0x00\n        /* \"#utility.yul\":5349:5402   */\n      tag_151\n        /* \"#utility.yul\":5394:5401   */\n      dup5\n        /* \"#utility.yul\":5385:5391   */\n      dup3\n        /* \"#utility.yul\":5374:5383   */\n      dup6\n        /* \"#utility.yul\":5370:5392   */\n      add\n        /* \"#utility.yul\":5349:5402   */\n      tag_80\n      jump\t// in\n    tag_151:\n        /* \"#utility.yul\":5339:5402   */\n      swap2\n      pop\n        /* \"#utility.yul\":5295:5412   */\n      pop\n        /* \"#utility.yul\":5090:5419   */\n      swap3\n      swap2\n      pop\n      pop\n      jump\t// out\n        /* \"#utility.yul\":5425:5899   */\n    tag_30:\n        /* \"#utility.yul\":5493:5499   */\n      0x00\n        /* \"#utility.yul\":5501:5507   */\n      0x00\n        /* \"#utility.yul\":5550:5552   */\n      0x40\n        /* \"#utility.yul\":5538:5547   */\n      dup4\n        /* \"#utility.yul\":5529:5536   */\n      dup6\n        /* \"#utility.yul\":5525:5548   */\n      sub\n        /* \"#utility.yul\":5521:5553   */\n      slt\n        /* \"#utility.yul\":5518:5637   */\n      iszero\n      tag_153\n      jumpi\n        /* \"#utility.yul\":5556:5635   */\n      tag_154\n      tag_62\n      jump\t// in\n    tag_154:\n        /* \"#utility.yul\":5518:5637   */\n    tag_153:\n        /* \"#utility.yul\":5676:5677   */\n      0x00\n        /* \"#utility.yul\":5701:5754   */\n      tag_155\n        /* \"#utility.yul\":5746:5753   */\n      dup6\n        /* \"#utility.yul\":5737:5743   */\n      dup3\n        /* \"#utility.yul\":5726:5735   */\n      dup7\n        /* \"#utility.yul\":5722:5744   */\n      add\n        /* \"#utility.yul\":5701:5754   */\n      tag_80\n      jump\t// in\n    tag_155:\n        /* \"#utility.yul\":5691:5754   */\n      swap3\n      pop\n        /* \"#utility.yul\":5647:5764   */\n      pop\n        /* \"#utility.yul\":5803:5805   */\n      0x20\n        /* \"#utility.yul\":5829:5882   */\n      tag_156\n        /* \"#utility.yul\":5874:5881   */\n      dup6\n        /* \"#utility.yul\":5865:5871   */\n      dup3\n        /* \"#utility.yul\":5854:5863   */\n      dup7\n        /* \"#utility.yul\":5850:5872   */\n      add\n        /* \"#utility.yul\":5829:5882   */\n      tag_76\n      jump\t// in\n    tag_156:\n        /* \"#utility.yul\":5819:5882   */\n      swap2\n      pop\n        /* \"#utility.yul\":5774:5892   */\n      pop\n        /* \"#utility.yul\":5425:5899   */\n      swap3\n      pop\n      swap3\n      swap1\n      pop\n      jump\t// out\n        /* \"#utility.yul\":5905:6234   */\n    tag_49:\n        /* \"#utility.yul\":5964:5970   */\n      0x00\n        /* \"#utility.yul\":6013:6015   */\n      0x20\n        /* \"#utility.yul\":6001:6010   */\n      dup3\n        /* \"#utility.yul\":5992:5999   */\n      dup5\n        /* \"#utility.yul\":5988:6011   */\n      sub\n        /* \"#utility.yul\":5984:6016   */\n      slt\n        /* \"#utility.yul\":5981:6100   */\n      iszero\n      tag_158\n      jumpi\n        /* \"#utility.yul\":6019:6098   */\n      tag_159\n      tag_62\n      jump\t// in\n    tag_159:\n        /* \"#utility.yul\":5981:6100   */\n    tag_158:\n        /* \"#utility.yul\":6139:6140   */\n      0x00\n        /* \"#utility.yul\":6164:6217   */\n      tag_160\n        /* \"#utility.yul\":6209:6216   */\n      dup5\n        /* \"#utility.yul\":6200:6206   */\n      dup3\n        /* \"#utility.yul\":6189:6198   */\n      dup6\n        /* \"#utility.yul\":6185:6207   */\n      add\n        /* \"#utility.yul\":6164:6217   */\n      tag_76\n      jump\t// in\n    tag_160:\n        /* \"#utility.yul\":6154:6217   */\n      swap2\n      pop\n        /* \"#utility.yul\":6110:6227   */\n      pop\n        /* \"#utility.yul\":5905:6234   */\n      swap3\n      swap2\n      pop\n      pop\n      jump\t// out\n        /* \"#utility.yul\":6240:6339   */\n    tag_82:\n        /* \"#utility.yul\":6292:6298   */\n      0x00\n        /* \"#utility.yul\":6326:6331   */\n      dup2\n        /* \"#utility.yul\":6320:6332   */\n      mload\n        /* \"#utility.yul\":6310:6332   */\n      swap1\n      pop\n        /* \"#utility.yul\":6240:6339   */\n      swap2\n      swap1\n      pop\n      jump\t// out\n        /* \"#utility.yul\":6345:6493   */\n    tag_83:\n        /* \"#utility.yul\":6447:6458   */\n      0x00\n        /* \"#utility.yul\":6484:6487   */\n      dup2\n        /* \"#utility.yul\":6469:6487   */\n      swap1\n      pop\n        /* \"#utility.yul\":6345:6493   */\n      swap3\n      swap2\n      pop\n      pop\n      jump\t// out\n        /* \"#utility.yul\":6499:6638   */\n    tag_84:\n        /* \"#utility.yul\":6588:6594   */\n      dup3\n        /* \"#utility.yul\":6583:6586   */\n      dup2\n        /* \"#utility.yul\":6578:6581   */\n      dup4\n        /* \"#utility.yul\":6572:6595   */\n      mcopy\n        /* \"#utility.yul\":6629:6630   */\n      0x00\n        /* \"#utility.yul\":6620:6626   */\n      dup4\n        /* \"#utility.yul\":6615:6618   */\n      dup4\n        /* \"#utility.yul\":6611:6627   */\n      add\n        /* \"#utility.yul\":6604:6631   */\n      mstore\n        /* \"#utility.yul\":6499:6638   */\n      pop\n      pop\n      pop\n      jump\t// out\n        /* \"#utility.yul\":6644:7034   */\n    tag_85:\n        /* \"#utility.yul\":6750:6753   */\n      0x00\n        /* \"#utility.yul\":6778:6817   */\n      tag_165\n        /* \"#utility.yul\":6811:6816   */\n      dup3\n        /* \"#utility.yul\":6778:6817   */\n      tag_82\n      jump\t// in\n    tag_165:\n        /* \"#utility.yul\":6833:6922   */\n      tag_166\n        /* \"#utility.yul\":6915:6921   */\n      dup2\n        /* \"#utility.yul\":6910:6913   */\n      dup6\n        /* \"#utility.yul\":6833:6922   */\n      tag_83\n      jump\t// in\n    tag_166:\n        /* \"#utility.yul\":6826:6922   */\n      swap4\n      pop\n        /* \"#utility.yul\":6931:6996   */\n      tag_167\n        /* \"#utility.yul\":6989:6995   */\n      dup2\n        /* \"#utility.yul\":6984:6987   */\n      dup6\n        /* \"#utility.yul\":6977:6981   */\n      0x20\n        /* \"#utility.yul\":6970:6975   */\n      dup7\n        /* \"#utility.yul\":6966:6982   */\n      add\n        /* \"#utility.yul\":6931:6996   */\n      tag_84\n      jump\t// in\n    tag_167:\n        /* \"#utility.yul\":7021:7027   */\n      dup1\n        /* \"#utility.yul\":7016:7019   */\n      dup5\n        /* \"#utility.yul\":7012:7028   */\n      add\n        /* \"#utility.yul\":7005:7028   */\n      swap2\n      pop\n        /* \"#utility.yul\":6754:7034   */\n      pop\n        /* \"#utility.yul\":6644:7034   */\n      swap3\n      swap2\n      pop\n      pop\n      jump\t// out\n        /* \"#utility.yul\":7040:7315   */\n    tag_53:\n        /* \"#utility.yul\":7172:7175   */\n      0x00\n        /* \"#utility.yul\":7194:7289   */\n      tag_169\n        /* \"#utility.yul\":7285:7288   */\n      dup3\n        /* \"#utility.yul\":7276:7282   */\n      dup5\n        /* \"#utility.yul\":7194:7289   */\n      tag_85\n      jump\t// in\n    tag_169:\n        /* \"#utility.yul\":7187:7289   */\n      swap2\n      pop\n        /* \"#utility.yul\":7306:7309   */\n      dup2\n        /* \"#utility.yul\":7299:7309   */\n      swap1\n      pop\n        /* \"#utility.yul\":7040:7315   */\n      swap3\n      swap2\n      pop\n      pop\n      jump\t// out\n\n    auxdata: 0xa26469706673582212200dbf92f509617cd181e65c0a17c9b03a5d406e3b1508766796faea596416fd1864736f6c634300081e0033\n}\n",
				"bytecode": {
					"linkReferences": {},
					"object": "6080604052348015600e575f5ffd5b506108338061001c5f395ff3fe608060405234801561000f575f5ffd5b5060043610610091575f3560e01c8063b721ef6e11610064578063b721ef6e1461012d578063d59d65c11461015d578063e8827cec14610179578063f8b2cb4f146101a9578063fb1669ca146101d957610091565b806309e896481461009557806312bd4d74146100b157806327e235e3146100e1578063af9ef29f14610111575b5f5ffd5b6100af60048036038101906100aa91906105cb565b6101f5565b005b6100cb60048036038101906100c6919061067f565b610257565b6040516100d891906106e8565b60405180910390f35b6100fb60048036038101906100f69190610701565b61028f565b60405161010891906106e8565b60405180910390f35b61012b6004803603810190610126919061072c565b6102a4565b005b61014760048036038101906101429190610701565b6102e9565b60405161015491906106e8565b60405180910390f35b6101776004803603810190610172919061067f565b6102fd565b005b610193600480360381019061018e919061067f565b61035d565b6040516101a091906106e8565b60405180910390f35b6101c360048036038101906101be9190610701565b6103c0565b6040516101d091906106e8565b60405180910390f35b6101f360048036038101906101ee919061076a565b610406565b005b8060025f3373ffffffffffffffffffffffffffffffffffffffff1673ffffffffffffffffffffffffffffffffffffffff1681526020019081526020015f208360405161024191906107e7565b9081526020016040518091039020819055505050565b6002602052815f5260405f20818051602081018201805184825260208301602085012081835280955050505050505f91509150505481565b6001602052805f5260405f205f915090505481565b805f5f8473ffffffffffffffffffffffffffffffffffffffff1673ffffffffffffffffffffffffffffffffffffffff1681526020019081526020015f20819055505050565b5f602052805f5260405f205f915090505481565b60025f8373ffffffffffffffffffffffffffffffffffffffff1673ffffffffffffffffffffffffffffffffffffffff1681526020019081526020015f208160405161034891906107e7565b90815260200160405180910390205f90555050565b5f60025f8473ffffffffffffffffffffffffffffffffffffffff1673ffffffffffffffffffffffffffffffffffffffff1681526020019081526020015f20826040516103a991906107e7565b908152602001604051809103902054905092915050565b5f60015f8373ffffffffffffffffffffffffffffffffffffffff1673ffffffffffffffffffffffffffffffffffffffff1681526020019081526020015f20549050919050565b8060015f3373ffffffffffffffffffffffffffffffffffffffff1673ffffffffffffffffffffffffffffffffffffffff1681526020019081526020015f208190555050565b5f604051905090565b5f5ffd5b5f5ffd5b5f5ffd5b5f5ffd5b5f601f19601f8301169050919050565b7f4e487b71000000000000000000000000000000000000000000000000000000005f52604160045260245ffd5b6104aa82610464565b810181811067ffffffffffffffff821117156104c9576104c8610474565b5b80604052505050565b5f6104db61044b565b90506104e782826104a1565b919050565b5f67ffffffffffffffff82111561050657610505610474565b5b61050f82610464565b9050602081019050919050565b828183375f83830152505050565b5f61053c610537846104ec565b6104d2565b90508281526020810184848401111561055857610557610460565b5b61056384828561051c565b509392505050565b5f82601f83011261057f5761057e61045c565b5b813561058f84826020860161052a565b91505092915050565b5f819050919050565b6105aa81610598565b81146105b4575f5ffd5b50565b5f813590506105c5816105a1565b92915050565b5f5f604083850312156105e1576105e0610454565b5b5f83013567ffffffffffffffff8111156105fe576105fd610458565b5b61060a8582860161056b565b925050602061061b858286016105b7565b9150509250929050565b5f73ffffffffffffffffffffffffffffffffffffffff82169050919050565b5f61064e82610625565b9050919050565b61065e81610644565b8114610668575f5ffd5b50565b5f8135905061067981610655565b92915050565b5f5f6040838503121561069557610694610454565b5b5f6106a28582860161066b565b925050602083013567ffffffffffffffff8111156106c3576106c2610458565b5b6106cf8582860161056b565b9150509250929050565b6106e281610598565b82525050565b5f6020820190506106fb5f8301846106d9565b92915050565b5f6020828403121561071657610715610454565b5b5f6107238482850161066b565b91505092915050565b5f5f6040838503121561074257610741610454565b5b5f61074f8582860161066b565b9250506020610760858286016105b7565b9150509250929050565b5f6020828403121561077f5761077e610454565b5b5f61078c848285016105b7565b91505092915050565b5f81519050919050565b5f81905092915050565b8281835e5f83830152505050565b5f6107c182610795565b6107cb818561079f565b93506107db8185602086016107a9565b80840191505092915050565b5f6107f282846107b7565b91508190509291505056fea26469706673582212200dbf92f509617cd181e65c0a17c9b03a5d406e3b1508766796faea596416fd1864736f6c634300081e0033",
					"opcodes": "PUSH1 0x80 PUSH1 0x40 MSTORE CALLVALUE DUP1 ISZERO PUSH1 0xE JUMPI PUSH0 PUSH0 REVERT JUMPDEST POP PUSH2 0x833 DUP1 PUSH2 0x1C PUSH0 CODECOPY PUSH0 RETURN INVALID PUSH1 0x80 PUSH1 0x40 MSTORE CALLVALUE DUP1 ISZERO PUSH2 0xF JUMPI PUSH0 PUSH0 REVERT JUMPDEST POP PUSH1 0x4 CALLDATASIZE LT PUSH2 0x91 JUMPI PUSH0 CALLDATALOAD PUSH1 0xE0 SHR DUP1 PUSH4 0xB721EF6E GT PUSH2 0x64 JUMPI DUP1 PUSH4 0xB721EF6E EQ PUSH2 0x12D JUMPI DUP1 PUSH4 0xD59D65C1 EQ PUSH2 0x15D JUMPI DUP1 PUSH4 0xE8827CEC EQ PUSH2 0x179 JUMPI DUP1 PUSH4 0xF8B2CB4F EQ PUSH2 0x1A9 JUMPI DUP1 PUSH4 0xFB1669CA EQ PUSH2 0x1D9 JUMPI PUSH2 0x91 JUMP JUMPDEST DUP1 PUSH4 0x9E89648 EQ PUSH2 0x95 JUMPI DUP1 PUSH4 0x12BD4D74 EQ PUSH2 0xB1 JUMPI DUP1 PUSH4 0x27E235E3 EQ PUSH2 0xE1 JUMPI DUP1 PUSH4 0xAF9EF29F EQ PUSH2 0x111 JUMPI JUMPDEST PUSH0 PUSH0 REVERT JUMPDEST PUSH2 0xAF PUSH1 0x4 DUP1 CALLDATASIZE SUB DUP2 ADD SWAP1 PUSH2 0xAA SWAP2 SWAP1 PUSH2 0x5CB JUMP JUMPDEST PUSH2 0x1F5 JUMP JUMPDEST STOP JUMPDEST PUSH2 0xCB PUSH1 0x4 DUP1 CALLDATASIZE SUB DUP2 ADD SWAP1 PUSH2 0xC6 SWAP2 SWAP1 PUSH2 0x67F JUMP JUMPDEST PUSH2 0x257 JUMP JUMPDEST PUSH1 0x40 MLOAD PUSH2 0xD8 SWAP2 SWAP1 PUSH2 0x6E8 JUMP JUMPDEST PUSH1 0x40 MLOAD DUP1 SWAP2 SUB SWAP1 RETURN JUMPDEST PUSH2 0xFB PUSH1 0x4 DUP1 CALLDATASIZE SUB DUP2 ADD SWAP1 PUSH2 0xF6 SWAP2 SWAP1 PUSH2 0x701 JUMP JUMPDEST PUSH2 0x28F JUMP JUMPDEST PUSH1 0x40 MLOAD PUSH2 0x108 SWAP2 SWAP1 PUSH2 0x6E8 JUMP JUMPDEST PUSH1 0x40 MLOAD DUP1 SWAP2 SUB SWAP1 RETURN JUMPDEST PUSH2 0x12B PUSH1 0x4 DUP1 CALLDATASIZE SUB DUP2 ADD SWAP1 PUSH2 0x126 SWAP2 SWAP1 PUSH2 0x72C JUMP JUMPDEST PUSH2 0x2A4 JUMP JUMPDEST STOP JUMPDEST PUSH2 0x147 PUSH1 0x4 DUP1 CALLDATASIZE SUB DUP2 ADD SWAP1 PUSH2 0x142 SWAP2 SWAP1 PUSH2 0x701 JUMP JUMPDEST PUSH2 0x2E9 JUMP JUMPDEST PUSH1 0x40 MLOAD PUSH2 0x154 SWAP2 SWAP1 PUSH2 0x6E8 JUMP JUMPDEST PUSH1 0x40 MLOAD DUP1 SWAP2 SUB SWAP1 RETURN JUMPDEST PUSH2 0x177 PUSH1 0x4 DUP1 CALLDATASIZE SUB DUP2 ADD SWAP1 PUSH2 0x172 SWAP2 SWAP1 PUSH2 0x67F JUMP JUMPDEST PUSH2 0x2FD JUMP JUMPDEST STOP JUMPDEST PUSH2 0x193 PUSH1 0x4 DUP1 CALLDATASIZE SUB DUP2 ADD SWAP1 PUSH2 0x18E SWAP2 SWAP1 PUSH2 0x67F JUMP JUMPDEST PUSH2 0x35D JUMP JUMPDEST PUSH1 0x40 MLOAD PUSH2 0x1A0 SWAP2 SWAP1 PUSH2 0x6E8 JUMP JUMPDEST PUSH1 0x40 MLOAD DUP1 SWAP2 SUB SWAP1 RETURN JUMPDEST PUSH2 0x1C3 PUSH1 0x4 DUP1 CALLDATASIZE SUB DUP2 ADD SWAP1 PUSH2 0x1BE SWAP2 SWAP1 PUSH2 0x701 JUMP JUMPDEST PUSH2 0x3C0 JUMP JUMPDEST PUSH1 0x40 MLOAD PUSH2 0x1D0 SWAP2 SWAP1 PUSH2 0x6E8 JUMP JUMPDEST PUSH1 0x40 MLOAD DUP1 SWAP2 SUB SWAP1 RETURN JUMPDEST PUSH2 0x1F3 PUSH1 0x4 DUP1 CALLDATASIZE SUB DUP2 ADD SWAP1 PUSH2 0x1EE SWAP2 SWAP1 PUSH2 0x76A JUMP JUMPDEST PUSH2 0x406 JUMP JUMPDEST STOP JUMPDEST DUP1 PUSH1 0x2 PUSH0 CALLER PUSH20 0xFFFFFFFFFFFFFFFFFFFFFFFFFFFFFFFFFFFFFFFF AND PUSH20 0xFFFFFFFFFFFFFFFFFFFFFFFFFFFFFFFFFFFFFFFF AND DUP2 MSTORE PUSH1 0x20 ADD SWAP1 DUP2 MSTORE PUSH1 0x20 ADD PUSH0 KECCAK256 DUP4 PUSH1 0x40 MLOAD PUSH2 0x241 SWAP2 SWAP1 PUSH2 0x7E7 JUMP JUMPDEST SWAP1 DUP2 MSTORE PUSH1 0x20 ADD PUSH1 0x40 MLOAD DUP1 SWAP2 SUB SWAP1 KECCAK256 DUP2 SWAP1 SSTORE POP POP POP JUMP JUMPDEST PUSH1 0x2 PUSH1 0x20 MSTORE DUP2 PUSH0 MSTORE PUSH1 0x40 PUSH0 KECCAK256 DUP2 DUP1 MLOAD PUSH1 0x20 DUP2 ADD DUP3 ADD DUP1 MLOAD DUP5 DUP3 MSTORE PUSH1 0x20 DUP4 ADD PUSH1 0x20 DUP6 ADD KECCAK256 DUP2 DUP4 MSTORE DUP1 SWAP6 POP POP POP POP POP POP PUSH0 SWAP2 POP SWAP2 POP POP SLOAD DUP2 JUMP JUMPDEST PUSH1 0x1 PUSH1 0x20 MSTORE DUP1 PUSH0 MSTORE PUSH1 0x40 PUSH0 KECCAK256 PUSH0 SWAP2 POP SWAP1 POP SLOAD DUP2 JUMP JUMPDEST DUP1 PUSH0 PUSH0 DUP5 PUSH20 0xFFFFFFFFFFFFFFFFFFFFFFFFFFFFFFFFFFFFFFFF AND PUSH20 0xFFFFFFFFFFFFFFFFFFFFFFFFFFFFFFFFFFFFFFFF AND DUP2 MSTORE PUSH1 0x20 ADD SWAP1 DUP2 MSTORE PUSH1 0x20 ADD PUSH0 KECCAK256 DUP2 SWAP1 SSTORE POP POP POP JUMP JUMPDEST PUSH0 PUSH1 0x20 MSTORE DUP1 PUSH0 MSTORE PUSH1 0x40 PUSH0 KECCAK256 PUSH0 SWAP2 POP SWAP1 POP SLOAD DUP2 JUMP JUMPDEST PUSH1 0x2 PUSH0 DUP4 PUSH20 0xFFFFFFFFFFFFFFFFFFFFFFFFFFFFFFFFFFFFFFFF AND PUSH20 0xFFFFFFFFFFFFFFFFFFFFFFFFFFFFFFFFFFFFFFFF AND DUP2 MSTORE PUSH1 0x20 ADD SWAP1 DUP2 MSTORE PUSH1 0x20 ADD PUSH0 KECCAK256 DUP2 PUSH1 0x40 MLOAD PUSH2 0x348 SWAP2 SWAP1 PUSH2 0x7E7 JUMP JUMPDEST SWAP1 DUP2 MSTORE PUSH1 0x20 ADD PUSH1 0x40 MLOAD DUP1 SWAP2 SUB SWAP1 KECCAK256 PUSH0 SWAP1 SSTORE POP POP JUMP JUMPDEST PUSH0 PUSH1 0x2 PUSH0 DUP5 PUSH20 0xFFFFFFFFFFFFFFFFFFFFFFFFFFFFFFFFFFFFFFFF AND PUSH20 0xFFFFFFFFFFFFFFFFFFFFFFFFFFFFFFFFFFFFFFFF AND DUP2 MSTORE PUSH1 0x20 ADD SWAP1 DUP2 MSTORE PUSH1 0x20 ADD PUSH0 KECCAK256 DUP3 PUSH1 0x40 MLOAD PUSH2 0x3A9 SWAP2 SWAP1 PUSH2 0x7E7 JUMP JUMPDEST SWAP1 DUP2 MSTORE PUSH1 0x20 ADD PUSH1 0x40 MLOAD DUP1 SWAP2 SUB SWAP1 KECCAK256 SLOAD SWAP1 POP SWAP3 SWAP2 POP POP JUMP JUMPDEST PUSH0 PUSH1 0x1 PUSH0 DUP4 PUSH20 0xFFFFFFFFFFFFFFFFFFFFFFFFFFFFFFFFFFFFFFFF AND PUSH20 0xFFFFFFFFFFFFFFFFFFFFFFFFFFFFFFFFFFFFFFFF AND DUP2 MSTORE PUSH1 0x20 ADD SWAP1 DUP2 MSTORE PUSH1 0x20 ADD PUSH0 KECCAK256 SLOAD SWAP1 POP SWAP2 SWAP1 POP JUMP JUMPDEST DUP1 PUSH1 0x1 PUSH0 CALLER PUSH20 0xFFFFFFFFFFFFFFFFFFFFFFFFFFFFFFFFFFFFFFFF AND PUSH20 0xFFFFFFFFFFFFFFFFFFFFFFFFFFFFFFFFFFFFFFFF AND DUP2 MSTORE PUSH1 0x20 ADD SWAP1 DUP2 MSTORE PUSH1 0x20 ADD PUSH0 KECCAK256 DUP2 SWAP1 SSTORE POP POP JUMP JUMPDEST PUSH0 PUSH1 0x40 MLOAD SWAP1 POP SWAP1 JUMP JUMPDEST PUSH0 PUSH0 REVERT JUMPDEST PUSH0 PUSH0 REVERT JUMPDEST PUSH0 PUSH0 REVERT JUMPDEST PUSH0 PUSH0 REVERT JUMPDEST PUSH0 PUSH1 0x1F NOT PUSH1 0x1F DUP4 ADD AND SWAP1 POP SWAP2 SWAP1 POP JUMP JUMPDEST PUSH32 0x4E487B7100000000000000000000000000000000000000000000000000000000 PUSH0 MSTORE PUSH1 0x41 PUSH1 0x4 MSTORE PUSH1 0x24 PUSH0 REVERT JUMPDEST PUSH2 0x4AA DUP3 PUSH2 0x464 JUMP JUMPDEST DUP2 ADD DUP2 DUP2 LT PUSH8 0xFFFFFFFFFFFFFFFF DUP3 GT OR ISZERO PUSH2 0x4C9 JUMPI PUSH2 0x4C8 PUSH2 0x474 JUMP JUMPDEST JUMPDEST DUP1 PUSH1 0x40 MSTORE POP POP POP JUMP JUMPDEST PUSH0 PUSH2 0x4DB PUSH2 0x44B JUMP JUMPDEST SWAP1 POP PUSH2 0x4E7 DUP3 DUP3 PUSH2 0x4A1 JUMP JUMPDEST SWAP2 SWAP1 POP JUMP JUMPDEST PUSH0 PUSH8 0xFFFFFFFFFFFFFFFF DUP3 GT ISZERO PUSH2 0x506 JUMPI PUSH2 0x505 PUSH2 0x474 JUMP JUMPDEST JUMPDEST PUSH2 0x50F DUP3 PUSH2 0x464 JUMP JUMPDEST SWAP1 POP PUSH1 0x20 DUP2 ADD SWAP1 POP SWAP2 SWAP1 POP JUMP JUMPDEST DUP3 DUP2 DUP4 CALLDATACOPY PUSH0 DUP4 DUP4 ADD MSTORE POP POP POP JUMP JUMPDEST PUSH0 PUSH2 0x53C PUSH2 0x537 DUP5 PUSH2 0x4EC JUMP JUMPDEST PUSH2 0x4D2 JUMP JUMPDEST SWAP1 POP DUP3 DUP2 MSTORE PUSH1 0x20 DUP2 ADD DUP5 DUP5 DUP5 ADD GT ISZERO PUSH2 0x558 JUMPI PUSH2 0x557 PUSH2 0x460 JUMP JUMPDEST JUMPDEST PUSH2 0x563 DUP5 DUP3 DUP6 PUSH2 0x51C JUMP JUMPDEST POP SWAP4 SWAP3 POP POP POP JUMP JUMPDEST PUSH0 DUP3 PUSH1 0x1F DUP4 ADD SLT PUSH2 0x57F JUMPI PUSH2 0x57E PUSH2 0x45C JUMP JUMPDEST JUMPDEST DUP2 CALLDATALOAD PUSH2 0x58F DUP5 DUP3 PUSH1 0x20 DUP7 ADD PUSH2 0x52A JUMP JUMPDEST SWAP2 POP POP SWAP3 SWAP2 POP POP JUMP JUMPDEST PUSH0 DUP2 SWAP1 POP SWAP2 SWAP1 POP JUMP JUMPDEST PUSH2 0x5AA DUP2 PUSH2 0x598 JUMP JUMPDEST DUP2 EQ PUSH2 0x5B4 JUMPI PUSH0 PUSH0 REVERT JUMPDEST POP JUMP JUMPDEST PUSH0 DUP2 CALLDATALOAD SWAP1 POP PUSH2 0x5C5 DUP2 PUSH2 0x5A1 JUMP JUMPDEST SWAP3 SWAP2 POP POP JUMP JUMPDEST PUSH0 PUSH0 PUSH1 0x40 DUP4 DUP6 SUB SLT ISZERO PUSH2 0x5E1 JUMPI PUSH2 0x5E0 PUSH2 0x454 JUMP JUMPDEST JUMPDEST PUSH0 DUP4 ADD CALLDATALOAD PUSH8 0xFFFFFFFFFFFFFFFF DUP2 GT ISZERO PUSH2 0x5FE JUMPI PUSH2 0x5FD PUSH2 0x458 JUMP JUMPDEST JUMPDEST PUSH2 0x60A DUP6 DUP3 DUP7 ADD PUSH2 0x56B JUMP JUMPDEST SWAP3 POP POP PUSH1 0x20 PUSH2 0x61B DUP6 DUP3 DUP7 ADD PUSH2 0x5B7 JUMP JUMPDEST SWAP2 POP POP SWAP3 POP SWAP3 SWAP1 POP JUMP JUMPDEST PUSH0 PUSH20 0xFFFFFFFFFFFFFFFFFFFFFFFFFFFFFFFFFFFFFFFF DUP3 AND SWAP1 POP SWAP2 SWAP1 POP JUMP JUMPDEST PUSH0 PUSH2 0x64E DUP3 PUSH2 0x625 JUMP JUMPDEST SWAP1 POP SWAP2 SWAP1 POP JUMP JUMPDEST PUSH2 0x65E DUP2 PUSH2 0x644 JUMP JUMPDEST DUP2 EQ PUSH2 0x668 JUMPI PUSH0 PUSH0 REVERT JUMPDEST POP JUMP JUMPDEST PUSH0 DUP2 CALLDATALOAD SWAP1 POP PUSH2 0x679 DUP2 PUSH2 0x655 JUMP JUMPDEST SWAP3 SWAP2 POP POP JUMP JUMPDEST PUSH0 PUSH0 PUSH1 0x40 DUP4 DUP6 SUB SLT ISZERO PUSH2 0x695 JUMPI PUSH2 0x694 PUSH2 0x454 JUMP JUMPDEST JUMPDEST PUSH0 PUSH2 0x6A2 DUP6 DUP3 DUP7 ADD PUSH2 0x66B JUMP JUMPDEST SWAP3 POP POP PUSH1 0x20 DUP4 ADD CALLDATALOAD PUSH8 0xFFFFFFFFFFFFFFFF DUP2 GT ISZERO PUSH2 0x6C3 JUMPI PUSH2 0x6C2 PUSH2 0x458 JUMP JUMPDEST JUMPDEST PUSH2 0x6CF DUP6 DUP3 DUP7 ADD PUSH2 0x56B JUMP JUMPDEST SWAP2 POP POP SWAP3 POP SWAP3 SWAP1 POP JUMP JUMPDEST PUSH2 0x6E2 DUP2 PUSH2 0x598 JUMP JUMPDEST DUP3 MSTORE POP POP JUMP JUMPDEST PUSH0 PUSH1 0x20 DUP3 ADD SWAP1 POP PUSH2 0x6FB PUSH0 DUP4 ADD DUP5 PUSH2 0x6D9 JUMP JUMPDEST SWAP3 SWAP2 POP POP JUMP JUMPDEST PUSH0 PUSH1 0x20 DUP3 DUP5 SUB SLT ISZERO PUSH2 0x716 JUMPI PUSH2 0x715 PUSH2 0x454 JUMP JUMPDEST JUMPDEST PUSH0 PUSH2 0x723 DUP5 DUP3 DUP6 ADD PUSH2 0x66B JUMP JUMPDEST SWAP2 POP POP SWAP3 SWAP2 POP POP JUMP JUMPDEST PUSH0 PUSH0 PUSH1 0x40 DUP4 DUP6 SUB SLT ISZERO PUSH2 0x742 JUMPI PUSH2 0x741 PUSH2 0x454 JUMP JUMPDEST JUMPDEST PUSH0 PUSH2 0x74F DUP6 DUP3 DUP7 ADD PUSH2 0x66B JUMP JUMPDEST SWAP3 POP POP PUSH1 0x20 PUSH2 0x760 DUP6 DUP3 DUP7 ADD PUSH2 0x5B7 JUMP JUMPDEST SWAP2 POP POP SWAP3 POP SWAP3 SWAP1 POP JUMP JUMPDEST PUSH0 PUSH1 0x20 DUP3 DUP5 SUB SLT ISZERO PUSH2 0x77F JUMPI PUSH2 0x77E PUSH2 0x454 JUMP JUMPDEST JUMPDEST PUSH0 PUSH2 0x78C DUP5 DUP3 DUP6 ADD PUSH2 0x5B7 JUMP JUMPDEST SWAP2 POP POP SWAP3 SWAP2 POP POP JUMP JUMPDEST PUSH0 DUP2 MLOAD SWAP1 POP SWAP2 SWAP1 POP JUMP JUMPDEST PUSH0 DUP2 SWAP1 POP SWAP3 SWAP2 POP POP JUMP JUMPDEST DUP3 DUP2 DUP4 MCOPY PUSH0 DUP4 DUP4 ADD MSTORE POP POP POP JUMP JUMPDEST PUSH0 PUSH2 0x7C1 DUP3 PUSH2 0x795 JUMP JUMPDEST PUSH2 0x7CB DUP2 DUP6 PUSH2 0x79F JUMP JUMPDEST SWAP4 POP PUSH2 0x7DB DUP2 DUP6 PUSH1 0x20 DUP7 ADD PUSH2 0x7A9 JUMP JUMPDEST DUP1 DUP5 ADD SWAP2 POP POP SWAP3 SWAP2 POP POP JUMP JUMPDEST PUSH0 PUSH2 0x7F2 DUP3 DUP5 PUSH2 0x7B7 JUMP JUMPDEST SWAP2 POP DUP2 SWAP1 POP SWAP3 SWAP2 POP POP JUMP INVALID LOG2 PUSH5 0x6970667358 0x22 SLT KECCAK256 0xD 0xBF SWAP3 CREATE2 MULMOD PUSH2 0x7CD1 DUP2 DUPN 0x5C EXP OR 0xC9 0xB0 GASPRICE TSTORE BLOCKHASH PUSH15 0x3B1508766796FAEA596416FD186473 PUSH16 0x6C634300081E00330000000000000000 "
				},
				"gasEstimates": {
					"creation": {
						"codeDepositCost": "419800",
						"executionCost": "453",
						"totalCost": "420253"
					},
					"external": {
						"balances(address)": "2847",
						"deleteUserBalance(address,string)": "infinite",
						"getBalance(address)": "2895",
						"getUserBalance(address,string)": "infinite",
						"map(address)": "2801",
						"setBalance(uint256)": "22690",
						"setMap(address,uint256)": "22887",
						"setUserBalance(string,uint256)": "infinite",
						"userBalances(address,string)": "infinite"
					}
				},
				"methodIdentifiers": {
					"balances(address)": "27e235e3",
					"deleteUserBalance(address,string)": "d59d65c1",
					"getBalance(address)": "f8b2cb4f",
					"getUserBalance(address,string)": "e8827cec",
					"map(address)": "b721ef6e",
					"setBalance(uint256)": "fb1669ca",
					"setMap(address,uint256)": "af9ef29f",
					"setUserBalance(string,uint256)": "09e89648",
					"userBalances(address,string)": "12bd4d74"
				}
			},
			"storageLayout": {
				"storage": [
					{
						"astId": 5,
						"contract": "practise/MappingContract.sol:MappingContract",
						"label": "map",
						"offset": 0,
						"slot": "0",
						"type": "t_mapping(t_address,t_uint256)"
					},
					{
						"astId": 9,
						"contract": "practise/MappingContract.sol:MappingContract",
						"label": "balances",
						"offset": 0,
						"slot": "1",
						"type": "t_mapping(t_address,t_uint256)"
					},
					{
						"astId": 54,
						"contract": "practise/MappingContract.sol:MappingContract",
						"label": "userBalances",
						"offset": 0,
						"slot": "2",
						"type": "t_mapping(t_address,t_mapping(t_string_memory_ptr,t_uint256))"
					}
				],
				"types": {
					"t_address": {
						"encoding": "inplace",
						"label": "address",
						"numberOfBytes": "20"
					},
					"t_mapping(t_address,t_mapping(t_string_memory_ptr,t_uint256))": {
						"encoding": "mapping",
						"key": "t_address",
						"label": "mapping(address => mapping(string => uint256))",
						"numberOfBytes": "32",
						"value": "t_mapping(t_string_memory_ptr,t_uint256)"
					},
					"t_mapping(t_address,t_uint256)": {
						"encoding": "mapping",
						"key": "t_address",
						"label": "mapping(address => uint256)",
						"numberOfBytes": "32",
						"value": "t_uint256"
					},
					"t_mapping(t_string_memory_ptr,t_uint256)": {
						"encoding": "mapping",
						"key": "t_string_memory_ptr",
						"label": "mapping(string => uint256)",
						"numberOfBytes": "32",
						"value": "t_uint256"
					},
					"t_string_memory_ptr": {
						"encoding": "bytes",
						"label": "string",
						"numberOfBytes": "32"
					},
					"t_uint256": {
						"encoding": "inplace",
						"label": "uint256",
						"numberOfBytes": "32"
					}
				}
			},
			"userdoc": {
				"kind": "user",
				"methods": {},
				"version": 1
			}
		}
	}
}