{
	"practise/ABI.sol": {
		"ABI": {
			"abi": [
				{
					"inputs": [
						{
							"internalType": "string",
							"name": "fun",
							"type": "string"
						}
					],
					"name": "compSelect",
					"outputs": [
						{
							"internalType": "bytes4",
							"name": "",
							"type": "bytes4"
						}
					],
					"stateMutability": "pure",
					"type": "function"
				},
				{
					"inputs": [],
					"name": "getSelecter",
					"outputs": [
						{
							"internalType": "bytes4",
							"name": "",
							"type": "bytes4"
						}
					],
					"stateMutability": "pure",
					"type": "function"
				},
				{
					"inputs": [
						{
							"internalType": "string",
							"name": "input",
							"type": "string"
						}
					],
					"name": "hash",
					"outputs": [
						{
							"internalType": "bytes32",
							"name": "",
							"type": "bytes32"
						}
					],
					"stateMutability": "pure",
					"type": "function"
				}
			],
			"devdoc": {
				"kind": "dev",
				"methods": {},
				"version": 1
			},
			"evm": {
				"assembly": "    /* \"practise/ABI.sol\":60:466  contract ABI{... */\n  mstore(0x40, 0x80)\n  callvalue\n  dup1\n  iszero\n  tag_1\n  jumpi\n  revert(0x00, 0x00)\ntag_1:\n  pop\n  dataSize(sub_0)\n  dup1\n  dataOffset(sub_0)\n  0x00\n  codecopy\n  0x00\n  return\nstop\n\nsub_0: assembly {\n        /* \"practise/ABI.sol\":60:466  contract ABI{... */\n      mstore(0x40, 0x80)\n      callvalue\n      dup1\n      iszero\n      tag_1\n      jumpi\n      revert(0x00, 0x00)\n    tag_1:\n      pop\n      jumpi(tag_2, lt(calldatasize, 0x04))\n      shr(0xe0, calldataload(0x00))\n      dup1\n      0x03d46eb6\n      eq\n      tag_3\n      jumpi\n      dup1\n      0x39bbb587\n      eq\n      tag_4\n      jumpi\n      dup1\n      0xb411ee94\n      eq\n      tag_5\n      jumpi\n    tag_2:\n      revert(0x00, 0x00)\n        /* \"practise/ABI.sol\":116:200  function getSelecter() public pure returns(bytes4){... */\n    tag_3:\n      tag_6\n      tag_7\n      jump\t// in\n    tag_6:\n      mload(0x40)\n      tag_8\n      swap2\n      swap1\n      tag_9\n      jump\t// in\n    tag_8:\n      mload(0x40)\n      dup1\n      swap2\n      sub\n      swap1\n      return\n        /* \"practise/ABI.sol\":208:330  function compSelect(string memory fun) public  pure returns(bytes4){... */\n    tag_4:\n      tag_10\n      0x04\n      dup1\n      calldatasize\n      sub\n      dup2\n      add\n      swap1\n      tag_11\n      swap2\n      swap1\n      tag_12\n      jump\t// in\n    tag_11:\n      tag_13\n      jump\t// in\n    tag_10:\n      mload(0x40)\n      tag_14\n      swap2\n      swap1\n      tag_9\n      jump\t// in\n    tag_14:\n      mload(0x40)\n      dup1\n      swap2\n      sub\n      swap1\n      return\n        /* \"practise/ABI.sol\":338:463  function hash(string memory input) public  pure returns (bytes32){... */\n    tag_5:\n      tag_15\n      0x04\n      dup1\n      calldatasize\n      sub\n      dup2\n      add\n      swap1\n      tag_16\n      swap2\n      swap1\n      tag_12\n      jump\t// in\n    tag_16:\n      tag_17\n      jump\t// in\n    tag_15:\n      mload(0x40)\n      tag_18\n      swap2\n      swap1\n      tag_19\n      jump\t// in\n    tag_18:\n      mload(0x40)\n      dup1\n      swap2\n      sub\n      swap1\n      return\n        /* \"practise/ABI.sol\":116:200  function getSelecter() public pure returns(bytes4){... */\n    tag_7:\n        /* \"practise/ABI.sol\":159:165  bytes4 */\n      0x00\n        /* \"practise/ABI.sol\":185:192  msg.sig */\n      and(0xffffffff00000000000000000000000000000000000000000000000000000000, calldataload(0x00))\n        /* \"practise/ABI.sol\":178:192  return msg.sig */\n      swap1\n      pop\n        /* \"practise/ABI.sol\":116:200  function getSelecter() public pure returns(bytes4){... */\n      swap1\n      jump\t// out\n        /* \"practise/ABI.sol\":208:330  function compSelect(string memory fun) public  pure returns(bytes4){... */\n    tag_13:\n        /* \"practise/ABI.sol\":268:274  bytes4 */\n      0x00\n        /* \"practise/ABI.sol\":316:319  fun */\n      dup2\n        /* \"practise/ABI.sol\":300:321  keccak256(bytes(fun)) */\n      dup1\n      mload\n      swap1\n      0x20\n      add\n      keccak256\n        /* \"practise/ABI.sol\":286:322  return bytes4(keccak256(bytes(fun))) */\n      swap1\n      pop\n        /* \"practise/ABI.sol\":208:330  function compSelect(string memory fun) public  pure returns(bytes4){... */\n      swap2\n      swap1\n      pop\n      jump\t// out\n        /* \"practise/ABI.sol\":338:463  function hash(string memory input) public  pure returns (bytes32){... */\n    tag_17:\n        /* \"practise/ABI.sol\":395:402  bytes32 */\n      0x00\n        /* \"practise/ABI.sol\":448:453  input */\n      dup2\n        /* \"practise/ABI.sol\":431:454  abi.encodePacked(input) */\n      add(0x20, mload(0x40))\n      tag_23\n      swap2\n      swap1\n      tag_24\n      jump\t// in\n    tag_23:\n      mload(0x40)\n      0x20\n      dup2\n      dup4\n      sub\n      sub\n      dup2\n      mstore\n      swap1\n      0x40\n      mstore\n        /* \"practise/ABI.sol\":421:455  keccak256(abi.encodePacked(input)) */\n      dup1\n      mload\n      swap1\n      0x20\n      add\n      keccak256\n        /* \"practise/ABI.sol\":414:455  return keccak256(abi.encodePacked(input)) */\n      swap1\n      pop\n        /* \"practise/ABI.sol\":338:463  function hash(string memory input) public  pure returns (bytes32){... */\n      swap2\n      swap1\n      pop\n      jump\t// out\n        /* \"#utility.yul\":7:156   */\n    tag_25:\n        /* \"#utility.yul\":43:50   */\n      0x00\n        /* \"#utility.yul\":83:149   */\n      0xffffffff00000000000000000000000000000000000000000000000000000000\n        /* \"#utility.yul\":76:81   */\n      dup3\n        /* \"#utility.yul\":72:150   */\n      and\n        /* \"#utility.yul\":61:150   */\n      swap1\n      pop\n        /* \"#utility.yul\":7:156   */\n      swap2\n      swap1\n      pop\n      jump\t// out\n        /* \"#utility.yul\":162:277   */\n    tag_26:\n        /* \"#utility.yul\":247:270   */\n      tag_49\n        /* \"#utility.yul\":264:269   */\n      dup2\n        /* \"#utility.yul\":247:270   */\n      tag_25\n      jump\t// in\n    tag_49:\n        /* \"#utility.yul\":242:245   */\n      dup3\n        /* \"#utility.yul\":235:271   */\n      mstore\n        /* \"#utility.yul\":162:277   */\n      pop\n      pop\n      jump\t// out\n        /* \"#utility.yul\":283:501   */\n    tag_9:\n        /* \"#utility.yul\":374:378   */\n      0x00\n        /* \"#utility.yul\":412:414   */\n      0x20\n        /* \"#utility.yul\":401:410   */\n      dup3\n        /* \"#utility.yul\":397:415   */\n      add\n        /* \"#utility.yul\":389:415   */\n      swap1\n      pop\n        /* \"#utility.yul\":425:494   */\n      tag_51\n        /* \"#utility.yul\":491:492   */\n      0x00\n        /* \"#utility.yul\":480:489   */\n      dup4\n        /* \"#utility.yul\":476:493   */\n      add\n        /* \"#utility.yul\":467:473   */\n      dup5\n        /* \"#utility.yul\":425:494   */\n      tag_26\n      jump\t// in\n    tag_51:\n        /* \"#utility.yul\":283:501   */\n      swap3\n      swap2\n      pop\n      pop\n      jump\t// out\n        /* \"#utility.yul\":507:582   */\n    tag_27:\n        /* \"#utility.yul\":540:546   */\n      0x00\n        /* \"#utility.yul\":573:575   */\n      0x40\n        /* \"#utility.yul\":567:576   */\n      mload\n        /* \"#utility.yul\":557:576   */\n      swap1\n      pop\n        /* \"#utility.yul\":507:582   */\n      swap1\n      jump\t// out\n        /* \"#utility.yul\":588:705   */\n    tag_28:\n        /* \"#utility.yul\":697:698   */\n      0x00\n        /* \"#utility.yul\":694:695   */\n      0x00\n        /* \"#utility.yul\":687:699   */\n      revert\n        /* \"#utility.yul\":711:828   */\n    tag_29:\n        /* \"#utility.yul\":820:821   */\n      0x00\n        /* \"#utility.yul\":817:818   */\n      0x00\n        /* \"#utility.yul\":810:822   */\n      revert\n        /* \"#utility.yul\":834:951   */\n    tag_30:\n        /* \"#utility.yul\":943:944   */\n      0x00\n        /* \"#utility.yul\":940:941   */\n      0x00\n        /* \"#utility.yul\":933:945   */\n      revert\n        /* \"#utility.yul\":957:1074   */\n    tag_31:\n        /* \"#utility.yul\":1066:1067   */\n      0x00\n        /* \"#utility.yul\":1063:1064   */\n      0x00\n        /* \"#utility.yul\":1056:1068   */\n      revert\n        /* \"#utility.yul\":1080:1182   */\n    tag_32:\n        /* \"#utility.yul\":1121:1127   */\n      0x00\n        /* \"#utility.yul\":1172:1174   */\n      0x1f\n        /* \"#utility.yul\":1168:1175   */\n      not\n        /* \"#utility.yul\":1163:1165   */\n      0x1f\n        /* \"#utility.yul\":1156:1161   */\n      dup4\n        /* \"#utility.yul\":1152:1166   */\n      add\n        /* \"#utility.yul\":1148:1176   */\n      and\n        /* \"#utility.yul\":1138:1176   */\n      swap1\n      pop\n        /* \"#utility.yul\":1080:1182   */\n      swap2\n      swap1\n      pop\n      jump\t// out\n        /* \"#utility.yul\":1188:1368   */\n    tag_33:\n        /* \"#utility.yul\":1236:1313   */\n      0x4e487b7100000000000000000000000000000000000000000000000000000000\n        /* \"#utility.yul\":1233:1234   */\n      0x00\n        /* \"#utility.yul\":1226:1314   */\n      mstore\n        /* \"#utility.yul\":1333:1337   */\n      0x41\n        /* \"#utility.yul\":1330:1331   */\n      0x04\n        /* \"#utility.yul\":1323:1338   */\n      mstore\n        /* \"#utility.yul\":1357:1361   */\n      0x24\n        /* \"#utility.yul\":1354:1355   */\n      0x00\n        /* \"#utility.yul\":1347:1362   */\n      revert\n        /* \"#utility.yul\":1374:1655   */\n    tag_34:\n        /* \"#utility.yul\":1457:1484   */\n      tag_60\n        /* \"#utility.yul\":1479:1483   */\n      dup3\n        /* \"#utility.yul\":1457:1484   */\n      tag_32\n      jump\t// in\n    tag_60:\n        /* \"#utility.yul\":1449:1455   */\n      dup2\n        /* \"#utility.yul\":1445:1485   */\n      add\n        /* \"#utility.yul\":1587:1593   */\n      dup2\n        /* \"#utility.yul\":1575:1585   */\n      dup2\n        /* \"#utility.yul\":1572:1594   */\n      lt\n        /* \"#utility.yul\":1551:1569   */\n      0xffffffffffffffff\n        /* \"#utility.yul\":1539:1549   */\n      dup3\n        /* \"#utility.yul\":1536:1570   */\n      gt\n        /* \"#utility.yul\":1533:1595   */\n      or\n        /* \"#utility.yul\":1530:1618   */\n      iszero\n      tag_61\n      jumpi\n        /* \"#utility.yul\":1598:1616   */\n      tag_62\n      tag_33\n      jump\t// in\n    tag_62:\n        /* \"#utility.yul\":1530:1618   */\n    tag_61:\n        /* \"#utility.yul\":1638:1648   */\n      dup1\n        /* \"#utility.yul\":1634:1636   */\n      0x40\n        /* \"#utility.yul\":1627:1649   */\n      mstore\n        /* \"#utility.yul\":1417:1655   */\n      pop\n        /* \"#utility.yul\":1374:1655   */\n      pop\n      pop\n      jump\t// out\n        /* \"#utility.yul\":1661:1790   */\n    tag_35:\n        /* \"#utility.yul\":1695:1701   */\n      0x00\n        /* \"#utility.yul\":1722:1742   */\n      tag_64\n      tag_27\n      jump\t// in\n    tag_64:\n        /* \"#utility.yul\":1712:1742   */\n      swap1\n      pop\n        /* \"#utility.yul\":1751:1784   */\n      tag_65\n        /* \"#utility.yul\":1779:1783   */\n      dup3\n        /* \"#utility.yul\":1771:1777   */\n      dup3\n        /* \"#utility.yul\":1751:1784   */\n      tag_34\n      jump\t// in\n    tag_65:\n        /* \"#utility.yul\":1661:1790   */\n      swap2\n      swap1\n      pop\n      jump\t// out\n        /* \"#utility.yul\":1796:2104   */\n    tag_36:\n        /* \"#utility.yul\":1858:1862   */\n      0x00\n        /* \"#utility.yul\":1948:1966   */\n      0xffffffffffffffff\n        /* \"#utility.yul\":1940:1946   */\n      dup3\n        /* \"#utility.yul\":1937:1967   */\n      gt\n        /* \"#utility.yul\":1934:1990   */\n      iszero\n      tag_67\n      jumpi\n        /* \"#utility.yul\":1970:1988   */\n      tag_68\n      tag_33\n      jump\t// in\n    tag_68:\n        /* \"#utility.yul\":1934:1990   */\n    tag_67:\n        /* \"#utility.yul\":2008:2037   */\n      tag_69\n        /* \"#utility.yul\":2030:2036   */\n      dup3\n        /* \"#utility.yul\":2008:2037   */\n      tag_32\n      jump\t// in\n    tag_69:\n        /* \"#utility.yul\":2000:2037   */\n      swap1\n      pop\n        /* \"#utility.yul\":2092:2096   */\n      0x20\n        /* \"#utility.yul\":2086:2090   */\n      dup2\n        /* \"#utility.yul\":2082:2097   */\n      add\n        /* \"#utility.yul\":2074:2097   */\n      swap1\n      pop\n        /* \"#utility.yul\":1796:2104   */\n      swap2\n      swap1\n      pop\n      jump\t// out\n        /* \"#utility.yul\":2110:2258   */\n    tag_37:\n        /* \"#utility.yul\":2208:2214   */\n      dup3\n        /* \"#utility.yul\":2203:2206   */\n      dup2\n        /* \"#utility.yul\":2198:2201   */\n      dup4\n        /* \"#utility.yul\":2185:2215   */\n      calldatacopy\n        /* \"#utility.yul\":2249:2250   */\n      0x00\n        /* \"#utility.yul\":2240:2246   */\n      dup4\n        /* \"#utility.yul\":2235:2238   */\n      dup4\n        /* \"#utility.yul\":2231:2247   */\n      add\n        /* \"#utility.yul\":2224:2251   */\n      mstore\n        /* \"#utility.yul\":2110:2258   */\n      pop\n      pop\n      pop\n      jump\t// out\n        /* \"#utility.yul\":2264:2689   */\n    tag_38:\n        /* \"#utility.yul\":2342:2347   */\n      0x00\n        /* \"#utility.yul\":2367:2433   */\n      tag_72\n        /* \"#utility.yul\":2383:2432   */\n      tag_73\n        /* \"#utility.yul\":2425:2431   */\n      dup5\n        /* \"#utility.yul\":2383:2432   */\n      tag_36\n      jump\t// in\n    tag_73:\n        /* \"#utility.yul\":2367:2433   */\n      tag_35\n      jump\t// in\n    tag_72:\n        /* \"#utility.yul\":2358:2433   */\n      swap1\n      pop\n        /* \"#utility.yul\":2456:2462   */\n      dup3\n        /* \"#utility.yul\":2449:2454   */\n      dup2\n        /* \"#utility.yul\":2442:2463   */\n      mstore\n        /* \"#utility.yul\":2494:2498   */\n      0x20\n        /* \"#utility.yul\":2487:2492   */\n      dup2\n        /* \"#utility.yul\":2483:2499   */\n      add\n        /* \"#utility.yul\":2532:2535   */\n      dup5\n        /* \"#utility.yul\":2523:2529   */\n      dup5\n        /* \"#utility.yul\":2518:2521   */\n      dup5\n        /* \"#utility.yul\":2514:2530   */\n      add\n        /* \"#utility.yul\":2511:2536   */\n      gt\n        /* \"#utility.yul\":2508:2620   */\n      iszero\n      tag_74\n      jumpi\n        /* \"#utility.yul\":2539:2618   */\n      tag_75\n      tag_31\n      jump\t// in\n    tag_75:\n        /* \"#utility.yul\":2508:2620   */\n    tag_74:\n        /* \"#utility.yul\":2629:2683   */\n      tag_76\n        /* \"#utility.yul\":2676:2682   */\n      dup5\n        /* \"#utility.yul\":2671:2674   */\n      dup3\n        /* \"#utility.yul\":2666:2669   */\n      dup6\n        /* \"#utility.yul\":2629:2683   */\n      tag_37\n      jump\t// in\n    tag_76:\n        /* \"#utility.yul\":2348:2689   */\n      pop\n        /* \"#utility.yul\":2264:2689   */\n      swap4\n      swap3\n      pop\n      pop\n      pop\n      jump\t// out\n        /* \"#utility.yul\":2709:3049   */\n    tag_39:\n        /* \"#utility.yul\":2765:2770   */\n      0x00\n        /* \"#utility.yul\":2814:2817   */\n      dup3\n        /* \"#utility.yul\":2807:2811   */\n      0x1f\n        /* \"#utility.yul\":2799:2805   */\n      dup4\n        /* \"#utility.yul\":2795:2812   */\n      add\n        /* \"#utility.yul\":2791:2818   */\n      slt\n        /* \"#utility.yul\":2781:2903   */\n      tag_78\n      jumpi\n        /* \"#utility.yul\":2822:2901   */\n      tag_79\n      tag_30\n      jump\t// in\n    tag_79:\n        /* \"#utility.yul\":2781:2903   */\n    tag_78:\n        /* \"#utility.yul\":2939:2945   */\n      dup2\n        /* \"#utility.yul\":2926:2946   */\n      calldataload\n        /* \"#utility.yul\":2964:3043   */\n      tag_80\n        /* \"#utility.yul\":3039:3042   */\n      dup5\n        /* \"#utility.yul\":3031:3037   */\n      dup3\n        /* \"#utility.yul\":3024:3028   */\n      0x20\n        /* \"#utility.yul\":3016:3022   */\n      dup7\n        /* \"#utility.yul\":3012:3029   */\n      add\n        /* \"#utility.yul\":2964:3043   */\n      tag_38\n      jump\t// in\n    tag_80:\n        /* \"#utility.yul\":2955:3043   */\n      swap2\n      pop\n        /* \"#utility.yul\":2771:3049   */\n      pop\n        /* \"#utility.yul\":2709:3049   */\n      swap3\n      swap2\n      pop\n      pop\n      jump\t// out\n        /* \"#utility.yul\":3055:3564   */\n    tag_12:\n        /* \"#utility.yul\":3124:3130   */\n      0x00\n        /* \"#utility.yul\":3173:3175   */\n      0x20\n        /* \"#utility.yul\":3161:3170   */\n      dup3\n        /* \"#utility.yul\":3152:3159   */\n      dup5\n        /* \"#utility.yul\":3148:3171   */\n      sub\n        /* \"#utility.yul\":3144:3176   */\n      slt\n        /* \"#utility.yul\":3141:3260   */\n      iszero\n      tag_82\n      jumpi\n        /* \"#utility.yul\":3179:3258   */\n      tag_83\n      tag_28\n      jump\t// in\n    tag_83:\n        /* \"#utility.yul\":3141:3260   */\n    tag_82:\n        /* \"#utility.yul\":3327:3328   */\n      0x00\n        /* \"#utility.yul\":3316:3325   */\n      dup3\n        /* \"#utility.yul\":3312:3329   */\n      add\n        /* \"#utility.yul\":3299:3330   */\n      calldataload\n        /* \"#utility.yul\":3357:3375   */\n      0xffffffffffffffff\n        /* \"#utility.yul\":3349:3355   */\n      dup2\n        /* \"#utility.yul\":3346:3376   */\n      gt\n        /* \"#utility.yul\":3343:3460   */\n      iszero\n      tag_84\n      jumpi\n        /* \"#utility.yul\":3379:3458   */\n      tag_85\n      tag_29\n      jump\t// in\n    tag_85:\n        /* \"#utility.yul\":3343:3460   */\n    tag_84:\n        /* \"#utility.yul\":3484:3547   */\n      tag_86\n        /* \"#utility.yul\":3539:3546   */\n      dup5\n        /* \"#utility.yul\":3530:3536   */\n      dup3\n        /* \"#utility.yul\":3519:3528   */\n      dup6\n        /* \"#utility.yul\":3515:3537   */\n      add\n        /* \"#utility.yul\":3484:3547   */\n      tag_39\n      jump\t// in\n    tag_86:\n        /* \"#utility.yul\":3474:3547   */\n      swap2\n      pop\n        /* \"#utility.yul\":3270:3557   */\n      pop\n        /* \"#utility.yul\":3055:3564   */\n      swap3\n      swap2\n      pop\n      pop\n      jump\t// out\n        /* \"#utility.yul\":3570:3647   */\n    tag_40:\n        /* \"#utility.yul\":3607:3614   */\n      0x00\n        /* \"#utility.yul\":3636:3641   */\n      dup2\n        /* \"#utility.yul\":3625:3641   */\n      swap1\n      pop\n        /* \"#utility.yul\":3570:3647   */\n      swap2\n      swap1\n      pop\n      jump\t// out\n        /* \"#utility.yul\":3653:3771   */\n    tag_41:\n        /* \"#utility.yul\":3740:3764   */\n      tag_89\n        /* \"#utility.yul\":3758:3763   */\n      dup2\n        /* \"#utility.yul\":3740:3764   */\n      tag_40\n      jump\t// in\n    tag_89:\n        /* \"#utility.yul\":3735:3738   */\n      dup3\n        /* \"#utility.yul\":3728:3765   */\n      mstore\n        /* \"#utility.yul\":3653:3771   */\n      pop\n      pop\n      jump\t// out\n        /* \"#utility.yul\":3777:3999   */\n    tag_19:\n        /* \"#utility.yul\":3870:3874   */\n      0x00\n        /* \"#utility.yul\":3908:3910   */\n      0x20\n        /* \"#utility.yul\":3897:3906   */\n      dup3\n        /* \"#utility.yul\":3893:3911   */\n      add\n        /* \"#utility.yul\":3885:3911   */\n      swap1\n      pop\n        /* \"#utility.yul\":3921:3992   */\n      tag_91\n        /* \"#utility.yul\":3989:3990   */\n      0x00\n        /* \"#utility.yul\":3978:3987   */\n      dup4\n        /* \"#utility.yul\":3974:3991   */\n      add\n        /* \"#utility.yul\":3965:3971   */\n      dup5\n        /* \"#utility.yul\":3921:3992   */\n      tag_41\n      jump\t// in\n    tag_91:\n        /* \"#utility.yul\":3777:3999   */\n      swap3\n      swap2\n      pop\n      pop\n      jump\t// out\n        /* \"#utility.yul\":4005:4104   */\n    tag_42:\n        /* \"#utility.yul\":4057:4063   */\n      0x00\n        /* \"#utility.yul\":4091:4096   */\n      dup2\n        /* \"#utility.yul\":4085:4097   */\n      mload\n        /* \"#utility.yul\":4075:4097   */\n      swap1\n      pop\n        /* \"#utility.yul\":4005:4104   */\n      swap2\n      swap1\n      pop\n      jump\t// out\n        /* \"#utility.yul\":4110:4258   */\n    tag_43:\n        /* \"#utility.yul\":4212:4223   */\n      0x00\n        /* \"#utility.yul\":4249:4252   */\n      dup2\n        /* \"#utility.yul\":4234:4252   */\n      swap1\n      pop\n        /* \"#utility.yul\":4110:4258   */\n      swap3\n      swap2\n      pop\n      pop\n      jump\t// out\n        /* \"#utility.yul\":4264:4403   */\n    tag_44:\n        /* \"#utility.yul\":4353:4359   */\n      dup3\n        /* \"#utility.yul\":4348:4351   */\n      dup2\n        /* \"#utility.yul\":4343:4346   */\n      dup4\n        /* \"#utility.yul\":4337:4360   */\n      mcopy\n        /* \"#utility.yul\":4394:4395   */\n      0x00\n        /* \"#utility.yul\":4385:4391   */\n      dup4\n        /* \"#utility.yul\":4380:4383   */\n      dup4\n        /* \"#utility.yul\":4376:4392   */\n      add\n        /* \"#utility.yul\":4369:4396   */\n      mstore\n        /* \"#utility.yul\":4264:4403   */\n      pop\n      pop\n      pop\n      jump\t// out\n        /* \"#utility.yul\":4409:4799   */\n    tag_45:\n        /* \"#utility.yul\":4515:4518   */\n      0x00\n        /* \"#utility.yul\":4543:4582   */\n      tag_96\n        /* \"#utility.yul\":4576:4581   */\n      dup3\n        /* \"#utility.yul\":4543:4582   */\n      tag_42\n      jump\t// in\n    tag_96:\n        /* \"#utility.yul\":4598:4687   */\n      tag_97\n        /* \"#utility.yul\":4680:4686   */\n      dup2\n        /* \"#utility.yul\":4675:4678   */\n      dup6\n        /* \"#utility.yul\":4598:4687   */\n      tag_43\n      jump\t// in\n    tag_97:\n        /* \"#utility.yul\":4591:4687   */\n      swap4\n      pop\n        /* \"#utility.yul\":4696:4761   */\n      tag_98\n        /* \"#utility.yul\":4754:4760   */\n      dup2\n        /* \"#utility.yul\":4749:4752   */\n      dup6\n        /* \"#utility.yul\":4742:4746   */\n      0x20\n        /* \"#utility.yul\":4735:4740   */\n      dup7\n        /* \"#utility.yul\":4731:4747   */\n      add\n        /* \"#utility.yul\":4696:4761   */\n      tag_44\n      jump\t// in\n    tag_98:\n        /* \"#utility.yul\":4786:4792   */\n      dup1\n        /* \"#utility.yul\":4781:4784   */\n      dup5\n        /* \"#utility.yul\":4777:4793   */\n      add\n        /* \"#utility.yul\":4770:4793   */\n      swap2\n      pop\n        /* \"#utility.yul\":4519:4799   */\n      pop\n        /* \"#utility.yul\":4409:4799   */\n      swap3\n      swap2\n      pop\n      pop\n      jump\t// out\n        /* \"#utility.yul\":4805:5080   */\n    tag_24:\n        /* \"#utility.yul\":4937:4940   */\n      0x00\n        /* \"#utility.yul\":4959:5054   */\n      tag_100\n        /* \"#utility.yul\":5050:5053   */\n      dup3\n        /* \"#utility.yul\":5041:5047   */\n      dup5\n        /* \"#utility.yul\":4959:5054   */\n      tag_45\n      jump\t// in\n    tag_100:\n        /* \"#utility.yul\":4952:5054   */\n      swap2\n      pop\n        /* \"#utility.yul\":5071:5074   */\n      dup2\n        /* \"#utility.yul\":5064:5074   */\n      swap1\n      pop\n        /* \"#utility.yul\":4805:5080   */\n      swap3\n      swap2\n      pop\n      pop\n      jump\t// out\n\n    auxdata: 0xa2646970667358221220f2d2c7502d16589492b9b06bd60e16c6432429d78dcfd475b38410ad40a9e6c964736f6c634300081e0033\n}\n",
				"bytecode": {
					"linkReferences": {},
					"object": "6080604052348015600e575f5ffd5b506103e08061001c5f395ff3fe608060405234801561000f575f5ffd5b506004361061003f575f3560e01c806303d46eb61461004357806339bbb58714610061578063b411ee9414610091575b5f5ffd5b61004b6100c1565b6040516100589190610164565b60405180910390f35b61007b600480360381019061007691906102ca565b6100eb565b6040516100889190610164565b60405180910390f35b6100ab60048036038101906100a691906102ca565b6100fb565b6040516100b89190610329565b60405180910390f35b5f5f357fffffffff0000000000000000000000000000000000000000000000000000000016905090565b5f81805190602001209050919050565b5f8160405160200161010d9190610394565b604051602081830303815290604052805190602001209050919050565b5f7fffffffff0000000000000000000000000000000000000000000000000000000082169050919050565b61015e8161012a565b82525050565b5f6020820190506101775f830184610155565b92915050565b5f604051905090565b5f5ffd5b5f5ffd5b5f5ffd5b5f5ffd5b5f601f19601f8301169050919050565b7f4e487b71000000000000000000000000000000000000000000000000000000005f52604160045260245ffd5b6101dc82610196565b810181811067ffffffffffffffff821117156101fb576101fa6101a6565b5b80604052505050565b5f61020d61017d565b905061021982826101d3565b919050565b5f67ffffffffffffffff821115610238576102376101a6565b5b61024182610196565b9050602081019050919050565b828183375f83830152505050565b5f61026e6102698461021e565b610204565b90508281526020810184848401111561028a57610289610192565b5b61029584828561024e565b509392505050565b5f82601f8301126102b1576102b061018e565b5b81356102c184826020860161025c565b91505092915050565b5f602082840312156102df576102de610186565b5b5f82013567ffffffffffffffff8111156102fc576102fb61018a565b5b6103088482850161029d565b91505092915050565b5f819050919050565b61032381610311565b82525050565b5f60208201905061033c5f83018461031a565b92915050565b5f81519050919050565b5f81905092915050565b8281835e5f83830152505050565b5f61036e82610342565b610378818561034c565b9350610388818560208601610356565b80840191505092915050565b5f61039f8284610364565b91508190509291505056fea2646970667358221220f2d2c7502d16589492b9b06bd60e16c6432429d78dcfd475b38410ad40a9e6c964736f6c634300081e0033",
					"opcodes": "PUSH1 0x80 PUSH1 0x40 MSTORE CALLVALUE DUP1 ISZERO PUSH1 0xE JUMPI PUSH0 PUSH0 REVERT JUMPDEST POP PUSH2 0x3E0 DUP1 PUSH2 0x1C PUSH0 CODECOPY PUSH0 RETURN INVALID PUSH1 0x80 PUSH1 0x40 MSTORE CALLVALUE DUP1 ISZERO PUSH2 0xF JUMPI PUSH0 PUSH0 REVERT JUMPDEST POP PUSH1 0x4 CALLDATASIZE LT PUSH2 0x3F JUMPI PUSH0 CALLDATALOAD PUSH1 0xE0 SHR DUP1 PUSH4 0x3D46EB6 EQ PUSH2 0x43 JUMPI DUP1 PUSH4 0x39BBB587 EQ PUSH2 0x61 JUMPI DUP1 PUSH4 0xB411EE94 EQ PUSH2 0x91 JUMPI JUMPDEST PUSH0 PUSH0 REVERT JUMPDEST PUSH2 0x4B PUSH2 0xC1 JUMP JUMPDEST PUSH1 0x40 MLOAD PUSH2 0x58 SWAP2 SWAP1 PUSH2 0x164 JUMP JUMPDEST PUSH1 0x40 MLOAD DUP1 SWAP2 SUB SWAP1 RETURN JUMPDEST PUSH2 0x7B PUSH1 0x4 DUP1 CALLDATASIZE SUB DUP2 ADD SWAP1 PUSH2 0x76 SWAP2 SWAP1 PUSH2 0x2CA JUMP JUMPDEST PUSH2 0xEB JUMP JUMPDEST PUSH1 0x40 MLOAD PUSH2 0x88 SWAP2 SWAP1 PUSH2 0x164 JUMP JUMPDEST PUSH1 0x40 MLOAD DUP1 SWAP2 SUB SWAP1 RETURN JUMPDEST PUSH2 0xAB PUSH1 0x4 DUP1 CALLDATASIZE SUB DUP2 ADD SWAP1 PUSH2 0xA6 SWAP2 SWAP1 PUSH2 0x2CA JUMP JUMPDEST PUSH2 0xFB JUMP JUMPDEST PUSH1 0x40 MLOAD PUSH2 0xB8 SWAP2 SWAP1 PUSH2 0x329 JUMP JUMPDEST PUSH1 0x40 MLOAD DUP1 SWAP2 SUB SWAP1 RETURN JUMPDEST PUSH0 PUSH0 CALLDATALOAD PUSH32 0xFFFFFFFF00000000000000000000000000000000000000000000000000000000 AND SWAP1 POP SWAP1 JUMP JUMPDEST PUSH0 DUP2 DUP1 MLOAD SWAP1 PUSH1 0x20 ADD KECCAK256 SWAP1 POP SWAP2 SWAP1 POP JUMP JUMPDEST PUSH0 DUP2 PUSH1 0x40 MLOAD PUSH1 0x20 ADD PUSH2 0x10D SWAP2 SWAP1 PUSH2 0x394 JUMP JUMPDEST PUSH1 0x40 MLOAD PUSH1 0x20 DUP2 DUP4 SUB SUB DUP2 MSTORE SWAP1 PUSH1 0x40 MSTORE DUP1 MLOAD SWAP1 PUSH1 0x20 ADD KECCAK256 SWAP1 POP SWAP2 SWAP1 POP JUMP JUMPDEST PUSH0 PUSH32 0xFFFFFFFF00000000000000000000000000000000000000000000000000000000 DUP3 AND SWAP1 POP SWAP2 SWAP1 POP JUMP JUMPDEST PUSH2 0x15E DUP2 PUSH2 0x12A JUMP JUMPDEST DUP3 MSTORE POP POP JUMP JUMPDEST PUSH0 PUSH1 0x20 DUP3 ADD SWAP1 POP PUSH2 0x177 PUSH0 DUP4 ADD DUP5 PUSH2 0x155 JUMP JUMPDEST SWAP3 SWAP2 POP POP JUMP JUMPDEST PUSH0 PUSH1 0x40 MLOAD SWAP1 POP SWAP1 JUMP JUMPDEST PUSH0 PUSH0 REVERT JUMPDEST PUSH0 PUSH0 REVERT JUMPDEST PUSH0 PUSH0 REVERT JUMPDEST PUSH0 PUSH0 REVERT JUMPDEST PUSH0 PUSH1 0x1F NOT PUSH1 0x1F DUP4 ADD AND SWAP1 POP SWAP2 SWAP1 POP JUMP JUMPDEST PUSH32 0x4E487B7100000000000000000000000000000000000000000000000000000000 PUSH0 MSTORE PUSH1 0x41 PUSH1 0x4 MSTORE PUSH1 0x24 PUSH0 REVERT JUMPDEST PUSH2 0x1DC DUP3 PUSH2 0x196 JUMP JUMPDEST DUP2 ADD DUP2 DUP2 LT PUSH8 0xFFFFFFFFFFFFFFFF DUP3 GT OR ISZERO PUSH2 0x1FB JUMPI PUSH2 0x1FA PUSH2 0x1A6 JUMP JUMPDEST JUMPDEST DUP1 PUSH1 0x40 MSTORE POP POP POP JUMP JUMPDEST PUSH0 PUSH2 0x20D PUSH2 0x17D JUMP JUMPDEST SWAP1 POP PUSH2 0x219 DUP3 DUP3 PUSH2 0x1D3 JUMP JUMPDEST SWAP2 SWAP1 POP JUMP JUMPDEST PUSH0 PUSH8 0xFFFFFFFFFFFFFFFF DUP3 GT ISZERO PUSH2 0x238 JUMPI PUSH2 0x237 PUSH2 0x1A6 JUMP JUMPDEST JUMPDEST PUSH2 0x241 DUP3 PUSH2 0x196 JUMP JUMPDEST SWAP1 POP PUSH1 0x20 DUP2 ADD SWAP1 POP SWAP2 SWAP1 POP JUMP JUMPDEST DUP3 DUP2 DUP4 CALLDATACOPY PUSH0 DUP4 DUP4 ADD MSTORE POP POP POP JUMP JUMPDEST PUSH0 PUSH2 0x26E PUSH2 0x269 DUP5 PUSH2 0x21E JUMP JUMPDEST PUSH2 0x204 JUMP JUMPDEST SWAP1 POP DUP3 DUP2 MSTORE PUSH1 0x20 DUP2 ADD DUP5 DUP5 DUP5 ADD GT ISZERO PUSH2 0x28A JUMPI PUSH2 0x289 PUSH2 0x192 JUMP JUMPDEST JUMPDEST PUSH2 0x295 DUP5 DUP3 DUP6 PUSH2 0x24E JUMP JUMPDEST POP SWAP4 SWAP3 POP POP POP JUMP JUMPDEST PUSH0 DUP3 PUSH1 0x1F DUP4 ADD SLT PUSH2 0x2B1 JUMPI PUSH2 0x2B0 PUSH2 0x18E JUMP JUMPDEST JUMPDEST DUP2 CALLDATALOAD PUSH2 0x2C1 DUP5 DUP3 PUSH1 0x20 DUP7 ADD PUSH2 0x25C JUMP JUMPDEST SWAP2 POP POP SWAP3 SWAP2 POP POP JUMP JUMPDEST PUSH0 PUSH1 0x20 DUP3 DUP5 SUB SLT ISZERO PUSH2 0x2DF JUMPI PUSH2 0x2DE PUSH2 0x186 JUMP JUMPDEST JUMPDEST PUSH0 DUP3 ADD CALLDATALOAD PUSH8 0xFFFFFFFFFFFFFFFF DUP2 GT ISZERO PUSH2 0x2FC JUMPI PUSH2 0x2FB PUSH2 0x18A JUMP JUMPDEST JUMPDEST PUSH2 0x308 DUP5 DUP3 DUP6 ADD PUSH2 0x29D JUMP JUMPDEST SWAP2 POP POP SWAP3 SWAP2 POP POP JUMP JUMPDEST PUSH0 DUP2 SWAP1 POP SWAP2 SWAP1 POP JUMP JUMPDEST PUSH2 0x323 DUP2 PUSH2 0x311 JUMP JUMPDEST DUP3 MSTORE POP POP JUMP JUMPDEST PUSH0 PUSH1 0x20 DUP3 ADD SWAP1 POP PUSH2 0x33C PUSH0 DUP4 ADD DUP5 PUSH2 0x31A JUMP JUMPDEST SWAP3 SWAP2 POP POP JUMP JUMPDEST PUSH0 DUP2 MLOAD SWAP1 POP SWAP2 SWAP1 POP JUMP JUMPDEST PUSH0 DUP2 SWAP1 POP SWAP3 SWAP2 POP POP JUMP JUMPDEST DUP3 DUP2 DUP4 MCOPY PUSH0 DUP4 DUP4 ADD MSTORE POP POP POP JUMP JUMPDEST PUSH0 PUSH2 0x36E DUP3 PUSH2 0x342 JUMP JUMPDEST PUSH2 0x378 DUP2 DUP6 PUSH2 0x34C JUMP JUMPDEST SWAP4 POP PUSH2 0x388 DUP2 DUP6 PUSH1 0x20 DUP7 ADD PUSH2 0x356 JUMP JUMPDEST DUP1 DUP5 ADD SWAP2 POP POP SWAP3 SWAP2 POP POP JUMP JUMPDEST PUSH0 PUSH2 0x39F DUP3 DUP5 PUSH2 0x364 JUMP JUMPDEST SWAP2 POP DUP2 SWAP1 POP SWAP3 SWAP2 POP POP JUMP INVALID LOG2 PUSH5 0x6970667358 0x22 SLT KECCAK256 CALLCODE 0xD2 0xC7 POP 0x2D AND PC SWAP5 SWAP3 0xB9 0xB0 PUSH12 0xD60E16C6432429D78DCFD475 0xB3 DUP5 LT 0xAD BLOCKHASH 0xA9 DUPN 0xC9 PUSH5 0x736F6C6343 STOP ADDMOD 0x1E STOP CALLER "
				},
				"gasEstimates": {
					"creation": {
						"codeDepositCost": "198400",
						"executionCost": "236",
						"totalCost": "198636"
					},
					"external": {
						"compSelect(string)": "infinite",
						"getSelecter()": "324",
						"hash(string)": "infinite"
					}
				},
				"methodIdentifiers": {
					"compSelect(string)": "39bbb587",
					"getSelecter()": "03d46eb6",
					"hash(string)": "b411ee94"
				}
			},
			"storageLayout": {
				"storage": [],
				"types": null
			},
			"userdoc": {
				"kind": "user",
				"methods": {},
				"version": 1
			}
		}
	}
}