{
	"practise/Hello.sol": {
		"Hello": {
			"abi": [
				{
					"inputs": [
						{
							"internalType": "string",
							"name": "a",
							"type": "string"
						},
						{
							"internalType": "string",
							"name": "b",
							"type": "string"
						}
					],
					"name": "contact",
					"outputs": [
						{
							"internalType": "string",
							"name": "",
							"type": "string"
						}
					],
					"stateMutability": "pure",
					"type": "function"
				},
				{
					"inputs": [],
					"name": "hello",
					"outputs": [
						{
							"internalType": "string",
							"name": "",
							"type": "string"
						}
					],
					"stateMutability": "view",
					"type": "function"
				},
				{
					"inputs": [
						{
							"internalType": "string",
							"name": "name",
							"type": "string"
						}
					],
					"name": "sayHello",
					"outputs": [
						{
							"internalType": "string",
							"name": "",
							"type": "string"
						}
					],
					"stateMutability": "view",
					"type": "function"
				},
				{
					"inputs": [
						{
							"internalType": "string",
							"name": "_hello",
							"type": "string"
						}
					],
					"name": "sethello",
					"outputs": [
						{
							"internalType": "string",
							"name": "",
							"type": "string"
						}
					],
					"stateMutability": "nonpayable",
					"type": "function"
				}
			],
			"devdoc": {
				"kind": "dev",
				"methods": {},
				"version": 1
			},
			"evm": {
				"assembly": "    /* \"practise/Hello.sol\":60:657  contract Hello{... */\n  mstore(0x40, 0x80)\n    /* \"practise/Hello.sol\":81:111  string public hello = \"hello!\" */\n  mload(0x40)\n  dup1\n  0x40\n  add\n  0x40\n  mstore\n  dup1\n  0x06\n  dup2\n  mstore\n  0x20\n  add\n  0x68656c6c6f210000000000000000000000000000000000000000000000000000\n  dup2\n  mstore\n  pop\n  0x00\n  swap1\n  dup2\n  tag_1\n  swap2\n  swap1\n  tag_2\n  jump\t// in\ntag_1:\n  pop\n    /* \"practise/Hello.sol\":60:657  contract Hello{... */\n  callvalue\n  dup1\n  iszero\n  tag_3\n  jumpi\n  revert(0x00, 0x00)\ntag_3:\n  pop\n  jump(tag_4)\n    /* \"#utility.yul\":7:106   */\ntag_5:\n    /* \"#utility.yul\":59:65   */\n  0x00\n    /* \"#utility.yul\":93:98   */\n  dup2\n    /* \"#utility.yul\":87:99   */\n  mload\n    /* \"#utility.yul\":77:99   */\n  swap1\n  pop\n    /* \"#utility.yul\":7:106   */\n  swap2\n  swap1\n  pop\n  jump\t// out\n    /* \"#utility.yul\":112:292   */\ntag_6:\n    /* \"#utility.yul\":160:237   */\n  0x4e487b7100000000000000000000000000000000000000000000000000000000\n    /* \"#utility.yul\":157:158   */\n  0x00\n    /* \"#utility.yul\":150:238   */\n  mstore\n    /* \"#utility.yul\":257:261   */\n  0x41\n    /* \"#utility.yul\":254:255   */\n  0x04\n    /* \"#utility.yul\":247:262   */\n  mstore\n    /* \"#utility.yul\":281:285   */\n  0x24\n    /* \"#utility.yul\":278:279   */\n  0x00\n    /* \"#utility.yul\":271:286   */\n  revert\n    /* \"#utility.yul\":298:478   */\ntag_7:\n    /* \"#utility.yul\":346:423   */\n  0x4e487b7100000000000000000000000000000000000000000000000000000000\n    /* \"#utility.yul\":343:344   */\n  0x00\n    /* \"#utility.yul\":336:424   */\n  mstore\n    /* \"#utility.yul\":443:447   */\n  0x22\n    /* \"#utility.yul\":440:441   */\n  0x04\n    /* \"#utility.yul\":433:448   */\n  mstore\n    /* \"#utility.yul\":467:471   */\n  0x24\n    /* \"#utility.yul\":464:465   */\n  0x00\n    /* \"#utility.yul\":457:472   */\n  revert\n    /* \"#utility.yul\":484:804   */\ntag_8:\n    /* \"#utility.yul\":528:534   */\n  0x00\n    /* \"#utility.yul\":565:566   */\n  0x02\n    /* \"#utility.yul\":559:563   */\n  dup3\n    /* \"#utility.yul\":555:567   */\n  div\n    /* \"#utility.yul\":545:567   */\n  swap1\n  pop\n    /* \"#utility.yul\":612:613   */\n  0x01\n    /* \"#utility.yul\":606:610   */\n  dup3\n    /* \"#utility.yul\":602:614   */\n  and\n    /* \"#utility.yul\":633:651   */\n  dup1\n    /* \"#utility.yul\":623:704   */\n  tag_30\n  jumpi\n    /* \"#utility.yul\":689:693   */\n  0x7f\n    /* \"#utility.yul\":681:687   */\n  dup3\n    /* \"#utility.yul\":677:694   */\n  and\n    /* \"#utility.yul\":667:694   */\n  swap2\n  pop\n    /* \"#utility.yul\":623:704   */\ntag_30:\n    /* \"#utility.yul\":751:753   */\n  0x20\n    /* \"#utility.yul\":743:749   */\n  dup3\n    /* \"#utility.yul\":740:754   */\n  lt\n    /* \"#utility.yul\":720:738   */\n  dup2\n    /* \"#utility.yul\":717:755   */\n  sub\n    /* \"#utility.yul\":714:798   */\n  tag_31\n  jumpi\n    /* \"#utility.yul\":770:788   */\n  tag_32\n  tag_7\n  jump\t// in\ntag_32:\n    /* \"#utility.yul\":714:798   */\ntag_31:\n    /* \"#utility.yul\":535:804   */\n  pop\n    /* \"#utility.yul\":484:804   */\n  swap2\n  swap1\n  pop\n  jump\t// out\n    /* \"#utility.yul\":810:951   */\ntag_9:\n    /* \"#utility.yul\":859:863   */\n  0x00\n    /* \"#utility.yul\":882:885   */\n  dup2\n    /* \"#utility.yul\":874:885   */\n  swap1\n  pop\n    /* \"#utility.yul\":905:908   */\n  dup2\n    /* \"#utility.yul\":902:903   */\n  0x00\n    /* \"#utility.yul\":895:909   */\n  mstore\n    /* \"#utility.yul\":939:943   */\n  0x20\n    /* \"#utility.yul\":936:937   */\n  0x00\n    /* \"#utility.yul\":926:944   */\n  keccak256\n    /* \"#utility.yul\":918:944   */\n  swap1\n  pop\n    /* \"#utility.yul\":810:951   */\n  swap2\n  swap1\n  pop\n  jump\t// out\n    /* \"#utility.yul\":957:1050   */\ntag_10:\n    /* \"#utility.yul\":994:1000   */\n  0x00\n    /* \"#utility.yul\":1041:1043   */\n  0x20\n    /* \"#utility.yul\":1036:1038   */\n  0x1f\n    /* \"#utility.yul\":1029:1034   */\n  dup4\n    /* \"#utility.yul\":1025:1039   */\n  add\n    /* \"#utility.yul\":1021:1044   */\n  div\n    /* \"#utility.yul\":1011:1044   */\n  swap1\n  pop\n    /* \"#utility.yul\":957:1050   */\n  swap2\n  swap1\n  pop\n  jump\t// out\n    /* \"#utility.yul\":1056:1163   */\ntag_11:\n    /* \"#utility.yul\":1100:1108   */\n  0x00\n    /* \"#utility.yul\":1150:1155   */\n  dup3\n    /* \"#utility.yul\":1144:1148   */\n  dup3\n    /* \"#utility.yul\":1140:1156   */\n  shl\n    /* \"#utility.yul\":1119:1156   */\n  swap1\n  pop\n    /* \"#utility.yul\":1056:1163   */\n  swap3\n  swap2\n  pop\n  pop\n  jump\t// out\n    /* \"#utility.yul\":1169:1562   */\ntag_12:\n    /* \"#utility.yul\":1238:1244   */\n  0x00\n    /* \"#utility.yul\":1288:1289   */\n  0x08\n    /* \"#utility.yul\":1276:1286   */\n  dup4\n    /* \"#utility.yul\":1272:1290   */\n  mul\n    /* \"#utility.yul\":1311:1408   */\n  tag_37\n    /* \"#utility.yul\":1341:1407   */\n  0xffffffffffffffffffffffffffffffffffffffffffffffffffffffffffffffff\n    /* \"#utility.yul\":1330:1339   */\n  dup3\n    /* \"#utility.yul\":1311:1408   */\n  tag_11\n  jump\t// in\ntag_37:\n    /* \"#utility.yul\":1429:1468   */\n  tag_38\n    /* \"#utility.yul\":1459:1467   */\n  dup7\n    /* \"#utility.yul\":1448:1457   */\n  dup4\n    /* \"#utility.yul\":1429:1468   */\n  tag_11\n  jump\t// in\ntag_38:\n    /* \"#utility.yul\":1417:1468   */\n  swap6\n  pop\n    /* \"#utility.yul\":1501:1505   */\n  dup1\n    /* \"#utility.yul\":1497:1506   */\n  not\n    /* \"#utility.yul\":1490:1495   */\n  dup5\n    /* \"#utility.yul\":1486:1507   */\n  and\n    /* \"#utility.yul\":1477:1507   */\n  swap4\n  pop\n    /* \"#utility.yul\":1550:1554   */\n  dup1\n    /* \"#utility.yul\":1540:1548   */\n  dup7\n    /* \"#utility.yul\":1536:1555   */\n  and\n    /* \"#utility.yul\":1529:1534   */\n  dup5\n    /* \"#utility.yul\":1526:1556   */\n  or\n    /* \"#utility.yul\":1516:1556   */\n  swap3\n  pop\n    /* \"#utility.yul\":1245:1562   */\n  pop\n  pop\n    /* \"#utility.yul\":1169:1562   */\n  swap4\n  swap3\n  pop\n  pop\n  pop\n  jump\t// out\n    /* \"#utility.yul\":1568:1645   */\ntag_13:\n    /* \"#utility.yul\":1605:1612   */\n  0x00\n    /* \"#utility.yul\":1634:1639   */\n  dup2\n    /* \"#utility.yul\":1623:1639   */\n  swap1\n  pop\n    /* \"#utility.yul\":1568:1645   */\n  swap2\n  swap1\n  pop\n  jump\t// out\n    /* \"#utility.yul\":1651:1711   */\ntag_14:\n    /* \"#utility.yul\":1679:1682   */\n  0x00\n    /* \"#utility.yul\":1700:1705   */\n  dup2\n    /* \"#utility.yul\":1693:1705   */\n  swap1\n  pop\n    /* \"#utility.yul\":1651:1711   */\n  swap2\n  swap1\n  pop\n  jump\t// out\n    /* \"#utility.yul\":1717:1859   */\ntag_15:\n    /* \"#utility.yul\":1767:1776   */\n  0x00\n    /* \"#utility.yul\":1800:1853   */\n  tag_42\n    /* \"#utility.yul\":1818:1852   */\n  tag_43\n    /* \"#utility.yul\":1827:1851   */\n  tag_44\n    /* \"#utility.yul\":1845:1850   */\n  dup5\n    /* \"#utility.yul\":1827:1851   */\n  tag_13\n  jump\t// in\ntag_44:\n    /* \"#utility.yul\":1818:1852   */\n  tag_14\n  jump\t// in\ntag_43:\n    /* \"#utility.yul\":1800:1853   */\n  tag_13\n  jump\t// in\ntag_42:\n    /* \"#utility.yul\":1787:1853   */\n  swap1\n  pop\n    /* \"#utility.yul\":1717:1859   */\n  swap2\n  swap1\n  pop\n  jump\t// out\n    /* \"#utility.yul\":1865:1940   */\ntag_16:\n    /* \"#utility.yul\":1908:1911   */\n  0x00\n    /* \"#utility.yul\":1929:1934   */\n  dup2\n    /* \"#utility.yul\":1922:1934   */\n  swap1\n  pop\n    /* \"#utility.yul\":1865:1940   */\n  swap2\n  swap1\n  pop\n  jump\t// out\n    /* \"#utility.yul\":1946:2215   */\ntag_17:\n    /* \"#utility.yul\":2056:2095   */\n  tag_47\n    /* \"#utility.yul\":2087:2094   */\n  dup4\n    /* \"#utility.yul\":2056:2095   */\n  tag_15\n  jump\t// in\ntag_47:\n    /* \"#utility.yul\":2117:2208   */\n  tag_48\n    /* \"#utility.yul\":2166:2207   */\n  tag_49\n    /* \"#utility.yul\":2190:2206   */\n  dup3\n    /* \"#utility.yul\":2166:2207   */\n  tag_16\n  jump\t// in\ntag_49:\n    /* \"#utility.yul\":2158:2164   */\n  dup5\n    /* \"#utility.yul\":2151:2155   */\n  dup5\n    /* \"#utility.yul\":2145:2156   */\n  sload\n    /* \"#utility.yul\":2117:2208   */\n  tag_12\n  jump\t// in\ntag_48:\n    /* \"#utility.yul\":2111:2115   */\n  dup3\n    /* \"#utility.yul\":2104:2209   */\n  sstore\n    /* \"#utility.yul\":2022:2215   */\n  pop\n    /* \"#utility.yul\":1946:2215   */\n  pop\n  pop\n  pop\n  jump\t// out\n    /* \"#utility.yul\":2221:2294   */\ntag_18:\n    /* \"#utility.yul\":2266:2269   */\n  0x00\n    /* \"#utility.yul\":2287:2288   */\n  0x00\n    /* \"#utility.yul\":2280:2288   */\n  swap1\n  pop\n    /* \"#utility.yul\":2221:2294   */\n  swap1\n  jump\t// out\n    /* \"#utility.yul\":2300:2489   */\ntag_19:\n    /* \"#utility.yul\":2377:2409   */\n  tag_52\n  tag_18\n  jump\t// in\ntag_52:\n    /* \"#utility.yul\":2418:2483   */\n  tag_53\n    /* \"#utility.yul\":2476:2482   */\n  dup2\n    /* \"#utility.yul\":2468:2474   */\n  dup5\n    /* \"#utility.yul\":2462:2466   */\n  dup5\n    /* \"#utility.yul\":2418:2483   */\n  tag_17\n  jump\t// in\ntag_53:\n    /* \"#utility.yul\":2353:2489   */\n  pop\n    /* \"#utility.yul\":2300:2489   */\n  pop\n  pop\n  jump\t// out\n    /* \"#utility.yul\":2495:2681   */\ntag_20:\n    /* \"#utility.yul\":2555:2675   */\ntag_55:\n    /* \"#utility.yul\":2572:2575   */\n  dup2\n    /* \"#utility.yul\":2565:2570   */\n  dup2\n    /* \"#utility.yul\":2562:2576   */\n  lt\n    /* \"#utility.yul\":2555:2675   */\n  iszero\n  tag_57\n  jumpi\n    /* \"#utility.yul\":2626:2665   */\n  tag_58\n    /* \"#utility.yul\":2663:2664   */\n  0x00\n    /* \"#utility.yul\":2656:2661   */\n  dup3\n    /* \"#utility.yul\":2626:2665   */\n  tag_19\n  jump\t// in\ntag_58:\n    /* \"#utility.yul\":2599:2600   */\n  0x01\n    /* \"#utility.yul\":2592:2597   */\n  dup2\n    /* \"#utility.yul\":2588:2601   */\n  add\n    /* \"#utility.yul\":2579:2601   */\n  swap1\n  pop\n    /* \"#utility.yul\":2555:2675   */\n  jump(tag_55)\ntag_57:\n    /* \"#utility.yul\":2495:2681   */\n  pop\n  pop\n  jump\t// out\n    /* \"#utility.yul\":2687:3230   */\ntag_21:\n    /* \"#utility.yul\":2788:2790   */\n  0x1f\n    /* \"#utility.yul\":2783:2786   */\n  dup3\n    /* \"#utility.yul\":2780:2791   */\n  gt\n    /* \"#utility.yul\":2777:3223   */\n  iszero\n  tag_60\n  jumpi\n    /* \"#utility.yul\":2822:2860   */\n  tag_61\n    /* \"#utility.yul\":2854:2859   */\n  dup2\n    /* \"#utility.yul\":2822:2860   */\n  tag_9\n  jump\t// in\ntag_61:\n    /* \"#utility.yul\":2906:2935   */\n  tag_62\n    /* \"#utility.yul\":2924:2934   */\n  dup5\n    /* \"#utility.yul\":2906:2935   */\n  tag_10\n  jump\t// in\ntag_62:\n    /* \"#utility.yul\":2896:2904   */\n  dup2\n    /* \"#utility.yul\":2892:2936   */\n  add\n    /* \"#utility.yul\":3089:3091   */\n  0x20\n    /* \"#utility.yul\":3077:3087   */\n  dup6\n    /* \"#utility.yul\":3074:3092   */\n  lt\n    /* \"#utility.yul\":3071:3120   */\n  iszero\n  tag_63\n  jumpi\n    /* \"#utility.yul\":3110:3118   */\n  dup2\n    /* \"#utility.yul\":3095:3118   */\n  swap1\n  pop\n    /* \"#utility.yul\":3071:3120   */\ntag_63:\n    /* \"#utility.yul\":3133:3213   */\n  tag_64\n    /* \"#utility.yul\":3189:3211   */\n  tag_65\n    /* \"#utility.yul\":3207:3210   */\n  dup6\n    /* \"#utility.yul\":3189:3211   */\n  tag_10\n  jump\t// in\ntag_65:\n    /* \"#utility.yul\":3179:3187   */\n  dup4\n    /* \"#utility.yul\":3175:3212   */\n  add\n    /* \"#utility.yul\":3162:3173   */\n  dup3\n    /* \"#utility.yul\":3133:3213   */\n  tag_20\n  jump\t// in\ntag_64:\n    /* \"#utility.yul\":2792:3223   */\n  pop\n  pop\n    /* \"#utility.yul\":2777:3223   */\ntag_60:\n    /* \"#utility.yul\":2687:3230   */\n  pop\n  pop\n  pop\n  jump\t// out\n    /* \"#utility.yul\":3236:3353   */\ntag_22:\n    /* \"#utility.yul\":3290:3298   */\n  0x00\n    /* \"#utility.yul\":3340:3345   */\n  dup3\n    /* \"#utility.yul\":3334:3338   */\n  dup3\n    /* \"#utility.yul\":3330:3346   */\n  shr\n    /* \"#utility.yul\":3309:3346   */\n  swap1\n  pop\n    /* \"#utility.yul\":3236:3353   */\n  swap3\n  swap2\n  pop\n  pop\n  jump\t// out\n    /* \"#utility.yul\":3359:3528   */\ntag_23:\n    /* \"#utility.yul\":3403:3409   */\n  0x00\n    /* \"#utility.yul\":3436:3487   */\n  tag_68\n    /* \"#utility.yul\":3484:3485   */\n  0x00\n    /* \"#utility.yul\":3480:3486   */\n  not\n    /* \"#utility.yul\":3472:3477   */\n  dup5\n    /* \"#utility.yul\":3469:3470   */\n  0x08\n    /* \"#utility.yul\":3465:3478   */\n  mul\n    /* \"#utility.yul\":3436:3487   */\n  tag_22\n  jump\t// in\ntag_68:\n    /* \"#utility.yul\":3432:3488   */\n  not\n    /* \"#utility.yul\":3517:3521   */\n  dup1\n    /* \"#utility.yul\":3511:3515   */\n  dup4\n    /* \"#utility.yul\":3507:3522   */\n  and\n    /* \"#utility.yul\":3497:3522   */\n  swap2\n  pop\n    /* \"#utility.yul\":3410:3528   */\n  pop\n    /* \"#utility.yul\":3359:3528   */\n  swap3\n  swap2\n  pop\n  pop\n  jump\t// out\n    /* \"#utility.yul\":3533:3828   */\ntag_24:\n    /* \"#utility.yul\":3609:3613   */\n  0x00\n    /* \"#utility.yul\":3755:3784   */\n  tag_70\n    /* \"#utility.yul\":3780:3783   */\n  dup4\n    /* \"#utility.yul\":3774:3778   */\n  dup4\n    /* \"#utility.yul\":3755:3784   */\n  tag_23\n  jump\t// in\ntag_70:\n    /* \"#utility.yul\":3747:3784   */\n  swap2\n  pop\n    /* \"#utility.yul\":3817:3820   */\n  dup3\n    /* \"#utility.yul\":3814:3815   */\n  0x02\n    /* \"#utility.yul\":3810:3821   */\n  mul\n    /* \"#utility.yul\":3804:3808   */\n  dup3\n    /* \"#utility.yul\":3801:3822   */\n  or\n    /* \"#utility.yul\":3793:3822   */\n  swap1\n  pop\n    /* \"#utility.yul\":3533:3828   */\n  swap3\n  swap2\n  pop\n  pop\n  jump\t// out\n    /* \"#utility.yul\":3833:5228   */\ntag_2:\n    /* \"#utility.yul\":3950:3987   */\n  tag_72\n    /* \"#utility.yul\":3983:3986   */\n  dup3\n    /* \"#utility.yul\":3950:3987   */\n  tag_5\n  jump\t// in\ntag_72:\n    /* \"#utility.yul\":4052:4070   */\n  0xffffffffffffffff\n    /* \"#utility.yul\":4044:4050   */\n  dup2\n    /* \"#utility.yul\":4041:4071   */\n  gt\n    /* \"#utility.yul\":4038:4094   */\n  iszero\n  tag_73\n  jumpi\n    /* \"#utility.yul\":4074:4092   */\n  tag_74\n  tag_6\n  jump\t// in\ntag_74:\n    /* \"#utility.yul\":4038:4094   */\ntag_73:\n    /* \"#utility.yul\":4118:4156   */\n  tag_75\n    /* \"#utility.yul\":4150:4154   */\n  dup3\n    /* \"#utility.yul\":4144:4155   */\n  sload\n    /* \"#utility.yul\":4118:4156   */\n  tag_8\n  jump\t// in\ntag_75:\n    /* \"#utility.yul\":4203:4270   */\n  tag_76\n    /* \"#utility.yul\":4263:4269   */\n  dup3\n    /* \"#utility.yul\":4255:4261   */\n  dup3\n    /* \"#utility.yul\":4249:4253   */\n  dup6\n    /* \"#utility.yul\":4203:4270   */\n  tag_21\n  jump\t// in\ntag_76:\n    /* \"#utility.yul\":4297:4298   */\n  0x00\n    /* \"#utility.yul\":4321:4325   */\n  0x20\n    /* \"#utility.yul\":4308:4325   */\n  swap1\n  pop\n    /* \"#utility.yul\":4353:4355   */\n  0x1f\n    /* \"#utility.yul\":4345:4351   */\n  dup4\n    /* \"#utility.yul\":4342:4356   */\n  gt\n    /* \"#utility.yul\":4370:4371   */\n  0x01\n    /* \"#utility.yul\":4365:4983   */\n  dup2\n  eq\n  tag_78\n  jumpi\n    /* \"#utility.yul\":5027:5028   */\n  0x00\n    /* \"#utility.yul\":5044:5050   */\n  dup5\n    /* \"#utility.yul\":5041:5118   */\n  iszero\n  tag_79\n  jumpi\n    /* \"#utility.yul\":5093:5102   */\n  dup3\n    /* \"#utility.yul\":5088:5091   */\n  dup8\n    /* \"#utility.yul\":5084:5103   */\n  add\n    /* \"#utility.yul\":5078:5104   */\n  mload\n    /* \"#utility.yul\":5069:5104   */\n  swap1\n  pop\n    /* \"#utility.yul\":5041:5118   */\ntag_79:\n    /* \"#utility.yul\":5144:5211   */\n  tag_80\n    /* \"#utility.yul\":5204:5210   */\n  dup6\n    /* \"#utility.yul\":5197:5202   */\n  dup3\n    /* \"#utility.yul\":5144:5211   */\n  tag_24\n  jump\t// in\ntag_80:\n    /* \"#utility.yul\":5138:5142   */\n  dup7\n    /* \"#utility.yul\":5131:5212   */\n  sstore\n    /* \"#utility.yul\":5000:5222   */\n  pop\n    /* \"#utility.yul\":4335:5222   */\n  jump(tag_77)\n    /* \"#utility.yul\":4365:4983   */\ntag_78:\n    /* \"#utility.yul\":4417:4421   */\n  0x1f\n    /* \"#utility.yul\":4413:4422   */\n  not\n    /* \"#utility.yul\":4405:4411   */\n  dup5\n    /* \"#utility.yul\":4401:4423   */\n  and\n    /* \"#utility.yul\":4451:4488   */\n  tag_81\n    /* \"#utility.yul\":4483:4487   */\n  dup7\n    /* \"#utility.yul\":4451:4488   */\n  tag_9\n  jump\t// in\ntag_81:\n    /* \"#utility.yul\":4510:4511   */\n  0x00\n    /* \"#utility.yul\":4524:4732   */\ntag_82:\n    /* \"#utility.yul\":4538:4545   */\n  dup3\n    /* \"#utility.yul\":4535:4536   */\n  dup2\n    /* \"#utility.yul\":4532:4546   */\n  lt\n    /* \"#utility.yul\":4524:4732   */\n  iszero\n  tag_84\n  jumpi\n    /* \"#utility.yul\":4617:4626   */\n  dup5\n    /* \"#utility.yul\":4612:4615   */\n  dup10\n    /* \"#utility.yul\":4608:4627   */\n  add\n    /* \"#utility.yul\":4602:4628   */\n  mload\n    /* \"#utility.yul\":4594:4600   */\n  dup3\n    /* \"#utility.yul\":4587:4629   */\n  sstore\n    /* \"#utility.yul\":4668:4669   */\n  0x01\n    /* \"#utility.yul\":4660:4666   */\n  dup3\n    /* \"#utility.yul\":4656:4670   */\n  add\n    /* \"#utility.yul\":4646:4670   */\n  swap2\n  pop\n    /* \"#utility.yul\":4715:4717   */\n  0x20\n    /* \"#utility.yul\":4704:4713   */\n  dup6\n    /* \"#utility.yul\":4700:4718   */\n  add\n    /* \"#utility.yul\":4687:4718   */\n  swap5\n  pop\n    /* \"#utility.yul\":4561:4565   */\n  0x20\n    /* \"#utility.yul\":4558:4559   */\n  dup2\n    /* \"#utility.yul\":4554:4566   */\n  add\n    /* \"#utility.yul\":4549:4566   */\n  swap1\n  pop\n    /* \"#utility.yul\":4524:4732   */\n  jump(tag_82)\ntag_84:\n    /* \"#utility.yul\":4760:4766   */\n  dup7\n    /* \"#utility.yul\":4751:4758   */\n  dup4\n    /* \"#utility.yul\":4748:4767   */\n  lt\n    /* \"#utility.yul\":4745:4924   */\n  iszero\n  tag_85\n  jumpi\n    /* \"#utility.yul\":4818:4827   */\n  dup5\n    /* \"#utility.yul\":4813:4816   */\n  dup10\n    /* \"#utility.yul\":4809:4828   */\n  add\n    /* \"#utility.yul\":4803:4829   */\n  mload\n    /* \"#utility.yul\":4861:4909   */\n  tag_86\n    /* \"#utility.yul\":4903:4907   */\n  0x1f\n    /* \"#utility.yul\":4895:4901   */\n  dup10\n    /* \"#utility.yul\":4891:4908   */\n  and\n    /* \"#utility.yul\":4880:4889   */\n  dup3\n    /* \"#utility.yul\":4861:4909   */\n  tag_23\n  jump\t// in\ntag_86:\n    /* \"#utility.yul\":4853:4859   */\n  dup4\n    /* \"#utility.yul\":4846:4910   */\n  sstore\n    /* \"#utility.yul\":4768:4924   */\n  pop\n    /* \"#utility.yul\":4745:4924   */\ntag_85:\n    /* \"#utility.yul\":4970:4971   */\n  0x01\n    /* \"#utility.yul\":4966:4967   */\n  0x02\n    /* \"#utility.yul\":4958:4964   */\n  dup9\n    /* \"#utility.yul\":4954:4968   */\n  mul\n    /* \"#utility.yul\":4950:4972   */\n  add\n    /* \"#utility.yul\":4944:4948   */\n  dup9\n    /* \"#utility.yul\":4937:4973   */\n  sstore\n    /* \"#utility.yul\":4372:4983   */\n  pop\n  pop\n  pop\n    /* \"#utility.yul\":4335:5222   */\ntag_77:\n  pop\n    /* \"#utility.yul\":3925:5228   */\n  pop\n  pop\n  pop\n    /* \"#utility.yul\":3833:5228   */\n  pop\n  pop\n  jump\t// out\n    /* \"practise/Hello.sol\":60:657  contract Hello{... */\ntag_4:\n  dataSize(sub_0)\n  dup1\n  dataOffset(sub_0)\n  0x00\n  codecopy\n  0x00\n  return\nstop\n\nsub_0: assembly {\n        /* \"practise/Hello.sol\":60:657  contract Hello{... */\n      mstore(0x40, 0x80)\n      callvalue\n      dup1\n      iszero\n      tag_1\n      jumpi\n      revert(0x00, 0x00)\n    tag_1:\n      pop\n      jumpi(tag_2, lt(calldatasize, 0x04))\n      shr(0xe0, calldataload(0x00))\n      dup1\n      0x19ff1d21\n      eq\n      tag_3\n      jumpi\n      dup1\n      0x360b5ae1\n      eq\n      tag_4\n      jumpi\n      dup1\n      0xa5449b06\n      eq\n      tag_5\n      jumpi\n      dup1\n      0xc3a9b1c5\n      eq\n      tag_6\n      jumpi\n    tag_2:\n      revert(0x00, 0x00)\n        /* \"practise/Hello.sol\":81:111  string public hello = \"hello!\" */\n    tag_3:\n      tag_7\n      tag_8\n      jump\t// in\n    tag_7:\n      mload(0x40)\n      tag_9\n      swap2\n      swap1\n      tag_10\n      jump\t// in\n    tag_9:\n      mload(0x40)\n      dup1\n      swap2\n      sub\n      swap1\n      return\n        /* \"practise/Hello.sol\":385:519  function contact(string memory a , string memory b) public  pure returns ( string memory) {... */\n    tag_4:\n      tag_11\n      0x04\n      dup1\n      calldatasize\n      sub\n      dup2\n      add\n      swap1\n      tag_12\n      swap2\n      swap1\n      tag_13\n      jump\t// in\n    tag_12:\n      tag_14\n      jump\t// in\n    tag_11:\n      mload(0x40)\n      tag_15\n      swap2\n      swap1\n      tag_10\n      jump\t// in\n    tag_15:\n      mload(0x40)\n      dup1\n      swap2\n      sub\n      swap1\n      return\n        /* \"practise/Hello.sol\":527:654  function sethello(string memory _hello) public returns (string memory) {... */\n    tag_5:\n      tag_16\n      0x04\n      dup1\n      calldatasize\n      sub\n      dup2\n      add\n      swap1\n      tag_17\n      swap2\n      swap1\n      tag_18\n      jump\t// in\n    tag_17:\n      tag_19\n      jump\t// in\n    tag_16:\n      mload(0x40)\n      tag_20\n      swap2\n      swap1\n      tag_10\n      jump\t// in\n    tag_20:\n      mload(0x40)\n      dup1\n      swap2\n      sub\n      swap1\n      return\n        /* \"practise/Hello.sol\":120:236  function sayHello (string memory name) public view returns (string memory) {... */\n    tag_6:\n      tag_21\n      0x04\n      dup1\n      calldatasize\n      sub\n      dup2\n      add\n      swap1\n      tag_22\n      swap2\n      swap1\n      tag_18\n      jump\t// in\n    tag_22:\n      tag_23\n      jump\t// in\n    tag_21:\n      mload(0x40)\n      tag_24\n      swap2\n      swap1\n      tag_10\n      jump\t// in\n    tag_24:\n      mload(0x40)\n      dup1\n      swap2\n      sub\n      swap1\n      return\n        /* \"practise/Hello.sol\":81:111  string public hello = \"hello!\" */\n    tag_8:\n      0x00\n      dup1\n      sload\n      tag_25\n      swap1\n      tag_26\n      jump\t// in\n    tag_25:\n      dup1\n      0x1f\n      add\n      0x20\n      dup1\n      swap2\n      div\n      mul\n      0x20\n      add\n      mload(0x40)\n      swap1\n      dup2\n      add\n      0x40\n      mstore\n      dup1\n      swap3\n      swap2\n      swap1\n      dup2\n      dup2\n      mstore\n      0x20\n      add\n      dup3\n      dup1\n      sload\n      tag_27\n      swap1\n      tag_26\n      jump\t// in\n    tag_27:\n      dup1\n      iszero\n      tag_28\n      jumpi\n      dup1\n      0x1f\n      lt\n      tag_29\n      jumpi\n      0x0100\n      dup1\n      dup4\n      sload\n      div\n      mul\n      dup4\n      mstore\n      swap2\n      0x20\n      add\n      swap2\n      jump(tag_28)\n    tag_29:\n      dup3\n      add\n      swap2\n      swap1\n      0x00\n      mstore\n      keccak256(0x00, 0x20)\n      swap1\n    tag_30:\n      dup2\n      sload\n      dup2\n      mstore\n      swap1\n      0x01\n      add\n      swap1\n      0x20\n      add\n      dup1\n      dup4\n      gt\n      tag_30\n      jumpi\n      dup3\n      swap1\n      sub\n      0x1f\n      and\n      dup3\n      add\n      swap2\n    tag_28:\n      pop\n      pop\n      pop\n      pop\n      pop\n      dup2\n      jump\t// out\n        /* \"practise/Hello.sol\":385:519  function contact(string memory a , string memory b) public  pure returns ( string memory) {... */\n    tag_14:\n        /* \"practise/Hello.sol\":460:473  string memory */\n      0x60\n        /* \"practise/Hello.sol\":507:508  a */\n      dup3\n        /* \"practise/Hello.sol\":509:510  b */\n      dup3\n        /* \"practise/Hello.sol\":493:511  string.concat(a,b) */\n      add(0x20, mload(0x40))\n      tag_32\n      swap3\n      swap2\n      swap1\n      tag_33\n      jump\t// in\n    tag_32:\n      mload(0x40)\n      0x20\n      dup2\n      dup4\n      sub\n      sub\n      dup2\n      mstore\n      swap1\n      0x40\n      mstore\n        /* \"practise/Hello.sol\":486:511  return string.concat(a,b) */\n      swap1\n      pop\n        /* \"practise/Hello.sol\":385:519  function contact(string memory a , string memory b) public  pure returns ( string memory) {... */\n      swap3\n      swap2\n      pop\n      pop\n      jump\t// out\n        /* \"practise/Hello.sol\":527:654  function sethello(string memory _hello) public returns (string memory) {... */\n    tag_19:\n        /* \"practise/Hello.sol\":583:596  string memory */\n      0x60\n        /* \"practise/Hello.sol\":617:623  _hello */\n      dup2\n        /* \"practise/Hello.sol\":609:614  hello */\n      0x00\n        /* \"practise/Hello.sol\":609:623  hello = _hello */\n      swap1\n      dup2\n      tag_35\n      swap2\n      swap1\n      tag_36\n      jump\t// in\n    tag_35:\n      pop\n        /* \"practise/Hello.sol\":641:646  hello */\n      0x00\n        /* \"practise/Hello.sol\":634:646  return hello */\n      dup1\n      sload\n      tag_37\n      swap1\n      tag_26\n      jump\t// in\n    tag_37:\n      dup1\n      0x1f\n      add\n      0x20\n      dup1\n      swap2\n      div\n      mul\n      0x20\n      add\n      mload(0x40)\n      swap1\n      dup2\n      add\n      0x40\n      mstore\n      dup1\n      swap3\n      swap2\n      swap1\n      dup2\n      dup2\n      mstore\n      0x20\n      add\n      dup3\n      dup1\n      sload\n      tag_38\n      swap1\n      tag_26\n      jump\t// in\n    tag_38:\n      dup1\n      iszero\n      tag_39\n      jumpi\n      dup1\n      0x1f\n      lt\n      tag_40\n      jumpi\n      0x0100\n      dup1\n      dup4\n      sload\n      div\n      mul\n      dup4\n      mstore\n      swap2\n      0x20\n      add\n      swap2\n      jump(tag_39)\n    tag_40:\n      dup3\n      add\n      swap2\n      swap1\n      0x00\n      mstore\n      keccak256(0x00, 0x20)\n      swap1\n    tag_41:\n      dup2\n      sload\n      dup2\n      mstore\n      swap1\n      0x01\n      add\n      swap1\n      0x20\n      add\n      dup1\n      dup4\n      gt\n      tag_41\n      jumpi\n      dup3\n      swap1\n      sub\n      0x1f\n      and\n      dup3\n      add\n      swap2\n    tag_39:\n      pop\n      pop\n      pop\n      pop\n      pop\n      swap1\n      pop\n        /* \"practise/Hello.sol\":527:654  function sethello(string memory _hello) public returns (string memory) {... */\n      swap2\n      swap1\n      pop\n      jump\t// out\n        /* \"practise/Hello.sol\":120:236  function sayHello (string memory name) public view returns (string memory) {... */\n    tag_23:\n        /* \"practise/Hello.sol\":180:193  string memory */\n      0x60\n        /* \"practise/Hello.sol\":213:228  sayHello2(name) */\n      tag_43\n        /* \"practise/Hello.sol\":223:227  name */\n      dup3\n        /* \"practise/Hello.sol\":213:222  sayHello2 */\n      tag_44\n        /* \"practise/Hello.sol\":213:228  sayHello2(name) */\n      jump\t// in\n    tag_43:\n        /* \"practise/Hello.sol\":206:228  return sayHello2(name) */\n      swap1\n      pop\n        /* \"practise/Hello.sol\":120:236  function sayHello (string memory name) public view returns (string memory) {... */\n      swap2\n      swap1\n      pop\n      jump\t// out\n        /* \"practise/Hello.sol\":244:377  function sayHello2 (string memory name) private    view returns (string memory) {... */\n    tag_44:\n        /* \"practise/Hello.sol\":309:322  string memory */\n      0x60\n        /* \"practise/Hello.sol\":358:363  hello */\n      0x00\n        /* \"practise/Hello.sol\":364:368  name */\n      dup3\n        /* \"practise/Hello.sol\":344:369  string.concat(hello,name) */\n      add(0x20, mload(0x40))\n      tag_46\n      swap3\n      swap2\n      swap1\n      tag_47\n      jump\t// in\n    tag_46:\n      mload(0x40)\n      0x20\n      dup2\n      dup4\n      sub\n      sub\n      dup2\n      mstore\n      swap1\n      0x40\n      mstore\n        /* \"practise/Hello.sol\":337:369  return string.concat(hello,name) */\n      swap1\n      pop\n        /* \"practise/Hello.sol\":244:377  function sayHello2 (string memory name) private    view returns (string memory) {... */\n      swap2\n      swap1\n      pop\n      jump\t// out\n        /* \"#utility.yul\":7:106   */\n    tag_48:\n        /* \"#utility.yul\":59:65   */\n      0x00\n        /* \"#utility.yul\":93:98   */\n      dup2\n        /* \"#utility.yul\":87:99   */\n      mload\n        /* \"#utility.yul\":77:99   */\n      swap1\n      pop\n        /* \"#utility.yul\":7:106   */\n      swap2\n      swap1\n      pop\n      jump\t// out\n        /* \"#utility.yul\":112:281   */\n    tag_49:\n        /* \"#utility.yul\":196:207   */\n      0x00\n        /* \"#utility.yul\":230:236   */\n      dup3\n        /* \"#utility.yul\":225:228   */\n      dup3\n        /* \"#utility.yul\":218:237   */\n      mstore\n        /* \"#utility.yul\":270:274   */\n      0x20\n        /* \"#utility.yul\":265:268   */\n      dup3\n        /* \"#utility.yul\":261:275   */\n      add\n        /* \"#utility.yul\":246:275   */\n      swap1\n      pop\n        /* \"#utility.yul\":112:281   */\n      swap3\n      swap2\n      pop\n      pop\n      jump\t// out\n        /* \"#utility.yul\":287:426   */\n    tag_50:\n        /* \"#utility.yul\":376:382   */\n      dup3\n        /* \"#utility.yul\":371:374   */\n      dup2\n        /* \"#utility.yul\":366:369   */\n      dup4\n        /* \"#utility.yul\":360:383   */\n      mcopy\n        /* \"#utility.yul\":417:418   */\n      0x00\n        /* \"#utility.yul\":408:414   */\n      dup4\n        /* \"#utility.yul\":403:406   */\n      dup4\n        /* \"#utility.yul\":399:415   */\n      add\n        /* \"#utility.yul\":392:419   */\n      mstore\n        /* \"#utility.yul\":287:426   */\n      pop\n      pop\n      pop\n      jump\t// out\n        /* \"#utility.yul\":432:534   */\n    tag_51:\n        /* \"#utility.yul\":473:479   */\n      0x00\n        /* \"#utility.yul\":524:526   */\n      0x1f\n        /* \"#utility.yul\":520:527   */\n      not\n        /* \"#utility.yul\":515:517   */\n      0x1f\n        /* \"#utility.yul\":508:513   */\n      dup4\n        /* \"#utility.yul\":504:518   */\n      add\n        /* \"#utility.yul\":500:528   */\n      and\n        /* \"#utility.yul\":490:528   */\n      swap1\n      pop\n        /* \"#utility.yul\":432:534   */\n      swap2\n      swap1\n      pop\n      jump\t// out\n        /* \"#utility.yul\":540:917   */\n    tag_52:\n        /* \"#utility.yul\":628:631   */\n      0x00\n        /* \"#utility.yul\":656:695   */\n      tag_91\n        /* \"#utility.yul\":689:694   */\n      dup3\n        /* \"#utility.yul\":656:695   */\n      tag_48\n      jump\t// in\n    tag_91:\n        /* \"#utility.yul\":711:782   */\n      tag_92\n        /* \"#utility.yul\":775:781   */\n      dup2\n        /* \"#utility.yul\":770:773   */\n      dup6\n        /* \"#utility.yul\":711:782   */\n      tag_49\n      jump\t// in\n    tag_92:\n        /* \"#utility.yul\":704:782   */\n      swap4\n      pop\n        /* \"#utility.yul\":791:856   */\n      tag_93\n        /* \"#utility.yul\":849:855   */\n      dup2\n        /* \"#utility.yul\":844:847   */\n      dup6\n        /* \"#utility.yul\":837:841   */\n      0x20\n        /* \"#utility.yul\":830:835   */\n      dup7\n        /* \"#utility.yul\":826:842   */\n      add\n        /* \"#utility.yul\":791:856   */\n      tag_50\n      jump\t// in\n    tag_93:\n        /* \"#utility.yul\":881:910   */\n      tag_94\n        /* \"#utility.yul\":903:909   */\n      dup2\n        /* \"#utility.yul\":881:910   */\n      tag_51\n      jump\t// in\n    tag_94:\n        /* \"#utility.yul\":876:879   */\n      dup5\n        /* \"#utility.yul\":872:911   */\n      add\n        /* \"#utility.yul\":865:911   */\n      swap2\n      pop\n        /* \"#utility.yul\":632:917   */\n      pop\n        /* \"#utility.yul\":540:917   */\n      swap3\n      swap2\n      pop\n      pop\n      jump\t// out\n        /* \"#utility.yul\":923:1236   */\n    tag_10:\n        /* \"#utility.yul\":1036:1040   */\n      0x00\n        /* \"#utility.yul\":1074:1076   */\n      0x20\n        /* \"#utility.yul\":1063:1072   */\n      dup3\n        /* \"#utility.yul\":1059:1077   */\n      add\n        /* \"#utility.yul\":1051:1077   */\n      swap1\n      pop\n        /* \"#utility.yul\":1123:1132   */\n      dup2\n        /* \"#utility.yul\":1117:1121   */\n      dup2\n        /* \"#utility.yul\":1113:1133   */\n      sub\n        /* \"#utility.yul\":1109:1110   */\n      0x00\n        /* \"#utility.yul\":1098:1107   */\n      dup4\n        /* \"#utility.yul\":1094:1111   */\n      add\n        /* \"#utility.yul\":1087:1134   */\n      mstore\n        /* \"#utility.yul\":1151:1229   */\n      tag_96\n        /* \"#utility.yul\":1224:1228   */\n      dup2\n        /* \"#utility.yul\":1215:1221   */\n      dup5\n        /* \"#utility.yul\":1151:1229   */\n      tag_52\n      jump\t// in\n    tag_96:\n        /* \"#utility.yul\":1143:1229   */\n      swap1\n      pop\n        /* \"#utility.yul\":923:1236   */\n      swap3\n      swap2\n      pop\n      pop\n      jump\t// out\n        /* \"#utility.yul\":1242:1317   */\n    tag_53:\n        /* \"#utility.yul\":1275:1281   */\n      0x00\n        /* \"#utility.yul\":1308:1310   */\n      0x40\n        /* \"#utility.yul\":1302:1311   */\n      mload\n        /* \"#utility.yul\":1292:1311   */\n      swap1\n      pop\n        /* \"#utility.yul\":1242:1317   */\n      swap1\n      jump\t// out\n        /* \"#utility.yul\":1323:1440   */\n    tag_54:\n        /* \"#utility.yul\":1432:1433   */\n      0x00\n        /* \"#utility.yul\":1429:1430   */\n      0x00\n        /* \"#utility.yul\":1422:1434   */\n      revert\n        /* \"#utility.yul\":1446:1563   */\n    tag_55:\n        /* \"#utility.yul\":1555:1556   */\n      0x00\n        /* \"#utility.yul\":1552:1553   */\n      0x00\n        /* \"#utility.yul\":1545:1557   */\n      revert\n        /* \"#utility.yul\":1569:1686   */\n    tag_56:\n        /* \"#utility.yul\":1678:1679   */\n      0x00\n        /* \"#utility.yul\":1675:1676   */\n      0x00\n        /* \"#utility.yul\":1668:1680   */\n      revert\n        /* \"#utility.yul\":1692:1809   */\n    tag_57:\n        /* \"#utility.yul\":1801:1802   */\n      0x00\n        /* \"#utility.yul\":1798:1799   */\n      0x00\n        /* \"#utility.yul\":1791:1803   */\n      revert\n        /* \"#utility.yul\":1815:1995   */\n    tag_58:\n        /* \"#utility.yul\":1863:1940   */\n      0x4e487b7100000000000000000000000000000000000000000000000000000000\n        /* \"#utility.yul\":1860:1861   */\n      0x00\n        /* \"#utility.yul\":1853:1941   */\n      mstore\n        /* \"#utility.yul\":1960:1964   */\n      0x41\n        /* \"#utility.yul\":1957:1958   */\n      0x04\n        /* \"#utility.yul\":1950:1965   */\n      mstore\n        /* \"#utility.yul\":1984:1988   */\n      0x24\n        /* \"#utility.yul\":1981:1982   */\n      0x00\n        /* \"#utility.yul\":1974:1989   */\n      revert\n        /* \"#utility.yul\":2001:2282   */\n    tag_59:\n        /* \"#utility.yul\":2084:2111   */\n      tag_104\n        /* \"#utility.yul\":2106:2110   */\n      dup3\n        /* \"#utility.yul\":2084:2111   */\n      tag_51\n      jump\t// in\n    tag_104:\n        /* \"#utility.yul\":2076:2082   */\n      dup2\n        /* \"#utility.yul\":2072:2112   */\n      add\n        /* \"#utility.yul\":2214:2220   */\n      dup2\n        /* \"#utility.yul\":2202:2212   */\n      dup2\n        /* \"#utility.yul\":2199:2221   */\n      lt\n        /* \"#utility.yul\":2178:2196   */\n      0xffffffffffffffff\n        /* \"#utility.yul\":2166:2176   */\n      dup3\n        /* \"#utility.yul\":2163:2197   */\n      gt\n        /* \"#utility.yul\":2160:2222   */\n      or\n        /* \"#utility.yul\":2157:2245   */\n      iszero\n      tag_105\n      jumpi\n        /* \"#utility.yul\":2225:2243   */\n      tag_106\n      tag_58\n      jump\t// in\n    tag_106:\n        /* \"#utility.yul\":2157:2245   */\n    tag_105:\n        /* \"#utility.yul\":2265:2275   */\n      dup1\n        /* \"#utility.yul\":2261:2263   */\n      0x40\n        /* \"#utility.yul\":2254:2276   */\n      mstore\n        /* \"#utility.yul\":2044:2282   */\n      pop\n        /* \"#utility.yul\":2001:2282   */\n      pop\n      pop\n      jump\t// out\n        /* \"#utility.yul\":2288:2417   */\n    tag_60:\n        /* \"#utility.yul\":2322:2328   */\n      0x00\n        /* \"#utility.yul\":2349:2369   */\n      tag_108\n      tag_53\n      jump\t// in\n    tag_108:\n        /* \"#utility.yul\":2339:2369   */\n      swap1\n      pop\n        /* \"#utility.yul\":2378:2411   */\n      tag_109\n        /* \"#utility.yul\":2406:2410   */\n      dup3\n        /* \"#utility.yul\":2398:2404   */\n      dup3\n        /* \"#utility.yul\":2378:2411   */\n      tag_59\n      jump\t// in\n    tag_109:\n        /* \"#utility.yul\":2288:2417   */\n      swap2\n      swap1\n      pop\n      jump\t// out\n        /* \"#utility.yul\":2423:2731   */\n    tag_61:\n        /* \"#utility.yul\":2485:2489   */\n      0x00\n        /* \"#utility.yul\":2575:2593   */\n      0xffffffffffffffff\n        /* \"#utility.yul\":2567:2573   */\n      dup3\n        /* \"#utility.yul\":2564:2594   */\n      gt\n        /* \"#utility.yul\":2561:2617   */\n      iszero\n      tag_111\n      jumpi\n        /* \"#utility.yul\":2597:2615   */\n      tag_112\n      tag_58\n      jump\t// in\n    tag_112:\n        /* \"#utility.yul\":2561:2617   */\n    tag_111:\n        /* \"#utility.yul\":2635:2664   */\n      tag_113\n        /* \"#utility.yul\":2657:2663   */\n      dup3\n        /* \"#utility.yul\":2635:2664   */\n      tag_51\n      jump\t// in\n    tag_113:\n        /* \"#utility.yul\":2627:2664   */\n      swap1\n      pop\n        /* \"#utility.yul\":2719:2723   */\n      0x20\n        /* \"#utility.yul\":2713:2717   */\n      dup2\n        /* \"#utility.yul\":2709:2724   */\n      add\n        /* \"#utility.yul\":2701:2724   */\n      swap1\n      pop\n        /* \"#utility.yul\":2423:2731   */\n      swap2\n      swap1\n      pop\n      jump\t// out\n        /* \"#utility.yul\":2737:2885   */\n    tag_62:\n        /* \"#utility.yul\":2835:2841   */\n      dup3\n        /* \"#utility.yul\":2830:2833   */\n      dup2\n        /* \"#utility.yul\":2825:2828   */\n      dup4\n        /* \"#utility.yul\":2812:2842   */\n      calldatacopy\n        /* \"#utility.yul\":2876:2877   */\n      0x00\n        /* \"#utility.yul\":2867:2873   */\n      dup4\n        /* \"#utility.yul\":2862:2865   */\n      dup4\n        /* \"#utility.yul\":2858:2874   */\n      add\n        /* \"#utility.yul\":2851:2878   */\n      mstore\n        /* \"#utility.yul\":2737:2885   */\n      pop\n      pop\n      pop\n      jump\t// out\n        /* \"#utility.yul\":2891:3316   */\n    tag_63:\n        /* \"#utility.yul\":2969:2974   */\n      0x00\n        /* \"#utility.yul\":2994:3060   */\n      tag_116\n        /* \"#utility.yul\":3010:3059   */\n      tag_117\n        /* \"#utility.yul\":3052:3058   */\n      dup5\n        /* \"#utility.yul\":3010:3059   */\n      tag_61\n      jump\t// in\n    tag_117:\n        /* \"#utility.yul\":2994:3060   */\n      tag_60\n      jump\t// in\n    tag_116:\n        /* \"#utility.yul\":2985:3060   */\n      swap1\n      pop\n        /* \"#utility.yul\":3083:3089   */\n      dup3\n        /* \"#utility.yul\":3076:3081   */\n      dup2\n        /* \"#utility.yul\":3069:3090   */\n      mstore\n        /* \"#utility.yul\":3121:3125   */\n      0x20\n        /* \"#utility.yul\":3114:3119   */\n      dup2\n        /* \"#utility.yul\":3110:3126   */\n      add\n        /* \"#utility.yul\":3159:3162   */\n      dup5\n        /* \"#utility.yul\":3150:3156   */\n      dup5\n        /* \"#utility.yul\":3145:3148   */\n      dup5\n        /* \"#utility.yul\":3141:3157   */\n      add\n        /* \"#utility.yul\":3138:3163   */\n      gt\n        /* \"#utility.yul\":3135:3247   */\n      iszero\n      tag_118\n      jumpi\n        /* \"#utility.yul\":3166:3245   */\n      tag_119\n      tag_57\n      jump\t// in\n    tag_119:\n        /* \"#utility.yul\":3135:3247   */\n    tag_118:\n        /* \"#utility.yul\":3256:3310   */\n      tag_120\n        /* \"#utility.yul\":3303:3309   */\n      dup5\n        /* \"#utility.yul\":3298:3301   */\n      dup3\n        /* \"#utility.yul\":3293:3296   */\n      dup6\n        /* \"#utility.yul\":3256:3310   */\n      tag_62\n      jump\t// in\n    tag_120:\n        /* \"#utility.yul\":2975:3316   */\n      pop\n        /* \"#utility.yul\":2891:3316   */\n      swap4\n      swap3\n      pop\n      pop\n      pop\n      jump\t// out\n        /* \"#utility.yul\":3336:3676   */\n    tag_64:\n        /* \"#utility.yul\":3392:3397   */\n      0x00\n        /* \"#utility.yul\":3441:3444   */\n      dup3\n        /* \"#utility.yul\":3434:3438   */\n      0x1f\n        /* \"#utility.yul\":3426:3432   */\n      dup4\n        /* \"#utility.yul\":3422:3439   */\n      add\n        /* \"#utility.yul\":3418:3445   */\n      slt\n        /* \"#utility.yul\":3408:3530   */\n      tag_122\n      jumpi\n        /* \"#utility.yul\":3449:3528   */\n      tag_123\n      tag_56\n      jump\t// in\n    tag_123:\n        /* \"#utility.yul\":3408:3530   */\n    tag_122:\n        /* \"#utility.yul\":3566:3572   */\n      dup2\n        /* \"#utility.yul\":3553:3573   */\n      calldataload\n        /* \"#utility.yul\":3591:3670   */\n      tag_124\n        /* \"#utility.yul\":3666:3669   */\n      dup5\n        /* \"#utility.yul\":3658:3664   */\n      dup3\n        /* \"#utility.yul\":3651:3655   */\n      0x20\n        /* \"#utility.yul\":3643:3649   */\n      dup7\n        /* \"#utility.yul\":3639:3656   */\n      add\n        /* \"#utility.yul\":3591:3670   */\n      tag_63\n      jump\t// in\n    tag_124:\n        /* \"#utility.yul\":3582:3670   */\n      swap2\n      pop\n        /* \"#utility.yul\":3398:3676   */\n      pop\n        /* \"#utility.yul\":3336:3676   */\n      swap3\n      swap2\n      pop\n      pop\n      jump\t// out\n        /* \"#utility.yul\":3682:4516   */\n    tag_13:\n        /* \"#utility.yul\":3770:3776   */\n      0x00\n        /* \"#utility.yul\":3778:3784   */\n      0x00\n        /* \"#utility.yul\":3827:3829   */\n      0x40\n        /* \"#utility.yul\":3815:3824   */\n      dup4\n        /* \"#utility.yul\":3806:3813   */\n      dup6\n        /* \"#utility.yul\":3802:3825   */\n      sub\n        /* \"#utility.yul\":3798:3830   */\n      slt\n        /* \"#utility.yul\":3795:3914   */\n      iszero\n      tag_126\n      jumpi\n        /* \"#utility.yul\":3833:3912   */\n      tag_127\n      tag_54\n      jump\t// in\n    tag_127:\n        /* \"#utility.yul\":3795:3914   */\n    tag_126:\n        /* \"#utility.yul\":3981:3982   */\n      0x00\n        /* \"#utility.yul\":3970:3979   */\n      dup4\n        /* \"#utility.yul\":3966:3983   */\n      add\n        /* \"#utility.yul\":3953:3984   */\n      calldataload\n        /* \"#utility.yul\":4011:4029   */\n      0xffffffffffffffff\n        /* \"#utility.yul\":4003:4009   */\n      dup2\n        /* \"#utility.yul\":4000:4030   */\n      gt\n        /* \"#utility.yul\":3997:4114   */\n      iszero\n      tag_128\n      jumpi\n        /* \"#utility.yul\":4033:4112   */\n      tag_129\n      tag_55\n      jump\t// in\n    tag_129:\n        /* \"#utility.yul\":3997:4114   */\n    tag_128:\n        /* \"#utility.yul\":4138:4201   */\n      tag_130\n        /* \"#utility.yul\":4193:4200   */\n      dup6\n        /* \"#utility.yul\":4184:4190   */\n      dup3\n        /* \"#utility.yul\":4173:4182   */\n      dup7\n        /* \"#utility.yul\":4169:4191   */\n      add\n        /* \"#utility.yul\":4138:4201   */\n      tag_64\n      jump\t// in\n    tag_130:\n        /* \"#utility.yul\":4128:4201   */\n      swap3\n      pop\n        /* \"#utility.yul\":3924:4211   */\n      pop\n        /* \"#utility.yul\":4278:4280   */\n      0x20\n        /* \"#utility.yul\":4267:4276   */\n      dup4\n        /* \"#utility.yul\":4263:4281   */\n      add\n        /* \"#utility.yul\":4250:4282   */\n      calldataload\n        /* \"#utility.yul\":4309:4327   */\n      0xffffffffffffffff\n        /* \"#utility.yul\":4301:4307   */\n      dup2\n        /* \"#utility.yul\":4298:4328   */\n      gt\n        /* \"#utility.yul\":4295:4412   */\n      iszero\n      tag_131\n      jumpi\n        /* \"#utility.yul\":4331:4410   */\n      tag_132\n      tag_55\n      jump\t// in\n    tag_132:\n        /* \"#utility.yul\":4295:4412   */\n    tag_131:\n        /* \"#utility.yul\":4436:4499   */\n      tag_133\n        /* \"#utility.yul\":4491:4498   */\n      dup6\n        /* \"#utility.yul\":4482:4488   */\n      dup3\n        /* \"#utility.yul\":4471:4480   */\n      dup7\n        /* \"#utility.yul\":4467:4489   */\n      add\n        /* \"#utility.yul\":4436:4499   */\n      tag_64\n      jump\t// in\n    tag_133:\n        /* \"#utility.yul\":4426:4499   */\n      swap2\n      pop\n        /* \"#utility.yul\":4221:4509   */\n      pop\n        /* \"#utility.yul\":3682:4516   */\n      swap3\n      pop\n      swap3\n      swap1\n      pop\n      jump\t// out\n        /* \"#utility.yul\":4522:5031   */\n    tag_18:\n        /* \"#utility.yul\":4591:4597   */\n      0x00\n        /* \"#utility.yul\":4640:4642   */\n      0x20\n        /* \"#utility.yul\":4628:4637   */\n      dup3\n        /* \"#utility.yul\":4619:4626   */\n      dup5\n        /* \"#utility.yul\":4615:4638   */\n      sub\n        /* \"#utility.yul\":4611:4643   */\n      slt\n        /* \"#utility.yul\":4608:4727   */\n      iszero\n      tag_135\n      jumpi\n        /* \"#utility.yul\":4646:4725   */\n      tag_136\n      tag_54\n      jump\t// in\n    tag_136:\n        /* \"#utility.yul\":4608:4727   */\n    tag_135:\n        /* \"#utility.yul\":4794:4795   */\n      0x00\n        /* \"#utility.yul\":4783:4792   */\n      dup3\n        /* \"#utility.yul\":4779:4796   */\n      add\n        /* \"#utility.yul\":4766:4797   */\n      calldataload\n        /* \"#utility.yul\":4824:4842   */\n      0xffffffffffffffff\n        /* \"#utility.yul\":4816:4822   */\n      dup2\n        /* \"#utility.yul\":4813:4843   */\n      gt\n        /* \"#utility.yul\":4810:4927   */\n      iszero\n      tag_137\n      jumpi\n        /* \"#utility.yul\":4846:4925   */\n      tag_138\n      tag_55\n      jump\t// in\n    tag_138:\n        /* \"#utility.yul\":4810:4927   */\n    tag_137:\n        /* \"#utility.yul\":4951:5014   */\n      tag_139\n        /* \"#utility.yul\":5006:5013   */\n      dup5\n        /* \"#utility.yul\":4997:5003   */\n      dup3\n        /* \"#utility.yul\":4986:4995   */\n      dup6\n        /* \"#utility.yul\":4982:5004   */\n      add\n        /* \"#utility.yul\":4951:5014   */\n      tag_64\n      jump\t// in\n    tag_139:\n        /* \"#utility.yul\":4941:5014   */\n      swap2\n      pop\n        /* \"#utility.yul\":4737:5024   */\n      pop\n        /* \"#utility.yul\":4522:5031   */\n      swap3\n      swap2\n      pop\n      pop\n      jump\t// out\n        /* \"#utility.yul\":5037:5217   */\n    tag_65:\n        /* \"#utility.yul\":5085:5162   */\n      0x4e487b7100000000000000000000000000000000000000000000000000000000\n        /* \"#utility.yul\":5082:5083   */\n      0x00\n        /* \"#utility.yul\":5075:5163   */\n      mstore\n        /* \"#utility.yul\":5182:5186   */\n      0x22\n        /* \"#utility.yul\":5179:5180   */\n      0x04\n        /* \"#utility.yul\":5172:5187   */\n      mstore\n        /* \"#utility.yul\":5206:5210   */\n      0x24\n        /* \"#utility.yul\":5203:5204   */\n      0x00\n        /* \"#utility.yul\":5196:5211   */\n      revert\n        /* \"#utility.yul\":5223:5543   */\n    tag_26:\n        /* \"#utility.yul\":5267:5273   */\n      0x00\n        /* \"#utility.yul\":5304:5305   */\n      0x02\n        /* \"#utility.yul\":5298:5302   */\n      dup3\n        /* \"#utility.yul\":5294:5306   */\n      div\n        /* \"#utility.yul\":5284:5306   */\n      swap1\n      pop\n        /* \"#utility.yul\":5351:5352   */\n      0x01\n        /* \"#utility.yul\":5345:5349   */\n      dup3\n        /* \"#utility.yul\":5341:5353   */\n      and\n        /* \"#utility.yul\":5372:5390   */\n      dup1\n        /* \"#utility.yul\":5362:5443   */\n      tag_142\n      jumpi\n        /* \"#utility.yul\":5428:5432   */\n      0x7f\n        /* \"#utility.yul\":5420:5426   */\n      dup3\n        /* \"#utility.yul\":5416:5433   */\n      and\n        /* \"#utility.yul\":5406:5433   */\n      swap2\n      pop\n        /* \"#utility.yul\":5362:5443   */\n    tag_142:\n        /* \"#utility.yul\":5490:5492   */\n      0x20\n        /* \"#utility.yul\":5482:5488   */\n      dup3\n        /* \"#utility.yul\":5479:5493   */\n      lt\n        /* \"#utility.yul\":5459:5477   */\n      dup2\n        /* \"#utility.yul\":5456:5494   */\n      sub\n        /* \"#utility.yul\":5453:5537   */\n      tag_143\n      jumpi\n        /* \"#utility.yul\":5509:5527   */\n      tag_144\n      tag_65\n      jump\t// in\n    tag_144:\n        /* \"#utility.yul\":5453:5537   */\n    tag_143:\n        /* \"#utility.yul\":5274:5543   */\n      pop\n        /* \"#utility.yul\":5223:5543   */\n      swap2\n      swap1\n      pop\n      jump\t// out\n        /* \"#utility.yul\":5549:5697   */\n    tag_66:\n        /* \"#utility.yul\":5651:5662   */\n      0x00\n        /* \"#utility.yul\":5688:5691   */\n      dup2\n        /* \"#utility.yul\":5673:5691   */\n      swap1\n      pop\n        /* \"#utility.yul\":5549:5697   */\n      swap3\n      swap2\n      pop\n      pop\n      jump\t// out\n        /* \"#utility.yul\":5703:6093   */\n    tag_67:\n        /* \"#utility.yul\":5809:5812   */\n      0x00\n        /* \"#utility.yul\":5837:5876   */\n      tag_147\n        /* \"#utility.yul\":5870:5875   */\n      dup3\n        /* \"#utility.yul\":5837:5876   */\n      tag_48\n      jump\t// in\n    tag_147:\n        /* \"#utility.yul\":5892:5981   */\n      tag_148\n        /* \"#utility.yul\":5974:5980   */\n      dup2\n        /* \"#utility.yul\":5969:5972   */\n      dup6\n        /* \"#utility.yul\":5892:5981   */\n      tag_66\n      jump\t// in\n    tag_148:\n        /* \"#utility.yul\":5885:5981   */\n      swap4\n      pop\n        /* \"#utility.yul\":5990:6055   */\n      tag_149\n        /* \"#utility.yul\":6048:6054   */\n      dup2\n        /* \"#utility.yul\":6043:6046   */\n      dup6\n        /* \"#utility.yul\":6036:6040   */\n      0x20\n        /* \"#utility.yul\":6029:6034   */\n      dup7\n        /* \"#utility.yul\":6025:6041   */\n      add\n        /* \"#utility.yul\":5990:6055   */\n      tag_50\n      jump\t// in\n    tag_149:\n        /* \"#utility.yul\":6080:6086   */\n      dup1\n        /* \"#utility.yul\":6075:6078   */\n      dup5\n        /* \"#utility.yul\":6071:6087   */\n      add\n        /* \"#utility.yul\":6064:6087   */\n      swap2\n      pop\n        /* \"#utility.yul\":5813:6093   */\n      pop\n        /* \"#utility.yul\":5703:6093   */\n      swap3\n      swap2\n      pop\n      pop\n      jump\t// out\n        /* \"#utility.yul\":6099:6534   */\n    tag_33:\n        /* \"#utility.yul\":6279:6282   */\n      0x00\n        /* \"#utility.yul\":6301:6396   */\n      tag_151\n        /* \"#utility.yul\":6392:6395   */\n      dup3\n        /* \"#utility.yul\":6383:6389   */\n      dup6\n        /* \"#utility.yul\":6301:6396   */\n      tag_67\n      jump\t// in\n    tag_151:\n        /* \"#utility.yul\":6294:6396   */\n      swap2\n      pop\n        /* \"#utility.yul\":6413:6508   */\n      tag_152\n        /* \"#utility.yul\":6504:6507   */\n      dup3\n        /* \"#utility.yul\":6495:6501   */\n      dup5\n        /* \"#utility.yul\":6413:6508   */\n      tag_67\n      jump\t// in\n    tag_152:\n        /* \"#utility.yul\":6406:6508   */\n      swap2\n      pop\n        /* \"#utility.yul\":6525:6528   */\n      dup2\n        /* \"#utility.yul\":6518:6528   */\n      swap1\n      pop\n        /* \"#utility.yul\":6099:6534   */\n      swap4\n      swap3\n      pop\n      pop\n      pop\n      jump\t// out\n        /* \"#utility.yul\":6540:6681   */\n    tag_68:\n        /* \"#utility.yul\":6589:6593   */\n      0x00\n        /* \"#utility.yul\":6612:6615   */\n      dup2\n        /* \"#utility.yul\":6604:6615   */\n      swap1\n      pop\n        /* \"#utility.yul\":6635:6638   */\n      dup2\n        /* \"#utility.yul\":6632:6633   */\n      0x00\n        /* \"#utility.yul\":6625:6639   */\n      mstore\n        /* \"#utility.yul\":6669:6673   */\n      0x20\n        /* \"#utility.yul\":6666:6667   */\n      0x00\n        /* \"#utility.yul\":6656:6674   */\n      keccak256\n        /* \"#utility.yul\":6648:6674   */\n      swap1\n      pop\n        /* \"#utility.yul\":6540:6681   */\n      swap2\n      swap1\n      pop\n      jump\t// out\n        /* \"#utility.yul\":6687:6780   */\n    tag_69:\n        /* \"#utility.yul\":6724:6730   */\n      0x00\n        /* \"#utility.yul\":6771:6773   */\n      0x20\n        /* \"#utility.yul\":6766:6768   */\n      0x1f\n        /* \"#utility.yul\":6759:6764   */\n      dup4\n        /* \"#utility.yul\":6755:6769   */\n      add\n        /* \"#utility.yul\":6751:6774   */\n      div\n        /* \"#utility.yul\":6741:6774   */\n      swap1\n      pop\n        /* \"#utility.yul\":6687:6780   */\n      swap2\n      swap1\n      pop\n      jump\t// out\n        /* \"#utility.yul\":6786:6893   */\n    tag_70:\n        /* \"#utility.yul\":6830:6838   */\n      0x00\n        /* \"#utility.yul\":6880:6885   */\n      dup3\n        /* \"#utility.yul\":6874:6878   */\n      dup3\n        /* \"#utility.yul\":6870:6886   */\n      shl\n        /* \"#utility.yul\":6849:6886   */\n      swap1\n      pop\n        /* \"#utility.yul\":6786:6893   */\n      swap3\n      swap2\n      pop\n      pop\n      jump\t// out\n        /* \"#utility.yul\":6899:7292   */\n    tag_71:\n        /* \"#utility.yul\":6968:6974   */\n      0x00\n        /* \"#utility.yul\":7018:7019   */\n      0x08\n        /* \"#utility.yul\":7006:7016   */\n      dup4\n        /* \"#utility.yul\":7002:7020   */\n      mul\n        /* \"#utility.yul\":7041:7138   */\n      tag_157\n        /* \"#utility.yul\":7071:7137   */\n      0xffffffffffffffffffffffffffffffffffffffffffffffffffffffffffffffff\n        /* \"#utility.yul\":7060:7069   */\n      dup3\n        /* \"#utility.yul\":7041:7138   */\n      tag_70\n      jump\t// in\n    tag_157:\n        /* \"#utility.yul\":7159:7198   */\n      tag_158\n        /* \"#utility.yul\":7189:7197   */\n      dup7\n        /* \"#utility.yul\":7178:7187   */\n      dup4\n        /* \"#utility.yul\":7159:7198   */\n      tag_70\n      jump\t// in\n    tag_158:\n        /* \"#utility.yul\":7147:7198   */\n      swap6\n      pop\n        /* \"#utility.yul\":7231:7235   */\n      dup1\n        /* \"#utility.yul\":7227:7236   */\n      not\n        /* \"#utility.yul\":7220:7225   */\n      dup5\n        /* \"#utility.yul\":7216:7237   */\n      and\n        /* \"#utility.yul\":7207:7237   */\n      swap4\n      pop\n        /* \"#utility.yul\":7280:7284   */\n      dup1\n        /* \"#utility.yul\":7270:7278   */\n      dup7\n        /* \"#utility.yul\":7266:7285   */\n      and\n        /* \"#utility.yul\":7259:7264   */\n      dup5\n        /* \"#utility.yul\":7256:7286   */\n      or\n        /* \"#utility.yul\":7246:7286   */\n      swap3\n      pop\n        /* \"#utility.yul\":6975:7292   */\n      pop\n      pop\n        /* \"#utility.yul\":6899:7292   */\n      swap4\n      swap3\n      pop\n      pop\n      pop\n      jump\t// out\n        /* \"#utility.yul\":7298:7375   */\n    tag_72:\n        /* \"#utility.yul\":7335:7342   */\n      0x00\n        /* \"#utility.yul\":7364:7369   */\n      dup2\n        /* \"#utility.yul\":7353:7369   */\n      swap1\n      pop\n        /* \"#utility.yul\":7298:7375   */\n      swap2\n      swap1\n      pop\n      jump\t// out\n        /* \"#utility.yul\":7381:7441   */\n    tag_73:\n        /* \"#utility.yul\":7409:7412   */\n      0x00\n        /* \"#utility.yul\":7430:7435   */\n      dup2\n        /* \"#utility.yul\":7423:7435   */\n      swap1\n      pop\n        /* \"#utility.yul\":7381:7441   */\n      swap2\n      swap1\n      pop\n      jump\t// out\n        /* \"#utility.yul\":7447:7589   */\n    tag_74:\n        /* \"#utility.yul\":7497:7506   */\n      0x00\n        /* \"#utility.yul\":7530:7583   */\n      tag_162\n        /* \"#utility.yul\":7548:7582   */\n      tag_163\n        /* \"#utility.yul\":7557:7581   */\n      tag_164\n        /* \"#utility.yul\":7575:7580   */\n      dup5\n        /* \"#utility.yul\":7557:7581   */\n      tag_72\n      jump\t// in\n    tag_164:\n        /* \"#utility.yul\":7548:7582   */\n      tag_73\n      jump\t// in\n    tag_163:\n        /* \"#utility.yul\":7530:7583   */\n      tag_72\n      jump\t// in\n    tag_162:\n        /* \"#utility.yul\":7517:7583   */\n      swap1\n      pop\n        /* \"#utility.yul\":7447:7589   */\n      swap2\n      swap1\n      pop\n      jump\t// out\n        /* \"#utility.yul\":7595:7670   */\n    tag_75:\n        /* \"#utility.yul\":7638:7641   */\n      0x00\n        /* \"#utility.yul\":7659:7664   */\n      dup2\n        /* \"#utility.yul\":7652:7664   */\n      swap1\n      pop\n        /* \"#utility.yul\":7595:7670   */\n      swap2\n      swap1\n      pop\n      jump\t// out\n        /* \"#utility.yul\":7676:7945   */\n    tag_76:\n        /* \"#utility.yul\":7786:7825   */\n      tag_167\n        /* \"#utility.yul\":7817:7824   */\n      dup4\n        /* \"#utility.yul\":7786:7825   */\n      tag_74\n      jump\t// in\n    tag_167:\n        /* \"#utility.yul\":7847:7938   */\n      tag_168\n        /* \"#utility.yul\":7896:7937   */\n      tag_169\n        /* \"#utility.yul\":7920:7936   */\n      dup3\n        /* \"#utility.yul\":7896:7937   */\n      tag_75\n      jump\t// in\n    tag_169:\n        /* \"#utility.yul\":7888:7894   */\n      dup5\n        /* \"#utility.yul\":7881:7885   */\n      dup5\n        /* \"#utility.yul\":7875:7886   */\n      sload\n        /* \"#utility.yul\":7847:7938   */\n      tag_71\n      jump\t// in\n    tag_168:\n        /* \"#utility.yul\":7841:7845   */\n      dup3\n        /* \"#utility.yul\":7834:7939   */\n      sstore\n        /* \"#utility.yul\":7752:7945   */\n      pop\n        /* \"#utility.yul\":7676:7945   */\n      pop\n      pop\n      pop\n      jump\t// out\n        /* \"#utility.yul\":7951:8024   */\n    tag_77:\n        /* \"#utility.yul\":7996:7999   */\n      0x00\n        /* \"#utility.yul\":8017:8018   */\n      0x00\n        /* \"#utility.yul\":8010:8018   */\n      swap1\n      pop\n        /* \"#utility.yul\":7951:8024   */\n      swap1\n      jump\t// out\n        /* \"#utility.yul\":8030:8219   */\n    tag_78:\n        /* \"#utility.yul\":8107:8139   */\n      tag_172\n      tag_77\n      jump\t// in\n    tag_172:\n        /* \"#utility.yul\":8148:8213   */\n      tag_173\n        /* \"#utility.yul\":8206:8212   */\n      dup2\n        /* \"#utility.yul\":8198:8204   */\n      dup5\n        /* \"#utility.yul\":8192:8196   */\n      dup5\n        /* \"#utility.yul\":8148:8213   */\n      tag_76\n      jump\t// in\n    tag_173:\n        /* \"#utility.yul\":8083:8219   */\n      pop\n        /* \"#utility.yul\":8030:8219   */\n      pop\n      pop\n      jump\t// out\n        /* \"#utility.yul\":8225:8411   */\n    tag_79:\n        /* \"#utility.yul\":8285:8405   */\n    tag_175:\n        /* \"#utility.yul\":8302:8305   */\n      dup2\n        /* \"#utility.yul\":8295:8300   */\n      dup2\n        /* \"#utility.yul\":8292:8306   */\n      lt\n        /* \"#utility.yul\":8285:8405   */\n      iszero\n      tag_177\n      jumpi\n        /* \"#utility.yul\":8356:8395   */\n      tag_178\n        /* \"#utility.yul\":8393:8394   */\n      0x00\n        /* \"#utility.yul\":8386:8391   */\n      dup3\n        /* \"#utility.yul\":8356:8395   */\n      tag_78\n      jump\t// in\n    tag_178:\n        /* \"#utility.yul\":8329:8330   */\n      0x01\n        /* \"#utility.yul\":8322:8327   */\n      dup2\n        /* \"#utility.yul\":8318:8331   */\n      add\n        /* \"#utility.yul\":8309:8331   */\n      swap1\n      pop\n        /* \"#utility.yul\":8285:8405   */\n      jump(tag_175)\n    tag_177:\n        /* \"#utility.yul\":8225:8411   */\n      pop\n      pop\n      jump\t// out\n        /* \"#utility.yul\":8417:8960   */\n    tag_80:\n        /* \"#utility.yul\":8518:8520   */\n      0x1f\n        /* \"#utility.yul\":8513:8516   */\n      dup3\n        /* \"#utility.yul\":8510:8521   */\n      gt\n        /* \"#utility.yul\":8507:8953   */\n      iszero\n      tag_180\n      jumpi\n        /* \"#utility.yul\":8552:8590   */\n      tag_181\n        /* \"#utility.yul\":8584:8589   */\n      dup2\n        /* \"#utility.yul\":8552:8590   */\n      tag_68\n      jump\t// in\n    tag_181:\n        /* \"#utility.yul\":8636:8665   */\n      tag_182\n        /* \"#utility.yul\":8654:8664   */\n      dup5\n        /* \"#utility.yul\":8636:8665   */\n      tag_69\n      jump\t// in\n    tag_182:\n        /* \"#utility.yul\":8626:8634   */\n      dup2\n        /* \"#utility.yul\":8622:8666   */\n      add\n        /* \"#utility.yul\":8819:8821   */\n      0x20\n        /* \"#utility.yul\":8807:8817   */\n      dup6\n        /* \"#utility.yul\":8804:8822   */\n      lt\n        /* \"#utility.yul\":8801:8850   */\n      iszero\n      tag_183\n      jumpi\n        /* \"#utility.yul\":8840:8848   */\n      dup2\n        /* \"#utility.yul\":8825:8848   */\n      swap1\n      pop\n        /* \"#utility.yul\":8801:8850   */\n    tag_183:\n        /* \"#utility.yul\":8863:8943   */\n      tag_184\n        /* \"#utility.yul\":8919:8941   */\n      tag_185\n        /* \"#utility.yul\":8937:8940   */\n      dup6\n        /* \"#utility.yul\":8919:8941   */\n      tag_69\n      jump\t// in\n    tag_185:\n        /* \"#utility.yul\":8909:8917   */\n      dup4\n        /* \"#utility.yul\":8905:8942   */\n      add\n        /* \"#utility.yul\":8892:8903   */\n      dup3\n        /* \"#utility.yul\":8863:8943   */\n      tag_79\n      jump\t// in\n    tag_184:\n        /* \"#utility.yul\":8522:8953   */\n      pop\n      pop\n        /* \"#utility.yul\":8507:8953   */\n    tag_180:\n        /* \"#utility.yul\":8417:8960   */\n      pop\n      pop\n      pop\n      jump\t// out\n        /* \"#utility.yul\":8966:9083   */\n    tag_81:\n        /* \"#utility.yul\":9020:9028   */\n      0x00\n        /* \"#utility.yul\":9070:9075   */\n      dup3\n        /* \"#utility.yul\":9064:9068   */\n      dup3\n        /* \"#utility.yul\":9060:9076   */\n      shr\n        /* \"#utility.yul\":9039:9076   */\n      swap1\n      pop\n        /* \"#utility.yul\":8966:9083   */\n      swap3\n      swap2\n      pop\n      pop\n      jump\t// out\n        /* \"#utility.yul\":9089:9258   */\n    tag_82:\n        /* \"#utility.yul\":9133:9139   */\n      0x00\n        /* \"#utility.yul\":9166:9217   */\n      tag_188\n        /* \"#utility.yul\":9214:9215   */\n      0x00\n        /* \"#utility.yul\":9210:9216   */\n      not\n        /* \"#utility.yul\":9202:9207   */\n      dup5\n        /* \"#utility.yul\":9199:9200   */\n      0x08\n        /* \"#utility.yul\":9195:9208   */\n      mul\n        /* \"#utility.yul\":9166:9217   */\n      tag_81\n      jump\t// in\n    tag_188:\n        /* \"#utility.yul\":9162:9218   */\n      not\n        /* \"#utility.yul\":9247:9251   */\n      dup1\n        /* \"#utility.yul\":9241:9245   */\n      dup4\n        /* \"#utility.yul\":9237:9252   */\n      and\n        /* \"#utility.yul\":9227:9252   */\n      swap2\n      pop\n        /* \"#utility.yul\":9140:9258   */\n      pop\n        /* \"#utility.yul\":9089:9258   */\n      swap3\n      swap2\n      pop\n      pop\n      jump\t// out\n        /* \"#utility.yul\":9263:9558   */\n    tag_83:\n        /* \"#utility.yul\":9339:9343   */\n      0x00\n        /* \"#utility.yul\":9485:9514   */\n      tag_190\n        /* \"#utility.yul\":9510:9513   */\n      dup4\n        /* \"#utility.yul\":9504:9508   */\n      dup4\n        /* \"#utility.yul\":9485:9514   */\n      tag_82\n      jump\t// in\n    tag_190:\n        /* \"#utility.yul\":9477:9514   */\n      swap2\n      pop\n        /* \"#utility.yul\":9547:9550   */\n      dup3\n        /* \"#utility.yul\":9544:9545   */\n      0x02\n        /* \"#utility.yul\":9540:9551   */\n      mul\n        /* \"#utility.yul\":9534:9538   */\n      dup3\n        /* \"#utility.yul\":9531:9552   */\n      or\n        /* \"#utility.yul\":9523:9552   */\n      swap1\n      pop\n        /* \"#utility.yul\":9263:9558   */\n      swap3\n      swap2\n      pop\n      pop\n      jump\t// out\n        /* \"#utility.yul\":9563:10958   */\n    tag_36:\n        /* \"#utility.yul\":9680:9717   */\n      tag_192\n        /* \"#utility.yul\":9713:9716   */\n      dup3\n        /* \"#utility.yul\":9680:9717   */\n      tag_48\n      jump\t// in\n    tag_192:\n        /* \"#utility.yul\":9782:9800   */\n      0xffffffffffffffff\n        /* \"#utility.yul\":9774:9780   */\n      dup2\n        /* \"#utility.yul\":9771:9801   */\n      gt\n        /* \"#utility.yul\":9768:9824   */\n      iszero\n      tag_193\n      jumpi\n        /* \"#utility.yul\":9804:9822   */\n      tag_194\n      tag_58\n      jump\t// in\n    tag_194:\n        /* \"#utility.yul\":9768:9824   */\n    tag_193:\n        /* \"#utility.yul\":9848:9886   */\n      tag_195\n        /* \"#utility.yul\":9880:9884   */\n      dup3\n        /* \"#utility.yul\":9874:9885   */\n      sload\n        /* \"#utility.yul\":9848:9886   */\n      tag_26\n      jump\t// in\n    tag_195:\n        /* \"#utility.yul\":9933:10000   */\n      tag_196\n        /* \"#utility.yul\":9993:9999   */\n      dup3\n        /* \"#utility.yul\":9985:9991   */\n      dup3\n        /* \"#utility.yul\":9979:9983   */\n      dup6\n        /* \"#utility.yul\":9933:10000   */\n      tag_80\n      jump\t// in\n    tag_196:\n        /* \"#utility.yul\":10027:10028   */\n      0x00\n        /* \"#utility.yul\":10051:10055   */\n      0x20\n        /* \"#utility.yul\":10038:10055   */\n      swap1\n      pop\n        /* \"#utility.yul\":10083:10085   */\n      0x1f\n        /* \"#utility.yul\":10075:10081   */\n      dup4\n        /* \"#utility.yul\":10072:10086   */\n      gt\n        /* \"#utility.yul\":10100:10101   */\n      0x01\n        /* \"#utility.yul\":10095:10713   */\n      dup2\n      eq\n      tag_198\n      jumpi\n        /* \"#utility.yul\":10757:10758   */\n      0x00\n        /* \"#utility.yul\":10774:10780   */\n      dup5\n        /* \"#utility.yul\":10771:10848   */\n      iszero\n      tag_199\n      jumpi\n        /* \"#utility.yul\":10823:10832   */\n      dup3\n        /* \"#utility.yul\":10818:10821   */\n      dup8\n        /* \"#utility.yul\":10814:10833   */\n      add\n        /* \"#utility.yul\":10808:10834   */\n      mload\n        /* \"#utility.yul\":10799:10834   */\n      swap1\n      pop\n        /* \"#utility.yul\":10771:10848   */\n    tag_199:\n        /* \"#utility.yul\":10874:10941   */\n      tag_200\n        /* \"#utility.yul\":10934:10940   */\n      dup6\n        /* \"#utility.yul\":10927:10932   */\n      dup3\n        /* \"#utility.yul\":10874:10941   */\n      tag_83\n      jump\t// in\n    tag_200:\n        /* \"#utility.yul\":10868:10872   */\n      dup7\n        /* \"#utility.yul\":10861:10942   */\n      sstore\n        /* \"#utility.yul\":10730:10952   */\n      pop\n        /* \"#utility.yul\":10065:10952   */\n      jump(tag_197)\n        /* \"#utility.yul\":10095:10713   */\n    tag_198:\n        /* \"#utility.yul\":10147:10151   */\n      0x1f\n        /* \"#utility.yul\":10143:10152   */\n      not\n        /* \"#utility.yul\":10135:10141   */\n      dup5\n        /* \"#utility.yul\":10131:10153   */\n      and\n        /* \"#utility.yul\":10181:10218   */\n      tag_201\n        /* \"#utility.yul\":10213:10217   */\n      dup7\n        /* \"#utility.yul\":10181:10218   */\n      tag_68\n      jump\t// in\n    tag_201:\n        /* \"#utility.yul\":10240:10241   */\n      0x00\n        /* \"#utility.yul\":10254:10462   */\n    tag_202:\n        /* \"#utility.yul\":10268:10275   */\n      dup3\n        /* \"#utility.yul\":10265:10266   */\n      dup2\n        /* \"#utility.yul\":10262:10276   */\n      lt\n        /* \"#utility.yul\":10254:10462   */\n      iszero\n      tag_204\n      jumpi\n        /* \"#utility.yul\":10347:10356   */\n      dup5\n        /* \"#utility.yul\":10342:10345   */\n      dup10\n        /* \"#utility.yul\":10338:10357   */\n      add\n        /* \"#utility.yul\":10332:10358   */\n      mload\n        /* \"#utility.yul\":10324:10330   */\n      dup3\n        /* \"#utility.yul\":10317:10359   */\n      sstore\n        /* \"#utility.yul\":10398:10399   */\n      0x01\n        /* \"#utility.yul\":10390:10396   */\n      dup3\n        /* \"#utility.yul\":10386:10400   */\n      add\n        /* \"#utility.yul\":10376:10400   */\n      swap2\n      pop\n        /* \"#utility.yul\":10445:10447   */\n      0x20\n        /* \"#utility.yul\":10434:10443   */\n      dup6\n        /* \"#utility.yul\":10430:10448   */\n      add\n        /* \"#utility.yul\":10417:10448   */\n      swap5\n      pop\n        /* \"#utility.yul\":10291:10295   */\n      0x20\n        /* \"#utility.yul\":10288:10289   */\n      dup2\n        /* \"#utility.yul\":10284:10296   */\n      add\n        /* \"#utility.yul\":10279:10296   */\n      swap1\n      pop\n        /* \"#utility.yul\":10254:10462   */\n      jump(tag_202)\n    tag_204:\n        /* \"#utility.yul\":10490:10496   */\n      dup7\n        /* \"#utility.yul\":10481:10488   */\n      dup4\n        /* \"#utility.yul\":10478:10497   */\n      lt\n        /* \"#utility.yul\":10475:10654   */\n      iszero\n      tag_205\n      jumpi\n        /* \"#utility.yul\":10548:10557   */\n      dup5\n        /* \"#utility.yul\":10543:10546   */\n      dup10\n        /* \"#utility.yul\":10539:10558   */\n      add\n        /* \"#utility.yul\":10533:10559   */\n      mload\n        /* \"#utility.yul\":10591:10639   */\n      tag_206\n        /* \"#utility.yul\":10633:10637   */\n      0x1f\n        /* \"#utility.yul\":10625:10631   */\n      dup10\n        /* \"#utility.yul\":10621:10638   */\n      and\n        /* \"#utility.yul\":10610:10619   */\n      dup3\n        /* \"#utility.yul\":10591:10639   */\n      tag_82\n      jump\t// in\n    tag_206:\n        /* \"#utility.yul\":10583:10589   */\n      dup4\n        /* \"#utility.yul\":10576:10640   */\n      sstore\n        /* \"#utility.yul\":10498:10654   */\n      pop\n        /* \"#utility.yul\":10475:10654   */\n    tag_205:\n        /* \"#utility.yul\":10700:10701   */\n      0x01\n        /* \"#utility.yul\":10696:10697   */\n      0x02\n        /* \"#utility.yul\":10688:10694   */\n      dup9\n        /* \"#utility.yul\":10684:10698   */\n      mul\n        /* \"#utility.yul\":10680:10702   */\n      add\n        /* \"#utility.yul\":10674:10678   */\n      dup9\n        /* \"#utility.yul\":10667:10703   */\n      sstore\n        /* \"#utility.yul\":10102:10713   */\n      pop\n      pop\n      pop\n        /* \"#utility.yul\":10065:10952   */\n    tag_197:\n      pop\n        /* \"#utility.yul\":9655:10958   */\n      pop\n      pop\n      pop\n        /* \"#utility.yul\":9563:10958   */\n      pop\n      pop\n      jump\t// out\n        /* \"#utility.yul\":10988:11862   */\n    tag_84:\n        /* \"#utility.yul\":11091:11094   */\n      0x00\n        /* \"#utility.yul\":11128:11133   */\n      dup2\n        /* \"#utility.yul\":11122:11134   */\n      sload\n        /* \"#utility.yul\":11157:11193   */\n      tag_208\n        /* \"#utility.yul\":11183:11192   */\n      dup2\n        /* \"#utility.yul\":11157:11193   */\n      tag_26\n      jump\t// in\n    tag_208:\n        /* \"#utility.yul\":11209:11298   */\n      tag_209\n        /* \"#utility.yul\":11291:11297   */\n      dup2\n        /* \"#utility.yul\":11286:11289   */\n      dup7\n        /* \"#utility.yul\":11209:11298   */\n      tag_66\n      jump\t// in\n    tag_209:\n        /* \"#utility.yul\":11202:11298   */\n      swap5\n      pop\n        /* \"#utility.yul\":11329:11330   */\n      0x01\n        /* \"#utility.yul\":11318:11327   */\n      dup3\n        /* \"#utility.yul\":11314:11331   */\n      and\n        /* \"#utility.yul\":11345:11346   */\n      0x00\n        /* \"#utility.yul\":11340:11506   */\n      dup2\n      eq\n      tag_211\n      jumpi\n        /* \"#utility.yul\":11520:11521   */\n      0x01\n        /* \"#utility.yul\":11515:11856   */\n      dup2\n      eq\n      tag_212\n      jumpi\n        /* \"#utility.yul\":11307:11856   */\n      jump(tag_210)\n        /* \"#utility.yul\":11340:11506   */\n    tag_211:\n        /* \"#utility.yul\":11424:11428   */\n      0xff\n        /* \"#utility.yul\":11420:11429   */\n      not\n        /* \"#utility.yul\":11409:11418   */\n      dup4\n        /* \"#utility.yul\":11405:11430   */\n      and\n        /* \"#utility.yul\":11400:11403   */\n      dup7\n        /* \"#utility.yul\":11393:11431   */\n      mstore\n        /* \"#utility.yul\":11486:11492   */\n      dup2\n        /* \"#utility.yul\":11479:11493   */\n      iszero\n        /* \"#utility.yul\":11472:11494   */\n      iszero\n        /* \"#utility.yul\":11464:11470   */\n      dup3\n        /* \"#utility.yul\":11460:11495   */\n      mul\n        /* \"#utility.yul\":11455:11458   */\n      dup7\n        /* \"#utility.yul\":11451:11496   */\n      add\n        /* \"#utility.yul\":11444:11496   */\n      swap4\n      pop\n        /* \"#utility.yul\":11340:11506   */\n      jump(tag_210)\n        /* \"#utility.yul\":11515:11856   */\n    tag_212:\n        /* \"#utility.yul\":11582:11620   */\n      tag_213\n        /* \"#utility.yul\":11614:11619   */\n      dup6\n        /* \"#utility.yul\":11582:11620   */\n      tag_68\n      jump\t// in\n    tag_213:\n        /* \"#utility.yul\":11642:11643   */\n      0x00\n        /* \"#utility.yul\":11656:11810   */\n    tag_214:\n        /* \"#utility.yul\":11670:11676   */\n      dup4\n        /* \"#utility.yul\":11667:11668   */\n      dup2\n        /* \"#utility.yul\":11664:11677   */\n      lt\n        /* \"#utility.yul\":11656:11810   */\n      iszero\n      tag_216\n      jumpi\n        /* \"#utility.yul\":11744:11751   */\n      dup2\n        /* \"#utility.yul\":11738:11752   */\n      sload\n        /* \"#utility.yul\":11734:11735   */\n      dup2\n        /* \"#utility.yul\":11729:11732   */\n      dup10\n        /* \"#utility.yul\":11725:11736   */\n      add\n        /* \"#utility.yul\":11718:11753   */\n      mstore\n        /* \"#utility.yul\":11794:11795   */\n      0x01\n        /* \"#utility.yul\":11785:11792   */\n      dup3\n        /* \"#utility.yul\":11781:11796   */\n      add\n        /* \"#utility.yul\":11770:11796   */\n      swap2\n      pop\n        /* \"#utility.yul\":11692:11696   */\n      0x20\n        /* \"#utility.yul\":11689:11690   */\n      dup2\n        /* \"#utility.yul\":11685:11697   */\n      add\n        /* \"#utility.yul\":11680:11697   */\n      swap1\n      pop\n        /* \"#utility.yul\":11656:11810   */\n      jump(tag_214)\n    tag_216:\n        /* \"#utility.yul\":11839:11845   */\n      dup4\n        /* \"#utility.yul\":11834:11837   */\n      dup9\n        /* \"#utility.yul\":11830:11846   */\n      add\n        /* \"#utility.yul\":11823:11846   */\n      swap6\n      pop\n        /* \"#utility.yul\":11522:11856   */\n      pop\n      pop\n        /* \"#utility.yul\":11307:11856   */\n    tag_210:\n      pop\n        /* \"#utility.yul\":11095:11862   */\n      pop\n      pop\n        /* \"#utility.yul\":10988:11862   */\n      swap3\n      swap2\n      pop\n      pop\n      jump\t// out\n        /* \"#utility.yul\":11868:12297   */\n    tag_47:\n        /* \"#utility.yul\":12045:12048   */\n      0x00\n        /* \"#utility.yul\":12067:12159   */\n      tag_218\n        /* \"#utility.yul\":12155:12158   */\n      dup3\n        /* \"#utility.yul\":12146:12152   */\n      dup6\n        /* \"#utility.yul\":12067:12159   */\n      tag_84\n      jump\t// in\n    tag_218:\n        /* \"#utility.yul\":12060:12159   */\n      swap2\n      pop\n        /* \"#utility.yul\":12176:12271   */\n      tag_219\n        /* \"#utility.yul\":12267:12270   */\n      dup3\n        /* \"#utility.yul\":12258:12264   */\n      dup5\n        /* \"#utility.yul\":12176:12271   */\n      tag_67\n      jump\t// in\n    tag_219:\n        /* \"#utility.yul\":12169:12271   */\n      swap2\n      pop\n        /* \"#utility.yul\":12288:12291   */\n      dup2\n        /* \"#utility.yul\":12281:12291   */\n      swap1\n      pop\n        /* \"#utility.yul\":11868:12297   */\n      swap4\n      swap3\n      pop\n      pop\n      pop\n      jump\t// out\n\n    auxdata: 0xa26469706673582212201d6f2118b48eeaa848666d972ffd56dbd29209ebcdcfca1bb9186ebfa5441fbc64736f6c634300081e0033\n}\n",
				"bytecode": {
					"linkReferences": {},
					"object": "60806040526040518060400160405280600681526020017f68656c6c6f2100000000000000000000000000000000000000000000000000008152505f90816100479190610296565b50348015610053575f5ffd5b50610365565b5f81519050919050565b7f4e487b71000000000000000000000000000000000000000000000000000000005f52604160045260245ffd5b7f4e487b71000000000000000000000000000000000000000000000000000000005f52602260045260245ffd5b5f60028204905060018216806100d457607f821691505b6020821081036100e7576100e6610090565b5b50919050565b5f819050815f5260205f209050919050565b5f6020601f8301049050919050565b5f82821b905092915050565b5f600883026101497fffffffffffffffffffffffffffffffffffffffffffffffffffffffffffffffff8261010e565b610153868361010e565b95508019841693508086168417925050509392505050565b5f819050919050565b5f819050919050565b5f61019761019261018d8461016b565b610174565b61016b565b9050919050565b5f819050919050565b6101b08361017d565b6101c46101bc8261019e565b84845461011a565b825550505050565b5f5f905090565b6101db6101cc565b6101e68184846101a7565b505050565b5b81811015610209576101fe5f826101d3565b6001810190506101ec565b5050565b601f82111561024e5761021f816100ed565b610228846100ff565b81016020851015610237578190505b61024b610243856100ff565b8301826101eb565b50505b505050565b5f82821c905092915050565b5f61026e5f1984600802610253565b1980831691505092915050565b5f610286838361025f565b9150826002028217905092915050565b61029f82610059565b67ffffffffffffffff8111156102b8576102b7610063565b5b6102c282546100bd565b6102cd82828561020d565b5f60209050601f8311600181146102fe575f84156102ec578287015190505b6102f6858261027b565b86555061035d565b601f19841661030c866100ed565b5f5b828110156103335784890151825560018201915060208501945060208101905061030e565b86831015610350578489015161034c601f89168261025f565b8355505b6001600288020188555050505b505050505050565b610925806103725f395ff3fe608060405234801561000f575f5ffd5b506004361061004a575f3560e01c806319ff1d211461004e578063360b5ae11461006c578063a5449b061461009c578063c3a9b1c5146100cc575b5f5ffd5b6100566100fc565b6040516100639190610300565b60405180910390f35b6100866004803603810190610081919061045d565b610187565b6040516100939190610300565b60405180910390f35b6100b660048036038101906100b191906104d3565b6101b3565b6040516100c39190610300565b60405180910390f35b6100e660048036038101906100e191906104d3565b610253565b6040516100f39190610300565b60405180910390f35b5f805461010890610547565b80601f016020809104026020016040519081016040528092919081815260200182805461013490610547565b801561017f5780601f106101565761010080835404028352916020019161017f565b820191905f5260205f20905b81548152906001019060200180831161016257829003601f168201915b505050505081565b6060828260405160200161019c9291906105b1565b604051602081830303815290604052905092915050565b6060815f90816101c3919061077d565b505f80546101d090610547565b80601f01602080910402602001604051908101604052809291908181526020018280546101fc90610547565b80156102475780601f1061021e57610100808354040283529160200191610247565b820191905f5260205f20905b81548152906001019060200180831161022a57829003601f168201915b50505050509050919050565b606061025e82610265565b9050919050565b60605f8260405160200161027a9291906108cc565b6040516020818303038152906040529050919050565b5f81519050919050565b5f82825260208201905092915050565b8281835e5f83830152505050565b5f601f19601f8301169050919050565b5f6102d282610290565b6102dc818561029a565b93506102ec8185602086016102aa565b6102f5816102b8565b840191505092915050565b5f6020820190508181035f83015261031881846102c8565b905092915050565b5f604051905090565b5f5ffd5b5f5ffd5b5f5ffd5b5f5ffd5b7f4e487b71000000000000000000000000000000000000000000000000000000005f52604160045260245ffd5b61036f826102b8565b810181811067ffffffffffffffff8211171561038e5761038d610339565b5b80604052505050565b5f6103a0610320565b90506103ac8282610366565b919050565b5f67ffffffffffffffff8211156103cb576103ca610339565b5b6103d4826102b8565b9050602081019050919050565b828183375f83830152505050565b5f6104016103fc846103b1565b610397565b90508281526020810184848401111561041d5761041c610335565b5b6104288482856103e1565b509392505050565b5f82601f83011261044457610443610331565b5b81356104548482602086016103ef565b91505092915050565b5f5f6040838503121561047357610472610329565b5b5f83013567ffffffffffffffff8111156104905761048f61032d565b5b61049c85828601610430565b925050602083013567ffffffffffffffff8111156104bd576104bc61032d565b5b6104c985828601610430565b9150509250929050565b5f602082840312156104e8576104e7610329565b5b5f82013567ffffffffffffffff8111156105055761050461032d565b5b61051184828501610430565b91505092915050565b7f4e487b71000000000000000000000000000000000000000000000000000000005f52602260045260245ffd5b5f600282049050600182168061055e57607f821691505b6020821081036105715761057061051a565b5b50919050565b5f81905092915050565b5f61058b82610290565b6105958185610577565b93506105a58185602086016102aa565b80840191505092915050565b5f6105bc8285610581565b91506105c88284610581565b91508190509392505050565b5f819050815f5260205f209050919050565b5f6020601f8301049050919050565b5f82821b905092915050565b5f600883026106307fffffffffffffffffffffffffffffffffffffffffffffffffffffffffffffffff826105f5565b61063a86836105f5565b95508019841693508086168417925050509392505050565b5f819050919050565b5f819050919050565b5f61067e61067961067484610652565b61065b565b610652565b9050919050565b5f819050919050565b61069783610664565b6106ab6106a382610685565b848454610601565b825550505050565b5f5f905090565b6106c26106b3565b6106cd81848461068e565b505050565b5b818110156106f0576106e55f826106ba565b6001810190506106d3565b5050565b601f82111561073557610706816105d4565b61070f846105e6565b8101602085101561071e578190505b61073261072a856105e6565b8301826106d2565b50505b505050565b5f82821c905092915050565b5f6107555f198460080261073a565b1980831691505092915050565b5f61076d8383610746565b9150826002028217905092915050565b61078682610290565b67ffffffffffffffff81111561079f5761079e610339565b5b6107a98254610547565b6107b48282856106f4565b5f60209050601f8311600181146107e5575f84156107d3578287015190505b6107dd8582610762565b865550610844565b601f1984166107f3866105d4565b5f5b8281101561081a578489015182556001820191506020850194506020810190506107f5565b868310156108375784890151610833601f891682610746565b8355505b6001600288020188555050505b505050505050565b5f815461085881610547565b6108628186610577565b9450600182165f811461087c5760018114610891576108c3565b60ff19831686528115158202860193506108c3565b61089a856105d4565b5f5b838110156108bb5781548189015260018201915060208101905061089c565b838801955050505b50505092915050565b5f6108d7828561084c565b91506108e38284610581565b9150819050939250505056fea26469706673582212201d6f2118b48eeaa848666d972ffd56dbd29209ebcdcfca1bb9186ebfa5441fbc64736f6c634300081e0033",
					"opcodes": "PUSH1 0x80 PUSH1 0x40 MSTORE PUSH1 0x40 MLOAD DUP1 PUSH1 0x40 ADD PUSH1 0x40 MSTORE DUP1 PUSH1 0x6 DUP2 MSTORE PUSH1 0x20 ADD PUSH32 0x68656C6C6F210000000000000000000000000000000000000000000000000000 DUP2 MSTORE POP PUSH0 SWAP1 DUP2 PUSH2 0x47 SWAP2 SWAP1 PUSH2 0x296 JUMP JUMPDEST POP CALLVALUE DUP1 ISZERO PUSH2 0x53 JUMPI PUSH0 PUSH0 REVERT JUMPDEST POP PUSH2 0x365 JUMP JUMPDEST PUSH0 DUP2 MLOAD SWAP1 POP SWAP2 SWAP1 POP JUMP JUMPDEST PUSH32 0x4E487B7100000000000000000000000000000000000000000000000000000000 PUSH0 MSTORE PUSH1 0x41 PUSH1 0x4 MSTORE PUSH1 0x24 PUSH0 REVERT JUMPDEST PUSH32 0x4E487B7100000000000000000000000000000000000000000000000000000000 PUSH0 MSTORE PUSH1 0x22 PUSH1 0x4 MSTORE PUSH1 0x24 PUSH0 REVERT JUMPDEST PUSH0 PUSH1 0x2 DUP3 DIV SWAP1 POP PUSH1 0x1 DUP3 AND DUP1 PUSH2 0xD4 JUMPI PUSH1 0x7F DUP3 AND SWAP2 POP JUMPDEST PUSH1 0x20 DUP3 LT DUP2 SUB PUSH2 0xE7 JUMPI PUSH2 0xE6 PUSH2 0x90 JUMP JUMPDEST JUMPDEST POP SWAP2 SWAP1 POP JUMP JUMPDEST PUSH0 DUP2 SWAP1 POP DUP2 PUSH0 MSTORE PUSH1 0x20 PUSH0 KECCAK256 SWAP1 POP SWAP2 SWAP1 POP JUMP JUMPDEST PUSH0 PUSH1 0x20 PUSH1 0x1F DUP4 ADD DIV SWAP1 POP SWAP2 SWAP1 POP JUMP JUMPDEST PUSH0 DUP3 DUP3 SHL SWAP1 POP SWAP3 SWAP2 POP POP JUMP JUMPDEST PUSH0 PUSH1 0x8 DUP4 MUL PUSH2 0x149 PUSH32 0xFFFFFFFFFFFFFFFFFFFFFFFFFFFFFFFFFFFFFFFFFFFFFFFFFFFFFFFFFFFFFFFF DUP3 PUSH2 0x10E JUMP JUMPDEST PUSH2 0x153 DUP7 DUP4 PUSH2 0x10E JUMP JUMPDEST SWAP6 POP DUP1 NOT DUP5 AND SWAP4 POP DUP1 DUP7 AND DUP5 OR SWAP3 POP POP POP SWAP4 SWAP3 POP POP POP JUMP JUMPDEST PUSH0 DUP2 SWAP1 POP SWAP2 SWAP1 POP JUMP JUMPDEST PUSH0 DUP2 SWAP1 POP SWAP2 SWAP1 POP JUMP JUMPDEST PUSH0 PUSH2 0x197 PUSH2 0x192 PUSH2 0x18D DUP5 PUSH2 0x16B JUMP JUMPDEST PUSH2 0x174 JUMP JUMPDEST PUSH2 0x16B JUMP JUMPDEST SWAP1 POP SWAP2 SWAP1 POP JUMP JUMPDEST PUSH0 DUP2 SWAP1 POP SWAP2 SWAP1 POP JUMP JUMPDEST PUSH2 0x1B0 DUP4 PUSH2 0x17D JUMP JUMPDEST PUSH2 0x1C4 PUSH2 0x1BC DUP3 PUSH2 0x19E JUMP JUMPDEST DUP5 DUP5 SLOAD PUSH2 0x11A JUMP JUMPDEST DUP3 SSTORE POP POP POP POP JUMP JUMPDEST PUSH0 PUSH0 SWAP1 POP SWAP1 JUMP JUMPDEST PUSH2 0x1DB PUSH2 0x1CC JUMP JUMPDEST PUSH2 0x1E6 DUP2 DUP5 DUP5 PUSH2 0x1A7 JUMP JUMPDEST POP POP POP JUMP JUMPDEST JUMPDEST DUP2 DUP2 LT ISZERO PUSH2 0x209 JUMPI PUSH2 0x1FE PUSH0 DUP3 PUSH2 0x1D3 JUMP JUMPDEST PUSH1 0x1 DUP2 ADD SWAP1 POP PUSH2 0x1EC JUMP JUMPDEST POP POP JUMP JUMPDEST PUSH1 0x1F DUP3 GT ISZERO PUSH2 0x24E JUMPI PUSH2 0x21F DUP2 PUSH2 0xED JUMP JUMPDEST PUSH2 0x228 DUP5 PUSH2 0xFF JUMP JUMPDEST DUP2 ADD PUSH1 0x20 DUP6 LT ISZERO PUSH2 0x237 JUMPI DUP2 SWAP1 POP JUMPDEST PUSH2 0x24B PUSH2 0x243 DUP6 PUSH2 0xFF JUMP JUMPDEST DUP4 ADD DUP3 PUSH2 0x1EB JUMP JUMPDEST POP POP JUMPDEST POP POP POP JUMP JUMPDEST PUSH0 DUP3 DUP3 SHR SWAP1 POP SWAP3 SWAP2 POP POP JUMP JUMPDEST PUSH0 PUSH2 0x26E PUSH0 NOT DUP5 PUSH1 0x8 MUL PUSH2 0x253 JUMP JUMPDEST NOT DUP1 DUP4 AND SWAP2 POP POP SWAP3 SWAP2 POP POP JUMP JUMPDEST PUSH0 PUSH2 0x286 DUP4 DUP4 PUSH2 0x25F JUMP JUMPDEST SWAP2 POP DUP3 PUSH1 0x2 MUL DUP3 OR SWAP1 POP SWAP3 SWAP2 POP POP JUMP JUMPDEST PUSH2 0x29F DUP3 PUSH2 0x59 JUMP JUMPDEST PUSH8 0xFFFFFFFFFFFFFFFF DUP2 GT ISZERO PUSH2 0x2B8 JUMPI PUSH2 0x2B7 PUSH2 0x63 JUMP JUMPDEST JUMPDEST PUSH2 0x2C2 DUP3 SLOAD PUSH2 0xBD JUMP JUMPDEST PUSH2 0x2CD DUP3 DUP3 DUP6 PUSH2 0x20D JUMP JUMPDEST PUSH0 PUSH1 0x20 SWAP1 POP PUSH1 0x1F DUP4 GT PUSH1 0x1 DUP2 EQ PUSH2 0x2FE JUMPI PUSH0 DUP5 ISZERO PUSH2 0x2EC JUMPI DUP3 DUP8 ADD MLOAD SWAP1 POP JUMPDEST PUSH2 0x2F6 DUP6 DUP3 PUSH2 0x27B JUMP JUMPDEST DUP7 SSTORE POP PUSH2 0x35D JUMP JUMPDEST PUSH1 0x1F NOT DUP5 AND PUSH2 0x30C DUP7 PUSH2 0xED JUMP JUMPDEST PUSH0 JUMPDEST DUP3 DUP2 LT ISZERO PUSH2 0x333 JUMPI DUP5 DUP10 ADD MLOAD DUP3 SSTORE PUSH1 0x1 DUP3 ADD SWAP2 POP PUSH1 0x20 DUP6 ADD SWAP5 POP PUSH1 0x20 DUP2 ADD SWAP1 POP PUSH2 0x30E JUMP JUMPDEST DUP7 DUP4 LT ISZERO PUSH2 0x350 JUMPI DUP5 DUP10 ADD MLOAD PUSH2 0x34C PUSH1 0x1F DUP10 AND DUP3 PUSH2 0x25F JUMP JUMPDEST DUP4 SSTORE POP JUMPDEST PUSH1 0x1 PUSH1 0x2 DUP9 MUL ADD DUP9 SSTORE POP POP POP JUMPDEST POP POP POP POP POP POP JUMP JUMPDEST PUSH2 0x925 DUP1 PUSH2 0x372 PUSH0 CODECOPY PUSH0 RETURN INVALID PUSH1 0x80 PUSH1 0x40 MSTORE CALLVALUE DUP1 ISZERO PUSH2 0xF JUMPI PUSH0 PUSH0 REVERT JUMPDEST POP PUSH1 0x4 CALLDATASIZE LT PUSH2 0x4A JUMPI PUSH0 CALLDATALOAD PUSH1 0xE0 SHR DUP1 PUSH4 0x19FF1D21 EQ PUSH2 0x4E JUMPI DUP1 PUSH4 0x360B5AE1 EQ PUSH2 0x6C JUMPI DUP1 PUSH4 0xA5449B06 EQ PUSH2 0x9C JUMPI DUP1 PUSH4 0xC3A9B1C5 EQ PUSH2 0xCC JUMPI JUMPDEST PUSH0 PUSH0 REVERT JUMPDEST PUSH2 0x56 PUSH2 0xFC JUMP JUMPDEST PUSH1 0x40 MLOAD PUSH2 0x63 SWAP2 SWAP1 PUSH2 0x300 JUMP JUMPDEST PUSH1 0x40 MLOAD DUP1 SWAP2 SUB SWAP1 RETURN JUMPDEST PUSH2 0x86 PUSH1 0x4 DUP1 CALLDATASIZE SUB DUP2 ADD SWAP1 PUSH2 0x81 SWAP2 SWAP1 PUSH2 0x45D JUMP JUMPDEST PUSH2 0x187 JUMP JUMPDEST PUSH1 0x40 MLOAD PUSH2 0x93 SWAP2 SWAP1 PUSH2 0x300 JUMP JUMPDEST PUSH1 0x40 MLOAD DUP1 SWAP2 SUB SWAP1 RETURN JUMPDEST PUSH2 0xB6 PUSH1 0x4 DUP1 CALLDATASIZE SUB DUP2 ADD SWAP1 PUSH2 0xB1 SWAP2 SWAP1 PUSH2 0x4D3 JUMP JUMPDEST PUSH2 0x1B3 JUMP JUMPDEST PUSH1 0x40 MLOAD PUSH2 0xC3 SWAP2 SWAP1 PUSH2 0x300 JUMP JUMPDEST PUSH1 0x40 MLOAD DUP1 SWAP2 SUB SWAP1 RETURN JUMPDEST PUSH2 0xE6 PUSH1 0x4 DUP1 CALLDATASIZE SUB DUP2 ADD SWAP1 PUSH2 0xE1 SWAP2 SWAP1 PUSH2 0x4D3 JUMP JUMPDEST PUSH2 0x253 JUMP JUMPDEST PUSH1 0x40 MLOAD PUSH2 0xF3 SWAP2 SWAP1 PUSH2 0x300 JUMP JUMPDEST PUSH1 0x40 MLOAD DUP1 SWAP2 SUB SWAP1 RETURN JUMPDEST PUSH0 DUP1 SLOAD PUSH2 0x108 SWAP1 PUSH2 0x547 JUMP JUMPDEST DUP1 PUSH1 0x1F ADD PUSH1 0x20 DUP1 SWAP2 DIV MUL PUSH1 0x20 ADD PUSH1 0x40 MLOAD SWAP1 DUP2 ADD PUSH1 0x40 MSTORE DUP1 SWAP3 SWAP2 SWAP1 DUP2 DUP2 MSTORE PUSH1 0x20 ADD DUP3 DUP1 SLOAD PUSH2 0x134 SWAP1 PUSH2 0x547 JUMP JUMPDEST DUP1 ISZERO PUSH2 0x17F JUMPI DUP1 PUSH1 0x1F LT PUSH2 0x156 JUMPI PUSH2 0x100 DUP1 DUP4 SLOAD DIV MUL DUP4 MSTORE SWAP2 PUSH1 0x20 ADD SWAP2 PUSH2 0x17F JUMP JUMPDEST DUP3 ADD SWAP2 SWAP1 PUSH0 MSTORE PUSH1 0x20 PUSH0 KECCAK256 SWAP1 JUMPDEST DUP2 SLOAD DUP2 MSTORE SWAP1 PUSH1 0x1 ADD SWAP1 PUSH1 0x20 ADD DUP1 DUP4 GT PUSH2 0x162 JUMPI DUP3 SWAP1 SUB PUSH1 0x1F AND DUP3 ADD SWAP2 JUMPDEST POP POP POP POP POP DUP2 JUMP JUMPDEST PUSH1 0x60 DUP3 DUP3 PUSH1 0x40 MLOAD PUSH1 0x20 ADD PUSH2 0x19C SWAP3 SWAP2 SWAP1 PUSH2 0x5B1 JUMP JUMPDEST PUSH1 0x40 MLOAD PUSH1 0x20 DUP2 DUP4 SUB SUB DUP2 MSTORE SWAP1 PUSH1 0x40 MSTORE SWAP1 POP SWAP3 SWAP2 POP POP JUMP JUMPDEST PUSH1 0x60 DUP2 PUSH0 SWAP1 DUP2 PUSH2 0x1C3 SWAP2 SWAP1 PUSH2 0x77D JUMP JUMPDEST POP PUSH0 DUP1 SLOAD PUSH2 0x1D0 SWAP1 PUSH2 0x547 JUMP JUMPDEST DUP1 PUSH1 0x1F ADD PUSH1 0x20 DUP1 SWAP2 DIV MUL PUSH1 0x20 ADD PUSH1 0x40 MLOAD SWAP1 DUP2 ADD PUSH1 0x40 MSTORE DUP1 SWAP3 SWAP2 SWAP1 DUP2 DUP2 MSTORE PUSH1 0x20 ADD DUP3 DUP1 SLOAD PUSH2 0x1FC SWAP1 PUSH2 0x547 JUMP JUMPDEST DUP1 ISZERO PUSH2 0x247 JUMPI DUP1 PUSH1 0x1F LT PUSH2 0x21E JUMPI PUSH2 0x100 DUP1 DUP4 SLOAD DIV MUL DUP4 MSTORE SWAP2 PUSH1 0x20 ADD SWAP2 PUSH2 0x247 JUMP JUMPDEST DUP3 ADD SWAP2 SWAP1 PUSH0 MSTORE PUSH1 0x20 PUSH0 KECCAK256 SWAP1 JUMPDEST DUP2 SLOAD DUP2 MSTORE SWAP1 PUSH1 0x1 ADD SWAP1 PUSH1 0x20 ADD DUP1 DUP4 GT PUSH2 0x22A JUMPI DUP3 SWAP1 SUB PUSH1 0x1F AND DUP3 ADD SWAP2 JUMPDEST POP POP POP POP POP SWAP1 POP SWAP2 SWAP1 POP JUMP JUMPDEST PUSH1 0x60 PUSH2 0x25E DUP3 PUSH2 0x265 JUMP JUMPDEST SWAP1 POP SWAP2 SWAP1 POP JUMP JUMPDEST PUSH1 0x60 PUSH0 DUP3 PUSH1 0x40 MLOAD PUSH1 0x20 ADD PUSH2 0x27A SWAP3 SWAP2 SWAP1 PUSH2 0x8CC JUMP JUMPDEST PUSH1 0x40 MLOAD PUSH1 0x20 DUP2 DUP4 SUB SUB DUP2 MSTORE SWAP1 PUSH1 0x40 MSTORE SWAP1 POP SWAP2 SWAP1 POP JUMP JUMPDEST PUSH0 DUP2 MLOAD SWAP1 POP SWAP2 SWAP1 POP JUMP JUMPDEST PUSH0 DUP3 DUP3 MSTORE PUSH1 0x20 DUP3 ADD SWAP1 POP SWAP3 SWAP2 POP POP JUMP JUMPDEST DUP3 DUP2 DUP4 MCOPY PUSH0 DUP4 DUP4 ADD MSTORE POP POP POP JUMP JUMPDEST PUSH0 PUSH1 0x1F NOT PUSH1 0x1F DUP4 ADD AND SWAP1 POP SWAP2 SWAP1 POP JUMP JUMPDEST PUSH0 PUSH2 0x2D2 DUP3 PUSH2 0x290 JUMP JUMPDEST PUSH2 0x2DC DUP2 DUP6 PUSH2 0x29A JUMP JUMPDEST SWAP4 POP PUSH2 0x2EC DUP2 DUP6 PUSH1 0x20 DUP7 ADD PUSH2 0x2AA JUMP JUMPDEST PUSH2 0x2F5 DUP2 PUSH2 0x2B8 JUMP JUMPDEST DUP5 ADD SWAP2 POP POP SWAP3 SWAP2 POP POP JUMP JUMPDEST PUSH0 PUSH1 0x20 DUP3 ADD SWAP1 POP DUP2 DUP2 SUB PUSH0 DUP4 ADD MSTORE PUSH2 0x318 DUP2 DUP5 PUSH2 0x2C8 JUMP JUMPDEST SWAP1 POP SWAP3 SWAP2 POP POP JUMP JUMPDEST PUSH0 PUSH1 0x40 MLOAD SWAP1 POP SWAP1 JUMP JUMPDEST PUSH0 PUSH0 REVERT JUMPDEST PUSH0 PUSH0 REVERT JUMPDEST PUSH0 PUSH0 REVERT JUMPDEST PUSH0 PUSH0 REVERT JUMPDEST PUSH32 0x4E487B7100000000000000000000000000000000000000000000000000000000 PUSH0 MSTORE PUSH1 0x41 PUSH1 0x4 MSTORE PUSH1 0x24 PUSH0 REVERT JUMPDEST PUSH2 0x36F DUP3 PUSH2 0x2B8 JUMP JUMPDEST DUP2 ADD DUP2 DUP2 LT PUSH8 0xFFFFFFFFFFFFFFFF DUP3 GT OR ISZERO PUSH2 0x38E JUMPI PUSH2 0x38D PUSH2 0x339 JUMP JUMPDEST JUMPDEST DUP1 PUSH1 0x40 MSTORE POP POP POP JUMP JUMPDEST PUSH0 PUSH2 0x3A0 PUSH2 0x320 JUMP JUMPDEST SWAP1 POP PUSH2 0x3AC DUP3 DUP3 PUSH2 0x366 JUMP JUMPDEST SWAP2 SWAP1 POP JUMP JUMPDEST PUSH0 PUSH8 0xFFFFFFFFFFFFFFFF DUP3 GT ISZERO PUSH2 0x3CB JUMPI PUSH2 0x3CA PUSH2 0x339 JUMP JUMPDEST JUMPDEST PUSH2 0x3D4 DUP3 PUSH2 0x2B8 JUMP JUMPDEST SWAP1 POP PUSH1 0x20 DUP2 ADD SWAP1 POP SWAP2 SWAP1 POP JUMP JUMPDEST DUP3 DUP2 DUP4 CALLDATACOPY PUSH0 DUP4 DUP4 ADD MSTORE POP POP POP JUMP JUMPDEST PUSH0 PUSH2 0x401 PUSH2 0x3FC DUP5 PUSH2 0x3B1 JUMP JUMPDEST PUSH2 0x397 JUMP JUMPDEST SWAP1 POP DUP3 DUP2 MSTORE PUSH1 0x20 DUP2 ADD DUP5 DUP5 DUP5 ADD GT ISZERO PUSH2 0x41D JUMPI PUSH2 0x41C PUSH2 0x335 JUMP JUMPDEST JUMPDEST PUSH2 0x428 DUP5 DUP3 DUP6 PUSH2 0x3E1 JUMP JUMPDEST POP SWAP4 SWAP3 POP POP POP JUMP JUMPDEST PUSH0 DUP3 PUSH1 0x1F DUP4 ADD SLT PUSH2 0x444 JUMPI PUSH2 0x443 PUSH2 0x331 JUMP JUMPDEST JUMPDEST DUP2 CALLDATALOAD PUSH2 0x454 DUP5 DUP3 PUSH1 0x20 DUP7 ADD PUSH2 0x3EF JUMP JUMPDEST SWAP2 POP POP SWAP3 SWAP2 POP POP JUMP JUMPDEST PUSH0 PUSH0 PUSH1 0x40 DUP4 DUP6 SUB SLT ISZERO PUSH2 0x473 JUMPI PUSH2 0x472 PUSH2 0x329 JUMP JUMPDEST JUMPDEST PUSH0 DUP4 ADD CALLDATALOAD PUSH8 0xFFFFFFFFFFFFFFFF DUP2 GT ISZERO PUSH2 0x490 JUMPI PUSH2 0x48F PUSH2 0x32D JUMP JUMPDEST JUMPDEST PUSH2 0x49C DUP6 DUP3 DUP7 ADD PUSH2 0x430 JUMP JUMPDEST SWAP3 POP POP PUSH1 0x20 DUP4 ADD CALLDATALOAD PUSH8 0xFFFFFFFFFFFFFFFF DUP2 GT ISZERO PUSH2 0x4BD JUMPI PUSH2 0x4BC PUSH2 0x32D JUMP JUMPDEST JUMPDEST PUSH2 0x4C9 DUP6 DUP3 DUP7 ADD PUSH2 0x430 JUMP JUMPDEST SWAP2 POP POP SWAP3 POP SWAP3 SWAP1 POP JUMP JUMPDEST PUSH0 PUSH1 0x20 DUP3 DUP5 SUB SLT ISZERO PUSH2 0x4E8 JUMPI PUSH2 0x4E7 PUSH2 0x329 JUMP JUMPDEST JUMPDEST PUSH0 DUP3 ADD CALLDATALOAD PUSH8 0xFFFFFFFFFFFFFFFF DUP2 GT ISZERO PUSH2 0x505 JUMPI PUSH2 0x504 PUSH2 0x32D JUMP JUMPDEST JUMPDEST PUSH2 0x511 DUP5 DUP3 DUP6 ADD PUSH2 0x430 JUMP JUMPDEST SWAP2 POP POP SWAP3 SWAP2 POP POP JUMP JUMPDEST PUSH32 0x4E487B7100000000000000000000000000000000000000000000000000000000 PUSH0 MSTORE PUSH1 0x22 PUSH1 0x4 MSTORE PUSH1 0x24 PUSH0 REVERT JUMPDEST PUSH0 PUSH1 0x2 DUP3 DIV SWAP1 POP PUSH1 0x1 DUP3 AND DUP1 PUSH2 0x55E JUMPI PUSH1 0x7F DUP3 AND SWAP2 POP JUMPDEST PUSH1 0x20 DUP3 LT DUP2 SUB PUSH2 0x571 JUMPI PUSH2 0x570 PUSH2 0x51A JUMP JUMPDEST JUMPDEST POP SWAP2 SWAP1 POP JUMP JUMPDEST PUSH0 DUP2 SWAP1 POP SWAP3 SWAP2 POP POP JUMP JUMPDEST PUSH0 PUSH2 0x58B DUP3 PUSH2 0x290 JUMP JUMPDEST PUSH2 0x595 DUP2 DUP6 PUSH2 0x577 JUMP JUMPDEST SWAP4 POP PUSH2 0x5A5 DUP2 DUP6 PUSH1 0x20 DUP7 ADD PUSH2 0x2AA JUMP JUMPDEST DUP1 DUP5 ADD SWAP2 POP POP SWAP3 SWAP2 POP POP JUMP JUMPDEST PUSH0 PUSH2 0x5BC DUP3 DUP6 PUSH2 0x581 JUMP JUMPDEST SWAP2 POP PUSH2 0x5C8 DUP3 DUP5 PUSH2 0x581 JUMP JUMPDEST SWAP2 POP DUP2 SWAP1 POP SWAP4 SWAP3 POP POP POP JUMP JUMPDEST PUSH0 DUP2 SWAP1 POP DUP2 PUSH0 MSTORE PUSH1 0x20 PUSH0 KECCAK256 SWAP1 POP SWAP2 SWAP1 POP JUMP JUMPDEST PUSH0 PUSH1 0x20 PUSH1 0x1F DUP4 ADD DIV SWAP1 POP SWAP2 SWAP1 POP JUMP JUMPDEST PUSH0 DUP3 DUP3 SHL SWAP1 POP SWAP3 SWAP2 POP POP JUMP JUMPDEST PUSH0 PUSH1 0x8 DUP4 MUL PUSH2 0x630 PUSH32 0xFFFFFFFFFFFFFFFFFFFFFFFFFFFFFFFFFFFFFFFFFFFFFFFFFFFFFFFFFFFFFFFF DUP3 PUSH2 0x5F5 JUMP JUMPDEST PUSH2 0x63A DUP7 DUP4 PUSH2 0x5F5 JUMP JUMPDEST SWAP6 POP DUP1 NOT DUP5 AND SWAP4 POP DUP1 DUP7 AND DUP5 OR SWAP3 POP POP POP SWAP4 SWAP3 POP POP POP JUMP JUMPDEST PUSH0 DUP2 SWAP1 POP SWAP2 SWAP1 POP JUMP JUMPDEST PUSH0 DUP2 SWAP1 POP SWAP2 SWAP1 POP JUMP JUMPDEST PUSH0 PUSH2 0x67E PUSH2 0x679 PUSH2 0x674 DUP5 PUSH2 0x652 JUMP JUMPDEST PUSH2 0x65B JUMP JUMPDEST PUSH2 0x652 JUMP JUMPDEST SWAP1 POP SWAP2 SWAP1 POP JUMP JUMPDEST PUSH0 DUP2 SWAP1 POP SWAP2 SWAP1 POP JUMP JUMPDEST PUSH2 0x697 DUP4 PUSH2 0x664 JUMP JUMPDEST PUSH2 0x6AB PUSH2 0x6A3 DUP3 PUSH2 0x685 JUMP JUMPDEST DUP5 DUP5 SLOAD PUSH2 0x601 JUMP JUMPDEST DUP3 SSTORE POP POP POP POP JUMP JUMPDEST PUSH0 PUSH0 SWAP1 POP SWAP1 JUMP JUMPDEST PUSH2 0x6C2 PUSH2 0x6B3 JUMP JUMPDEST PUSH2 0x6CD DUP2 DUP5 DUP5 PUSH2 0x68E JUMP JUMPDEST POP POP POP JUMP JUMPDEST JUMPDEST DUP2 DUP2 LT ISZERO PUSH2 0x6F0 JUMPI PUSH2 0x6E5 PUSH0 DUP3 PUSH2 0x6BA JUMP JUMPDEST PUSH1 0x1 DUP2 ADD SWAP1 POP PUSH2 0x6D3 JUMP JUMPDEST POP POP JUMP JUMPDEST PUSH1 0x1F DUP3 GT ISZERO PUSH2 0x735 JUMPI PUSH2 0x706 DUP2 PUSH2 0x5D4 JUMP JUMPDEST PUSH2 0x70F DUP5 PUSH2 0x5E6 JUMP JUMPDEST DUP2 ADD PUSH1 0x20 DUP6 LT ISZERO PUSH2 0x71E JUMPI DUP2 SWAP1 POP JUMPDEST PUSH2 0x732 PUSH2 0x72A DUP6 PUSH2 0x5E6 JUMP JUMPDEST DUP4 ADD DUP3 PUSH2 0x6D2 JUMP JUMPDEST POP POP JUMPDEST POP POP POP JUMP JUMPDEST PUSH0 DUP3 DUP3 SHR SWAP1 POP SWAP3 SWAP2 POP POP JUMP JUMPDEST PUSH0 PUSH2 0x755 PUSH0 NOT DUP5 PUSH1 0x8 MUL PUSH2 0x73A JUMP JUMPDEST NOT DUP1 DUP4 AND SWAP2 POP POP SWAP3 SWAP2 POP POP JUMP JUMPDEST PUSH0 PUSH2 0x76D DUP4 DUP4 PUSH2 0x746 JUMP JUMPDEST SWAP2 POP DUP3 PUSH1 0x2 MUL DUP3 OR SWAP1 POP SWAP3 SWAP2 POP POP JUMP JUMPDEST PUSH2 0x786 DUP3 PUSH2 0x290 JUMP JUMPDEST PUSH8 0xFFFFFFFFFFFFFFFF DUP2 GT ISZERO PUSH2 0x79F JUMPI PUSH2 0x79E PUSH2 0x339 JUMP JUMPDEST JUMPDEST PUSH2 0x7A9 DUP3 SLOAD PUSH2 0x547 JUMP JUMPDEST PUSH2 0x7B4 DUP3 DUP3 DUP6 PUSH2 0x6F4 JUMP JUMPDEST PUSH0 PUSH1 0x20 SWAP1 POP PUSH1 0x1F DUP4 GT PUSH1 0x1 DUP2 EQ PUSH2 0x7E5 JUMPI PUSH0 DUP5 ISZERO PUSH2 0x7D3 JUMPI DUP3 DUP8 ADD MLOAD SWAP1 POP JUMPDEST PUSH2 0x7DD DUP6 DUP3 PUSH2 0x762 JUMP JUMPDEST DUP7 SSTORE POP PUSH2 0x844 JUMP JUMPDEST PUSH1 0x1F NOT DUP5 AND PUSH2 0x7F3 DUP7 PUSH2 0x5D4 JUMP JUMPDEST PUSH0 JUMPDEST DUP3 DUP2 LT ISZERO PUSH2 0x81A JUMPI DUP5 DUP10 ADD MLOAD DUP3 SSTORE PUSH1 0x1 DUP3 ADD SWAP2 POP PUSH1 0x20 DUP6 ADD SWAP5 POP PUSH1 0x20 DUP2 ADD SWAP1 POP PUSH2 0x7F5 JUMP JUMPDEST DUP7 DUP4 LT ISZERO PUSH2 0x837 JUMPI DUP5 DUP10 ADD MLOAD PUSH2 0x833 PUSH1 0x1F DUP10 AND DUP3 PUSH2 0x746 JUMP JUMPDEST DUP4 SSTORE POP JUMPDEST PUSH1 0x1 PUSH1 0x2 DUP9 MUL ADD DUP9 SSTORE POP POP POP JUMPDEST POP POP POP POP POP POP JUMP JUMPDEST PUSH0 DUP2 SLOAD PUSH2 0x858 DUP2 PUSH2 0x547 JUMP JUMPDEST PUSH2 0x862 DUP2 DUP7 PUSH2 0x577 JUMP JUMPDEST SWAP5 POP PUSH1 0x1 DUP3 AND PUSH0 DUP2 EQ PUSH2 0x87C JUMPI PUSH1 0x1 DUP2 EQ PUSH2 0x891 JUMPI PUSH2 0x8C3 JUMP JUMPDEST PUSH1 0xFF NOT DUP4 AND DUP7 MSTORE DUP2 ISZERO ISZERO DUP3 MUL DUP7 ADD SWAP4 POP PUSH2 0x8C3 JUMP JUMPDEST PUSH2 0x89A DUP6 PUSH2 0x5D4 JUMP JUMPDEST PUSH0 JUMPDEST DUP4 DUP2 LT ISZERO PUSH2 0x8BB JUMPI DUP2 SLOAD DUP2 DUP10 ADD MSTORE PUSH1 0x1 DUP3 ADD SWAP2 POP PUSH1 0x20 DUP2 ADD SWAP1 POP PUSH2 0x89C JUMP JUMPDEST DUP4 DUP9 ADD SWAP6 POP POP POP JUMPDEST POP POP POP SWAP3 SWAP2 POP POP JUMP JUMPDEST PUSH0 PUSH2 0x8D7 DUP3 DUP6 PUSH2 0x84C JUMP JUMPDEST SWAP2 POP PUSH2 0x8E3 DUP3 DUP5 PUSH2 0x581 JUMP JUMPDEST SWAP2 POP DUP2 SWAP1 POP SWAP4 SWAP3 POP POP POP JUMP INVALID LOG2 PUSH5 0x6970667358 0x22 SLT KECCAK256 SAR PUSH16 0x2118B48EEAA848666D972FFD56DBD292 MULMOD 0xEB 0xCD 0xCF 0xCA SHL 0xB9 XOR PUSH15 0xBFA5441FBC64736F6C634300081E00 CALLER "
				},
				"gasEstimates": {
					"creation": {
						"codeDepositCost": "468200",
						"executionCost": "infinite",
						"totalCost": "infinite"
					},
					"external": {
						"contact(string,string)": "infinite",
						"hello()": "infinite",
						"sayHello(string)": "infinite",
						"sethello(string)": "infinite"
					},
					"internal": {
						"sayHello2(string memory)": "infinite"
					}
				},
				"methodIdentifiers": {
					"contact(string,string)": "360b5ae1",
					"hello()": "19ff1d21",
					"sayHello(string)": "c3a9b1c5",
					"sethello(string)": "a5449b06"
				}
			},
			"storageLayout": {
				"storage": [
					{
						"astId": 4,
						"contract": "practise/Hello.sol:Hello",
						"label": "hello",
						"offset": 0,
						"slot": "0",
						"type": "t_string_storage"
					}
				],
				"types": {
					"t_string_storage": {
						"encoding": "bytes",
						"label": "string",
						"numberOfBytes": "32"
					}
				}
			},
			"userdoc": {
				"kind": "user",
				"methods": {},
				"version": 1
			}
		}
	}
}