{
	"practise/ArrayContact.sol": {
		"ArrayContract": {
			"abi": [
				{
					"inputs": [],
					"name": "_data",
					"outputs": [
						{
							"internalType": "bytes",
							"name": "",
							"type": "bytes"
						}
					],
					"stateMutability": "view",
					"type": "function"
				},
				{
					"inputs": [],
					"name": "bs",
					"outputs": [
						{
							"internalType": "bytes",
							"name": "",
							"type": "bytes"
						}
					],
					"stateMutability": "view",
					"type": "function"
				},
				{
					"inputs": [
						{
							"internalType": "bytes1",
							"name": "v",
							"type": "bytes1"
						}
					],
					"name": "getbyteByvalue",
					"outputs": [
						{
							"internalType": "uint256",
							"name": "",
							"type": "uint256"
						}
					],
					"stateMutability": "view",
					"type": "function"
				},
				{
					"inputs": [
						{
							"internalType": "uint256",
							"name": "",
							"type": "uint256"
						}
					],
					"name": "list",
					"outputs": [
						{
							"internalType": "uint256",
							"name": "",
							"type": "uint256"
						}
					],
					"stateMutability": "view",
					"type": "function"
				},
				{
					"inputs": [
						{
							"internalType": "uint256",
							"name": "",
							"type": "uint256"
						}
					],
					"name": "list2",
					"outputs": [
						{
							"internalType": "uint256",
							"name": "",
							"type": "uint256"
						}
					],
					"stateMutability": "view",
					"type": "function"
				},
				{
					"inputs": [
						{
							"internalType": "uint256",
							"name": "",
							"type": "uint256"
						}
					],
					"name": "list3",
					"outputs": [
						{
							"internalType": "uint256",
							"name": "",
							"type": "uint256"
						}
					],
					"stateMutability": "view",
					"type": "function"
				},
				{
					"inputs": [],
					"name": "loopF",
					"outputs": [
						{
							"internalType": "uint256[]",
							"name": "",
							"type": "uint256[]"
						}
					],
					"stateMutability": "nonpayable",
					"type": "function"
				},
				{
					"inputs": [],
					"name": "loopN",
					"outputs": [
						{
							"internalType": "uint256",
							"name": "",
							"type": "uint256"
						}
					],
					"stateMutability": "pure",
					"type": "function"
				},
				{
					"inputs": [],
					"name": "loopW",
					"outputs": [
						{
							"internalType": "uint256",
							"name": "",
							"type": "uint256"
						}
					],
					"stateMutability": "pure",
					"type": "function"
				},
				{
					"inputs": [
						{
							"internalType": "uint256",
							"name": "index",
							"type": "uint256"
						}
					],
					"name": "readByte",
					"outputs": [
						{
							"internalType": "bytes1",
							"name": "",
							"type": "bytes1"
						}
					],
					"stateMutability": "view",
					"type": "function"
				},
				{
					"inputs": [],
					"name": "readList",
					"outputs": [
						{
							"internalType": "uint256[]",
							"name": "",
							"type": "uint256[]"
						},
						{
							"internalType": "uint256",
							"name": "",
							"type": "uint256"
						}
					],
					"stateMutability": "view",
					"type": "function"
				},
				{
					"inputs": [
						{
							"internalType": "bytes",
							"name": "data",
							"type": "bytes"
						},
						{
							"internalType": "uint256",
							"name": "start",
							"type": "uint256"
						},
						{
							"internalType": "uint256",
							"name": "end",
							"type": "uint256"
						}
					],
					"name": "testSlice",
					"outputs": [
						{
							"internalType": "bytes",
							"name": "",
							"type": "bytes"
						}
					],
					"stateMutability": "pure",
					"type": "function"
				}
			],
			"devdoc": {
				"kind": "dev",
				"methods": {},
				"version": 1
			},
			"evm": {
				"assembly": "    /* \"practise/ArrayContact.sol\":60:1563  contract ArrayContract{... */\n  mstore(0x40, 0x80)\n    /* \"practise/ArrayContact.sol\":118:150  uint256[] public list2 = [1,2,3] */\n  mload(0x40)\n  dup1\n  0x60\n  add\n  0x40\n  mstore\n  dup1\n    /* \"practise/ArrayContact.sol\":144:145  1 */\n  0x01\n    /* \"practise/ArrayContact.sol\":118:150  uint256[] public list2 = [1,2,3] */\n  0xff\n  and\n  dup2\n  mstore\n  0x20\n  add\n    /* \"practise/ArrayContact.sol\":146:147  2 */\n  0x02\n    /* \"practise/ArrayContact.sol\":118:150  uint256[] public list2 = [1,2,3] */\n  0xff\n  and\n  dup2\n  mstore\n  0x20\n  add\n    /* \"practise/ArrayContact.sol\":148:149  3 */\n  0x03\n    /* \"practise/ArrayContact.sol\":118:150  uint256[] public list2 = [1,2,3] */\n  0xff\n  and\n  dup2\n  mstore\n  pop\n  0x01\n  swap1\n  0x03\n  tag_1\n  swap3\n  swap2\n  swap1\n  tag_2\n  jump\t// in\ntag_1:\n  pop\n    /* \"practise/ArrayContact.sol\":193:194  6 */\n  0x06\n    /* \"practise/ArrayContact.sol\":182:195  new uint[](6) */\n  0xffffffffffffffff\n  dup2\n  gt\n  iszero\n  tag_3\n  jumpi\n  tag_4\n  tag_5\n  jump\t// in\ntag_4:\ntag_3:\n  mload(0x40)\n  swap1\n  dup1\n  dup3\n  mstore\n  dup1\n  0x20\n  mul\n  0x20\n  add\n  dup3\n  add\n  0x40\n  mstore\n  dup1\n  iszero\n  tag_6\n  jumpi\n  dup2\n  0x20\n  add\n  0x20\n  dup3\n  mul\n  dup1\n  calldatasize\n  dup4\n  calldatacopy\n  dup1\n  dup3\n  add\n  swap2\n  pop\n  pop\n  swap1\n  pop\ntag_6:\n  pop\n    /* \"practise/ArrayContact.sol\":157:195  uint256[] public list3 = new uint[](6) */\n  0x02\n  swap1\n  dup1\n  mload\n  swap1\n  0x20\n  add\n  swap1\n  tag_7\n  swap3\n  swap2\n  swap1\n  tag_8\n  jump\t// in\ntag_7:\n  pop\n    /* \"practise/ArrayContact.sol\":204:236  bytes public  bs = \"abc\\x22\\x22\" */\n  mload(0x40)\n  dup1\n  0x40\n  add\n  0x40\n  mstore\n  dup1\n  0x05\n  dup2\n  mstore\n  0x20\n  add\n  0x6162632222000000000000000000000000000000000000000000000000000000\n  dup2\n  mstore\n  pop\n  0x03\n  swap1\n  dup2\n  tag_9\n  swap2\n  swap1\n  tag_10\n  jump\t// in\ntag_9:\n  pop\n    /* \"practise/ArrayContact.sol\":275:277  10 */\n  0x0a\n    /* \"practise/ArrayContact.sol\":265:278  new bytes(10) */\n  0xffffffffffffffff\n  dup2\n  gt\n  iszero\n  tag_11\n  jumpi\n  tag_12\n  tag_5\n  jump\t// in\ntag_12:\ntag_11:\n  mload(0x40)\n  swap1\n  dup1\n  dup3\n  mstore\n  dup1\n  0x1f\n  add\n  not(0x1f)\n  and\n  0x20\n  add\n  dup3\n  add\n  0x40\n  mstore\n  dup1\n  iszero\n  tag_13\n  jumpi\n  dup2\n  0x20\n  add\n  0x01\n  dup3\n  mul\n  dup1\n  calldatasize\n  dup4\n  calldatacopy\n  dup1\n  dup3\n  add\n  swap2\n  pop\n  pop\n  swap1\n  pop\ntag_13:\n  pop\n    /* \"practise/ArrayContact.sol\":244:278  bytes public _data = new bytes(10) */\n  0x04\n  swap1\n  dup2\n  tag_14\n  swap2\n  swap1\n  tag_15\n  jump\t// in\ntag_14:\n  pop\n    /* \"practise/ArrayContact.sol\":305:336  string str1 = \"TinyXiong\\u718A\" */\n  mload(0x40)\n  dup1\n  0x40\n  add\n  0x40\n  mstore\n  dup1\n  0x0c\n  dup2\n  mstore\n  0x20\n  add\n  0x54696e7958696f6e67e7868a0000000000000000000000000000000000000000\n  dup2\n  mstore\n  pop\n  0x06\n  swap1\n  dup2\n  tag_16\n  swap2\n  swap1\n  tag_17\n  jump\t// in\ntag_16:\n  pop\n    /* \"practise/ArrayContact.sol\":60:1563  contract ArrayContract{... */\n  callvalue\n  dup1\n  iszero\n  tag_18\n  jumpi\n  revert(0x00, 0x00)\ntag_18:\n  pop\n  jump(tag_19)\ntag_2:\n  dup3\n  dup1\n  sload\n  dup3\n  dup3\n  sstore\n  swap1\n  0x00\n  mstore\n  keccak256(0x00, 0x20)\n  swap1\n  dup2\n  add\n  swap3\n  dup3\n  iszero\n  tag_20\n  jumpi\n  swap2\n  0x20\n  mul\n  dup3\n  add\ntag_21:\n  dup3\n  dup2\n  gt\n  iszero\n  tag_22\n  jumpi\n  dup3\n  mload\n  dup3\n  swap1\n  0xff\n  and\n  swap1\n  sstore\n  swap2\n  0x20\n  add\n  swap2\n  swap1\n  0x01\n  add\n  swap1\n  jump(tag_21)\ntag_22:\ntag_20:\n  pop\n  swap1\n  pop\n  tag_23\n  swap2\n  swap1\n  tag_24\n  jump\t// in\ntag_23:\n  pop\n  swap1\n  jump\t// out\ntag_8:\n  dup3\n  dup1\n  sload\n  dup3\n  dup3\n  sstore\n  swap1\n  0x00\n  mstore\n  keccak256(0x00, 0x20)\n  swap1\n  dup2\n  add\n  swap3\n  dup3\n  iszero\n  tag_25\n  jumpi\n  swap2\n  0x20\n  mul\n  dup3\n  add\ntag_26:\n  dup3\n  dup2\n  gt\n  iszero\n  tag_27\n  jumpi\n  dup3\n  mload\n  dup3\n  sstore\n  swap2\n  0x20\n  add\n  swap2\n  swap1\n  0x01\n  add\n  swap1\n  jump(tag_26)\ntag_27:\ntag_25:\n  pop\n  swap1\n  pop\n  tag_28\n  swap2\n  swap1\n  tag_24\n  jump\t// in\ntag_28:\n  pop\n  swap1\n  jump\t// out\ntag_24:\ntag_29:\n  dup1\n  dup3\n  gt\n  iszero\n  tag_30\n  jumpi\n  0x00\n  dup2\n  0x00\n  swap1\n  sstore\n  pop\n  0x01\n  add\n  jump(tag_29)\ntag_30:\n  pop\n  swap1\n  jump\t// out\n    /* \"#utility.yul\":7:187   */\ntag_5:\n    /* \"#utility.yul\":55:132   */\n  0x4e487b7100000000000000000000000000000000000000000000000000000000\n    /* \"#utility.yul\":52:53   */\n  0x00\n    /* \"#utility.yul\":45:133   */\n  mstore\n    /* \"#utility.yul\":152:156   */\n  0x41\n    /* \"#utility.yul\":149:150   */\n  0x04\n    /* \"#utility.yul\":142:157   */\n  mstore\n    /* \"#utility.yul\":176:180   */\n  0x24\n    /* \"#utility.yul\":173:174   */\n  0x00\n    /* \"#utility.yul\":166:181   */\n  revert\n    /* \"#utility.yul\":193:292   */\ntag_31:\n    /* \"#utility.yul\":245:251   */\n  0x00\n    /* \"#utility.yul\":279:284   */\n  dup2\n    /* \"#utility.yul\":273:285   */\n  mload\n    /* \"#utility.yul\":263:285   */\n  swap1\n  pop\n    /* \"#utility.yul\":193:292   */\n  swap2\n  swap1\n  pop\n  jump\t// out\n    /* \"#utility.yul\":298:478   */\ntag_32:\n    /* \"#utility.yul\":346:423   */\n  0x4e487b7100000000000000000000000000000000000000000000000000000000\n    /* \"#utility.yul\":343:344   */\n  0x00\n    /* \"#utility.yul\":336:424   */\n  mstore\n    /* \"#utility.yul\":443:447   */\n  0x22\n    /* \"#utility.yul\":440:441   */\n  0x04\n    /* \"#utility.yul\":433:448   */\n  mstore\n    /* \"#utility.yul\":467:471   */\n  0x24\n    /* \"#utility.yul\":464:465   */\n  0x00\n    /* \"#utility.yul\":457:472   */\n  revert\n    /* \"#utility.yul\":484:804   */\ntag_33:\n    /* \"#utility.yul\":528:534   */\n  0x00\n    /* \"#utility.yul\":565:566   */\n  0x02\n    /* \"#utility.yul\":559:563   */\n  dup3\n    /* \"#utility.yul\":555:567   */\n  div\n    /* \"#utility.yul\":545:567   */\n  swap1\n  pop\n    /* \"#utility.yul\":612:613   */\n  0x01\n    /* \"#utility.yul\":606:610   */\n  dup3\n    /* \"#utility.yul\":602:614   */\n  and\n    /* \"#utility.yul\":633:651   */\n  dup1\n    /* \"#utility.yul\":623:704   */\n  tag_58\n  jumpi\n    /* \"#utility.yul\":689:693   */\n  0x7f\n    /* \"#utility.yul\":681:687   */\n  dup3\n    /* \"#utility.yul\":677:694   */\n  and\n    /* \"#utility.yul\":667:694   */\n  swap2\n  pop\n    /* \"#utility.yul\":623:704   */\ntag_58:\n    /* \"#utility.yul\":751:753   */\n  0x20\n    /* \"#utility.yul\":743:749   */\n  dup3\n    /* \"#utility.yul\":740:754   */\n  lt\n    /* \"#utility.yul\":720:738   */\n  dup2\n    /* \"#utility.yul\":717:755   */\n  sub\n    /* \"#utility.yul\":714:798   */\n  tag_59\n  jumpi\n    /* \"#utility.yul\":770:788   */\n  tag_60\n  tag_32\n  jump\t// in\ntag_60:\n    /* \"#utility.yul\":714:798   */\ntag_59:\n    /* \"#utility.yul\":535:804   */\n  pop\n    /* \"#utility.yul\":484:804   */\n  swap2\n  swap1\n  pop\n  jump\t// out\n    /* \"#utility.yul\":810:950   */\ntag_34:\n    /* \"#utility.yul\":858:862   */\n  0x00\n    /* \"#utility.yul\":881:884   */\n  dup2\n    /* \"#utility.yul\":873:884   */\n  swap1\n  pop\n    /* \"#utility.yul\":904:907   */\n  dup2\n    /* \"#utility.yul\":901:902   */\n  0x00\n    /* \"#utility.yul\":894:908   */\n  mstore\n    /* \"#utility.yul\":938:942   */\n  0x20\n    /* \"#utility.yul\":935:936   */\n  0x00\n    /* \"#utility.yul\":925:943   */\n  keccak256\n    /* \"#utility.yul\":917:943   */\n  swap1\n  pop\n    /* \"#utility.yul\":810:950   */\n  swap2\n  swap1\n  pop\n  jump\t// out\n    /* \"#utility.yul\":956:1049   */\ntag_35:\n    /* \"#utility.yul\":993:999   */\n  0x00\n    /* \"#utility.yul\":1040:1042   */\n  0x20\n    /* \"#utility.yul\":1035:1037   */\n  0x1f\n    /* \"#utility.yul\":1028:1033   */\n  dup4\n    /* \"#utility.yul\":1024:1038   */\n  add\n    /* \"#utility.yul\":1020:1043   */\n  div\n    /* \"#utility.yul\":1010:1043   */\n  swap1\n  pop\n    /* \"#utility.yul\":956:1049   */\n  swap2\n  swap1\n  pop\n  jump\t// out\n    /* \"#utility.yul\":1055:1162   */\ntag_36:\n    /* \"#utility.yul\":1099:1107   */\n  0x00\n    /* \"#utility.yul\":1149:1154   */\n  dup3\n    /* \"#utility.yul\":1143:1147   */\n  dup3\n    /* \"#utility.yul\":1139:1155   */\n  shl\n    /* \"#utility.yul\":1118:1155   */\n  swap1\n  pop\n    /* \"#utility.yul\":1055:1162   */\n  swap3\n  swap2\n  pop\n  pop\n  jump\t// out\n    /* \"#utility.yul\":1168:1561   */\ntag_37:\n    /* \"#utility.yul\":1237:1243   */\n  0x00\n    /* \"#utility.yul\":1287:1288   */\n  0x08\n    /* \"#utility.yul\":1275:1285   */\n  dup4\n    /* \"#utility.yul\":1271:1289   */\n  mul\n    /* \"#utility.yul\":1310:1407   */\n  tag_65\n    /* \"#utility.yul\":1340:1406   */\n  0xffffffffffffffffffffffffffffffffffffffffffffffffffffffffffffffff\n    /* \"#utility.yul\":1329:1338   */\n  dup3\n    /* \"#utility.yul\":1310:1407   */\n  tag_36\n  jump\t// in\ntag_65:\n    /* \"#utility.yul\":1428:1467   */\n  tag_66\n    /* \"#utility.yul\":1458:1466   */\n  dup7\n    /* \"#utility.yul\":1447:1456   */\n  dup4\n    /* \"#utility.yul\":1428:1467   */\n  tag_36\n  jump\t// in\ntag_66:\n    /* \"#utility.yul\":1416:1467   */\n  swap6\n  pop\n    /* \"#utility.yul\":1500:1504   */\n  dup1\n    /* \"#utility.yul\":1496:1505   */\n  not\n    /* \"#utility.yul\":1489:1494   */\n  dup5\n    /* \"#utility.yul\":1485:1506   */\n  and\n    /* \"#utility.yul\":1476:1506   */\n  swap4\n  pop\n    /* \"#utility.yul\":1549:1553   */\n  dup1\n    /* \"#utility.yul\":1539:1547   */\n  dup7\n    /* \"#utility.yul\":1535:1554   */\n  and\n    /* \"#utility.yul\":1528:1533   */\n  dup5\n    /* \"#utility.yul\":1525:1555   */\n  or\n    /* \"#utility.yul\":1515:1555   */\n  swap3\n  pop\n    /* \"#utility.yul\":1244:1561   */\n  pop\n  pop\n    /* \"#utility.yul\":1168:1561   */\n  swap4\n  swap3\n  pop\n  pop\n  pop\n  jump\t// out\n    /* \"#utility.yul\":1567:1644   */\ntag_38:\n    /* \"#utility.yul\":1604:1611   */\n  0x00\n    /* \"#utility.yul\":1633:1638   */\n  dup2\n    /* \"#utility.yul\":1622:1638   */\n  swap1\n  pop\n    /* \"#utility.yul\":1567:1644   */\n  swap2\n  swap1\n  pop\n  jump\t// out\n    /* \"#utility.yul\":1650:1710   */\ntag_39:\n    /* \"#utility.yul\":1678:1681   */\n  0x00\n    /* \"#utility.yul\":1699:1704   */\n  dup2\n    /* \"#utility.yul\":1692:1704   */\n  swap1\n  pop\n    /* \"#utility.yul\":1650:1710   */\n  swap2\n  swap1\n  pop\n  jump\t// out\n    /* \"#utility.yul\":1716:1858   */\ntag_40:\n    /* \"#utility.yul\":1766:1775   */\n  0x00\n    /* \"#utility.yul\":1799:1852   */\n  tag_70\n    /* \"#utility.yul\":1817:1851   */\n  tag_71\n    /* \"#utility.yul\":1826:1850   */\n  tag_72\n    /* \"#utility.yul\":1844:1849   */\n  dup5\n    /* \"#utility.yul\":1826:1850   */\n  tag_38\n  jump\t// in\ntag_72:\n    /* \"#utility.yul\":1817:1851   */\n  tag_39\n  jump\t// in\ntag_71:\n    /* \"#utility.yul\":1799:1852   */\n  tag_38\n  jump\t// in\ntag_70:\n    /* \"#utility.yul\":1786:1852   */\n  swap1\n  pop\n    /* \"#utility.yul\":1716:1858   */\n  swap2\n  swap1\n  pop\n  jump\t// out\n    /* \"#utility.yul\":1864:1939   */\ntag_41:\n    /* \"#utility.yul\":1907:1910   */\n  0x00\n    /* \"#utility.yul\":1928:1933   */\n  dup2\n    /* \"#utility.yul\":1921:1933   */\n  swap1\n  pop\n    /* \"#utility.yul\":1864:1939   */\n  swap2\n  swap1\n  pop\n  jump\t// out\n    /* \"#utility.yul\":1945:2214   */\ntag_42:\n    /* \"#utility.yul\":2055:2094   */\n  tag_75\n    /* \"#utility.yul\":2086:2093   */\n  dup4\n    /* \"#utility.yul\":2055:2094   */\n  tag_40\n  jump\t// in\ntag_75:\n    /* \"#utility.yul\":2116:2207   */\n  tag_76\n    /* \"#utility.yul\":2165:2206   */\n  tag_77\n    /* \"#utility.yul\":2189:2205   */\n  dup3\n    /* \"#utility.yul\":2165:2206   */\n  tag_41\n  jump\t// in\ntag_77:\n    /* \"#utility.yul\":2157:2163   */\n  dup5\n    /* \"#utility.yul\":2150:2154   */\n  dup5\n    /* \"#utility.yul\":2144:2155   */\n  sload\n    /* \"#utility.yul\":2116:2207   */\n  tag_37\n  jump\t// in\ntag_76:\n    /* \"#utility.yul\":2110:2114   */\n  dup3\n    /* \"#utility.yul\":2103:2208   */\n  sstore\n    /* \"#utility.yul\":2021:2214   */\n  pop\n    /* \"#utility.yul\":1945:2214   */\n  pop\n  pop\n  pop\n  jump\t// out\n    /* \"#utility.yul\":2220:2293   */\ntag_43:\n    /* \"#utility.yul\":2265:2268   */\n  0x00\n    /* \"#utility.yul\":2286:2287   */\n  0x00\n    /* \"#utility.yul\":2279:2287   */\n  swap1\n  pop\n    /* \"#utility.yul\":2220:2293   */\n  swap1\n  jump\t// out\n    /* \"#utility.yul\":2299:2488   */\ntag_44:\n    /* \"#utility.yul\":2376:2408   */\n  tag_80\n  tag_43\n  jump\t// in\ntag_80:\n    /* \"#utility.yul\":2417:2482   */\n  tag_81\n    /* \"#utility.yul\":2475:2481   */\n  dup2\n    /* \"#utility.yul\":2467:2473   */\n  dup5\n    /* \"#utility.yul\":2461:2465   */\n  dup5\n    /* \"#utility.yul\":2417:2482   */\n  tag_42\n  jump\t// in\ntag_81:\n    /* \"#utility.yul\":2352:2488   */\n  pop\n    /* \"#utility.yul\":2299:2488   */\n  pop\n  pop\n  jump\t// out\n    /* \"#utility.yul\":2494:2680   */\ntag_45:\n    /* \"#utility.yul\":2554:2674   */\ntag_83:\n    /* \"#utility.yul\":2571:2574   */\n  dup2\n    /* \"#utility.yul\":2564:2569   */\n  dup2\n    /* \"#utility.yul\":2561:2575   */\n  lt\n    /* \"#utility.yul\":2554:2674   */\n  iszero\n  tag_85\n  jumpi\n    /* \"#utility.yul\":2625:2664   */\n  tag_86\n    /* \"#utility.yul\":2662:2663   */\n  0x00\n    /* \"#utility.yul\":2655:2660   */\n  dup3\n    /* \"#utility.yul\":2625:2664   */\n  tag_44\n  jump\t// in\ntag_86:\n    /* \"#utility.yul\":2598:2599   */\n  0x01\n    /* \"#utility.yul\":2591:2596   */\n  dup2\n    /* \"#utility.yul\":2587:2600   */\n  add\n    /* \"#utility.yul\":2578:2600   */\n  swap1\n  pop\n    /* \"#utility.yul\":2554:2674   */\n  jump(tag_83)\ntag_85:\n    /* \"#utility.yul\":2494:2680   */\n  pop\n  pop\n  jump\t// out\n    /* \"#utility.yul\":2686:3227   */\ntag_46:\n    /* \"#utility.yul\":2786:2788   */\n  0x1f\n    /* \"#utility.yul\":2781:2784   */\n  dup3\n    /* \"#utility.yul\":2778:2789   */\n  gt\n    /* \"#utility.yul\":2775:3220   */\n  iszero\n  tag_88\n  jumpi\n    /* \"#utility.yul\":2820:2857   */\n  tag_89\n    /* \"#utility.yul\":2851:2856   */\n  dup2\n    /* \"#utility.yul\":2820:2857   */\n  tag_34\n  jump\t// in\ntag_89:\n    /* \"#utility.yul\":2903:2932   */\n  tag_90\n    /* \"#utility.yul\":2921:2931   */\n  dup5\n    /* \"#utility.yul\":2903:2932   */\n  tag_35\n  jump\t// in\ntag_90:\n    /* \"#utility.yul\":2893:2901   */\n  dup2\n    /* \"#utility.yul\":2889:2933   */\n  add\n    /* \"#utility.yul\":3086:3088   */\n  0x20\n    /* \"#utility.yul\":3074:3084   */\n  dup6\n    /* \"#utility.yul\":3071:3089   */\n  lt\n    /* \"#utility.yul\":3068:3117   */\n  iszero\n  tag_91\n  jumpi\n    /* \"#utility.yul\":3107:3115   */\n  dup2\n    /* \"#utility.yul\":3092:3115   */\n  swap1\n  pop\n    /* \"#utility.yul\":3068:3117   */\ntag_91:\n    /* \"#utility.yul\":3130:3210   */\n  tag_92\n    /* \"#utility.yul\":3186:3208   */\n  tag_93\n    /* \"#utility.yul\":3204:3207   */\n  dup6\n    /* \"#utility.yul\":3186:3208   */\n  tag_35\n  jump\t// in\ntag_93:\n    /* \"#utility.yul\":3176:3184   */\n  dup4\n    /* \"#utility.yul\":3172:3209   */\n  add\n    /* \"#utility.yul\":3159:3170   */\n  dup3\n    /* \"#utility.yul\":3130:3210   */\n  tag_45\n  jump\t// in\ntag_92:\n    /* \"#utility.yul\":2790:3220   */\n  pop\n  pop\n    /* \"#utility.yul\":2775:3220   */\ntag_88:\n    /* \"#utility.yul\":2686:3227   */\n  pop\n  pop\n  pop\n  jump\t// out\n    /* \"#utility.yul\":3233:3350   */\ntag_47:\n    /* \"#utility.yul\":3287:3295   */\n  0x00\n    /* \"#utility.yul\":3337:3342   */\n  dup3\n    /* \"#utility.yul\":3331:3335   */\n  dup3\n    /* \"#utility.yul\":3327:3343   */\n  shr\n    /* \"#utility.yul\":3306:3343   */\n  swap1\n  pop\n    /* \"#utility.yul\":3233:3350   */\n  swap3\n  swap2\n  pop\n  pop\n  jump\t// out\n    /* \"#utility.yul\":3356:3525   */\ntag_48:\n    /* \"#utility.yul\":3400:3406   */\n  0x00\n    /* \"#utility.yul\":3433:3484   */\n  tag_96\n    /* \"#utility.yul\":3481:3482   */\n  0x00\n    /* \"#utility.yul\":3477:3483   */\n  not\n    /* \"#utility.yul\":3469:3474   */\n  dup5\n    /* \"#utility.yul\":3466:3467   */\n  0x08\n    /* \"#utility.yul\":3462:3475   */\n  mul\n    /* \"#utility.yul\":3433:3484   */\n  tag_47\n  jump\t// in\ntag_96:\n    /* \"#utility.yul\":3429:3485   */\n  not\n    /* \"#utility.yul\":3514:3518   */\n  dup1\n    /* \"#utility.yul\":3508:3512   */\n  dup4\n    /* \"#utility.yul\":3504:3519   */\n  and\n    /* \"#utility.yul\":3494:3519   */\n  swap2\n  pop\n    /* \"#utility.yul\":3407:3525   */\n  pop\n    /* \"#utility.yul\":3356:3525   */\n  swap3\n  swap2\n  pop\n  pop\n  jump\t// out\n    /* \"#utility.yul\":3530:3825   */\ntag_49:\n    /* \"#utility.yul\":3606:3610   */\n  0x00\n    /* \"#utility.yul\":3752:3781   */\n  tag_98\n    /* \"#utility.yul\":3777:3780   */\n  dup4\n    /* \"#utility.yul\":3771:3775   */\n  dup4\n    /* \"#utility.yul\":3752:3781   */\n  tag_48\n  jump\t// in\ntag_98:\n    /* \"#utility.yul\":3744:3781   */\n  swap2\n  pop\n    /* \"#utility.yul\":3814:3817   */\n  dup3\n    /* \"#utility.yul\":3811:3812   */\n  0x02\n    /* \"#utility.yul\":3807:3818   */\n  mul\n    /* \"#utility.yul\":3801:3805   */\n  dup3\n    /* \"#utility.yul\":3798:3819   */\n  or\n    /* \"#utility.yul\":3790:3819   */\n  swap1\n  pop\n    /* \"#utility.yul\":3530:3825   */\n  swap3\n  swap2\n  pop\n  pop\n  jump\t// out\n    /* \"#utility.yul\":3830:5222   */\ntag_10:\n    /* \"#utility.yul\":3946:3983   */\n  tag_100\n    /* \"#utility.yul\":3979:3982   */\n  dup3\n    /* \"#utility.yul\":3946:3983   */\n  tag_31\n  jump\t// in\ntag_100:\n    /* \"#utility.yul\":4048:4066   */\n  0xffffffffffffffff\n    /* \"#utility.yul\":4040:4046   */\n  dup2\n    /* \"#utility.yul\":4037:4067   */\n  gt\n    /* \"#utility.yul\":4034:4090   */\n  iszero\n  tag_101\n  jumpi\n    /* \"#utility.yul\":4070:4088   */\n  tag_102\n  tag_5\n  jump\t// in\ntag_102:\n    /* \"#utility.yul\":4034:4090   */\ntag_101:\n    /* \"#utility.yul\":4114:4152   */\n  tag_103\n    /* \"#utility.yul\":4146:4150   */\n  dup3\n    /* \"#utility.yul\":4140:4151   */\n  sload\n    /* \"#utility.yul\":4114:4152   */\n  tag_33\n  jump\t// in\ntag_103:\n    /* \"#utility.yul\":4199:4265   */\n  tag_104\n    /* \"#utility.yul\":4258:4264   */\n  dup3\n    /* \"#utility.yul\":4250:4256   */\n  dup3\n    /* \"#utility.yul\":4244:4248   */\n  dup6\n    /* \"#utility.yul\":4199:4265   */\n  tag_46\n  jump\t// in\ntag_104:\n    /* \"#utility.yul\":4292:4293   */\n  0x00\n    /* \"#utility.yul\":4316:4320   */\n  0x20\n    /* \"#utility.yul\":4303:4320   */\n  swap1\n  pop\n    /* \"#utility.yul\":4348:4350   */\n  0x1f\n    /* \"#utility.yul\":4340:4346   */\n  dup4\n    /* \"#utility.yul\":4337:4351   */\n  gt\n    /* \"#utility.yul\":4365:4366   */\n  0x01\n    /* \"#utility.yul\":4360:4977   */\n  dup2\n  eq\n  tag_106\n  jumpi\n    /* \"#utility.yul\":5021:5022   */\n  0x00\n    /* \"#utility.yul\":5038:5044   */\n  dup5\n    /* \"#utility.yul\":5035:5112   */\n  iszero\n  tag_107\n  jumpi\n    /* \"#utility.yul\":5087:5096   */\n  dup3\n    /* \"#utility.yul\":5082:5085   */\n  dup8\n    /* \"#utility.yul\":5078:5097   */\n  add\n    /* \"#utility.yul\":5072:5098   */\n  mload\n    /* \"#utility.yul\":5063:5098   */\n  swap1\n  pop\n    /* \"#utility.yul\":5035:5112   */\ntag_107:\n    /* \"#utility.yul\":5138:5205   */\n  tag_108\n    /* \"#utility.yul\":5198:5204   */\n  dup6\n    /* \"#utility.yul\":5191:5196   */\n  dup3\n    /* \"#utility.yul\":5138:5205   */\n  tag_49\n  jump\t// in\ntag_108:\n    /* \"#utility.yul\":5132:5136   */\n  dup7\n    /* \"#utility.yul\":5125:5206   */\n  sstore\n    /* \"#utility.yul\":4994:5216   */\n  pop\n    /* \"#utility.yul\":4330:5216   */\n  jump(tag_105)\n    /* \"#utility.yul\":4360:4977   */\ntag_106:\n    /* \"#utility.yul\":4412:4416   */\n  0x1f\n    /* \"#utility.yul\":4408:4417   */\n  not\n    /* \"#utility.yul\":4400:4406   */\n  dup5\n    /* \"#utility.yul\":4396:4418   */\n  and\n    /* \"#utility.yul\":4446:4482   */\n  tag_109\n    /* \"#utility.yul\":4477:4481   */\n  dup7\n    /* \"#utility.yul\":4446:4482   */\n  tag_34\n  jump\t// in\ntag_109:\n    /* \"#utility.yul\":4504:4505   */\n  0x00\n    /* \"#utility.yul\":4518:4726   */\ntag_110:\n    /* \"#utility.yul\":4532:4539   */\n  dup3\n    /* \"#utility.yul\":4529:4530   */\n  dup2\n    /* \"#utility.yul\":4526:4540   */\n  lt\n    /* \"#utility.yul\":4518:4726   */\n  iszero\n  tag_112\n  jumpi\n    /* \"#utility.yul\":4611:4620   */\n  dup5\n    /* \"#utility.yul\":4606:4609   */\n  dup10\n    /* \"#utility.yul\":4602:4621   */\n  add\n    /* \"#utility.yul\":4596:4622   */\n  mload\n    /* \"#utility.yul\":4588:4594   */\n  dup3\n    /* \"#utility.yul\":4581:4623   */\n  sstore\n    /* \"#utility.yul\":4662:4663   */\n  0x01\n    /* \"#utility.yul\":4654:4660   */\n  dup3\n    /* \"#utility.yul\":4650:4664   */\n  add\n    /* \"#utility.yul\":4640:4664   */\n  swap2\n  pop\n    /* \"#utility.yul\":4709:4711   */\n  0x20\n    /* \"#utility.yul\":4698:4707   */\n  dup6\n    /* \"#utility.yul\":4694:4712   */\n  add\n    /* \"#utility.yul\":4681:4712   */\n  swap5\n  pop\n    /* \"#utility.yul\":4555:4559   */\n  0x20\n    /* \"#utility.yul\":4552:4553   */\n  dup2\n    /* \"#utility.yul\":4548:4560   */\n  add\n    /* \"#utility.yul\":4543:4560   */\n  swap1\n  pop\n    /* \"#utility.yul\":4518:4726   */\n  jump(tag_110)\ntag_112:\n    /* \"#utility.yul\":4754:4760   */\n  dup7\n    /* \"#utility.yul\":4745:4752   */\n  dup4\n    /* \"#utility.yul\":4742:4761   */\n  lt\n    /* \"#utility.yul\":4739:4918   */\n  iszero\n  tag_113\n  jumpi\n    /* \"#utility.yul\":4812:4821   */\n  dup5\n    /* \"#utility.yul\":4807:4810   */\n  dup10\n    /* \"#utility.yul\":4803:4822   */\n  add\n    /* \"#utility.yul\":4797:4823   */\n  mload\n    /* \"#utility.yul\":4855:4903   */\n  tag_114\n    /* \"#utility.yul\":4897:4901   */\n  0x1f\n    /* \"#utility.yul\":4889:4895   */\n  dup10\n    /* \"#utility.yul\":4885:4902   */\n  and\n    /* \"#utility.yul\":4874:4883   */\n  dup3\n    /* \"#utility.yul\":4855:4903   */\n  tag_48\n  jump\t// in\ntag_114:\n    /* \"#utility.yul\":4847:4853   */\n  dup4\n    /* \"#utility.yul\":4840:4904   */\n  sstore\n    /* \"#utility.yul\":4762:4918   */\n  pop\n    /* \"#utility.yul\":4739:4918   */\ntag_113:\n    /* \"#utility.yul\":4964:4965   */\n  0x01\n    /* \"#utility.yul\":4960:4961   */\n  0x02\n    /* \"#utility.yul\":4952:4958   */\n  dup9\n    /* \"#utility.yul\":4948:4962   */\n  mul\n    /* \"#utility.yul\":4944:4966   */\n  add\n    /* \"#utility.yul\":4938:4942   */\n  dup9\n    /* \"#utility.yul\":4931:4967   */\n  sstore\n    /* \"#utility.yul\":4367:4977   */\n  pop\n  pop\n  pop\n    /* \"#utility.yul\":4330:5216   */\ntag_105:\n  pop\n    /* \"#utility.yul\":3921:5222   */\n  pop\n  pop\n  pop\n    /* \"#utility.yul\":3830:5222   */\n  pop\n  pop\n  jump\t// out\n    /* \"#utility.yul\":5228:5326   */\ntag_50:\n    /* \"#utility.yul\":5279:5285   */\n  0x00\n    /* \"#utility.yul\":5313:5318   */\n  dup2\n    /* \"#utility.yul\":5307:5319   */\n  mload\n    /* \"#utility.yul\":5297:5319   */\n  swap1\n  pop\n    /* \"#utility.yul\":5228:5326   */\n  swap2\n  swap1\n  pop\n  jump\t// out\n    /* \"#utility.yul\":5332:6722   */\ntag_15:\n    /* \"#utility.yul\":5447:5483   */\n  tag_117\n    /* \"#utility.yul\":5479:5482   */\n  dup3\n    /* \"#utility.yul\":5447:5483   */\n  tag_50\n  jump\t// in\ntag_117:\n    /* \"#utility.yul\":5548:5566   */\n  0xffffffffffffffff\n    /* \"#utility.yul\":5540:5546   */\n  dup2\n    /* \"#utility.yul\":5537:5567   */\n  gt\n    /* \"#utility.yul\":5534:5590   */\n  iszero\n  tag_118\n  jumpi\n    /* \"#utility.yul\":5570:5588   */\n  tag_119\n  tag_5\n  jump\t// in\ntag_119:\n    /* \"#utility.yul\":5534:5590   */\ntag_118:\n    /* \"#utility.yul\":5614:5652   */\n  tag_120\n    /* \"#utility.yul\":5646:5650   */\n  dup3\n    /* \"#utility.yul\":5640:5651   */\n  sload\n    /* \"#utility.yul\":5614:5652   */\n  tag_33\n  jump\t// in\ntag_120:\n    /* \"#utility.yul\":5699:5765   */\n  tag_121\n    /* \"#utility.yul\":5758:5764   */\n  dup3\n    /* \"#utility.yul\":5750:5756   */\n  dup3\n    /* \"#utility.yul\":5744:5748   */\n  dup6\n    /* \"#utility.yul\":5699:5765   */\n  tag_46\n  jump\t// in\ntag_121:\n    /* \"#utility.yul\":5792:5793   */\n  0x00\n    /* \"#utility.yul\":5816:5820   */\n  0x20\n    /* \"#utility.yul\":5803:5820   */\n  swap1\n  pop\n    /* \"#utility.yul\":5848:5850   */\n  0x1f\n    /* \"#utility.yul\":5840:5846   */\n  dup4\n    /* \"#utility.yul\":5837:5851   */\n  gt\n    /* \"#utility.yul\":5865:5866   */\n  0x01\n    /* \"#utility.yul\":5860:6477   */\n  dup2\n  eq\n  tag_123\n  jumpi\n    /* \"#utility.yul\":6521:6522   */\n  0x00\n    /* \"#utility.yul\":6538:6544   */\n  dup5\n    /* \"#utility.yul\":6535:6612   */\n  iszero\n  tag_124\n  jumpi\n    /* \"#utility.yul\":6587:6596   */\n  dup3\n    /* \"#utility.yul\":6582:6585   */\n  dup8\n    /* \"#utility.yul\":6578:6597   */\n  add\n    /* \"#utility.yul\":6572:6598   */\n  mload\n    /* \"#utility.yul\":6563:6598   */\n  swap1\n  pop\n    /* \"#utility.yul\":6535:6612   */\ntag_124:\n    /* \"#utility.yul\":6638:6705   */\n  tag_125\n    /* \"#utility.yul\":6698:6704   */\n  dup6\n    /* \"#utility.yul\":6691:6696   */\n  dup3\n    /* \"#utility.yul\":6638:6705   */\n  tag_49\n  jump\t// in\ntag_125:\n    /* \"#utility.yul\":6632:6636   */\n  dup7\n    /* \"#utility.yul\":6625:6706   */\n  sstore\n    /* \"#utility.yul\":6494:6716   */\n  pop\n    /* \"#utility.yul\":5830:6716   */\n  jump(tag_122)\n    /* \"#utility.yul\":5860:6477   */\ntag_123:\n    /* \"#utility.yul\":5912:5916   */\n  0x1f\n    /* \"#utility.yul\":5908:5917   */\n  not\n    /* \"#utility.yul\":5900:5906   */\n  dup5\n    /* \"#utility.yul\":5896:5918   */\n  and\n    /* \"#utility.yul\":5946:5982   */\n  tag_126\n    /* \"#utility.yul\":5977:5981   */\n  dup7\n    /* \"#utility.yul\":5946:5982   */\n  tag_34\n  jump\t// in\ntag_126:\n    /* \"#utility.yul\":6004:6005   */\n  0x00\n    /* \"#utility.yul\":6018:6226   */\ntag_127:\n    /* \"#utility.yul\":6032:6039   */\n  dup3\n    /* \"#utility.yul\":6029:6030   */\n  dup2\n    /* \"#utility.yul\":6026:6040   */\n  lt\n    /* \"#utility.yul\":6018:6226   */\n  iszero\n  tag_129\n  jumpi\n    /* \"#utility.yul\":6111:6120   */\n  dup5\n    /* \"#utility.yul\":6106:6109   */\n  dup10\n    /* \"#utility.yul\":6102:6121   */\n  add\n    /* \"#utility.yul\":6096:6122   */\n  mload\n    /* \"#utility.yul\":6088:6094   */\n  dup3\n    /* \"#utility.yul\":6081:6123   */\n  sstore\n    /* \"#utility.yul\":6162:6163   */\n  0x01\n    /* \"#utility.yul\":6154:6160   */\n  dup3\n    /* \"#utility.yul\":6150:6164   */\n  add\n    /* \"#utility.yul\":6140:6164   */\n  swap2\n  pop\n    /* \"#utility.yul\":6209:6211   */\n  0x20\n    /* \"#utility.yul\":6198:6207   */\n  dup6\n    /* \"#utility.yul\":6194:6212   */\n  add\n    /* \"#utility.yul\":6181:6212   */\n  swap5\n  pop\n    /* \"#utility.yul\":6055:6059   */\n  0x20\n    /* \"#utility.yul\":6052:6053   */\n  dup2\n    /* \"#utility.yul\":6048:6060   */\n  add\n    /* \"#utility.yul\":6043:6060   */\n  swap1\n  pop\n    /* \"#utility.yul\":6018:6226   */\n  jump(tag_127)\ntag_129:\n    /* \"#utility.yul\":6254:6260   */\n  dup7\n    /* \"#utility.yul\":6245:6252   */\n  dup4\n    /* \"#utility.yul\":6242:6261   */\n  lt\n    /* \"#utility.yul\":6239:6418   */\n  iszero\n  tag_130\n  jumpi\n    /* \"#utility.yul\":6312:6321   */\n  dup5\n    /* \"#utility.yul\":6307:6310   */\n  dup10\n    /* \"#utility.yul\":6303:6322   */\n  add\n    /* \"#utility.yul\":6297:6323   */\n  mload\n    /* \"#utility.yul\":6355:6403   */\n  tag_131\n    /* \"#utility.yul\":6397:6401   */\n  0x1f\n    /* \"#utility.yul\":6389:6395   */\n  dup10\n    /* \"#utility.yul\":6385:6402   */\n  and\n    /* \"#utility.yul\":6374:6383   */\n  dup3\n    /* \"#utility.yul\":6355:6403   */\n  tag_48\n  jump\t// in\ntag_131:\n    /* \"#utility.yul\":6347:6353   */\n  dup4\n    /* \"#utility.yul\":6340:6404   */\n  sstore\n    /* \"#utility.yul\":6262:6418   */\n  pop\n    /* \"#utility.yul\":6239:6418   */\ntag_130:\n    /* \"#utility.yul\":6464:6465   */\n  0x01\n    /* \"#utility.yul\":6460:6461   */\n  0x02\n    /* \"#utility.yul\":6452:6458   */\n  dup9\n    /* \"#utility.yul\":6448:6462   */\n  mul\n    /* \"#utility.yul\":6444:6466   */\n  add\n    /* \"#utility.yul\":6438:6442   */\n  dup9\n    /* \"#utility.yul\":6431:6467   */\n  sstore\n    /* \"#utility.yul\":5867:6477   */\n  pop\n  pop\n  pop\n    /* \"#utility.yul\":5830:6716   */\ntag_122:\n  pop\n    /* \"#utility.yul\":5422:6722   */\n  pop\n  pop\n  pop\n    /* \"#utility.yul\":5332:6722   */\n  pop\n  pop\n  jump\t// out\n    /* \"#utility.yul\":6728:6869   */\ntag_51:\n    /* \"#utility.yul\":6777:6781   */\n  0x00\n    /* \"#utility.yul\":6800:6803   */\n  dup2\n    /* \"#utility.yul\":6792:6803   */\n  swap1\n  pop\n    /* \"#utility.yul\":6823:6826   */\n  dup2\n    /* \"#utility.yul\":6820:6821   */\n  0x00\n    /* \"#utility.yul\":6813:6827   */\n  mstore\n    /* \"#utility.yul\":6857:6861   */\n  0x20\n    /* \"#utility.yul\":6854:6855   */\n  0x00\n    /* \"#utility.yul\":6844:6862   */\n  keccak256\n    /* \"#utility.yul\":6836:6862   */\n  swap1\n  pop\n    /* \"#utility.yul\":6728:6869   */\n  swap2\n  swap1\n  pop\n  jump\t// out\n    /* \"#utility.yul\":6875:7418   */\ntag_52:\n    /* \"#utility.yul\":6976:6978   */\n  0x1f\n    /* \"#utility.yul\":6971:6974   */\n  dup3\n    /* \"#utility.yul\":6968:6979   */\n  gt\n    /* \"#utility.yul\":6965:7411   */\n  iszero\n  tag_134\n  jumpi\n    /* \"#utility.yul\":7010:7048   */\n  tag_135\n    /* \"#utility.yul\":7042:7047   */\n  dup2\n    /* \"#utility.yul\":7010:7048   */\n  tag_51\n  jump\t// in\ntag_135:\n    /* \"#utility.yul\":7094:7123   */\n  tag_136\n    /* \"#utility.yul\":7112:7122   */\n  dup5\n    /* \"#utility.yul\":7094:7123   */\n  tag_35\n  jump\t// in\ntag_136:\n    /* \"#utility.yul\":7084:7092   */\n  dup2\n    /* \"#utility.yul\":7080:7124   */\n  add\n    /* \"#utility.yul\":7277:7279   */\n  0x20\n    /* \"#utility.yul\":7265:7275   */\n  dup6\n    /* \"#utility.yul\":7262:7280   */\n  lt\n    /* \"#utility.yul\":7259:7308   */\n  iszero\n  tag_137\n  jumpi\n    /* \"#utility.yul\":7298:7306   */\n  dup2\n    /* \"#utility.yul\":7283:7306   */\n  swap1\n  pop\n    /* \"#utility.yul\":7259:7308   */\ntag_137:\n    /* \"#utility.yul\":7321:7401   */\n  tag_138\n    /* \"#utility.yul\":7377:7399   */\n  tag_139\n    /* \"#utility.yul\":7395:7398   */\n  dup6\n    /* \"#utility.yul\":7377:7399   */\n  tag_35\n  jump\t// in\ntag_139:\n    /* \"#utility.yul\":7367:7375   */\n  dup4\n    /* \"#utility.yul\":7363:7400   */\n  add\n    /* \"#utility.yul\":7350:7361   */\n  dup3\n    /* \"#utility.yul\":7321:7401   */\n  tag_45\n  jump\t// in\ntag_138:\n    /* \"#utility.yul\":6980:7411   */\n  pop\n  pop\n    /* \"#utility.yul\":6965:7411   */\ntag_134:\n    /* \"#utility.yul\":6875:7418   */\n  pop\n  pop\n  pop\n  jump\t// out\n    /* \"#utility.yul\":7424:8819   */\ntag_17:\n    /* \"#utility.yul\":7541:7578   */\n  tag_141\n    /* \"#utility.yul\":7574:7577   */\n  dup3\n    /* \"#utility.yul\":7541:7578   */\n  tag_31\n  jump\t// in\ntag_141:\n    /* \"#utility.yul\":7643:7661   */\n  0xffffffffffffffff\n    /* \"#utility.yul\":7635:7641   */\n  dup2\n    /* \"#utility.yul\":7632:7662   */\n  gt\n    /* \"#utility.yul\":7629:7685   */\n  iszero\n  tag_142\n  jumpi\n    /* \"#utility.yul\":7665:7683   */\n  tag_143\n  tag_5\n  jump\t// in\ntag_143:\n    /* \"#utility.yul\":7629:7685   */\ntag_142:\n    /* \"#utility.yul\":7709:7747   */\n  tag_144\n    /* \"#utility.yul\":7741:7745   */\n  dup3\n    /* \"#utility.yul\":7735:7746   */\n  sload\n    /* \"#utility.yul\":7709:7747   */\n  tag_33\n  jump\t// in\ntag_144:\n    /* \"#utility.yul\":7794:7861   */\n  tag_145\n    /* \"#utility.yul\":7854:7860   */\n  dup3\n    /* \"#utility.yul\":7846:7852   */\n  dup3\n    /* \"#utility.yul\":7840:7844   */\n  dup6\n    /* \"#utility.yul\":7794:7861   */\n  tag_52\n  jump\t// in\ntag_145:\n    /* \"#utility.yul\":7888:7889   */\n  0x00\n    /* \"#utility.yul\":7912:7916   */\n  0x20\n    /* \"#utility.yul\":7899:7916   */\n  swap1\n  pop\n    /* \"#utility.yul\":7944:7946   */\n  0x1f\n    /* \"#utility.yul\":7936:7942   */\n  dup4\n    /* \"#utility.yul\":7933:7947   */\n  gt\n    /* \"#utility.yul\":7961:7962   */\n  0x01\n    /* \"#utility.yul\":7956:8574   */\n  dup2\n  eq\n  tag_147\n  jumpi\n    /* \"#utility.yul\":8618:8619   */\n  0x00\n    /* \"#utility.yul\":8635:8641   */\n  dup5\n    /* \"#utility.yul\":8632:8709   */\n  iszero\n  tag_148\n  jumpi\n    /* \"#utility.yul\":8684:8693   */\n  dup3\n    /* \"#utility.yul\":8679:8682   */\n  dup8\n    /* \"#utility.yul\":8675:8694   */\n  add\n    /* \"#utility.yul\":8669:8695   */\n  mload\n    /* \"#utility.yul\":8660:8695   */\n  swap1\n  pop\n    /* \"#utility.yul\":8632:8709   */\ntag_148:\n    /* \"#utility.yul\":8735:8802   */\n  tag_149\n    /* \"#utility.yul\":8795:8801   */\n  dup6\n    /* \"#utility.yul\":8788:8793   */\n  dup3\n    /* \"#utility.yul\":8735:8802   */\n  tag_49\n  jump\t// in\ntag_149:\n    /* \"#utility.yul\":8729:8733   */\n  dup7\n    /* \"#utility.yul\":8722:8803   */\n  sstore\n    /* \"#utility.yul\":8591:8813   */\n  pop\n    /* \"#utility.yul\":7926:8813   */\n  jump(tag_146)\n    /* \"#utility.yul\":7956:8574   */\ntag_147:\n    /* \"#utility.yul\":8008:8012   */\n  0x1f\n    /* \"#utility.yul\":8004:8013   */\n  not\n    /* \"#utility.yul\":7996:8002   */\n  dup5\n    /* \"#utility.yul\":7992:8014   */\n  and\n    /* \"#utility.yul\":8042:8079   */\n  tag_150\n    /* \"#utility.yul\":8074:8078   */\n  dup7\n    /* \"#utility.yul\":8042:8079   */\n  tag_51\n  jump\t// in\ntag_150:\n    /* \"#utility.yul\":8101:8102   */\n  0x00\n    /* \"#utility.yul\":8115:8323   */\ntag_151:\n    /* \"#utility.yul\":8129:8136   */\n  dup3\n    /* \"#utility.yul\":8126:8127   */\n  dup2\n    /* \"#utility.yul\":8123:8137   */\n  lt\n    /* \"#utility.yul\":8115:8323   */\n  iszero\n  tag_153\n  jumpi\n    /* \"#utility.yul\":8208:8217   */\n  dup5\n    /* \"#utility.yul\":8203:8206   */\n  dup10\n    /* \"#utility.yul\":8199:8218   */\n  add\n    /* \"#utility.yul\":8193:8219   */\n  mload\n    /* \"#utility.yul\":8185:8191   */\n  dup3\n    /* \"#utility.yul\":8178:8220   */\n  sstore\n    /* \"#utility.yul\":8259:8260   */\n  0x01\n    /* \"#utility.yul\":8251:8257   */\n  dup3\n    /* \"#utility.yul\":8247:8261   */\n  add\n    /* \"#utility.yul\":8237:8261   */\n  swap2\n  pop\n    /* \"#utility.yul\":8306:8308   */\n  0x20\n    /* \"#utility.yul\":8295:8304   */\n  dup6\n    /* \"#utility.yul\":8291:8309   */\n  add\n    /* \"#utility.yul\":8278:8309   */\n  swap5\n  pop\n    /* \"#utility.yul\":8152:8156   */\n  0x20\n    /* \"#utility.yul\":8149:8150   */\n  dup2\n    /* \"#utility.yul\":8145:8157   */\n  add\n    /* \"#utility.yul\":8140:8157   */\n  swap1\n  pop\n    /* \"#utility.yul\":8115:8323   */\n  jump(tag_151)\ntag_153:\n    /* \"#utility.yul\":8351:8357   */\n  dup7\n    /* \"#utility.yul\":8342:8349   */\n  dup4\n    /* \"#utility.yul\":8339:8358   */\n  lt\n    /* \"#utility.yul\":8336:8515   */\n  iszero\n  tag_154\n  jumpi\n    /* \"#utility.yul\":8409:8418   */\n  dup5\n    /* \"#utility.yul\":8404:8407   */\n  dup10\n    /* \"#utility.yul\":8400:8419   */\n  add\n    /* \"#utility.yul\":8394:8420   */\n  mload\n    /* \"#utility.yul\":8452:8500   */\n  tag_155\n    /* \"#utility.yul\":8494:8498   */\n  0x1f\n    /* \"#utility.yul\":8486:8492   */\n  dup10\n    /* \"#utility.yul\":8482:8499   */\n  and\n    /* \"#utility.yul\":8471:8480   */\n  dup3\n    /* \"#utility.yul\":8452:8500   */\n  tag_48\n  jump\t// in\ntag_155:\n    /* \"#utility.yul\":8444:8450   */\n  dup4\n    /* \"#utility.yul\":8437:8501   */\n  sstore\n    /* \"#utility.yul\":8359:8515   */\n  pop\n    /* \"#utility.yul\":8336:8515   */\ntag_154:\n    /* \"#utility.yul\":8561:8562   */\n  0x01\n    /* \"#utility.yul\":8557:8558   */\n  0x02\n    /* \"#utility.yul\":8549:8555   */\n  dup9\n    /* \"#utility.yul\":8545:8559   */\n  mul\n    /* \"#utility.yul\":8541:8563   */\n  add\n    /* \"#utility.yul\":8535:8539   */\n  dup9\n    /* \"#utility.yul\":8528:8564   */\n  sstore\n    /* \"#utility.yul\":7963:8574   */\n  pop\n  pop\n  pop\n    /* \"#utility.yul\":7926:8813   */\ntag_146:\n  pop\n    /* \"#utility.yul\":7516:8819   */\n  pop\n  pop\n  pop\n    /* \"#utility.yul\":7424:8819   */\n  pop\n  pop\n  jump\t// out\n    /* \"practise/ArrayContact.sol\":60:1563  contract ArrayContract{... */\ntag_19:\n  dataSize(sub_0)\n  dup1\n  dataOffset(sub_0)\n  0x00\n  codecopy\n  0x00\n  return\nstop\n\nsub_0: assembly {\n        /* \"practise/ArrayContact.sol\":60:1563  contract ArrayContract{... */\n      mstore(0x40, 0x80)\n      callvalue\n      dup1\n      iszero\n      tag_1\n      jumpi\n      revert(0x00, 0x00)\n    tag_1:\n      pop\n      jumpi(tag_2, lt(calldatasize, 0x04))\n      shr(0xe0, calldataload(0x00))\n      dup1\n      0x83b4b42b\n      gt\n      tag_15\n      jumpi\n      dup1\n      0x83b4b42b\n      eq\n      tag_9\n      jumpi\n      dup1\n      0x8dc05b87\n      eq\n      tag_10\n      jumpi\n      dup1\n      0xa5650466\n      eq\n      tag_11\n      jumpi\n      dup1\n      0xc075ce78\n      eq\n      tag_12\n      jumpi\n      dup1\n      0xc4c38901\n      eq\n      tag_13\n      jumpi\n      dup1\n      0xe01a58c8\n      eq\n      tag_14\n      jumpi\n      jump(tag_2)\n    tag_15:\n      dup1\n      0x36f77991\n      eq\n      tag_3\n      jumpi\n      dup1\n      0x4262ee4b\n      eq\n      tag_4\n      jumpi\n      dup1\n      0x5478a4dc\n      eq\n      tag_5\n      jumpi\n      dup1\n      0x6484454b\n      eq\n      tag_6\n      jumpi\n      dup1\n      0x68beab3f\n      eq\n      tag_7\n      jumpi\n      dup1\n      0x80c9419e\n      eq\n      tag_8\n      jumpi\n    tag_2:\n      revert(0x00, 0x00)\n        /* \"practise/ArrayContact.sol\":345:442  function readByte(uint256 index) public  view returns(bytes1 ){... */\n    tag_3:\n      tag_16\n      0x04\n      dup1\n      calldatasize\n      sub\n      dup2\n      add\n      swap1\n      tag_17\n      swap2\n      swap1\n      tag_18\n      jump\t// in\n    tag_17:\n      tag_19\n      jump\t// in\n    tag_16:\n      mload(0x40)\n      tag_20\n      swap2\n      swap1\n      tag_21\n      jump\t// in\n    tag_20:\n      mload(0x40)\n      dup1\n      swap2\n      sub\n      swap1\n      return\n        /* \"practise/ArrayContact.sol\":157:195  uint256[] public list3 = new uint[](6) */\n    tag_4:\n      tag_22\n      0x04\n      dup1\n      calldatasize\n      sub\n      dup2\n      add\n      swap1\n      tag_23\n      swap2\n      swap1\n      tag_18\n      jump\t// in\n    tag_23:\n      tag_24\n      jump\t// in\n    tag_22:\n      mload(0x40)\n      tag_25\n      swap2\n      swap1\n      tag_26\n      jump\t// in\n    tag_25:\n      mload(0x40)\n      dup1\n      swap2\n      sub\n      swap1\n      return\n        /* \"practise/ArrayContact.sol\":204:236  bytes public  bs = \"abc\\x22\\x22\" */\n    tag_5:\n      tag_27\n      tag_28\n      jump\t// in\n    tag_27:\n      mload(0x40)\n      tag_29\n      swap2\n      swap1\n      tag_30\n      jump\t// in\n    tag_29:\n      mload(0x40)\n      dup1\n      swap2\n      sub\n      swap1\n      return\n        /* \"practise/ArrayContact.sol\":1034:1205  function loopN() public pure returns(uint ){... */\n    tag_6:\n      tag_31\n      tag_32\n      jump\t// in\n    tag_31:\n      mload(0x40)\n      tag_33\n      swap2\n      swap1\n      tag_26\n      jump\t// in\n    tag_33:\n      mload(0x40)\n      dup1\n      swap2\n      sub\n      swap1\n      return\n        /* \"practise/ArrayContact.sol\":244:278  bytes public _data = new bytes(10) */\n    tag_7:\n      tag_34\n      tag_35\n      jump\t// in\n    tag_34:\n      mload(0x40)\n      tag_36\n      swap2\n      swap1\n      tag_30\n      jump\t// in\n    tag_36:\n      mload(0x40)\n      dup1\n      swap2\n      sub\n      swap1\n      return\n        /* \"practise/ArrayContact.sol\":89:111  uint256[] public  list */\n    tag_8:\n      tag_37\n      0x04\n      dup1\n      calldatasize\n      sub\n      dup2\n      add\n      swap1\n      tag_38\n      swap2\n      swap1\n      tag_18\n      jump\t// in\n    tag_38:\n      tag_39\n      jump\t// in\n    tag_37:\n      mload(0x40)\n      tag_40\n      swap2\n      swap1\n      tag_26\n      jump\t// in\n    tag_40:\n      mload(0x40)\n      dup1\n      swap2\n      sub\n      swap1\n      return\n        /* \"practise/ArrayContact.sol\":450:685  function getbyteByvalue(bytes1 v) public view returns (uint256 ){... */\n    tag_9:\n      tag_41\n      0x04\n      dup1\n      calldatasize\n      sub\n      dup2\n      add\n      swap1\n      tag_42\n      swap2\n      swap1\n      tag_43\n      jump\t// in\n    tag_42:\n      tag_44\n      jump\t// in\n    tag_41:\n      mload(0x40)\n      tag_45\n      swap2\n      swap1\n      tag_26\n      jump\t// in\n    tag_45:\n      mload(0x40)\n      dup1\n      swap2\n      sub\n      swap1\n      return\n        /* \"practise/ArrayContact.sol\":700:900  function loopF() public returns(uint256[] memory){... */\n    tag_10:\n      tag_46\n      tag_47\n      jump\t// in\n    tag_46:\n      mload(0x40)\n      tag_48\n      swap2\n      swap1\n      tag_49\n      jump\t// in\n    tag_48:\n      mload(0x40)\n      dup1\n      swap2\n      sub\n      swap1\n      return\n        /* \"practise/ArrayContact.sol\":1421:1560  function testSlice(bytes  calldata data , uint start , uint end) public pure returns(bytes memory){... */\n    tag_11:\n      tag_50\n      0x04\n      dup1\n      calldatasize\n      sub\n      dup2\n      add\n      swap1\n      tag_51\n      swap2\n      swap1\n      tag_52\n      jump\t// in\n    tag_51:\n      tag_53\n      jump\t// in\n    tag_50:\n      mload(0x40)\n      tag_54\n      swap2\n      swap1\n      tag_30\n      jump\t// in\n    tag_54:\n      mload(0x40)\n      dup1\n      swap2\n      sub\n      swap1\n      return\n        /* \"practise/ArrayContact.sol\":1212:1413  function loopW() public pure returns(uint ){... */\n    tag_12:\n      tag_55\n      tag_56\n      jump\t// in\n    tag_55:\n      mload(0x40)\n      tag_57\n      swap2\n      swap1\n      tag_26\n      jump\t// in\n    tag_57:\n      mload(0x40)\n      dup1\n      swap2\n      sub\n      swap1\n      return\n        /* \"practise/ArrayContact.sol\":118:150  uint256[] public list2 = [1,2,3] */\n    tag_13:\n      tag_58\n      0x04\n      dup1\n      calldatasize\n      sub\n      dup2\n      add\n      swap1\n      tag_59\n      swap2\n      swap1\n      tag_18\n      jump\t// in\n    tag_59:\n      tag_60\n      jump\t// in\n    tag_58:\n      mload(0x40)\n      tag_61\n      swap2\n      swap1\n      tag_26\n      jump\t// in\n    tag_61:\n      mload(0x40)\n      dup1\n      swap2\n      sub\n      swap1\n      return\n        /* \"practise/ArrayContact.sol\":910:1026  function readList() external view returns(uint[] memory , uint256){... */\n    tag_14:\n      tag_62\n      tag_63\n      jump\t// in\n    tag_62:\n      mload(0x40)\n      tag_64\n      swap3\n      swap2\n      swap1\n      tag_65\n      jump\t// in\n    tag_64:\n      mload(0x40)\n      dup1\n      swap2\n      sub\n      swap1\n      return\n        /* \"practise/ArrayContact.sol\":345:442  function readByte(uint256 index) public  view returns(bytes1 ){... */\n    tag_19:\n        /* \"practise/ArrayContact.sol\":399:405  bytes1 */\n      0x00\n        /* \"practise/ArrayContact.sol\":425:427  bs */\n      0x03\n        /* \"practise/ArrayContact.sol\":428:433  index */\n      dup3\n        /* \"practise/ArrayContact.sol\":425:434  bs[index] */\n      dup2\n      sload\n      tag_67\n      swap1\n      tag_68\n      jump\t// in\n    tag_67:\n      dup2\n      lt\n      tag_69\n      jumpi\n      tag_70\n      tag_71\n      jump\t// in\n    tag_70:\n    tag_69:\n      dup2\n      sload\n      0x01\n      and\n      iszero\n      tag_72\n      jumpi\n      swap1\n      0x00\n      mstore\n      keccak256(0x00, 0x20)\n      swap1\n      0x20\n      swap2\n      dup3\n      dup3\n      div\n      add\n      swap2\n      swap1\n      mod\n    tag_72:\n      swap1\n      sload\n      swap1\n      byte\n      0x0100000000000000000000000000000000000000000000000000000000000000\n      mul\n        /* \"practise/ArrayContact.sol\":418:434  return bs[index] */\n      swap1\n      pop\n        /* \"practise/ArrayContact.sol\":345:442  function readByte(uint256 index) public  view returns(bytes1 ){... */\n      swap2\n      swap1\n      pop\n      jump\t// out\n        /* \"practise/ArrayContact.sol\":157:195  uint256[] public list3 = new uint[](6) */\n    tag_24:\n      0x02\n      dup2\n      dup2\n      sload\n      dup2\n      lt\n      tag_73\n      jumpi\n      0x00\n      dup1\n      revert\n    tag_73:\n      swap1\n      0x00\n      mstore\n      keccak256(0x00, 0x20)\n      add\n      0x00\n      swap2\n      pop\n      swap1\n      pop\n      sload\n      dup2\n      jump\t// out\n        /* \"practise/ArrayContact.sol\":204:236  bytes public  bs = \"abc\\x22\\x22\" */\n    tag_28:\n      0x03\n      dup1\n      sload\n      tag_75\n      swap1\n      tag_68\n      jump\t// in\n    tag_75:\n      dup1\n      0x1f\n      add\n      0x20\n      dup1\n      swap2\n      div\n      mul\n      0x20\n      add\n      mload(0x40)\n      swap1\n      dup2\n      add\n      0x40\n      mstore\n      dup1\n      swap3\n      swap2\n      swap1\n      dup2\n      dup2\n      mstore\n      0x20\n      add\n      dup3\n      dup1\n      sload\n      tag_76\n      swap1\n      tag_68\n      jump\t// in\n    tag_76:\n      dup1\n      iszero\n      tag_77\n      jumpi\n      dup1\n      0x1f\n      lt\n      tag_78\n      jumpi\n      0x0100\n      dup1\n      dup4\n      sload\n      div\n      mul\n      dup4\n      mstore\n      swap2\n      0x20\n      add\n      swap2\n      jump(tag_77)\n    tag_78:\n      dup3\n      add\n      swap2\n      swap1\n      0x00\n      mstore\n      keccak256(0x00, 0x20)\n      swap1\n    tag_79:\n      dup2\n      sload\n      dup2\n      mstore\n      swap1\n      0x01\n      add\n      swap1\n      0x20\n      add\n      dup1\n      dup4\n      gt\n      tag_79\n      jumpi\n      dup3\n      swap1\n      sub\n      0x1f\n      and\n      dup3\n      add\n      swap2\n    tag_77:\n      pop\n      pop\n      pop\n      pop\n      pop\n      dup2\n      jump\t// out\n        /* \"practise/ArrayContact.sol\":1034:1205  function loopN() public pure returns(uint ){... */\n    tag_32:\n        /* \"practise/ArrayContact.sol\":1071:1075  uint */\n      0x00\n        /* \"practise/ArrayContact.sol\":1090:1099  uint  sum */\n      0x00\n        /* \"practise/ArrayContact.sol\":1102:1103  0 */\n      0x00\n        /* \"practise/ArrayContact.sol\":1090:1103  uint  sum = 0 */\n      swap1\n      pop\n        /* \"practise/ArrayContact.sol\":1119:1125  uint i */\n      0x00\n        /* \"practise/ArrayContact.sol\":1128:1129  0 */\n      0x00\n        /* \"practise/ArrayContact.sol\":1119:1129  uint i = 0 */\n      swap1\n      pop\n        /* \"practise/ArrayContact.sol\":1114:1177  for (uint i = 0; i <10; i++){... */\n    tag_81:\n        /* \"practise/ArrayContact.sol\":1134:1136  10 */\n      0x0a\n        /* \"practise/ArrayContact.sol\":1131:1132  i */\n      dup2\n        /* \"practise/ArrayContact.sol\":1131:1136  i <10 */\n      lt\n        /* \"practise/ArrayContact.sol\":1114:1177  for (uint i = 0; i <10; i++){... */\n      iszero\n      tag_82\n      jumpi\n        /* \"practise/ArrayContact.sol\":1164:1165  i */\n      dup1\n        /* \"practise/ArrayContact.sol\":1157:1165  sum += i */\n      dup3\n      tag_84\n      swap2\n      swap1\n      tag_85\n      jump\t// in\n    tag_84:\n      swap2\n      pop\n        /* \"practise/ArrayContact.sol\":1138:1141  i++ */\n      dup1\n      dup1\n      0x01\n      add\n      swap2\n      pop\n      pop\n        /* \"practise/ArrayContact.sol\":1114:1177  for (uint i = 0; i <10; i++){... */\n      jump(tag_81)\n    tag_82:\n      pop\n        /* \"practise/ArrayContact.sol\":1194:1197  sum */\n      dup1\n        /* \"practise/ArrayContact.sol\":1187:1197  return sum */\n      swap2\n      pop\n      pop\n        /* \"practise/ArrayContact.sol\":1034:1205  function loopN() public pure returns(uint ){... */\n      swap1\n      jump\t// out\n        /* \"practise/ArrayContact.sol\":244:278  bytes public _data = new bytes(10) */\n    tag_35:\n      0x04\n      dup1\n      sload\n      tag_86\n      swap1\n      tag_68\n      jump\t// in\n    tag_86:\n      dup1\n      0x1f\n      add\n      0x20\n      dup1\n      swap2\n      div\n      mul\n      0x20\n      add\n      mload(0x40)\n      swap1\n      dup2\n      add\n      0x40\n      mstore\n      dup1\n      swap3\n      swap2\n      swap1\n      dup2\n      dup2\n      mstore\n      0x20\n      add\n      dup3\n      dup1\n      sload\n      tag_87\n      swap1\n      tag_68\n      jump\t// in\n    tag_87:\n      dup1\n      iszero\n      tag_88\n      jumpi\n      dup1\n      0x1f\n      lt\n      tag_89\n      jumpi\n      0x0100\n      dup1\n      dup4\n      sload\n      div\n      mul\n      dup4\n      mstore\n      swap2\n      0x20\n      add\n      swap2\n      jump(tag_88)\n    tag_89:\n      dup3\n      add\n      swap2\n      swap1\n      0x00\n      mstore\n      keccak256(0x00, 0x20)\n      swap1\n    tag_90:\n      dup2\n      sload\n      dup2\n      mstore\n      swap1\n      0x01\n      add\n      swap1\n      0x20\n      add\n      dup1\n      dup4\n      gt\n      tag_90\n      jumpi\n      dup3\n      swap1\n      sub\n      0x1f\n      and\n      dup3\n      add\n      swap2\n    tag_88:\n      pop\n      pop\n      pop\n      pop\n      pop\n      dup2\n      jump\t// out\n        /* \"practise/ArrayContact.sol\":89:111  uint256[] public  list */\n    tag_39:\n      0x00\n      dup2\n      dup2\n      sload\n      dup2\n      lt\n      tag_91\n      jumpi\n      0x00\n      dup1\n      revert\n    tag_91:\n      swap1\n      0x00\n      mstore\n      keccak256(0x00, 0x20)\n      add\n      0x00\n      swap2\n      pop\n      swap1\n      pop\n      sload\n      dup2\n      jump\t// out\n        /* \"practise/ArrayContact.sol\":450:685  function getbyteByvalue(bytes1 v) public view returns (uint256 ){... */\n    tag_44:\n        /* \"practise/ArrayContact.sol\":505:512  uint256 */\n      0x00\n        /* \"practise/ArrayContact.sol\":532:541  uint256 i */\n      0x00\n        /* \"practise/ArrayContact.sol\":544:545  0 */\n      0x00\n        /* \"practise/ArrayContact.sol\":532:545  uint256 i = 0 */\n      swap1\n      pop\n        /* \"practise/ArrayContact.sol\":527:659  for (uint256 i = 0 ; i<bs.length; i++) {... */\n    tag_94:\n        /* \"practise/ArrayContact.sol\":550:552  bs */\n      0x03\n        /* \"practise/ArrayContact.sol\":550:559  bs.length */\n      dup1\n      sload\n      tag_97\n      swap1\n      tag_68\n      jump\t// in\n    tag_97:\n      swap1\n      pop\n        /* \"practise/ArrayContact.sol\":548:549  i */\n      dup2\n        /* \"practise/ArrayContact.sol\":548:559  i<bs.length */\n      lt\n        /* \"practise/ArrayContact.sol\":527:659  for (uint256 i = 0 ; i<bs.length; i++) {... */\n      iszero\n      tag_95\n      jumpi\n        /* \"practise/ArrayContact.sol\":594:595  v */\n      dup3\n        /* \"practise/ArrayContact.sol\":585:595  bs[i] == v */\n      not(0xffffffffffffffffffffffffffffffffffffffffffffffffffffffffffffff)\n      and\n        /* \"practise/ArrayContact.sol\":585:587  bs */\n      0x03\n        /* \"practise/ArrayContact.sol\":588:589  i */\n      dup3\n        /* \"practise/ArrayContact.sol\":585:590  bs[i] */\n      dup2\n      sload\n      tag_98\n      swap1\n      tag_68\n      jump\t// in\n    tag_98:\n      dup2\n      lt\n      tag_99\n      jumpi\n      tag_100\n      tag_71\n      jump\t// in\n    tag_100:\n    tag_99:\n      dup2\n      sload\n      0x01\n      and\n      iszero\n      tag_101\n      jumpi\n      swap1\n      0x00\n      mstore\n      keccak256(0x00, 0x20)\n      swap1\n      0x20\n      swap2\n      dup3\n      dup3\n      div\n      add\n      swap2\n      swap1\n      mod\n    tag_101:\n      swap1\n      sload\n      swap1\n      byte\n      0x0100000000000000000000000000000000000000000000000000000000000000\n      mul\n        /* \"practise/ArrayContact.sol\":585:595  bs[i] == v */\n      not(0xffffffffffffffffffffffffffffffffffffffffffffffffffffffffffffff)\n      and\n      sub\n        /* \"practise/ArrayContact.sol\":581:648  if (bs[i] == v){... */\n      tag_102\n      jumpi\n        /* \"practise/ArrayContact.sol\":630:631  i */\n      dup1\n        /* \"practise/ArrayContact.sol\":615:632  return uint256(i) */\n      swap2\n      pop\n      pop\n      jump(tag_93)\n        /* \"practise/ArrayContact.sol\":581:648  if (bs[i] == v){... */\n    tag_102:\n        /* \"practise/ArrayContact.sol\":561:564  i++ */\n      dup1\n      dup1\n      0x01\n      add\n      swap2\n      pop\n      pop\n        /* \"practise/ArrayContact.sol\":527:659  for (uint256 i = 0 ; i<bs.length; i++) {... */\n      jump(tag_94)\n    tag_95:\n      pop\n        /* \"practise/ArrayContact.sol\":676:677  0 */\n      0x00\n        /* \"practise/ArrayContact.sol\":669:677  return 0 */\n      swap1\n      pop\n        /* \"practise/ArrayContact.sol\":450:685  function getbyteByvalue(bytes1 v) public view returns (uint256 ){... */\n    tag_93:\n      swap2\n      swap1\n      pop\n      jump\t// out\n        /* \"practise/ArrayContact.sol\":700:900  function loopF() public returns(uint256[] memory){... */\n    tag_47:\n        /* \"practise/ArrayContact.sol\":732:748  uint256[] memory */\n      0x60\n        /* \"practise/ArrayContact.sol\":765:771  uint i */\n      0x00\n        /* \"practise/ArrayContact.sol\":774:775  0 */\n      0x00\n        /* \"practise/ArrayContact.sol\":765:775  uint i = 0 */\n      swap1\n      pop\n        /* \"practise/ArrayContact.sol\":760:848  for (uint i = 0; i < list2.length; i++){... */\n    tag_104:\n        /* \"practise/ArrayContact.sol\":781:786  list2 */\n      0x01\n        /* \"practise/ArrayContact.sol\":781:793  list2.length */\n      dup1\n      sload\n      swap1\n      pop\n        /* \"practise/ArrayContact.sol\":777:778  i */\n      dup2\n        /* \"practise/ArrayContact.sol\":777:793  i < list2.length */\n      lt\n        /* \"practise/ArrayContact.sol\":760:848  for (uint i = 0; i < list2.length; i++){... */\n      iszero\n      tag_105\n      jumpi\n        /* \"practise/ArrayContact.sol\":835:836  1 */\n      0x01\n        /* \"practise/ArrayContact.sol\":826:831  list2 */\n      dup1\n        /* \"practise/ArrayContact.sol\":832:833  i */\n      dup3\n        /* \"practise/ArrayContact.sol\":826:834  list2[i] */\n      dup2\n      sload\n      dup2\n      lt\n      tag_107\n      jumpi\n      tag_108\n      tag_71\n      jump\t// in\n    tag_108:\n    tag_107:\n      swap1\n      0x00\n      mstore\n      keccak256(0x00, 0x20)\n      add\n      sload\n        /* \"practise/ArrayContact.sol\":826:836  list2[i]+1 */\n      tag_110\n      swap2\n      swap1\n      tag_85\n      jump\t// in\n    tag_110:\n        /* \"practise/ArrayContact.sol\":814:819  list2 */\n      0x01\n        /* \"practise/ArrayContact.sol\":820:821  i */\n      dup3\n        /* \"practise/ArrayContact.sol\":814:822  list2[i] */\n      dup2\n      sload\n      dup2\n      lt\n      tag_111\n      jumpi\n      tag_112\n      tag_71\n      jump\t// in\n    tag_112:\n    tag_111:\n      swap1\n      0x00\n      mstore\n      keccak256(0x00, 0x20)\n      add\n        /* \"practise/ArrayContact.sol\":814:836  list2[i] =  list2[i]+1 */\n      dup2\n      swap1\n      sstore\n      pop\n        /* \"practise/ArrayContact.sol\":795:798  i++ */\n      dup1\n      dup1\n      0x01\n      add\n      swap2\n      pop\n      pop\n        /* \"practise/ArrayContact.sol\":760:848  for (uint i = 0; i < list2.length; i++){... */\n      jump(tag_104)\n    tag_105:\n      pop\n        /* \"practise/ArrayContact.sol\":858:862  list */\n      0x00\n        /* \"practise/ArrayContact.sol\":858:869  list.push() */\n      0x01\n      dup2\n      0x01\n      dup2\n      sload\n      add\n      dup1\n      dup3\n      sstore\n      dup1\n      swap2\n      pop\n      pop\n      sub\n      swap1\n      0x00\n      mstore\n      pop(keccak256(0x00, 0x20))\n      pop\n        /* \"practise/ArrayContact.sol\":887:892  list2 */\n      0x01\n        /* \"practise/ArrayContact.sol\":880:892  return list2 */\n      dup1\n      sload\n      dup1\n      0x20\n      mul\n      0x20\n      add\n      mload(0x40)\n      swap1\n      dup2\n      add\n      0x40\n      mstore\n      dup1\n      swap3\n      swap2\n      swap1\n      dup2\n      dup2\n      mstore\n      0x20\n      add\n      dup3\n      dup1\n      sload\n      dup1\n      iszero\n      tag_115\n      jumpi\n      0x20\n      mul\n      dup3\n      add\n      swap2\n      swap1\n      0x00\n      mstore\n      keccak256(0x00, 0x20)\n      swap1\n    tag_116:\n      dup2\n      sload\n      dup2\n      mstore\n      0x20\n      add\n      swap1\n      0x01\n      add\n      swap1\n      dup1\n      dup4\n      gt\n      tag_116\n      jumpi\n    tag_115:\n      pop\n      pop\n      pop\n      pop\n      pop\n      swap1\n      pop\n        /* \"practise/ArrayContact.sol\":700:900  function loopF() public returns(uint256[] memory){... */\n      swap1\n      jump\t// out\n        /* \"practise/ArrayContact.sol\":1421:1560  function testSlice(bytes  calldata data , uint start , uint end) public pure returns(bytes memory){... */\n    tag_53:\n        /* \"practise/ArrayContact.sol\":1506:1518  bytes memory */\n      0x60\n        /* \"practise/ArrayContact.sol\":1537:1541  data */\n      dup5\n      dup5\n        /* \"practise/ArrayContact.sol\":1542:1547  start */\n      dup5\n        /* \"practise/ArrayContact.sol\":1537:1552  data[start:end] */\n      swap1\n        /* \"practise/ArrayContact.sol\":1548:1551  end */\n      dup5\n        /* \"practise/ArrayContact.sol\":1537:1552  data[start:end] */\n      swap3\n      tag_118\n      swap4\n      swap3\n      swap2\n      swap1\n      tag_119\n      jump\t// in\n    tag_118:\n        /* \"practise/ArrayContact.sol\":1530:1552  return data[start:end] */\n      dup1\n      dup1\n      0x1f\n      add\n      0x20\n      dup1\n      swap2\n      div\n      mul\n      0x20\n      add\n      mload(0x40)\n      swap1\n      dup2\n      add\n      0x40\n      mstore\n      dup1\n      swap4\n      swap3\n      swap2\n      swap1\n      dup2\n      dup2\n      mstore\n      0x20\n      add\n      dup4\n      dup4\n      dup1\n      dup3\n      dup5\n      calldatacopy\n      0x00\n      dup2\n      dup5\n      add\n      mstore\n      not(0x1f)\n      0x1f\n      dup3\n      add\n      and\n      swap1\n      pop\n      dup1\n      dup4\n      add\n      swap3\n      pop\n      pop\n      pop\n      pop\n      pop\n      pop\n      pop\n      swap1\n      pop\n        /* \"practise/ArrayContact.sol\":1421:1560  function testSlice(bytes  calldata data , uint start , uint end) public pure returns(bytes memory){... */\n      swap5\n      swap4\n      pop\n      pop\n      pop\n      pop\n      jump\t// out\n        /* \"practise/ArrayContact.sol\":1212:1413  function loopW() public pure returns(uint ){... */\n    tag_56:\n        /* \"practise/ArrayContact.sol\":1249:1253  uint */\n      0x00\n        /* \"practise/ArrayContact.sol\":1268:1277  uint  sum */\n      0x00\n        /* \"practise/ArrayContact.sol\":1280:1281  0 */\n      0x00\n        /* \"practise/ArrayContact.sol\":1268:1281  uint  sum = 0 */\n      swap1\n      pop\n        /* \"practise/ArrayContact.sol\":1292:1298  uint i */\n      0x00\n        /* \"practise/ArrayContact.sol\":1301:1302  0 */\n      0x00\n        /* \"practise/ArrayContact.sol\":1292:1302  uint i = 0 */\n      swap1\n      pop\n        /* \"practise/ArrayContact.sol\":1313:1379  while (i<10){... */\n    tag_121:\n        /* \"practise/ArrayContact.sol\":1322:1324  10 */\n      0x0a\n        /* \"practise/ArrayContact.sol\":1320:1321  i */\n      dup2\n        /* \"practise/ArrayContact.sol\":1320:1324  i<10 */\n      lt\n        /* \"practise/ArrayContact.sol\":1313:1379  while (i<10){... */\n      iszero\n      tag_122\n      jumpi\n        /* \"practise/ArrayContact.sol\":1347:1348  i */\n      dup1\n        /* \"practise/ArrayContact.sol\":1340:1348  sum += i */\n      dup3\n      tag_123\n      swap2\n      swap1\n      tag_85\n      jump\t// in\n    tag_123:\n      swap2\n      pop\n        /* \"practise/ArrayContact.sol\":1364:1367  i++ */\n      dup1\n      dup1\n      tag_124\n      swap1\n      tag_125\n      jump\t// in\n    tag_124:\n      swap2\n      pop\n      pop\n        /* \"practise/ArrayContact.sol\":1313:1379  while (i<10){... */\n      jump(tag_121)\n    tag_122:\n        /* \"practise/ArrayContact.sol\":1402:1405  sum */\n      dup2\n        /* \"practise/ArrayContact.sol\":1395:1405  return sum */\n      swap3\n      pop\n      pop\n      pop\n        /* \"practise/ArrayContact.sol\":1212:1413  function loopW() public pure returns(uint ){... */\n      swap1\n      jump\t// out\n        /* \"practise/ArrayContact.sol\":118:150  uint256[] public list2 = [1,2,3] */\n    tag_60:\n      0x01\n      dup2\n      dup2\n      sload\n      dup2\n      lt\n      tag_126\n      jumpi\n      0x00\n      dup1\n      revert\n    tag_126:\n      swap1\n      0x00\n      mstore\n      keccak256(0x00, 0x20)\n      add\n      0x00\n      swap2\n      pop\n      swap1\n      pop\n      sload\n      dup2\n      jump\t// out\n        /* \"practise/ArrayContact.sol\":910:1026  function readList() external view returns(uint[] memory , uint256){... */\n    tag_63:\n        /* \"practise/ArrayContact.sol\":952:965  uint[] memory */\n      0x60\n        /* \"practise/ArrayContact.sol\":968:975  uint256 */\n      0x00\n        /* \"practise/ArrayContact.sol\":998:1003  list2 */\n      0x01\n        /* \"practise/ArrayContact.sol\":1005:1010  list2 */\n      dup1\n        /* \"practise/ArrayContact.sol\":1005:1017  list2.length */\n      dup1\n      sload\n      swap1\n      pop\n        /* \"practise/ArrayContact.sol\":989:1018  return ( list2, list2.length) */\n      dup2\n      dup1\n      sload\n      dup1\n      0x20\n      mul\n      0x20\n      add\n      mload(0x40)\n      swap1\n      dup2\n      add\n      0x40\n      mstore\n      dup1\n      swap3\n      swap2\n      swap1\n      dup2\n      dup2\n      mstore\n      0x20\n      add\n      dup3\n      dup1\n      sload\n      dup1\n      iszero\n      tag_129\n      jumpi\n      0x20\n      mul\n      dup3\n      add\n      swap2\n      swap1\n      0x00\n      mstore\n      keccak256(0x00, 0x20)\n      swap1\n    tag_130:\n      dup2\n      sload\n      dup2\n      mstore\n      0x20\n      add\n      swap1\n      0x01\n      add\n      swap1\n      dup1\n      dup4\n      gt\n      tag_130\n      jumpi\n    tag_129:\n      pop\n      pop\n      pop\n      pop\n      pop\n      swap2\n      pop\n      swap2\n      pop\n      swap2\n      pop\n        /* \"practise/ArrayContact.sol\":910:1026  function readList() external view returns(uint[] memory , uint256){... */\n      swap1\n      swap2\n      jump\t// out\n        /* \"#utility.yul\":88:205   */\n    tag_132:\n        /* \"#utility.yul\":197:198   */\n      0x00\n        /* \"#utility.yul\":194:195   */\n      0x00\n        /* \"#utility.yul\":187:199   */\n      revert\n        /* \"#utility.yul\":211:328   */\n    tag_133:\n        /* \"#utility.yul\":320:321   */\n      0x00\n        /* \"#utility.yul\":317:318   */\n      0x00\n        /* \"#utility.yul\":310:322   */\n      revert\n        /* \"#utility.yul\":334:411   */\n    tag_134:\n        /* \"#utility.yul\":371:378   */\n      0x00\n        /* \"#utility.yul\":400:405   */\n      dup2\n        /* \"#utility.yul\":389:405   */\n      swap1\n      pop\n        /* \"#utility.yul\":334:411   */\n      swap2\n      swap1\n      pop\n      jump\t// out\n        /* \"#utility.yul\":417:539   */\n    tag_135:\n        /* \"#utility.yul\":490:514   */\n      tag_168\n        /* \"#utility.yul\":508:513   */\n      dup2\n        /* \"#utility.yul\":490:514   */\n      tag_134\n      jump\t// in\n    tag_168:\n        /* \"#utility.yul\":483:488   */\n      dup2\n        /* \"#utility.yul\":480:515   */\n      eq\n        /* \"#utility.yul\":470:533   */\n      tag_169\n      jumpi\n        /* \"#utility.yul\":529:530   */\n      0x00\n        /* \"#utility.yul\":526:527   */\n      0x00\n        /* \"#utility.yul\":519:531   */\n      revert\n        /* \"#utility.yul\":470:533   */\n    tag_169:\n        /* \"#utility.yul\":417:539   */\n      pop\n      jump\t// out\n        /* \"#utility.yul\":545:684   */\n    tag_136:\n        /* \"#utility.yul\":591:596   */\n      0x00\n        /* \"#utility.yul\":629:635   */\n      dup2\n        /* \"#utility.yul\":616:636   */\n      calldataload\n        /* \"#utility.yul\":607:636   */\n      swap1\n      pop\n        /* \"#utility.yul\":645:678   */\n      tag_171\n        /* \"#utility.yul\":672:677   */\n      dup2\n        /* \"#utility.yul\":645:678   */\n      tag_135\n      jump\t// in\n    tag_171:\n        /* \"#utility.yul\":545:684   */\n      swap3\n      swap2\n      pop\n      pop\n      jump\t// out\n        /* \"#utility.yul\":690:1019   */\n    tag_18:\n        /* \"#utility.yul\":749:755   */\n      0x00\n        /* \"#utility.yul\":798:800   */\n      0x20\n        /* \"#utility.yul\":786:795   */\n      dup3\n        /* \"#utility.yul\":777:784   */\n      dup5\n        /* \"#utility.yul\":773:796   */\n      sub\n        /* \"#utility.yul\":769:801   */\n      slt\n        /* \"#utility.yul\":766:885   */\n      iszero\n      tag_173\n      jumpi\n        /* \"#utility.yul\":804:883   */\n      tag_174\n      tag_132\n      jump\t// in\n    tag_174:\n        /* \"#utility.yul\":766:885   */\n    tag_173:\n        /* \"#utility.yul\":924:925   */\n      0x00\n        /* \"#utility.yul\":949:1002   */\n      tag_175\n        /* \"#utility.yul\":994:1001   */\n      dup5\n        /* \"#utility.yul\":985:991   */\n      dup3\n        /* \"#utility.yul\":974:983   */\n      dup6\n        /* \"#utility.yul\":970:992   */\n      add\n        /* \"#utility.yul\":949:1002   */\n      tag_136\n      jump\t// in\n    tag_175:\n        /* \"#utility.yul\":939:1002   */\n      swap2\n      pop\n        /* \"#utility.yul\":895:1012   */\n      pop\n        /* \"#utility.yul\":690:1019   */\n      swap3\n      swap2\n      pop\n      pop\n      jump\t// out\n        /* \"#utility.yul\":1025:1174   */\n    tag_137:\n        /* \"#utility.yul\":1061:1068   */\n      0x00\n        /* \"#utility.yul\":1101:1167   */\n      0xff00000000000000000000000000000000000000000000000000000000000000\n        /* \"#utility.yul\":1094:1099   */\n      dup3\n        /* \"#utility.yul\":1090:1168   */\n      and\n        /* \"#utility.yul\":1079:1168   */\n      swap1\n      pop\n        /* \"#utility.yul\":1025:1174   */\n      swap2\n      swap1\n      pop\n      jump\t// out\n        /* \"#utility.yul\":1180:1295   */\n    tag_138:\n        /* \"#utility.yul\":1265:1288   */\n      tag_178\n        /* \"#utility.yul\":1282:1287   */\n      dup2\n        /* \"#utility.yul\":1265:1288   */\n      tag_137\n      jump\t// in\n    tag_178:\n        /* \"#utility.yul\":1260:1263   */\n      dup3\n        /* \"#utility.yul\":1253:1289   */\n      mstore\n        /* \"#utility.yul\":1180:1295   */\n      pop\n      pop\n      jump\t// out\n        /* \"#utility.yul\":1301:1519   */\n    tag_21:\n        /* \"#utility.yul\":1392:1396   */\n      0x00\n        /* \"#utility.yul\":1430:1432   */\n      0x20\n        /* \"#utility.yul\":1419:1428   */\n      dup3\n        /* \"#utility.yul\":1415:1433   */\n      add\n        /* \"#utility.yul\":1407:1433   */\n      swap1\n      pop\n        /* \"#utility.yul\":1443:1512   */\n      tag_180\n        /* \"#utility.yul\":1509:1510   */\n      0x00\n        /* \"#utility.yul\":1498:1507   */\n      dup4\n        /* \"#utility.yul\":1494:1511   */\n      add\n        /* \"#utility.yul\":1485:1491   */\n      dup5\n        /* \"#utility.yul\":1443:1512   */\n      tag_138\n      jump\t// in\n    tag_180:\n        /* \"#utility.yul\":1301:1519   */\n      swap3\n      swap2\n      pop\n      pop\n      jump\t// out\n        /* \"#utility.yul\":1525:1643   */\n    tag_139:\n        /* \"#utility.yul\":1612:1636   */\n      tag_182\n        /* \"#utility.yul\":1630:1635   */\n      dup2\n        /* \"#utility.yul\":1612:1636   */\n      tag_134\n      jump\t// in\n    tag_182:\n        /* \"#utility.yul\":1607:1610   */\n      dup3\n        /* \"#utility.yul\":1600:1637   */\n      mstore\n        /* \"#utility.yul\":1525:1643   */\n      pop\n      pop\n      jump\t// out\n        /* \"#utility.yul\":1649:1871   */\n    tag_26:\n        /* \"#utility.yul\":1742:1746   */\n      0x00\n        /* \"#utility.yul\":1780:1782   */\n      0x20\n        /* \"#utility.yul\":1769:1778   */\n      dup3\n        /* \"#utility.yul\":1765:1783   */\n      add\n        /* \"#utility.yul\":1757:1783   */\n      swap1\n      pop\n        /* \"#utility.yul\":1793:1864   */\n      tag_184\n        /* \"#utility.yul\":1861:1862   */\n      0x00\n        /* \"#utility.yul\":1850:1859   */\n      dup4\n        /* \"#utility.yul\":1846:1863   */\n      add\n        /* \"#utility.yul\":1837:1843   */\n      dup5\n        /* \"#utility.yul\":1793:1864   */\n      tag_139\n      jump\t// in\n    tag_184:\n        /* \"#utility.yul\":1649:1871   */\n      swap3\n      swap2\n      pop\n      pop\n      jump\t// out\n        /* \"#utility.yul\":1877:1975   */\n    tag_140:\n        /* \"#utility.yul\":1928:1934   */\n      0x00\n        /* \"#utility.yul\":1962:1967   */\n      dup2\n        /* \"#utility.yul\":1956:1968   */\n      mload\n        /* \"#utility.yul\":1946:1968   */\n      swap1\n      pop\n        /* \"#utility.yul\":1877:1975   */\n      swap2\n      swap1\n      pop\n      jump\t// out\n        /* \"#utility.yul\":1981:2149   */\n    tag_141:\n        /* \"#utility.yul\":2064:2075   */\n      0x00\n        /* \"#utility.yul\":2098:2104   */\n      dup3\n        /* \"#utility.yul\":2093:2096   */\n      dup3\n        /* \"#utility.yul\":2086:2105   */\n      mstore\n        /* \"#utility.yul\":2138:2142   */\n      0x20\n        /* \"#utility.yul\":2133:2136   */\n      dup3\n        /* \"#utility.yul\":2129:2143   */\n      add\n        /* \"#utility.yul\":2114:2143   */\n      swap1\n      pop\n        /* \"#utility.yul\":1981:2149   */\n      swap3\n      swap2\n      pop\n      pop\n      jump\t// out\n        /* \"#utility.yul\":2155:2294   */\n    tag_142:\n        /* \"#utility.yul\":2244:2250   */\n      dup3\n        /* \"#utility.yul\":2239:2242   */\n      dup2\n        /* \"#utility.yul\":2234:2237   */\n      dup4\n        /* \"#utility.yul\":2228:2251   */\n      mcopy\n        /* \"#utility.yul\":2285:2286   */\n      0x00\n        /* \"#utility.yul\":2276:2282   */\n      dup4\n        /* \"#utility.yul\":2271:2274   */\n      dup4\n        /* \"#utility.yul\":2267:2283   */\n      add\n        /* \"#utility.yul\":2260:2287   */\n      mstore\n        /* \"#utility.yul\":2155:2294   */\n      pop\n      pop\n      pop\n      jump\t// out\n        /* \"#utility.yul\":2300:2402   */\n    tag_143:\n        /* \"#utility.yul\":2341:2347   */\n      0x00\n        /* \"#utility.yul\":2392:2394   */\n      0x1f\n        /* \"#utility.yul\":2388:2395   */\n      not\n        /* \"#utility.yul\":2383:2385   */\n      0x1f\n        /* \"#utility.yul\":2376:2381   */\n      dup4\n        /* \"#utility.yul\":2372:2386   */\n      add\n        /* \"#utility.yul\":2368:2396   */\n      and\n        /* \"#utility.yul\":2358:2396   */\n      swap1\n      pop\n        /* \"#utility.yul\":2300:2402   */\n      swap2\n      swap1\n      pop\n      jump\t// out\n        /* \"#utility.yul\":2408:2781   */\n    tag_144:\n        /* \"#utility.yul\":2494:2497   */\n      0x00\n        /* \"#utility.yul\":2522:2560   */\n      tag_190\n        /* \"#utility.yul\":2554:2559   */\n      dup3\n        /* \"#utility.yul\":2522:2560   */\n      tag_140\n      jump\t// in\n    tag_190:\n        /* \"#utility.yul\":2576:2646   */\n      tag_191\n        /* \"#utility.yul\":2639:2645   */\n      dup2\n        /* \"#utility.yul\":2634:2637   */\n      dup6\n        /* \"#utility.yul\":2576:2646   */\n      tag_141\n      jump\t// in\n    tag_191:\n        /* \"#utility.yul\":2569:2646   */\n      swap4\n      pop\n        /* \"#utility.yul\":2655:2720   */\n      tag_192\n        /* \"#utility.yul\":2713:2719   */\n      dup2\n        /* \"#utility.yul\":2708:2711   */\n      dup6\n        /* \"#utility.yul\":2701:2705   */\n      0x20\n        /* \"#utility.yul\":2694:2699   */\n      dup7\n        /* \"#utility.yul\":2690:2706   */\n      add\n        /* \"#utility.yul\":2655:2720   */\n      tag_142\n      jump\t// in\n    tag_192:\n        /* \"#utility.yul\":2745:2774   */\n      tag_193\n        /* \"#utility.yul\":2767:2773   */\n      dup2\n        /* \"#utility.yul\":2745:2774   */\n      tag_143\n      jump\t// in\n    tag_193:\n        /* \"#utility.yul\":2740:2743   */\n      dup5\n        /* \"#utility.yul\":2736:2775   */\n      add\n        /* \"#utility.yul\":2729:2775   */\n      swap2\n      pop\n        /* \"#utility.yul\":2498:2781   */\n      pop\n        /* \"#utility.yul\":2408:2781   */\n      swap3\n      swap2\n      pop\n      pop\n      jump\t// out\n        /* \"#utility.yul\":2787:3096   */\n    tag_30:\n        /* \"#utility.yul\":2898:2902   */\n      0x00\n        /* \"#utility.yul\":2936:2938   */\n      0x20\n        /* \"#utility.yul\":2925:2934   */\n      dup3\n        /* \"#utility.yul\":2921:2939   */\n      add\n        /* \"#utility.yul\":2913:2939   */\n      swap1\n      pop\n        /* \"#utility.yul\":2985:2994   */\n      dup2\n        /* \"#utility.yul\":2979:2983   */\n      dup2\n        /* \"#utility.yul\":2975:2995   */\n      sub\n        /* \"#utility.yul\":2971:2972   */\n      0x00\n        /* \"#utility.yul\":2960:2969   */\n      dup4\n        /* \"#utility.yul\":2956:2973   */\n      add\n        /* \"#utility.yul\":2949:2996   */\n      mstore\n        /* \"#utility.yul\":3013:3089   */\n      tag_195\n        /* \"#utility.yul\":3084:3088   */\n      dup2\n        /* \"#utility.yul\":3075:3081   */\n      dup5\n        /* \"#utility.yul\":3013:3089   */\n      tag_144\n      jump\t// in\n    tag_195:\n        /* \"#utility.yul\":3005:3089   */\n      swap1\n      pop\n        /* \"#utility.yul\":2787:3096   */\n      swap3\n      swap2\n      pop\n      pop\n      jump\t// out\n        /* \"#utility.yul\":3102:3222   */\n    tag_145:\n        /* \"#utility.yul\":3174:3197   */\n      tag_197\n        /* \"#utility.yul\":3191:3196   */\n      dup2\n        /* \"#utility.yul\":3174:3197   */\n      tag_137\n      jump\t// in\n    tag_197:\n        /* \"#utility.yul\":3167:3172   */\n      dup2\n        /* \"#utility.yul\":3164:3198   */\n      eq\n        /* \"#utility.yul\":3154:3216   */\n      tag_198\n      jumpi\n        /* \"#utility.yul\":3212:3213   */\n      0x00\n        /* \"#utility.yul\":3209:3210   */\n      0x00\n        /* \"#utility.yul\":3202:3214   */\n      revert\n        /* \"#utility.yul\":3154:3216   */\n    tag_198:\n        /* \"#utility.yul\":3102:3222   */\n      pop\n      jump\t// out\n        /* \"#utility.yul\":3228:3365   */\n    tag_146:\n        /* \"#utility.yul\":3273:3278   */\n      0x00\n        /* \"#utility.yul\":3311:3317   */\n      dup2\n        /* \"#utility.yul\":3298:3318   */\n      calldataload\n        /* \"#utility.yul\":3289:3318   */\n      swap1\n      pop\n        /* \"#utility.yul\":3327:3359   */\n      tag_200\n        /* \"#utility.yul\":3353:3358   */\n      dup2\n        /* \"#utility.yul\":3327:3359   */\n      tag_145\n      jump\t// in\n    tag_200:\n        /* \"#utility.yul\":3228:3365   */\n      swap3\n      swap2\n      pop\n      pop\n      jump\t// out\n        /* \"#utility.yul\":3371:3698   */\n    tag_43:\n        /* \"#utility.yul\":3429:3435   */\n      0x00\n        /* \"#utility.yul\":3478:3480   */\n      0x20\n        /* \"#utility.yul\":3466:3475   */\n      dup3\n        /* \"#utility.yul\":3457:3464   */\n      dup5\n        /* \"#utility.yul\":3453:3476   */\n      sub\n        /* \"#utility.yul\":3449:3481   */\n      slt\n        /* \"#utility.yul\":3446:3565   */\n      iszero\n      tag_202\n      jumpi\n        /* \"#utility.yul\":3484:3563   */\n      tag_203\n      tag_132\n      jump\t// in\n    tag_203:\n        /* \"#utility.yul\":3446:3565   */\n    tag_202:\n        /* \"#utility.yul\":3604:3605   */\n      0x00\n        /* \"#utility.yul\":3629:3681   */\n      tag_204\n        /* \"#utility.yul\":3673:3680   */\n      dup5\n        /* \"#utility.yul\":3664:3670   */\n      dup3\n        /* \"#utility.yul\":3653:3662   */\n      dup6\n        /* \"#utility.yul\":3649:3671   */\n      add\n        /* \"#utility.yul\":3629:3681   */\n      tag_146\n      jump\t// in\n    tag_204:\n        /* \"#utility.yul\":3619:3681   */\n      swap2\n      pop\n        /* \"#utility.yul\":3575:3691   */\n      pop\n        /* \"#utility.yul\":3371:3698   */\n      swap3\n      swap2\n      pop\n      pop\n      jump\t// out\n        /* \"#utility.yul\":3704:3818   */\n    tag_147:\n        /* \"#utility.yul\":3771:3777   */\n      0x00\n        /* \"#utility.yul\":3805:3810   */\n      dup2\n        /* \"#utility.yul\":3799:3811   */\n      mload\n        /* \"#utility.yul\":3789:3811   */\n      swap1\n      pop\n        /* \"#utility.yul\":3704:3818   */\n      swap2\n      swap1\n      pop\n      jump\t// out\n        /* \"#utility.yul\":3824:4008   */\n    tag_148:\n        /* \"#utility.yul\":3923:3934   */\n      0x00\n        /* \"#utility.yul\":3957:3963   */\n      dup3\n        /* \"#utility.yul\":3952:3955   */\n      dup3\n        /* \"#utility.yul\":3945:3964   */\n      mstore\n        /* \"#utility.yul\":3997:4001   */\n      0x20\n        /* \"#utility.yul\":3992:3995   */\n      dup3\n        /* \"#utility.yul\":3988:4002   */\n      add\n        /* \"#utility.yul\":3973:4002   */\n      swap1\n      pop\n        /* \"#utility.yul\":3824:4008   */\n      swap3\n      swap2\n      pop\n      pop\n      jump\t// out\n        /* \"#utility.yul\":4014:4146   */\n    tag_149:\n        /* \"#utility.yul\":4081:4085   */\n      0x00\n        /* \"#utility.yul\":4104:4107   */\n      dup2\n        /* \"#utility.yul\":4096:4107   */\n      swap1\n      pop\n        /* \"#utility.yul\":4134:4138   */\n      0x20\n        /* \"#utility.yul\":4129:4132   */\n      dup3\n        /* \"#utility.yul\":4125:4139   */\n      add\n        /* \"#utility.yul\":4117:4139   */\n      swap1\n      pop\n        /* \"#utility.yul\":4014:4146   */\n      swap2\n      swap1\n      pop\n      jump\t// out\n        /* \"#utility.yul\":4152:4260   */\n    tag_150:\n        /* \"#utility.yul\":4229:4253   */\n      tag_209\n        /* \"#utility.yul\":4247:4252   */\n      dup2\n        /* \"#utility.yul\":4229:4253   */\n      tag_134\n      jump\t// in\n    tag_209:\n        /* \"#utility.yul\":4224:4227   */\n      dup3\n        /* \"#utility.yul\":4217:4254   */\n      mstore\n        /* \"#utility.yul\":4152:4260   */\n      pop\n      pop\n      jump\t// out\n        /* \"#utility.yul\":4266:4445   */\n    tag_151:\n        /* \"#utility.yul\":4335:4345   */\n      0x00\n        /* \"#utility.yul\":4356:4402   */\n      tag_211\n        /* \"#utility.yul\":4398:4401   */\n      dup4\n        /* \"#utility.yul\":4390:4396   */\n      dup4\n        /* \"#utility.yul\":4356:4402   */\n      tag_150\n      jump\t// in\n    tag_211:\n        /* \"#utility.yul\":4434:4438   */\n      0x20\n        /* \"#utility.yul\":4429:4432   */\n      dup4\n        /* \"#utility.yul\":4425:4439   */\n      add\n        /* \"#utility.yul\":4411:4439   */\n      swap1\n      pop\n        /* \"#utility.yul\":4266:4445   */\n      swap3\n      swap2\n      pop\n      pop\n      jump\t// out\n        /* \"#utility.yul\":4451:4564   */\n    tag_152:\n        /* \"#utility.yul\":4521:4525   */\n      0x00\n        /* \"#utility.yul\":4553:4557   */\n      0x20\n        /* \"#utility.yul\":4548:4551   */\n      dup3\n        /* \"#utility.yul\":4544:4558   */\n      add\n        /* \"#utility.yul\":4536:4558   */\n      swap1\n      pop\n        /* \"#utility.yul\":4451:4564   */\n      swap2\n      swap1\n      pop\n      jump\t// out\n        /* \"#utility.yul\":4600:5332   */\n    tag_153:\n        /* \"#utility.yul\":4719:4722   */\n      0x00\n        /* \"#utility.yul\":4748:4802   */\n      tag_214\n        /* \"#utility.yul\":4796:4801   */\n      dup3\n        /* \"#utility.yul\":4748:4802   */\n      tag_147\n      jump\t// in\n    tag_214:\n        /* \"#utility.yul\":4818:4904   */\n      tag_215\n        /* \"#utility.yul\":4897:4903   */\n      dup2\n        /* \"#utility.yul\":4892:4895   */\n      dup6\n        /* \"#utility.yul\":4818:4904   */\n      tag_148\n      jump\t// in\n    tag_215:\n        /* \"#utility.yul\":4811:4904   */\n      swap4\n      pop\n        /* \"#utility.yul\":4928:4984   */\n      tag_216\n        /* \"#utility.yul\":4978:4983   */\n      dup4\n        /* \"#utility.yul\":4928:4984   */\n      tag_149\n      jump\t// in\n    tag_216:\n        /* \"#utility.yul\":5007:5014   */\n      dup1\n        /* \"#utility.yul\":5038:5039   */\n      0x00\n        /* \"#utility.yul\":5023:5307   */\n    tag_217:\n        /* \"#utility.yul\":5048:5054   */\n      dup4\n        /* \"#utility.yul\":5045:5046   */\n      dup2\n        /* \"#utility.yul\":5042:5055   */\n      lt\n        /* \"#utility.yul\":5023:5307   */\n      iszero\n      tag_219\n      jumpi\n        /* \"#utility.yul\":5124:5130   */\n      dup2\n        /* \"#utility.yul\":5118:5131   */\n      mload\n        /* \"#utility.yul\":5151:5214   */\n      tag_220\n        /* \"#utility.yul\":5210:5213   */\n      dup9\n        /* \"#utility.yul\":5195:5208   */\n      dup3\n        /* \"#utility.yul\":5151:5214   */\n      tag_151\n      jump\t// in\n    tag_220:\n        /* \"#utility.yul\":5144:5214   */\n      swap8\n      pop\n        /* \"#utility.yul\":5237:5297   */\n      tag_221\n        /* \"#utility.yul\":5290:5296   */\n      dup4\n        /* \"#utility.yul\":5237:5297   */\n      tag_152\n      jump\t// in\n    tag_221:\n        /* \"#utility.yul\":5227:5297   */\n      swap3\n      pop\n        /* \"#utility.yul\":5083:5307   */\n      pop\n        /* \"#utility.yul\":5070:5071   */\n      0x01\n        /* \"#utility.yul\":5067:5068   */\n      dup2\n        /* \"#utility.yul\":5063:5072   */\n      add\n        /* \"#utility.yul\":5058:5072   */\n      swap1\n      pop\n        /* \"#utility.yul\":5023:5307   */\n      jump(tag_217)\n    tag_219:\n        /* \"#utility.yul\":5027:5041   */\n      pop\n        /* \"#utility.yul\":5323:5326   */\n      dup6\n        /* \"#utility.yul\":5316:5326   */\n      swap4\n      pop\n        /* \"#utility.yul\":4724:5332   */\n      pop\n      pop\n      pop\n        /* \"#utility.yul\":4600:5332   */\n      swap3\n      swap2\n      pop\n      pop\n      jump\t// out\n        /* \"#utility.yul\":5338:5711   */\n    tag_49:\n        /* \"#utility.yul\":5481:5485   */\n      0x00\n        /* \"#utility.yul\":5519:5521   */\n      0x20\n        /* \"#utility.yul\":5508:5517   */\n      dup3\n        /* \"#utility.yul\":5504:5522   */\n      add\n        /* \"#utility.yul\":5496:5522   */\n      swap1\n      pop\n        /* \"#utility.yul\":5568:5577   */\n      dup2\n        /* \"#utility.yul\":5562:5566   */\n      dup2\n        /* \"#utility.yul\":5558:5578   */\n      sub\n        /* \"#utility.yul\":5554:5555   */\n      0x00\n        /* \"#utility.yul\":5543:5552   */\n      dup4\n        /* \"#utility.yul\":5539:5556   */\n      add\n        /* \"#utility.yul\":5532:5579   */\n      mstore\n        /* \"#utility.yul\":5596:5704   */\n      tag_223\n        /* \"#utility.yul\":5699:5703   */\n      dup2\n        /* \"#utility.yul\":5690:5696   */\n      dup5\n        /* \"#utility.yul\":5596:5704   */\n      tag_153\n      jump\t// in\n    tag_223:\n        /* \"#utility.yul\":5588:5704   */\n      swap1\n      pop\n        /* \"#utility.yul\":5338:5711   */\n      swap3\n      swap2\n      pop\n      pop\n      jump\t// out\n        /* \"#utility.yul\":5717:5834   */\n    tag_154:\n        /* \"#utility.yul\":5826:5827   */\n      0x00\n        /* \"#utility.yul\":5823:5824   */\n      0x00\n        /* \"#utility.yul\":5816:5828   */\n      revert\n        /* \"#utility.yul\":5840:5957   */\n    tag_155:\n        /* \"#utility.yul\":5949:5950   */\n      0x00\n        /* \"#utility.yul\":5946:5947   */\n      0x00\n        /* \"#utility.yul\":5939:5951   */\n      revert\n        /* \"#utility.yul\":5963:6080   */\n    tag_156:\n        /* \"#utility.yul\":6072:6073   */\n      0x00\n        /* \"#utility.yul\":6069:6070   */\n      0x00\n        /* \"#utility.yul\":6062:6074   */\n      revert\n        /* \"#utility.yul\":6099:6651   */\n    tag_157:\n        /* \"#utility.yul\":6156:6164   */\n      0x00\n        /* \"#utility.yul\":6166:6172   */\n      0x00\n        /* \"#utility.yul\":6216:6219   */\n      dup4\n        /* \"#utility.yul\":6209:6213   */\n      0x1f\n        /* \"#utility.yul\":6201:6207   */\n      dup5\n        /* \"#utility.yul\":6197:6214   */\n      add\n        /* \"#utility.yul\":6193:6220   */\n      slt\n        /* \"#utility.yul\":6183:6305   */\n      tag_228\n      jumpi\n        /* \"#utility.yul\":6224:6303   */\n      tag_229\n      tag_154\n      jump\t// in\n    tag_229:\n        /* \"#utility.yul\":6183:6305   */\n    tag_228:\n        /* \"#utility.yul\":6337:6343   */\n      dup3\n        /* \"#utility.yul\":6324:6344   */\n      calldataload\n        /* \"#utility.yul\":6314:6344   */\n      swap1\n      pop\n        /* \"#utility.yul\":6367:6385   */\n      0xffffffffffffffff\n        /* \"#utility.yul\":6359:6365   */\n      dup2\n        /* \"#utility.yul\":6356:6386   */\n      gt\n        /* \"#utility.yul\":6353:6470   */\n      iszero\n      tag_230\n      jumpi\n        /* \"#utility.yul\":6389:6468   */\n      tag_231\n      tag_155\n      jump\t// in\n    tag_231:\n        /* \"#utility.yul\":6353:6470   */\n    tag_230:\n        /* \"#utility.yul\":6503:6507   */\n      0x20\n        /* \"#utility.yul\":6495:6501   */\n      dup4\n        /* \"#utility.yul\":6491:6508   */\n      add\n        /* \"#utility.yul\":6479:6508   */\n      swap2\n      pop\n        /* \"#utility.yul\":6557:6560   */\n      dup4\n        /* \"#utility.yul\":6549:6553   */\n      0x01\n        /* \"#utility.yul\":6541:6547   */\n      dup3\n        /* \"#utility.yul\":6537:6554   */\n      mul\n        /* \"#utility.yul\":6527:6535   */\n      dup4\n        /* \"#utility.yul\":6523:6555   */\n      add\n        /* \"#utility.yul\":6520:6561   */\n      gt\n        /* \"#utility.yul\":6517:6645   */\n      iszero\n      tag_232\n      jumpi\n        /* \"#utility.yul\":6564:6643   */\n      tag_233\n      tag_156\n      jump\t// in\n    tag_233:\n        /* \"#utility.yul\":6517:6645   */\n    tag_232:\n        /* \"#utility.yul\":6099:6651   */\n      swap3\n      pop\n      swap3\n      swap1\n      pop\n      jump\t// out\n        /* \"#utility.yul\":6657:7474   */\n    tag_52:\n        /* \"#utility.yul\":6745:6751   */\n      0x00\n        /* \"#utility.yul\":6753:6759   */\n      0x00\n        /* \"#utility.yul\":6761:6767   */\n      0x00\n        /* \"#utility.yul\":6769:6775   */\n      0x00\n        /* \"#utility.yul\":6818:6820   */\n      0x60\n        /* \"#utility.yul\":6806:6815   */\n      dup6\n        /* \"#utility.yul\":6797:6804   */\n      dup8\n        /* \"#utility.yul\":6793:6816   */\n      sub\n        /* \"#utility.yul\":6789:6821   */\n      slt\n        /* \"#utility.yul\":6786:6905   */\n      iszero\n      tag_235\n      jumpi\n        /* \"#utility.yul\":6824:6903   */\n      tag_236\n      tag_132\n      jump\t// in\n    tag_236:\n        /* \"#utility.yul\":6786:6905   */\n    tag_235:\n        /* \"#utility.yul\":6972:6973   */\n      0x00\n        /* \"#utility.yul\":6961:6970   */\n      dup6\n        /* \"#utility.yul\":6957:6974   */\n      add\n        /* \"#utility.yul\":6944:6975   */\n      calldataload\n        /* \"#utility.yul\":7002:7020   */\n      0xffffffffffffffff\n        /* \"#utility.yul\":6994:7000   */\n      dup2\n        /* \"#utility.yul\":6991:7021   */\n      gt\n        /* \"#utility.yul\":6988:7105   */\n      iszero\n      tag_237\n      jumpi\n        /* \"#utility.yul\":7024:7103   */\n      tag_238\n      tag_133\n      jump\t// in\n    tag_238:\n        /* \"#utility.yul\":6988:7105   */\n    tag_237:\n        /* \"#utility.yul\":7137:7201   */\n      tag_239\n        /* \"#utility.yul\":7193:7200   */\n      dup8\n        /* \"#utility.yul\":7184:7190   */\n      dup3\n        /* \"#utility.yul\":7173:7182   */\n      dup9\n        /* \"#utility.yul\":7169:7191   */\n      add\n        /* \"#utility.yul\":7137:7201   */\n      tag_157\n      jump\t// in\n    tag_239:\n        /* \"#utility.yul\":7119:7201   */\n      swap5\n      pop\n      swap5\n      pop\n        /* \"#utility.yul\":6915:7211   */\n      pop\n        /* \"#utility.yul\":7250:7252   */\n      0x20\n        /* \"#utility.yul\":7276:7329   */\n      tag_240\n        /* \"#utility.yul\":7321:7328   */\n      dup8\n        /* \"#utility.yul\":7312:7318   */\n      dup3\n        /* \"#utility.yul\":7301:7310   */\n      dup9\n        /* \"#utility.yul\":7297:7319   */\n      add\n        /* \"#utility.yul\":7276:7329   */\n      tag_136\n      jump\t// in\n    tag_240:\n        /* \"#utility.yul\":7266:7329   */\n      swap3\n      pop\n        /* \"#utility.yul\":7221:7339   */\n      pop\n        /* \"#utility.yul\":7378:7380   */\n      0x40\n        /* \"#utility.yul\":7404:7457   */\n      tag_241\n        /* \"#utility.yul\":7449:7456   */\n      dup8\n        /* \"#utility.yul\":7440:7446   */\n      dup3\n        /* \"#utility.yul\":7429:7438   */\n      dup9\n        /* \"#utility.yul\":7425:7447   */\n      add\n        /* \"#utility.yul\":7404:7457   */\n      tag_136\n      jump\t// in\n    tag_241:\n        /* \"#utility.yul\":7394:7457   */\n      swap2\n      pop\n        /* \"#utility.yul\":7349:7467   */\n      pop\n        /* \"#utility.yul\":6657:7474   */\n      swap3\n      swap6\n      swap2\n      swap5\n      pop\n      swap3\n      pop\n      jump\t// out\n        /* \"#utility.yul\":7480:7963   */\n    tag_65:\n        /* \"#utility.yul\":7651:7655   */\n      0x00\n        /* \"#utility.yul\":7689:7691   */\n      0x40\n        /* \"#utility.yul\":7678:7687   */\n      dup3\n        /* \"#utility.yul\":7674:7692   */\n      add\n        /* \"#utility.yul\":7666:7692   */\n      swap1\n      pop\n        /* \"#utility.yul\":7738:7747   */\n      dup2\n        /* \"#utility.yul\":7732:7736   */\n      dup2\n        /* \"#utility.yul\":7728:7748   */\n      sub\n        /* \"#utility.yul\":7724:7725   */\n      0x00\n        /* \"#utility.yul\":7713:7722   */\n      dup4\n        /* \"#utility.yul\":7709:7726   */\n      add\n        /* \"#utility.yul\":7702:7749   */\n      mstore\n        /* \"#utility.yul\":7766:7874   */\n      tag_243\n        /* \"#utility.yul\":7869:7873   */\n      dup2\n        /* \"#utility.yul\":7860:7866   */\n      dup6\n        /* \"#utility.yul\":7766:7874   */\n      tag_153\n      jump\t// in\n    tag_243:\n        /* \"#utility.yul\":7758:7874   */\n      swap1\n      pop\n        /* \"#utility.yul\":7884:7956   */\n      tag_244\n        /* \"#utility.yul\":7952:7954   */\n      0x20\n        /* \"#utility.yul\":7941:7950   */\n      dup4\n        /* \"#utility.yul\":7937:7955   */\n      add\n        /* \"#utility.yul\":7928:7934   */\n      dup5\n        /* \"#utility.yul\":7884:7956   */\n      tag_139\n      jump\t// in\n    tag_244:\n        /* \"#utility.yul\":7480:7963   */\n      swap4\n      swap3\n      pop\n      pop\n      pop\n      jump\t// out\n        /* \"#utility.yul\":7969:8149   */\n    tag_158:\n        /* \"#utility.yul\":8017:8094   */\n      0x4e487b7100000000000000000000000000000000000000000000000000000000\n        /* \"#utility.yul\":8014:8015   */\n      0x00\n        /* \"#utility.yul\":8007:8095   */\n      mstore\n        /* \"#utility.yul\":8114:8118   */\n      0x22\n        /* \"#utility.yul\":8111:8112   */\n      0x04\n        /* \"#utility.yul\":8104:8119   */\n      mstore\n        /* \"#utility.yul\":8138:8142   */\n      0x24\n        /* \"#utility.yul\":8135:8136   */\n      0x00\n        /* \"#utility.yul\":8128:8143   */\n      revert\n        /* \"#utility.yul\":8155:8475   */\n    tag_68:\n        /* \"#utility.yul\":8199:8205   */\n      0x00\n        /* \"#utility.yul\":8236:8237   */\n      0x02\n        /* \"#utility.yul\":8230:8234   */\n      dup3\n        /* \"#utility.yul\":8226:8238   */\n      div\n        /* \"#utility.yul\":8216:8238   */\n      swap1\n      pop\n        /* \"#utility.yul\":8283:8284   */\n      0x01\n        /* \"#utility.yul\":8277:8281   */\n      dup3\n        /* \"#utility.yul\":8273:8285   */\n      and\n        /* \"#utility.yul\":8304:8322   */\n      dup1\n        /* \"#utility.yul\":8294:8375   */\n      tag_247\n      jumpi\n        /* \"#utility.yul\":8360:8364   */\n      0x7f\n        /* \"#utility.yul\":8352:8358   */\n      dup3\n        /* \"#utility.yul\":8348:8365   */\n      and\n        /* \"#utility.yul\":8338:8365   */\n      swap2\n      pop\n        /* \"#utility.yul\":8294:8375   */\n    tag_247:\n        /* \"#utility.yul\":8422:8424   */\n      0x20\n        /* \"#utility.yul\":8414:8420   */\n      dup3\n        /* \"#utility.yul\":8411:8425   */\n      lt\n        /* \"#utility.yul\":8391:8409   */\n      dup2\n        /* \"#utility.yul\":8388:8426   */\n      sub\n        /* \"#utility.yul\":8385:8469   */\n      tag_248\n      jumpi\n        /* \"#utility.yul\":8441:8459   */\n      tag_249\n      tag_158\n      jump\t// in\n    tag_249:\n        /* \"#utility.yul\":8385:8469   */\n    tag_248:\n        /* \"#utility.yul\":8206:8475   */\n      pop\n        /* \"#utility.yul\":8155:8475   */\n      swap2\n      swap1\n      pop\n      jump\t// out\n        /* \"#utility.yul\":8481:8661   */\n    tag_71:\n        /* \"#utility.yul\":8529:8606   */\n      0x4e487b7100000000000000000000000000000000000000000000000000000000\n        /* \"#utility.yul\":8526:8527   */\n      0x00\n        /* \"#utility.yul\":8519:8607   */\n      mstore\n        /* \"#utility.yul\":8626:8630   */\n      0x32\n        /* \"#utility.yul\":8623:8624   */\n      0x04\n        /* \"#utility.yul\":8616:8631   */\n      mstore\n        /* \"#utility.yul\":8650:8654   */\n      0x24\n        /* \"#utility.yul\":8647:8648   */\n      0x00\n        /* \"#utility.yul\":8640:8655   */\n      revert\n        /* \"#utility.yul\":8667:8847   */\n    tag_159:\n        /* \"#utility.yul\":8715:8792   */\n      0x4e487b7100000000000000000000000000000000000000000000000000000000\n        /* \"#utility.yul\":8712:8713   */\n      0x00\n        /* \"#utility.yul\":8705:8793   */\n      mstore\n        /* \"#utility.yul\":8812:8816   */\n      0x11\n        /* \"#utility.yul\":8809:8810   */\n      0x04\n        /* \"#utility.yul\":8802:8817   */\n      mstore\n        /* \"#utility.yul\":8836:8840   */\n      0x24\n        /* \"#utility.yul\":8833:8834   */\n      0x00\n        /* \"#utility.yul\":8826:8841   */\n      revert\n        /* \"#utility.yul\":8853:9044   */\n    tag_85:\n        /* \"#utility.yul\":8893:8896   */\n      0x00\n        /* \"#utility.yul\":8912:8932   */\n      tag_253\n        /* \"#utility.yul\":8930:8931   */\n      dup3\n        /* \"#utility.yul\":8912:8932   */\n      tag_134\n      jump\t// in\n    tag_253:\n        /* \"#utility.yul\":8907:8932   */\n      swap2\n      pop\n        /* \"#utility.yul\":8946:8966   */\n      tag_254\n        /* \"#utility.yul\":8964:8965   */\n      dup4\n        /* \"#utility.yul\":8946:8966   */\n      tag_134\n      jump\t// in\n    tag_254:\n        /* \"#utility.yul\":8941:8966   */\n      swap3\n      pop\n        /* \"#utility.yul\":8989:8990   */\n      dup3\n        /* \"#utility.yul\":8986:8987   */\n      dup3\n        /* \"#utility.yul\":8982:8991   */\n      add\n        /* \"#utility.yul\":8975:8991   */\n      swap1\n      pop\n        /* \"#utility.yul\":9010:9013   */\n      dup1\n        /* \"#utility.yul\":9007:9008   */\n      dup3\n        /* \"#utility.yul\":9004:9014   */\n      gt\n        /* \"#utility.yul\":9001:9037   */\n      iszero\n      tag_255\n      jumpi\n        /* \"#utility.yul\":9017:9035   */\n      tag_256\n      tag_159\n      jump\t// in\n    tag_256:\n        /* \"#utility.yul\":9001:9037   */\n    tag_255:\n        /* \"#utility.yul\":8853:9044   */\n      swap3\n      swap2\n      pop\n      pop\n      jump\t// out\n        /* \"#utility.yul\":9050:9167   */\n    tag_160:\n        /* \"#utility.yul\":9159:9160   */\n      0x00\n        /* \"#utility.yul\":9156:9157   */\n      0x00\n        /* \"#utility.yul\":9149:9161   */\n      revert\n        /* \"#utility.yul\":9173:9290   */\n    tag_161:\n        /* \"#utility.yul\":9282:9283   */\n      0x00\n        /* \"#utility.yul\":9279:9280   */\n      0x00\n        /* \"#utility.yul\":9272:9284   */\n      revert\n        /* \"#utility.yul\":9296:9765   */\n    tag_119:\n        /* \"#utility.yul\":9401:9410   */\n      0x00\n        /* \"#utility.yul\":9412:9421   */\n      0x00\n        /* \"#utility.yul\":9450:9458   */\n      dup6\n        /* \"#utility.yul\":9438:9448   */\n      dup6\n        /* \"#utility.yul\":9435:9459   */\n      gt\n        /* \"#utility.yul\":9432:9543   */\n      iszero\n      tag_260\n      jumpi\n        /* \"#utility.yul\":9462:9541   */\n      tag_261\n      tag_160\n      jump\t// in\n    tag_261:\n        /* \"#utility.yul\":9432:9543   */\n    tag_260:\n        /* \"#utility.yul\":9568:9574   */\n      dup4\n        /* \"#utility.yul\":9558:9566   */\n      dup7\n        /* \"#utility.yul\":9555:9575   */\n      gt\n        /* \"#utility.yul\":9552:9659   */\n      iszero\n      tag_262\n      jumpi\n        /* \"#utility.yul\":9578:9657   */\n      tag_263\n      tag_161\n      jump\t// in\n    tag_263:\n        /* \"#utility.yul\":9552:9659   */\n    tag_262:\n        /* \"#utility.yul\":9709:9710   */\n      0x01\n        /* \"#utility.yul\":9697:9707   */\n      dup6\n        /* \"#utility.yul\":9693:9711   */\n      mul\n        /* \"#utility.yul\":9685:9691   */\n      dup4\n        /* \"#utility.yul\":9681:9712   */\n      add\n        /* \"#utility.yul\":9668:9712   */\n      swap2\n      pop\n        /* \"#utility.yul\":9748:9758   */\n      dup5\n        /* \"#utility.yul\":9738:9746   */\n      dup7\n        /* \"#utility.yul\":9734:9759   */\n      sub\n        /* \"#utility.yul\":9721:9759   */\n      swap1\n      pop\n        /* \"#utility.yul\":9296:9765   */\n      swap5\n      pop\n      swap5\n      swap3\n      pop\n      pop\n      pop\n      jump\t// out\n        /* \"#utility.yul\":9771:10004   */\n    tag_125:\n        /* \"#utility.yul\":9810:9813   */\n      0x00\n        /* \"#utility.yul\":9833:9857   */\n      tag_265\n        /* \"#utility.yul\":9851:9856   */\n      dup3\n        /* \"#utility.yul\":9833:9857   */\n      tag_134\n      jump\t// in\n    tag_265:\n        /* \"#utility.yul\":9824:9857   */\n      swap2\n      pop\n        /* \"#utility.yul\":9879:9945   */\n      0xffffffffffffffffffffffffffffffffffffffffffffffffffffffffffffffff\n        /* \"#utility.yul\":9872:9877   */\n      dup3\n        /* \"#utility.yul\":9869:9946   */\n      sub\n        /* \"#utility.yul\":9866:9969   */\n      tag_266\n      jumpi\n        /* \"#utility.yul\":9949:9967   */\n      tag_267\n      tag_159\n      jump\t// in\n    tag_267:\n        /* \"#utility.yul\":9866:9969   */\n    tag_266:\n        /* \"#utility.yul\":9996:9997   */\n      0x01\n        /* \"#utility.yul\":9989:9994   */\n      dup3\n        /* \"#utility.yul\":9985:9998   */\n      add\n        /* \"#utility.yul\":9978:9998   */\n      swap1\n      pop\n        /* \"#utility.yul\":9771:10004   */\n      swap2\n      swap1\n      pop\n      jump\t// out\n\n    auxdata: 0xa26469706673582212207a668a5fb3e331ec2af21ba161898bfc73674a53076d5c9191d5d050bf49662164736f6c634300081e0033\n}\n",
				"bytecode": {
					"linkReferences": {},
					"object": "60806040526040518060600160405280600160ff168152602001600260ff168152602001600360ff16815250600190600361003b929190610194565b50600667ffffffffffffffff8111156100575761005661024a565b5b6040519080825280602002602001820160405280156100855781602001602082028036833780820191505090505b506002908051906020019061009b9291906101e4565b506040518060400160405280600581526020017f6162632222000000000000000000000000000000000000000000000000000000815250600390816100e09190610487565b50600a67ffffffffffffffff8111156100fc576100fb61024a565b5b6040519080825280601f01601f19166020018201604052801561012e5781602001600182028036833780820191505090505b506004908161013d9190610560565b506040518060400160405280600c81526020017f54696e7958696f6e67e7868a0000000000000000000000000000000000000000815250600690816101829190610687565b5034801561018e575f5ffd5b50610756565b828054828255905f5260205f209081019282156101d3579160200282015b828111156101d2578251829060ff169055916020019190600101906101b2565b5b5090506101e0919061022f565b5090565b828054828255905f5260205f2090810192821561021e579160200282015b8281111561021d578251825591602001919060010190610202565b5b50905061022b919061022f565b5090565b5b80821115610246575f815f905550600101610230565b5090565b7f4e487b71000000000000000000000000000000000000000000000000000000005f52604160045260245ffd5b5f81519050919050565b7f4e487b71000000000000000000000000000000000000000000000000000000005f52602260045260245ffd5b5f60028204905060018216806102c557607f821691505b6020821081036102d8576102d7610281565b5b50919050565b5f819050815f5260205f209050919050565b5f6020601f8301049050919050565b5f82821b905092915050565b5f6008830261033a7fffffffffffffffffffffffffffffffffffffffffffffffffffffffffffffffff826102ff565b61034486836102ff565b95508019841693508086168417925050509392505050565b5f819050919050565b5f819050919050565b5f61038861038361037e8461035c565b610365565b61035c565b9050919050565b5f819050919050565b6103a18361036e565b6103b56103ad8261038f565b84845461030b565b825550505050565b5f5f905090565b6103cc6103bd565b6103d7818484610398565b505050565b5b818110156103fa576103ef5f826103c4565b6001810190506103dd565b5050565b601f82111561043f57610410816102de565b610419846102f0565b81016020851015610428578190505b61043c610434856102f0565b8301826103dc565b50505b505050565b5f82821c905092915050565b5f61045f5f1984600802610444565b1980831691505092915050565b5f6104778383610450565b9150826002028217905092915050565b61049082610277565b67ffffffffffffffff8111156104a9576104a861024a565b5b6104b382546102ae565b6104be8282856103fe565b5f60209050601f8311600181146104ef575f84156104dd578287015190505b6104e7858261046c565b86555061054e565b601f1984166104fd866102de565b5f5b82811015610524578489015182556001820191506020850194506020810190506104ff565b86831015610541578489015161053d601f891682610450565b8355505b6001600288020188555050505b505050505050565b5f81519050919050565b61056982610556565b67ffffffffffffffff8111156105825761058161024a565b5b61058c82546102ae565b6105978282856103fe565b5f60209050601f8311600181146105c8575f84156105b6578287015190505b6105c0858261046c565b865550610627565b601f1984166105d6866102de565b5f5b828110156105fd578489015182556001820191506020850194506020810190506105d8565b8683101561061a5784890151610616601f891682610450565b8355505b6001600288020188555050505b505050505050565b5f819050815f5260205f209050919050565b601f821115610682576106538161062f565b61065c846102f0565b8101602085101561066b578190505b61067f610677856102f0565b8301826103dc565b50505b505050565b61069082610277565b67ffffffffffffffff8111156106a9576106a861024a565b5b6106b382546102ae565b6106be828285610641565b5f60209050601f8311600181146106ef575f84156106dd578287015190505b6106e7858261046c565b86555061074e565b601f1984166106fd8661062f565b5f5b82811015610724578489015182556001820191506020850194506020810190506106ff565b86831015610741578489015161073d601f891682610450565b8355505b6001600288020188555050505b505050505050565b610ca2806107635f395ff3fe608060405234801561000f575f5ffd5b50600436106100b2575f3560e01c806383b4b42b1161006f57806383b4b42b146101a05780638dc05b87146101d0578063a5650466146101ee578063c075ce781461021e578063c4c389011461023c578063e01a58c81461026c576100b2565b806336f77991146100b65780634262ee4b146100e65780635478a4dc146101165780636484454b1461013457806368beab3f1461015257806380c9419e14610170575b5f5ffd5b6100d060048036038101906100cb9190610797565b61028b565b6040516100dd91906107fc565b60405180910390f35b61010060048036038101906100fb9190610797565b6102f3565b60405161010d9190610824565b60405180910390f35b61011e610313565b60405161012b91906108ad565b60405180910390f35b61013c61039f565b6040516101499190610824565b60405180910390f35b61015a6103d5565b60405161016791906108ad565b60405180910390f35b61018a60048036038101906101859190610797565b610461565b6040516101979190610824565b60405180910390f35b6101ba60048036038101906101b591906108f7565b610480565b6040516101c79190610824565b60405180910390f35b6101d8610566565b6040516101e591906109d9565b60405180910390f35b61020860048036038101906102039190610a5a565b61063e565b60405161021591906108ad565b60405180910390f35b61022661069e565b6040516102339190610824565b60405180910390f35b61025660048036038101906102519190610797565b6106da565b6040516102639190610824565b60405180910390f35b6102746106fa565b604051610282929190610acb565b60405180910390f35b5f600382815461029a90610b26565b81106102a9576102a8610b56565b5b8154600116156102c657905f5260205f2090602091828204019190065b9054901a7f0100000000000000000000000000000000000000000000000000000000000000029050919050565b60028181548110610302575f80fd5b905f5260205f20015f915090505481565b6003805461032090610b26565b80601f016020809104026020016040519081016040528092919081815260200182805461034c90610b26565b80156103975780601f1061036e57610100808354040283529160200191610397565b820191905f5260205f20905b81548152906001019060200180831161037a57829003601f168201915b505050505081565b5f5f5f90505f5f90505b600a8110156103cd5780826103be9190610bb0565b915080806001019150506103a9565b508091505090565b600480546103e290610b26565b80601f016020809104026020016040519081016040528092919081815260200182805461040e90610b26565b80156104595780601f1061043057610100808354040283529160200191610459565b820191905f5260205f20905b81548152906001019060200180831161043c57829003601f168201915b505050505081565b5f818154811061046f575f80fd5b905f5260205f20015f915090505481565b5f5f5f90505b6003805461049390610b26565b905081101561055c57827effffffffffffffffffffffffffffffffffffffffffffffffffffffffffffff191660038281546104cd90610b26565b81106104dc576104db610b56565b5b8154600116156104f957905f5260205f2090602091828204019190065b9054901a7f0100000000000000000000000000000000000000000000000000000000000000027effffffffffffffffffffffffffffffffffffffffffffffffffffffffffffff19160361054f5780915050610561565b8080600101915050610486565b505f90505b919050565b60605f5f90505b6001805490508110156105cf57600180828154811061058f5761058e610b56565b5b905f5260205f2001546105a29190610bb0565b600182815481106105b6576105b5610b56565b5b905f5260205f200181905550808060010191505061056d565b505f60018160018154018082558091505003905f5260205f205050600180548060200260200160405190810160405280929190818152602001828054801561063457602002820191905f5260205f20905b815481526020019060010190808311610620575b5050505050905090565b606084848490849261065293929190610beb565b8080601f0160208091040260200160405190810160405280939291908181526020018383808284375f81840152601f19601f820116905080830192505050505050509050949350505050565b5f5f5f90505f5f90505b600a8110156106d25780826106bd9190610bb0565b915080806106ca90610c25565b9150506106a8565b819250505090565b600181815481106106e9575f80fd5b905f5260205f20015f915090505481565b60605f600180805490508180548060200260200160405190810160405280929190818152602001828054801561074d57602002820191905f5260205f20905b815481526020019060010190808311610739575b50505050509150915091509091565b5f5ffd5b5f5ffd5b5f819050919050565b61077681610764565b8114610780575f5ffd5b50565b5f813590506107918161076d565b92915050565b5f602082840312156107ac576107ab61075c565b5b5f6107b984828501610783565b91505092915050565b5f7fff0000000000000000000000000000000000000000000000000000000000000082169050919050565b6107f6816107c2565b82525050565b5f60208201905061080f5f8301846107ed565b92915050565b61081e81610764565b82525050565b5f6020820190506108375f830184610815565b92915050565b5f81519050919050565b5f82825260208201905092915050565b8281835e5f83830152505050565b5f601f19601f8301169050919050565b5f61087f8261083d565b6108898185610847565b9350610899818560208601610857565b6108a281610865565b840191505092915050565b5f6020820190508181035f8301526108c58184610875565b905092915050565b6108d6816107c2565b81146108e0575f5ffd5b50565b5f813590506108f1816108cd565b92915050565b5f6020828403121561090c5761090b61075c565b5b5f610919848285016108e3565b91505092915050565b5f81519050919050565b5f82825260208201905092915050565b5f819050602082019050919050565b61095481610764565b82525050565b5f610965838361094b565b60208301905092915050565b5f602082019050919050565b5f61098782610922565b610991818561092c565b935061099c8361093c565b805f5b838110156109cc5781516109b3888261095a565b97506109be83610971565b92505060018101905061099f565b5085935050505092915050565b5f6020820190508181035f8301526109f1818461097d565b905092915050565b5f5ffd5b5f5ffd5b5f5ffd5b5f5f83601f840112610a1a57610a196109f9565b5b8235905067ffffffffffffffff811115610a3757610a366109fd565b5b602083019150836001820283011115610a5357610a52610a01565b5b9250929050565b5f5f5f5f60608587031215610a7257610a7161075c565b5b5f85013567ffffffffffffffff811115610a8f57610a8e610760565b5b610a9b87828801610a05565b94509450506020610aae87828801610783565b9250506040610abf87828801610783565b91505092959194509250565b5f6040820190508181035f830152610ae3818561097d565b9050610af26020830184610815565b9392505050565b7f4e487b71000000000000000000000000000000000000000000000000000000005f52602260045260245ffd5b5f6002820490506001821680610b3d57607f821691505b602082108103610b5057610b4f610af9565b5b50919050565b7f4e487b71000000000000000000000000000000000000000000000000000000005f52603260045260245ffd5b7f4e487b71000000000000000000000000000000000000000000000000000000005f52601160045260245ffd5b5f610bba82610764565b9150610bc583610764565b9250828201905080821115610bdd57610bdc610b83565b5b92915050565b5f5ffd5b5f5ffd5b5f5f85851115610bfe57610bfd610be3565b5b83861115610c0f57610c0e610be7565b5b6001850283019150848603905094509492505050565b5f610c2f82610764565b91507fffffffffffffffffffffffffffffffffffffffffffffffffffffffffffffffff8203610c6157610c60610b83565b5b60018201905091905056fea26469706673582212207a668a5fb3e331ec2af21ba161898bfc73674a53076d5c9191d5d050bf49662164736f6c634300081e0033",
					"opcodes": "PUSH1 0x80 PUSH1 0x40 MSTORE PUSH1 0x40 MLOAD DUP1 PUSH1 0x60 ADD PUSH1 0x40 MSTORE DUP1 PUSH1 0x1 PUSH1 0xFF AND DUP2 MSTORE PUSH1 0x20 ADD PUSH1 0x2 PUSH1 0xFF AND DUP2 MSTORE PUSH1 0x20 ADD PUSH1 0x3 PUSH1 0xFF AND DUP2 MSTORE POP PUSH1 0x1 SWAP1 PUSH1 0x3 PUSH2 0x3B SWAP3 SWAP2 SWAP1 PUSH2 0x194 JUMP JUMPDEST POP PUSH1 0x6 PUSH8 0xFFFFFFFFFFFFFFFF DUP2 GT ISZERO PUSH2 0x57 JUMPI PUSH2 0x56 PUSH2 0x24A JUMP JUMPDEST JUMPDEST PUSH1 0x40 MLOAD SWAP1 DUP1 DUP3 MSTORE DUP1 PUSH1 0x20 MUL PUSH1 0x20 ADD DUP3 ADD PUSH1 0x40 MSTORE DUP1 ISZERO PUSH2 0x85 JUMPI DUP2 PUSH1 0x20 ADD PUSH1 0x20 DUP3 MUL DUP1 CALLDATASIZE DUP4 CALLDATACOPY DUP1 DUP3 ADD SWAP2 POP POP SWAP1 POP JUMPDEST POP PUSH1 0x2 SWAP1 DUP1 MLOAD SWAP1 PUSH1 0x20 ADD SWAP1 PUSH2 0x9B SWAP3 SWAP2 SWAP1 PUSH2 0x1E4 JUMP JUMPDEST POP PUSH1 0x40 MLOAD DUP1 PUSH1 0x40 ADD PUSH1 0x40 MSTORE DUP1 PUSH1 0x5 DUP2 MSTORE PUSH1 0x20 ADD PUSH32 0x6162632222000000000000000000000000000000000000000000000000000000 DUP2 MSTORE POP PUSH1 0x3 SWAP1 DUP2 PUSH2 0xE0 SWAP2 SWAP1 PUSH2 0x487 JUMP JUMPDEST POP PUSH1 0xA PUSH8 0xFFFFFFFFFFFFFFFF DUP2 GT ISZERO PUSH2 0xFC JUMPI PUSH2 0xFB PUSH2 0x24A JUMP JUMPDEST JUMPDEST PUSH1 0x40 MLOAD SWAP1 DUP1 DUP3 MSTORE DUP1 PUSH1 0x1F ADD PUSH1 0x1F NOT AND PUSH1 0x20 ADD DUP3 ADD PUSH1 0x40 MSTORE DUP1 ISZERO PUSH2 0x12E JUMPI DUP2 PUSH1 0x20 ADD PUSH1 0x1 DUP3 MUL DUP1 CALLDATASIZE DUP4 CALLDATACOPY DUP1 DUP3 ADD SWAP2 POP POP SWAP1 POP JUMPDEST POP PUSH1 0x4 SWAP1 DUP2 PUSH2 0x13D SWAP2 SWAP1 PUSH2 0x560 JUMP JUMPDEST POP PUSH1 0x40 MLOAD DUP1 PUSH1 0x40 ADD PUSH1 0x40 MSTORE DUP1 PUSH1 0xC DUP2 MSTORE PUSH1 0x20 ADD PUSH32 0x54696E7958696F6E67E7868A0000000000000000000000000000000000000000 DUP2 MSTORE POP PUSH1 0x6 SWAP1 DUP2 PUSH2 0x182 SWAP2 SWAP1 PUSH2 0x687 JUMP JUMPDEST POP CALLVALUE DUP1 ISZERO PUSH2 0x18E JUMPI PUSH0 PUSH0 REVERT JUMPDEST POP PUSH2 0x756 JUMP JUMPDEST DUP3 DUP1 SLOAD DUP3 DUP3 SSTORE SWAP1 PUSH0 MSTORE PUSH1 0x20 PUSH0 KECCAK256 SWAP1 DUP2 ADD SWAP3 DUP3 ISZERO PUSH2 0x1D3 JUMPI SWAP2 PUSH1 0x20 MUL DUP3 ADD JUMPDEST DUP3 DUP2 GT ISZERO PUSH2 0x1D2 JUMPI DUP3 MLOAD DUP3 SWAP1 PUSH1 0xFF AND SWAP1 SSTORE SWAP2 PUSH1 0x20 ADD SWAP2 SWAP1 PUSH1 0x1 ADD SWAP1 PUSH2 0x1B2 JUMP JUMPDEST JUMPDEST POP SWAP1 POP PUSH2 0x1E0 SWAP2 SWAP1 PUSH2 0x22F JUMP JUMPDEST POP SWAP1 JUMP JUMPDEST DUP3 DUP1 SLOAD DUP3 DUP3 SSTORE SWAP1 PUSH0 MSTORE PUSH1 0x20 PUSH0 KECCAK256 SWAP1 DUP2 ADD SWAP3 DUP3 ISZERO PUSH2 0x21E JUMPI SWAP2 PUSH1 0x20 MUL DUP3 ADD JUMPDEST DUP3 DUP2 GT ISZERO PUSH2 0x21D JUMPI DUP3 MLOAD DUP3 SSTORE SWAP2 PUSH1 0x20 ADD SWAP2 SWAP1 PUSH1 0x1 ADD SWAP1 PUSH2 0x202 JUMP JUMPDEST JUMPDEST POP SWAP1 POP PUSH2 0x22B SWAP2 SWAP1 PUSH2 0x22F JUMP JUMPDEST POP SWAP1 JUMP JUMPDEST JUMPDEST DUP1 DUP3 GT ISZERO PUSH2 0x246 JUMPI PUSH0 DUP2 PUSH0 SWAP1 SSTORE POP PUSH1 0x1 ADD PUSH2 0x230 JUMP JUMPDEST POP SWAP1 JUMP JUMPDEST PUSH32 0x4E487B7100000000000000000000000000000000000000000000000000000000 PUSH0 MSTORE PUSH1 0x41 PUSH1 0x4 MSTORE PUSH1 0x24 PUSH0 REVERT JUMPDEST PUSH0 DUP2 MLOAD SWAP1 POP SWAP2 SWAP1 POP JUMP JUMPDEST PUSH32 0x4E487B7100000000000000000000000000000000000000000000000000000000 PUSH0 MSTORE PUSH1 0x22 PUSH1 0x4 MSTORE PUSH1 0x24 PUSH0 REVERT JUMPDEST PUSH0 PUSH1 0x2 DUP3 DIV SWAP1 POP PUSH1 0x1 DUP3 AND DUP1 PUSH2 0x2C5 JUMPI PUSH1 0x7F DUP3 AND SWAP2 POP JUMPDEST PUSH1 0x20 DUP3 LT DUP2 SUB PUSH2 0x2D8 JUMPI PUSH2 0x2D7 PUSH2 0x281 JUMP JUMPDEST JUMPDEST POP SWAP2 SWAP1 POP JUMP JUMPDEST PUSH0 DUP2 SWAP1 POP DUP2 PUSH0 MSTORE PUSH1 0x20 PUSH0 KECCAK256 SWAP1 POP SWAP2 SWAP1 POP JUMP JUMPDEST PUSH0 PUSH1 0x20 PUSH1 0x1F DUP4 ADD DIV SWAP1 POP SWAP2 SWAP1 POP JUMP JUMPDEST PUSH0 DUP3 DUP3 SHL SWAP1 POP SWAP3 SWAP2 POP POP JUMP JUMPDEST PUSH0 PUSH1 0x8 DUP4 MUL PUSH2 0x33A PUSH32 0xFFFFFFFFFFFFFFFFFFFFFFFFFFFFFFFFFFFFFFFFFFFFFFFFFFFFFFFFFFFFFFFF DUP3 PUSH2 0x2FF JUMP JUMPDEST PUSH2 0x344 DUP7 DUP4 PUSH2 0x2FF JUMP JUMPDEST SWAP6 POP DUP1 NOT DUP5 AND SWAP4 POP DUP1 DUP7 AND DUP5 OR SWAP3 POP POP POP SWAP4 SWAP3 POP POP POP JUMP JUMPDEST PUSH0 DUP2 SWAP1 POP SWAP2 SWAP1 POP JUMP JUMPDEST PUSH0 DUP2 SWAP1 POP SWAP2 SWAP1 POP JUMP JUMPDEST PUSH0 PUSH2 0x388 PUSH2 0x383 PUSH2 0x37E DUP5 PUSH2 0x35C JUMP JUMPDEST PUSH2 0x365 JUMP JUMPDEST PUSH2 0x35C JUMP JUMPDEST SWAP1 POP SWAP2 SWAP1 POP JUMP JUMPDEST PUSH0 DUP2 SWAP1 POP SWAP2 SWAP1 POP JUMP JUMPDEST PUSH2 0x3A1 DUP4 PUSH2 0x36E JUMP JUMPDEST PUSH2 0x3B5 PUSH2 0x3AD DUP3 PUSH2 0x38F JUMP JUMPDEST DUP5 DUP5 SLOAD PUSH2 0x30B JUMP JUMPDEST DUP3 SSTORE POP POP POP POP JUMP JUMPDEST PUSH0 PUSH0 SWAP1 POP SWAP1 JUMP JUMPDEST PUSH2 0x3CC PUSH2 0x3BD JUMP JUMPDEST PUSH2 0x3D7 DUP2 DUP5 DUP5 PUSH2 0x398 JUMP JUMPDEST POP POP POP JUMP JUMPDEST JUMPDEST DUP2 DUP2 LT ISZERO PUSH2 0x3FA JUMPI PUSH2 0x3EF PUSH0 DUP3 PUSH2 0x3C4 JUMP JUMPDEST PUSH1 0x1 DUP2 ADD SWAP1 POP PUSH2 0x3DD JUMP JUMPDEST POP POP JUMP JUMPDEST PUSH1 0x1F DUP3 GT ISZERO PUSH2 0x43F JUMPI PUSH2 0x410 DUP2 PUSH2 0x2DE JUMP JUMPDEST PUSH2 0x419 DUP5 PUSH2 0x2F0 JUMP JUMPDEST DUP2 ADD PUSH1 0x20 DUP6 LT ISZERO PUSH2 0x428 JUMPI DUP2 SWAP1 POP JUMPDEST PUSH2 0x43C PUSH2 0x434 DUP6 PUSH2 0x2F0 JUMP JUMPDEST DUP4 ADD DUP3 PUSH2 0x3DC JUMP JUMPDEST POP POP JUMPDEST POP POP POP JUMP JUMPDEST PUSH0 DUP3 DUP3 SHR SWAP1 POP SWAP3 SWAP2 POP POP JUMP JUMPDEST PUSH0 PUSH2 0x45F PUSH0 NOT DUP5 PUSH1 0x8 MUL PUSH2 0x444 JUMP JUMPDEST NOT DUP1 DUP4 AND SWAP2 POP POP SWAP3 SWAP2 POP POP JUMP JUMPDEST PUSH0 PUSH2 0x477 DUP4 DUP4 PUSH2 0x450 JUMP JUMPDEST SWAP2 POP DUP3 PUSH1 0x2 MUL DUP3 OR SWAP1 POP SWAP3 SWAP2 POP POP JUMP JUMPDEST PUSH2 0x490 DUP3 PUSH2 0x277 JUMP JUMPDEST PUSH8 0xFFFFFFFFFFFFFFFF DUP2 GT ISZERO PUSH2 0x4A9 JUMPI PUSH2 0x4A8 PUSH2 0x24A JUMP JUMPDEST JUMPDEST PUSH2 0x4B3 DUP3 SLOAD PUSH2 0x2AE JUMP JUMPDEST PUSH2 0x4BE DUP3 DUP3 DUP6 PUSH2 0x3FE JUMP JUMPDEST PUSH0 PUSH1 0x20 SWAP1 POP PUSH1 0x1F DUP4 GT PUSH1 0x1 DUP2 EQ PUSH2 0x4EF JUMPI PUSH0 DUP5 ISZERO PUSH2 0x4DD JUMPI DUP3 DUP8 ADD MLOAD SWAP1 POP JUMPDEST PUSH2 0x4E7 DUP6 DUP3 PUSH2 0x46C JUMP JUMPDEST DUP7 SSTORE POP PUSH2 0x54E JUMP JUMPDEST PUSH1 0x1F NOT DUP5 AND PUSH2 0x4FD DUP7 PUSH2 0x2DE JUMP JUMPDEST PUSH0 JUMPDEST DUP3 DUP2 LT ISZERO PUSH2 0x524 JUMPI DUP5 DUP10 ADD MLOAD DUP3 SSTORE PUSH1 0x1 DUP3 ADD SWAP2 POP PUSH1 0x20 DUP6 ADD SWAP5 POP PUSH1 0x20 DUP2 ADD SWAP1 POP PUSH2 0x4FF JUMP JUMPDEST DUP7 DUP4 LT ISZERO PUSH2 0x541 JUMPI DUP5 DUP10 ADD MLOAD PUSH2 0x53D PUSH1 0x1F DUP10 AND DUP3 PUSH2 0x450 JUMP JUMPDEST DUP4 SSTORE POP JUMPDEST PUSH1 0x1 PUSH1 0x2 DUP9 MUL ADD DUP9 SSTORE POP POP POP JUMPDEST POP POP POP POP POP POP JUMP JUMPDEST PUSH0 DUP2 MLOAD SWAP1 POP SWAP2 SWAP1 POP JUMP JUMPDEST PUSH2 0x569 DUP3 PUSH2 0x556 JUMP JUMPDEST PUSH8 0xFFFFFFFFFFFFFFFF DUP2 GT ISZERO PUSH2 0x582 JUMPI PUSH2 0x581 PUSH2 0x24A JUMP JUMPDEST JUMPDEST PUSH2 0x58C DUP3 SLOAD PUSH2 0x2AE JUMP JUMPDEST PUSH2 0x597 DUP3 DUP3 DUP6 PUSH2 0x3FE JUMP JUMPDEST PUSH0 PUSH1 0x20 SWAP1 POP PUSH1 0x1F DUP4 GT PUSH1 0x1 DUP2 EQ PUSH2 0x5C8 JUMPI PUSH0 DUP5 ISZERO PUSH2 0x5B6 JUMPI DUP3 DUP8 ADD MLOAD SWAP1 POP JUMPDEST PUSH2 0x5C0 DUP6 DUP3 PUSH2 0x46C JUMP JUMPDEST DUP7 SSTORE POP PUSH2 0x627 JUMP JUMPDEST PUSH1 0x1F NOT DUP5 AND PUSH2 0x5D6 DUP7 PUSH2 0x2DE JUMP JUMPDEST PUSH0 JUMPDEST DUP3 DUP2 LT ISZERO PUSH2 0x5FD JUMPI DUP5 DUP10 ADD MLOAD DUP3 SSTORE PUSH1 0x1 DUP3 ADD SWAP2 POP PUSH1 0x20 DUP6 ADD SWAP5 POP PUSH1 0x20 DUP2 ADD SWAP1 POP PUSH2 0x5D8 JUMP JUMPDEST DUP7 DUP4 LT ISZERO PUSH2 0x61A JUMPI DUP5 DUP10 ADD MLOAD PUSH2 0x616 PUSH1 0x1F DUP10 AND DUP3 PUSH2 0x450 JUMP JUMPDEST DUP4 SSTORE POP JUMPDEST PUSH1 0x1 PUSH1 0x2 DUP9 MUL ADD DUP9 SSTORE POP POP POP JUMPDEST POP POP POP POP POP POP JUMP JUMPDEST PUSH0 DUP2 SWAP1 POP DUP2 PUSH0 MSTORE PUSH1 0x20 PUSH0 KECCAK256 SWAP1 POP SWAP2 SWAP1 POP JUMP JUMPDEST PUSH1 0x1F DUP3 GT ISZERO PUSH2 0x682 JUMPI PUSH2 0x653 DUP2 PUSH2 0x62F JUMP JUMPDEST PUSH2 0x65C DUP5 PUSH2 0x2F0 JUMP JUMPDEST DUP2 ADD PUSH1 0x20 DUP6 LT ISZERO PUSH2 0x66B JUMPI DUP2 SWAP1 POP JUMPDEST PUSH2 0x67F PUSH2 0x677 DUP6 PUSH2 0x2F0 JUMP JUMPDEST DUP4 ADD DUP3 PUSH2 0x3DC JUMP JUMPDEST POP POP JUMPDEST POP POP POP JUMP JUMPDEST PUSH2 0x690 DUP3 PUSH2 0x277 JUMP JUMPDEST PUSH8 0xFFFFFFFFFFFFFFFF DUP2 GT ISZERO PUSH2 0x6A9 JUMPI PUSH2 0x6A8 PUSH2 0x24A JUMP JUMPDEST JUMPDEST PUSH2 0x6B3 DUP3 SLOAD PUSH2 0x2AE JUMP JUMPDEST PUSH2 0x6BE DUP3 DUP3 DUP6 PUSH2 0x641 JUMP JUMPDEST PUSH0 PUSH1 0x20 SWAP1 POP PUSH1 0x1F DUP4 GT PUSH1 0x1 DUP2 EQ PUSH2 0x6EF JUMPI PUSH0 DUP5 ISZERO PUSH2 0x6DD JUMPI DUP3 DUP8 ADD MLOAD SWAP1 POP JUMPDEST PUSH2 0x6E7 DUP6 DUP3 PUSH2 0x46C JUMP JUMPDEST DUP7 SSTORE POP PUSH2 0x74E JUMP JUMPDEST PUSH1 0x1F NOT DUP5 AND PUSH2 0x6FD DUP7 PUSH2 0x62F JUMP JUMPDEST PUSH0 JUMPDEST DUP3 DUP2 LT ISZERO PUSH2 0x724 JUMPI DUP5 DUP10 ADD MLOAD DUP3 SSTORE PUSH1 0x1 DUP3 ADD SWAP2 POP PUSH1 0x20 DUP6 ADD SWAP5 POP PUSH1 0x20 DUP2 ADD SWAP1 POP PUSH2 0x6FF JUMP JUMPDEST DUP7 DUP4 LT ISZERO PUSH2 0x741 JUMPI DUP5 DUP10 ADD MLOAD PUSH2 0x73D PUSH1 0x1F DUP10 AND DUP3 PUSH2 0x450 JUMP JUMPDEST DUP4 SSTORE POP JUMPDEST PUSH1 0x1 PUSH1 0x2 DUP9 MUL ADD DUP9 SSTORE POP POP POP JUMPDEST POP POP POP POP POP POP JUMP JUMPDEST PUSH2 0xCA2 DUP1 PUSH2 0x763 PUSH0 CODECOPY PUSH0 RETURN INVALID PUSH1 0x80 PUSH1 0x40 MSTORE CALLVALUE DUP1 ISZERO PUSH2 0xF JUMPI PUSH0 PUSH0 REVERT JUMPDEST POP PUSH1 0x4 CALLDATASIZE LT PUSH2 0xB2 JUMPI PUSH0 CALLDATALOAD PUSH1 0xE0 SHR DUP1 PUSH4 0x83B4B42B GT PUSH2 0x6F JUMPI DUP1 PUSH4 0x83B4B42B EQ PUSH2 0x1A0 JUMPI DUP1 PUSH4 0x8DC05B87 EQ PUSH2 0x1D0 JUMPI DUP1 PUSH4 0xA5650466 EQ PUSH2 0x1EE JUMPI DUP1 PUSH4 0xC075CE78 EQ PUSH2 0x21E JUMPI DUP1 PUSH4 0xC4C38901 EQ PUSH2 0x23C JUMPI DUP1 PUSH4 0xE01A58C8 EQ PUSH2 0x26C JUMPI PUSH2 0xB2 JUMP JUMPDEST DUP1 PUSH4 0x36F77991 EQ PUSH2 0xB6 JUMPI DUP1 PUSH4 0x4262EE4B EQ PUSH2 0xE6 JUMPI DUP1 PUSH4 0x5478A4DC EQ PUSH2 0x116 JUMPI DUP1 PUSH4 0x6484454B EQ PUSH2 0x134 JUMPI DUP1 PUSH4 0x68BEAB3F EQ PUSH2 0x152 JUMPI DUP1 PUSH4 0x80C9419E EQ PUSH2 0x170 JUMPI JUMPDEST PUSH0 PUSH0 REVERT JUMPDEST PUSH2 0xD0 PUSH1 0x4 DUP1 CALLDATASIZE SUB DUP2 ADD SWAP1 PUSH2 0xCB SWAP2 SWAP1 PUSH2 0x797 JUMP JUMPDEST PUSH2 0x28B JUMP JUMPDEST PUSH1 0x40 MLOAD PUSH2 0xDD SWAP2 SWAP1 PUSH2 0x7FC JUMP JUMPDEST PUSH1 0x40 MLOAD DUP1 SWAP2 SUB SWAP1 RETURN JUMPDEST PUSH2 0x100 PUSH1 0x4 DUP1 CALLDATASIZE SUB DUP2 ADD SWAP1 PUSH2 0xFB SWAP2 SWAP1 PUSH2 0x797 JUMP JUMPDEST PUSH2 0x2F3 JUMP JUMPDEST PUSH1 0x40 MLOAD PUSH2 0x10D SWAP2 SWAP1 PUSH2 0x824 JUMP JUMPDEST PUSH1 0x40 MLOAD DUP1 SWAP2 SUB SWAP1 RETURN JUMPDEST PUSH2 0x11E PUSH2 0x313 JUMP JUMPDEST PUSH1 0x40 MLOAD PUSH2 0x12B SWAP2 SWAP1 PUSH2 0x8AD JUMP JUMPDEST PUSH1 0x40 MLOAD DUP1 SWAP2 SUB SWAP1 RETURN JUMPDEST PUSH2 0x13C PUSH2 0x39F JUMP JUMPDEST PUSH1 0x40 MLOAD PUSH2 0x149 SWAP2 SWAP1 PUSH2 0x824 JUMP JUMPDEST PUSH1 0x40 MLOAD DUP1 SWAP2 SUB SWAP1 RETURN JUMPDEST PUSH2 0x15A PUSH2 0x3D5 JUMP JUMPDEST PUSH1 0x40 MLOAD PUSH2 0x167 SWAP2 SWAP1 PUSH2 0x8AD JUMP JUMPDEST PUSH1 0x40 MLOAD DUP1 SWAP2 SUB SWAP1 RETURN JUMPDEST PUSH2 0x18A PUSH1 0x4 DUP1 CALLDATASIZE SUB DUP2 ADD SWAP1 PUSH2 0x185 SWAP2 SWAP1 PUSH2 0x797 JUMP JUMPDEST PUSH2 0x461 JUMP JUMPDEST PUSH1 0x40 MLOAD PUSH2 0x197 SWAP2 SWAP1 PUSH2 0x824 JUMP JUMPDEST PUSH1 0x40 MLOAD DUP1 SWAP2 SUB SWAP1 RETURN JUMPDEST PUSH2 0x1BA PUSH1 0x4 DUP1 CALLDATASIZE SUB DUP2 ADD SWAP1 PUSH2 0x1B5 SWAP2 SWAP1 PUSH2 0x8F7 JUMP JUMPDEST PUSH2 0x480 JUMP JUMPDEST PUSH1 0x40 MLOAD PUSH2 0x1C7 SWAP2 SWAP1 PUSH2 0x824 JUMP JUMPDEST PUSH1 0x40 MLOAD DUP1 SWAP2 SUB SWAP1 RETURN JUMPDEST PUSH2 0x1D8 PUSH2 0x566 JUMP JUMPDEST PUSH1 0x40 MLOAD PUSH2 0x1E5 SWAP2 SWAP1 PUSH2 0x9D9 JUMP JUMPDEST PUSH1 0x40 MLOAD DUP1 SWAP2 SUB SWAP1 RETURN JUMPDEST PUSH2 0x208 PUSH1 0x4 DUP1 CALLDATASIZE SUB DUP2 ADD SWAP1 PUSH2 0x203 SWAP2 SWAP1 PUSH2 0xA5A JUMP JUMPDEST PUSH2 0x63E JUMP JUMPDEST PUSH1 0x40 MLOAD PUSH2 0x215 SWAP2 SWAP1 PUSH2 0x8AD JUMP JUMPDEST PUSH1 0x40 MLOAD DUP1 SWAP2 SUB SWAP1 RETURN JUMPDEST PUSH2 0x226 PUSH2 0x69E JUMP JUMPDEST PUSH1 0x40 MLOAD PUSH2 0x233 SWAP2 SWAP1 PUSH2 0x824 JUMP JUMPDEST PUSH1 0x40 MLOAD DUP1 SWAP2 SUB SWAP1 RETURN JUMPDEST PUSH2 0x256 PUSH1 0x4 DUP1 CALLDATASIZE SUB DUP2 ADD SWAP1 PUSH2 0x251 SWAP2 SWAP1 PUSH2 0x797 JUMP JUMPDEST PUSH2 0x6DA JUMP JUMPDEST PUSH1 0x40 MLOAD PUSH2 0x263 SWAP2 SWAP1 PUSH2 0x824 JUMP JUMPDEST PUSH1 0x40 MLOAD DUP1 SWAP2 SUB SWAP1 RETURN JUMPDEST PUSH2 0x274 PUSH2 0x6FA JUMP JUMPDEST PUSH1 0x40 MLOAD PUSH2 0x282 SWAP3 SWAP2 SWAP1 PUSH2 0xACB JUMP JUMPDEST PUSH1 0x40 MLOAD DUP1 SWAP2 SUB SWAP1 RETURN JUMPDEST PUSH0 PUSH1 0x3 DUP3 DUP2 SLOAD PUSH2 0x29A SWAP1 PUSH2 0xB26 JUMP JUMPDEST DUP2 LT PUSH2 0x2A9 JUMPI PUSH2 0x2A8 PUSH2 0xB56 JUMP JUMPDEST JUMPDEST DUP2 SLOAD PUSH1 0x1 AND ISZERO PUSH2 0x2C6 JUMPI SWAP1 PUSH0 MSTORE PUSH1 0x20 PUSH0 KECCAK256 SWAP1 PUSH1 0x20 SWAP2 DUP3 DUP3 DIV ADD SWAP2 SWAP1 MOD JUMPDEST SWAP1 SLOAD SWAP1 BYTE PUSH32 0x100000000000000000000000000000000000000000000000000000000000000 MUL SWAP1 POP SWAP2 SWAP1 POP JUMP JUMPDEST PUSH1 0x2 DUP2 DUP2 SLOAD DUP2 LT PUSH2 0x302 JUMPI PUSH0 DUP1 REVERT JUMPDEST SWAP1 PUSH0 MSTORE PUSH1 0x20 PUSH0 KECCAK256 ADD PUSH0 SWAP2 POP SWAP1 POP SLOAD DUP2 JUMP JUMPDEST PUSH1 0x3 DUP1 SLOAD PUSH2 0x320 SWAP1 PUSH2 0xB26 JUMP JUMPDEST DUP1 PUSH1 0x1F ADD PUSH1 0x20 DUP1 SWAP2 DIV MUL PUSH1 0x20 ADD PUSH1 0x40 MLOAD SWAP1 DUP2 ADD PUSH1 0x40 MSTORE DUP1 SWAP3 SWAP2 SWAP1 DUP2 DUP2 MSTORE PUSH1 0x20 ADD DUP3 DUP1 SLOAD PUSH2 0x34C SWAP1 PUSH2 0xB26 JUMP JUMPDEST DUP1 ISZERO PUSH2 0x397 JUMPI DUP1 PUSH1 0x1F LT PUSH2 0x36E JUMPI PUSH2 0x100 DUP1 DUP4 SLOAD DIV MUL DUP4 MSTORE SWAP2 PUSH1 0x20 ADD SWAP2 PUSH2 0x397 JUMP JUMPDEST DUP3 ADD SWAP2 SWAP1 PUSH0 MSTORE PUSH1 0x20 PUSH0 KECCAK256 SWAP1 JUMPDEST DUP2 SLOAD DUP2 MSTORE SWAP1 PUSH1 0x1 ADD SWAP1 PUSH1 0x20 ADD DUP1 DUP4 GT PUSH2 0x37A JUMPI DUP3 SWAP1 SUB PUSH1 0x1F AND DUP3 ADD SWAP2 JUMPDEST POP POP POP POP POP DUP2 JUMP JUMPDEST PUSH0 PUSH0 PUSH0 SWAP1 POP PUSH0 PUSH0 SWAP1 POP JUMPDEST PUSH1 0xA DUP2 LT ISZERO PUSH2 0x3CD JUMPI DUP1 DUP3 PUSH2 0x3BE SWAP2 SWAP1 PUSH2 0xBB0 JUMP JUMPDEST SWAP2 POP DUP1 DUP1 PUSH1 0x1 ADD SWAP2 POP POP PUSH2 0x3A9 JUMP JUMPDEST POP DUP1 SWAP2 POP POP SWAP1 JUMP JUMPDEST PUSH1 0x4 DUP1 SLOAD PUSH2 0x3E2 SWAP1 PUSH2 0xB26 JUMP JUMPDEST DUP1 PUSH1 0x1F ADD PUSH1 0x20 DUP1 SWAP2 DIV MUL PUSH1 0x20 ADD PUSH1 0x40 MLOAD SWAP1 DUP2 ADD PUSH1 0x40 MSTORE DUP1 SWAP3 SWAP2 SWAP1 DUP2 DUP2 MSTORE PUSH1 0x20 ADD DUP3 DUP1 SLOAD PUSH2 0x40E SWAP1 PUSH2 0xB26 JUMP JUMPDEST DUP1 ISZERO PUSH2 0x459 JUMPI DUP1 PUSH1 0x1F LT PUSH2 0x430 JUMPI PUSH2 0x100 DUP1 DUP4 SLOAD DIV MUL DUP4 MSTORE SWAP2 PUSH1 0x20 ADD SWAP2 PUSH2 0x459 JUMP JUMPDEST DUP3 ADD SWAP2 SWAP1 PUSH0 MSTORE PUSH1 0x20 PUSH0 KECCAK256 SWAP1 JUMPDEST DUP2 SLOAD DUP2 MSTORE SWAP1 PUSH1 0x1 ADD SWAP1 PUSH1 0x20 ADD DUP1 DUP4 GT PUSH2 0x43C JUMPI DUP3 SWAP1 SUB PUSH1 0x1F AND DUP3 ADD SWAP2 JUMPDEST POP POP POP POP POP DUP2 JUMP JUMPDEST PUSH0 DUP2 DUP2 SLOAD DUP2 LT PUSH2 0x46F JUMPI PUSH0 DUP1 REVERT JUMPDEST SWAP1 PUSH0 MSTORE PUSH1 0x20 PUSH0 KECCAK256 ADD PUSH0 SWAP2 POP SWAP1 POP SLOAD DUP2 JUMP JUMPDEST PUSH0 PUSH0 PUSH0 SWAP1 POP JUMPDEST PUSH1 0x3 DUP1 SLOAD PUSH2 0x493 SWAP1 PUSH2 0xB26 JUMP JUMPDEST SWAP1 POP DUP2 LT ISZERO PUSH2 0x55C JUMPI DUP3 PUSH31 0xFFFFFFFFFFFFFFFFFFFFFFFFFFFFFFFFFFFFFFFFFFFFFFFFFFFFFFFFFFFFFF NOT AND PUSH1 0x3 DUP3 DUP2 SLOAD PUSH2 0x4CD SWAP1 PUSH2 0xB26 JUMP JUMPDEST DUP2 LT PUSH2 0x4DC JUMPI PUSH2 0x4DB PUSH2 0xB56 JUMP JUMPDEST JUMPDEST DUP2 SLOAD PUSH1 0x1 AND ISZERO PUSH2 0x4F9 JUMPI SWAP1 PUSH0 MSTORE PUSH1 0x20 PUSH0 KECCAK256 SWAP1 PUSH1 0x20 SWAP2 DUP3 DUP3 DIV ADD SWAP2 SWAP1 MOD JUMPDEST SWAP1 SLOAD SWAP1 BYTE PUSH32 0x100000000000000000000000000000000000000000000000000000000000000 MUL PUSH31 0xFFFFFFFFFFFFFFFFFFFFFFFFFFFFFFFFFFFFFFFFFFFFFFFFFFFFFFFFFFFFFF NOT AND SUB PUSH2 0x54F JUMPI DUP1 SWAP2 POP POP PUSH2 0x561 JUMP JUMPDEST DUP1 DUP1 PUSH1 0x1 ADD SWAP2 POP POP PUSH2 0x486 JUMP JUMPDEST POP PUSH0 SWAP1 POP JUMPDEST SWAP2 SWAP1 POP JUMP JUMPDEST PUSH1 0x60 PUSH0 PUSH0 SWAP1 POP JUMPDEST PUSH1 0x1 DUP1 SLOAD SWAP1 POP DUP2 LT ISZERO PUSH2 0x5CF JUMPI PUSH1 0x1 DUP1 DUP3 DUP2 SLOAD DUP2 LT PUSH2 0x58F JUMPI PUSH2 0x58E PUSH2 0xB56 JUMP JUMPDEST JUMPDEST SWAP1 PUSH0 MSTORE PUSH1 0x20 PUSH0 KECCAK256 ADD SLOAD PUSH2 0x5A2 SWAP2 SWAP1 PUSH2 0xBB0 JUMP JUMPDEST PUSH1 0x1 DUP3 DUP2 SLOAD DUP2 LT PUSH2 0x5B6 JUMPI PUSH2 0x5B5 PUSH2 0xB56 JUMP JUMPDEST JUMPDEST SWAP1 PUSH0 MSTORE PUSH1 0x20 PUSH0 KECCAK256 ADD DUP2 SWAP1 SSTORE POP DUP1 DUP1 PUSH1 0x1 ADD SWAP2 POP POP PUSH2 0x56D JUMP JUMPDEST POP PUSH0 PUSH1 0x1 DUP2 PUSH1 0x1 DUP2 SLOAD ADD DUP1 DUP3 SSTORE DUP1 SWAP2 POP POP SUB SWAP1 PUSH0 MSTORE PUSH1 0x20 PUSH0 KECCAK256 POP POP PUSH1 0x1 DUP1 SLOAD DUP1 PUSH1 0x20 MUL PUSH1 0x20 ADD PUSH1 0x40 MLOAD SWAP1 DUP2 ADD PUSH1 0x40 MSTORE DUP1 SWAP3 SWAP2 SWAP1 DUP2 DUP2 MSTORE PUSH1 0x20 ADD DUP3 DUP1 SLOAD DUP1 ISZERO PUSH2 0x634 JUMPI PUSH1 0x20 MUL DUP3 ADD SWAP2 SWAP1 PUSH0 MSTORE PUSH1 0x20 PUSH0 KECCAK256 SWAP1 JUMPDEST DUP2 SLOAD DUP2 MSTORE PUSH1 0x20 ADD SWAP1 PUSH1 0x1 ADD SWAP1 DUP1 DUP4 GT PUSH2 0x620 JUMPI JUMPDEST POP POP POP POP POP SWAP1 POP SWAP1 JUMP JUMPDEST PUSH1 0x60 DUP5 DUP5 DUP5 SWAP1 DUP5 SWAP3 PUSH2 0x652 SWAP4 SWAP3 SWAP2 SWAP1 PUSH2 0xBEB JUMP JUMPDEST DUP1 DUP1 PUSH1 0x1F ADD PUSH1 0x20 DUP1 SWAP2 DIV MUL PUSH1 0x20 ADD PUSH1 0x40 MLOAD SWAP1 DUP2 ADD PUSH1 0x40 MSTORE DUP1 SWAP4 SWAP3 SWAP2 SWAP1 DUP2 DUP2 MSTORE PUSH1 0x20 ADD DUP4 DUP4 DUP1 DUP3 DUP5 CALLDATACOPY PUSH0 DUP2 DUP5 ADD MSTORE PUSH1 0x1F NOT PUSH1 0x1F DUP3 ADD AND SWAP1 POP DUP1 DUP4 ADD SWAP3 POP POP POP POP POP POP POP SWAP1 POP SWAP5 SWAP4 POP POP POP POP JUMP JUMPDEST PUSH0 PUSH0 PUSH0 SWAP1 POP PUSH0 PUSH0 SWAP1 POP JUMPDEST PUSH1 0xA DUP2 LT ISZERO PUSH2 0x6D2 JUMPI DUP1 DUP3 PUSH2 0x6BD SWAP2 SWAP1 PUSH2 0xBB0 JUMP JUMPDEST SWAP2 POP DUP1 DUP1 PUSH2 0x6CA SWAP1 PUSH2 0xC25 JUMP JUMPDEST SWAP2 POP POP PUSH2 0x6A8 JUMP JUMPDEST DUP2 SWAP3 POP POP POP SWAP1 JUMP JUMPDEST PUSH1 0x1 DUP2 DUP2 SLOAD DUP2 LT PUSH2 0x6E9 JUMPI PUSH0 DUP1 REVERT JUMPDEST SWAP1 PUSH0 MSTORE PUSH1 0x20 PUSH0 KECCAK256 ADD PUSH0 SWAP2 POP SWAP1 POP SLOAD DUP2 JUMP JUMPDEST PUSH1 0x60 PUSH0 PUSH1 0x1 DUP1 DUP1 SLOAD SWAP1 POP DUP2 DUP1 SLOAD DUP1 PUSH1 0x20 MUL PUSH1 0x20 ADD PUSH1 0x40 MLOAD SWAP1 DUP2 ADD PUSH1 0x40 MSTORE DUP1 SWAP3 SWAP2 SWAP1 DUP2 DUP2 MSTORE PUSH1 0x20 ADD DUP3 DUP1 SLOAD DUP1 ISZERO PUSH2 0x74D JUMPI PUSH1 0x20 MUL DUP3 ADD SWAP2 SWAP1 PUSH0 MSTORE PUSH1 0x20 PUSH0 KECCAK256 SWAP1 JUMPDEST DUP2 SLOAD DUP2 MSTORE PUSH1 0x20 ADD SWAP1 PUSH1 0x1 ADD SWAP1 DUP1 DUP4 GT PUSH2 0x739 JUMPI JUMPDEST POP POP POP POP POP SWAP2 POP SWAP2 POP SWAP2 POP SWAP1 SWAP2 JUMP JUMPDEST PUSH0 PUSH0 REVERT JUMPDEST PUSH0 PUSH0 REVERT JUMPDEST PUSH0 DUP2 SWAP1 POP SWAP2 SWAP1 POP JUMP JUMPDEST PUSH2 0x776 DUP2 PUSH2 0x764 JUMP JUMPDEST DUP2 EQ PUSH2 0x780 JUMPI PUSH0 PUSH0 REVERT JUMPDEST POP JUMP JUMPDEST PUSH0 DUP2 CALLDATALOAD SWAP1 POP PUSH2 0x791 DUP2 PUSH2 0x76D JUMP JUMPDEST SWAP3 SWAP2 POP POP JUMP JUMPDEST PUSH0 PUSH1 0x20 DUP3 DUP5 SUB SLT ISZERO PUSH2 0x7AC JUMPI PUSH2 0x7AB PUSH2 0x75C JUMP JUMPDEST JUMPDEST PUSH0 PUSH2 0x7B9 DUP5 DUP3 DUP6 ADD PUSH2 0x783 JUMP JUMPDEST SWAP2 POP POP SWAP3 SWAP2 POP POP JUMP JUMPDEST PUSH0 PUSH32 0xFF00000000000000000000000000000000000000000000000000000000000000 DUP3 AND SWAP1 POP SWAP2 SWAP1 POP JUMP JUMPDEST PUSH2 0x7F6 DUP2 PUSH2 0x7C2 JUMP JUMPDEST DUP3 MSTORE POP POP JUMP JUMPDEST PUSH0 PUSH1 0x20 DUP3 ADD SWAP1 POP PUSH2 0x80F PUSH0 DUP4 ADD DUP5 PUSH2 0x7ED JUMP JUMPDEST SWAP3 SWAP2 POP POP JUMP JUMPDEST PUSH2 0x81E DUP2 PUSH2 0x764 JUMP JUMPDEST DUP3 MSTORE POP POP JUMP JUMPDEST PUSH0 PUSH1 0x20 DUP3 ADD SWAP1 POP PUSH2 0x837 PUSH0 DUP4 ADD DUP5 PUSH2 0x815 JUMP JUMPDEST SWAP3 SWAP2 POP POP JUMP JUMPDEST PUSH0 DUP2 MLOAD SWAP1 POP SWAP2 SWAP1 POP JUMP JUMPDEST PUSH0 DUP3 DUP3 MSTORE PUSH1 0x20 DUP3 ADD SWAP1 POP SWAP3 SWAP2 POP POP JUMP JUMPDEST DUP3 DUP2 DUP4 MCOPY PUSH0 DUP4 DUP4 ADD MSTORE POP POP POP JUMP JUMPDEST PUSH0 PUSH1 0x1F NOT PUSH1 0x1F DUP4 ADD AND SWAP1 POP SWAP2 SWAP1 POP JUMP JUMPDEST PUSH0 PUSH2 0x87F DUP3 PUSH2 0x83D JUMP JUMPDEST PUSH2 0x889 DUP2 DUP6 PUSH2 0x847 JUMP JUMPDEST SWAP4 POP PUSH2 0x899 DUP2 DUP6 PUSH1 0x20 DUP7 ADD PUSH2 0x857 JUMP JUMPDEST PUSH2 0x8A2 DUP2 PUSH2 0x865 JUMP JUMPDEST DUP5 ADD SWAP2 POP POP SWAP3 SWAP2 POP POP JUMP JUMPDEST PUSH0 PUSH1 0x20 DUP3 ADD SWAP1 POP DUP2 DUP2 SUB PUSH0 DUP4 ADD MSTORE PUSH2 0x8C5 DUP2 DUP5 PUSH2 0x875 JUMP JUMPDEST SWAP1 POP SWAP3 SWAP2 POP POP JUMP JUMPDEST PUSH2 0x8D6 DUP2 PUSH2 0x7C2 JUMP JUMPDEST DUP2 EQ PUSH2 0x8E0 JUMPI PUSH0 PUSH0 REVERT JUMPDEST POP JUMP JUMPDEST PUSH0 DUP2 CALLDATALOAD SWAP1 POP PUSH2 0x8F1 DUP2 PUSH2 0x8CD JUMP JUMPDEST SWAP3 SWAP2 POP POP JUMP JUMPDEST PUSH0 PUSH1 0x20 DUP3 DUP5 SUB SLT ISZERO PUSH2 0x90C JUMPI PUSH2 0x90B PUSH2 0x75C JUMP JUMPDEST JUMPDEST PUSH0 PUSH2 0x919 DUP5 DUP3 DUP6 ADD PUSH2 0x8E3 JUMP JUMPDEST SWAP2 POP POP SWAP3 SWAP2 POP POP JUMP JUMPDEST PUSH0 DUP2 MLOAD SWAP1 POP SWAP2 SWAP1 POP JUMP JUMPDEST PUSH0 DUP3 DUP3 MSTORE PUSH1 0x20 DUP3 ADD SWAP1 POP SWAP3 SWAP2 POP POP JUMP JUMPDEST PUSH0 DUP2 SWAP1 POP PUSH1 0x20 DUP3 ADD SWAP1 POP SWAP2 SWAP1 POP JUMP JUMPDEST PUSH2 0x954 DUP2 PUSH2 0x764 JUMP JUMPDEST DUP3 MSTORE POP POP JUMP JUMPDEST PUSH0 PUSH2 0x965 DUP4 DUP4 PUSH2 0x94B JUMP JUMPDEST PUSH1 0x20 DUP4 ADD SWAP1 POP SWAP3 SWAP2 POP POP JUMP JUMPDEST PUSH0 PUSH1 0x20 DUP3 ADD SWAP1 POP SWAP2 SWAP1 POP JUMP JUMPDEST PUSH0 PUSH2 0x987 DUP3 PUSH2 0x922 JUMP JUMPDEST PUSH2 0x991 DUP2 DUP6 PUSH2 0x92C JUMP JUMPDEST SWAP4 POP PUSH2 0x99C DUP4 PUSH2 0x93C JUMP JUMPDEST DUP1 PUSH0 JUMPDEST DUP4 DUP2 LT ISZERO PUSH2 0x9CC JUMPI DUP2 MLOAD PUSH2 0x9B3 DUP9 DUP3 PUSH2 0x95A JUMP JUMPDEST SWAP8 POP PUSH2 0x9BE DUP4 PUSH2 0x971 JUMP JUMPDEST SWAP3 POP POP PUSH1 0x1 DUP2 ADD SWAP1 POP PUSH2 0x99F JUMP JUMPDEST POP DUP6 SWAP4 POP POP POP POP SWAP3 SWAP2 POP POP JUMP JUMPDEST PUSH0 PUSH1 0x20 DUP3 ADD SWAP1 POP DUP2 DUP2 SUB PUSH0 DUP4 ADD MSTORE PUSH2 0x9F1 DUP2 DUP5 PUSH2 0x97D JUMP JUMPDEST SWAP1 POP SWAP3 SWAP2 POP POP JUMP JUMPDEST PUSH0 PUSH0 REVERT JUMPDEST PUSH0 PUSH0 REVERT JUMPDEST PUSH0 PUSH0 REVERT JUMPDEST PUSH0 PUSH0 DUP4 PUSH1 0x1F DUP5 ADD SLT PUSH2 0xA1A JUMPI PUSH2 0xA19 PUSH2 0x9F9 JUMP JUMPDEST JUMPDEST DUP3 CALLDATALOAD SWAP1 POP PUSH8 0xFFFFFFFFFFFFFFFF DUP2 GT ISZERO PUSH2 0xA37 JUMPI PUSH2 0xA36 PUSH2 0x9FD JUMP JUMPDEST JUMPDEST PUSH1 0x20 DUP4 ADD SWAP2 POP DUP4 PUSH1 0x1 DUP3 MUL DUP4 ADD GT ISZERO PUSH2 0xA53 JUMPI PUSH2 0xA52 PUSH2 0xA01 JUMP JUMPDEST JUMPDEST SWAP3 POP SWAP3 SWAP1 POP JUMP JUMPDEST PUSH0 PUSH0 PUSH0 PUSH0 PUSH1 0x60 DUP6 DUP8 SUB SLT ISZERO PUSH2 0xA72 JUMPI PUSH2 0xA71 PUSH2 0x75C JUMP JUMPDEST JUMPDEST PUSH0 DUP6 ADD CALLDATALOAD PUSH8 0xFFFFFFFFFFFFFFFF DUP2 GT ISZERO PUSH2 0xA8F JUMPI PUSH2 0xA8E PUSH2 0x760 JUMP JUMPDEST JUMPDEST PUSH2 0xA9B DUP8 DUP3 DUP9 ADD PUSH2 0xA05 JUMP JUMPDEST SWAP5 POP SWAP5 POP POP PUSH1 0x20 PUSH2 0xAAE DUP8 DUP3 DUP9 ADD PUSH2 0x783 JUMP JUMPDEST SWAP3 POP POP PUSH1 0x40 PUSH2 0xABF DUP8 DUP3 DUP9 ADD PUSH2 0x783 JUMP JUMPDEST SWAP2 POP POP SWAP3 SWAP6 SWAP2 SWAP5 POP SWAP3 POP JUMP JUMPDEST PUSH0 PUSH1 0x40 DUP3 ADD SWAP1 POP DUP2 DUP2 SUB PUSH0 DUP4 ADD MSTORE PUSH2 0xAE3 DUP2 DUP6 PUSH2 0x97D JUMP JUMPDEST SWAP1 POP PUSH2 0xAF2 PUSH1 0x20 DUP4 ADD DUP5 PUSH2 0x815 JUMP JUMPDEST SWAP4 SWAP3 POP POP POP JUMP JUMPDEST PUSH32 0x4E487B7100000000000000000000000000000000000000000000000000000000 PUSH0 MSTORE PUSH1 0x22 PUSH1 0x4 MSTORE PUSH1 0x24 PUSH0 REVERT JUMPDEST PUSH0 PUSH1 0x2 DUP3 DIV SWAP1 POP PUSH1 0x1 DUP3 AND DUP1 PUSH2 0xB3D JUMPI PUSH1 0x7F DUP3 AND SWAP2 POP JUMPDEST PUSH1 0x20 DUP3 LT DUP2 SUB PUSH2 0xB50 JUMPI PUSH2 0xB4F PUSH2 0xAF9 JUMP JUMPDEST JUMPDEST POP SWAP2 SWAP1 POP JUMP JUMPDEST PUSH32 0x4E487B7100000000000000000000000000000000000000000000000000000000 PUSH0 MSTORE PUSH1 0x32 PUSH1 0x4 MSTORE PUSH1 0x24 PUSH0 REVERT JUMPDEST PUSH32 0x4E487B7100000000000000000000000000000000000000000000000000000000 PUSH0 MSTORE PUSH1 0x11 PUSH1 0x4 MSTORE PUSH1 0x24 PUSH0 REVERT JUMPDEST PUSH0 PUSH2 0xBBA DUP3 PUSH2 0x764 JUMP JUMPDEST SWAP2 POP PUSH2 0xBC5 DUP4 PUSH2 0x764 JUMP JUMPDEST SWAP3 POP DUP3 DUP3 ADD SWAP1 POP DUP1 DUP3 GT ISZERO PUSH2 0xBDD JUMPI PUSH2 0xBDC PUSH2 0xB83 JUMP JUMPDEST JUMPDEST SWAP3 SWAP2 POP POP JUMP JUMPDEST PUSH0 PUSH0 REVERT JUMPDEST PUSH0 PUSH0 REVERT JUMPDEST PUSH0 PUSH0 DUP6 DUP6 GT ISZERO PUSH2 0xBFE JUMPI PUSH2 0xBFD PUSH2 0xBE3 JUMP JUMPDEST JUMPDEST DUP4 DUP7 GT ISZERO PUSH2 0xC0F JUMPI PUSH2 0xC0E PUSH2 0xBE7 JUMP JUMPDEST JUMPDEST PUSH1 0x1 DUP6 MUL DUP4 ADD SWAP2 POP DUP5 DUP7 SUB SWAP1 POP SWAP5 POP SWAP5 SWAP3 POP POP POP JUMP JUMPDEST PUSH0 PUSH2 0xC2F DUP3 PUSH2 0x764 JUMP JUMPDEST SWAP2 POP PUSH32 0xFFFFFFFFFFFFFFFFFFFFFFFFFFFFFFFFFFFFFFFFFFFFFFFFFFFFFFFFFFFFFFFF DUP3 SUB PUSH2 0xC61 JUMPI PUSH2 0xC60 PUSH2 0xB83 JUMP JUMPDEST JUMPDEST PUSH1 0x1 DUP3 ADD SWAP1 POP SWAP2 SWAP1 POP JUMP INVALID LOG2 PUSH5 0x6970667358 0x22 SLT KECCAK256 PUSH27 0x668A5FB3E331EC2AF21BA161898BFC73674A53076D5C9191D5D050 0xBF BLOBHASH PUSH7 0x2164736F6C6343 STOP ADDMOD 0x1E STOP CALLER "
				},
				"gasEstimates": {
					"creation": {
						"codeDepositCost": "646800",
						"executionCost": "infinite",
						"totalCost": "infinite"
					},
					"external": {
						"_data()": "infinite",
						"bs()": "infinite",
						"getbyteByvalue(bytes1)": "infinite",
						"list(uint256)": "infinite",
						"list2(uint256)": "infinite",
						"list3(uint256)": "infinite",
						"loopF()": "infinite",
						"loopN()": "infinite",
						"loopW()": "infinite",
						"readByte(uint256)": "7176",
						"readList()": "infinite",
						"testSlice(bytes,uint256,uint256)": "infinite"
					}
				},
				"methodIdentifiers": {
					"_data()": "68beab3f",
					"bs()": "5478a4dc",
					"getbyteByvalue(bytes1)": "83b4b42b",
					"list(uint256)": "80c9419e",
					"list2(uint256)": "c4c38901",
					"list3(uint256)": "4262ee4b",
					"loopF()": "8dc05b87",
					"loopN()": "6484454b",
					"loopW()": "c075ce78",
					"readByte(uint256)": "36f77991",
					"readList()": "e01a58c8",
					"testSlice(bytes,uint256,uint256)": "a5650466"
				}
			},
			"storageLayout": {
				"storage": [
					{
						"astId": 4,
						"contract": "practise/ArrayContact.sol:ArrayContract",
						"label": "list",
						"offset": 0,
						"slot": "0",
						"type": "t_array(t_uint256)dyn_storage"
					},
					{
						"astId": 11,
						"contract": "practise/ArrayContact.sol:ArrayContract",
						"label": "list2",
						"offset": 0,
						"slot": "1",
						"type": "t_array(t_uint256)dyn_storage"
					},
					{
						"astId": 19,
						"contract": "practise/ArrayContact.sol:ArrayContract",
						"label": "list3",
						"offset": 0,
						"slot": "2",
						"type": "t_array(t_uint256)dyn_storage"
					},
					{
						"astId": 22,
						"contract": "practise/ArrayContact.sol:ArrayContract",
						"label": "bs",
						"offset": 0,
						"slot": "3",
						"type": "t_bytes_storage"
					},
					{
						"astId": 28,
						"contract": "practise/ArrayContact.sol:ArrayContract",
						"label": "_data",
						"offset": 0,
						"slot": "4",
						"type": "t_bytes_storage"
					},
					{
						"astId": 30,
						"contract": "practise/ArrayContact.sol:ArrayContract",
						"label": "str0",
						"offset": 0,
						"slot": "5",
						"type": "t_string_storage"
					},
					{
						"astId": 33,
						"contract": "practise/ArrayContact.sol:ArrayContract",
						"label": "str1",
						"offset": 0,
						"slot": "6",
						"type": "t_string_storage"
					}
				],
				"types": {
					"t_array(t_uint256)dyn_storage": {
						"base": "t_uint256",
						"encoding": "dynamic_array",
						"label": "uint256[]",
						"numberOfBytes": "32"
					},
					"t_bytes_storage": {
						"encoding": "bytes",
						"label": "bytes",
						"numberOfBytes": "32"
					},
					"t_string_storage": {
						"encoding": "bytes",
						"label": "string",
						"numberOfBytes": "32"
					},
					"t_uint256": {
						"encoding": "inplace",
						"label": "uint256",
						"numberOfBytes": "32"
					}
				}
			},
			"userdoc": {
				"kind": "user",
				"methods": {},
				"version": 1
			}
		}
	}
}