{
	"data": {
		"bytecode": {
			"linkReferences": {},
			"object": "60a060405260645f553480156012575f5ffd5b506101f460808181525050608051610a7d6100355f395f6103ef0152610a7d5ff3fe608060405234801561000f575f5ffd5b5060043610610091575f3560e01c8063793816ec11610064578063793816ec146101315780639080b79b1461014f5780639b05bf811461016b578063b9c03b9a14610189578063ed36b3d8146101b957610091565b806327e235e3146100955780632c8d37aa146100c5578063507aab7f146100f557806352ba01ef14610113575b5f5ffd5b6100af60048036038101906100aa91906104b7565b6101d7565b6040516100bc91906104fa565b60405180910390f35b6100df60048036038101906100da9190610535565b6101ec565b6040516100ec9190610635565b60405180910390f35b6100fd61020a565b60405161010a91906104fa565b60405180910390f35b61011b610210565b60405161012891906104fa565b60405180910390f35b6101396103b9565b60405161014691906104fa565b60405180910390f35b610169600480360381019061016491906107bf565b6103be565b005b6101736103ed565b60405161018091906104fa565b60405180910390f35b6101a3600480360381019061019e9190610806565b610411565b6040516101b091906104fa565b60405180910390f35b6101c161042b565b6040516101ce91906104fa565b60405180910390f35b6001602052805f5260405f205f915090505481565b6101f4610433565b5f826101ff90610952565b905080915050919050565b6103e881565b5f5f600367ffffffffffffffff81111561022d5761022c610659565b5b60405190808252806020026020018201604052801561025b5781602001602082028036833780820191505090505b5090505f6040518060400160405280600581526020017f48656c6c6f00000000000000000000000000000000000000000000000000000081525090505f600a67ffffffffffffffff8111156102b3576102b2610659565b5b6040519080825280601f01601f1916602001820160405280156102e55781602001600182028036833780820191505090505b5090505f607b90505f600190505f3390505f60ff90505f600290505f600190505f6040518060400160405280606481526020016040518060400160405280600481526020017f546573740000000000000000000000000000000000000000000000000000000081525081525090505f5f90505b60038160ff1610156103a8575f600282610372919061099d565b60ff169050808c8360ff168151811061038e5761038d6109d9565b5b602002602001018181525050508080600101915050610358565b50869a505050505050505050505090565b5f5481565b5f81905060026064908060018154018082558091505060019003905f5260205f20015f90919091909150555050565b7f000000000000000000000000000000000000000000000000000000000000000081565b5f5f6002836104209190610a06565b905080915050919050565b5f5f54905090565b60405180604001604052805f8152602001606081525090565b5f604051905090565b5f5ffd5b5f5ffd5b5f73ffffffffffffffffffffffffffffffffffffffff82169050919050565b5f6104868261045d565b9050919050565b6104968161047c565b81146104a0575f5ffd5b50565b5f813590506104b18161048d565b92915050565b5f602082840312156104cc576104cb610455565b5b5f6104d9848285016104a3565b91505092915050565b5f819050919050565b6104f4816104e2565b82525050565b5f60208201905061050d5f8301846104eb565b92915050565b5f5ffd5b5f6040828403121561052c5761052b610513565b5b81905092915050565b5f6020828403121561054a57610549610455565b5b5f82013567ffffffffffffffff81111561056757610566610459565b5b61057384828501610517565b91505092915050565b610585816104e2565b82525050565b5f81519050919050565b5f82825260208201905092915050565b8281835e5f83830152505050565b5f601f19601f8301169050919050565b5f6105cd8261058b565b6105d78185610595565b93506105e78185602086016105a5565b6105f0816105b3565b840191505092915050565b5f604083015f8301516106105f86018261057c565b506020830151848203602086015261062882826105c3565b9150508091505092915050565b5f6020820190508181035f83015261064d81846105fb565b905092915050565b5f5ffd5b7f4e487b71000000000000000000000000000000000000000000000000000000005f52604160045260245ffd5b61068f826105b3565b810181811067ffffffffffffffff821117156106ae576106ad610659565b5b80604052505050565b5f6106c061044c565b90506106cc8282610686565b919050565b5f67ffffffffffffffff8211156106eb576106ea610659565b5b602082029050602081019050919050565b5f5ffd5b610709816104e2565b8114610713575f5ffd5b50565b5f8135905061072481610700565b92915050565b5f61073c610737846106d1565b6106b7565b9050808382526020820190506020840283018581111561075f5761075e6106fc565b5b835b8181101561078857806107748882610716565b845260208401935050602081019050610761565b5050509392505050565b5f82601f8301126107a6576107a5610655565b5b81356107b684826020860161072a565b91505092915050565b5f602082840312156107d4576107d3610455565b5b5f82013567ffffffffffffffff8111156107f1576107f0610459565b5b6107fd84828501610792565b91505092915050565b5f6020828403121561081b5761081a610455565b5b5f61082884828501610716565b91505092915050565b5f5ffd5b5f5ffd5b5f5ffd5b5f67ffffffffffffffff82111561085757610856610659565b5b610860826105b3565b9050602081019050919050565b828183375f83830152505050565b5f61088d6108888461083d565b6106b7565b9050828152602081018484840111156108a9576108a8610839565b5b6108b484828561086d565b509392505050565b5f82601f8301126108d0576108cf610655565b5b81356108e084826020860161087b565b91505092915050565b5f604082840312156108fe576108fd610831565b5b61090860406106b7565b90505f61091784828501610716565b5f83015250602082013567ffffffffffffffff81111561093a57610939610835565b5b610946848285016108bc565b60208301525092915050565b5f61095d36836108e9565b9050919050565b5f60ff82169050919050565b7f4e487b71000000000000000000000000000000000000000000000000000000005f52601160045260245ffd5b5f6109a782610964565b91506109b283610964565b92508282026109c081610964565b91508082146109d2576109d1610970565b5b5092915050565b7f4e487b71000000000000000000000000000000000000000000000000000000005f52603260045260245ffd5b5f610a10826104e2565b9150610a1b836104e2565b9250828202610a29816104e2565b91508282048414831517610a4057610a3f610970565b5b509291505056fea26469706673582212201c8469d663cbdb58401a54d92f5b3605cc78a80102db3a50ea01152cb983511764736f6c634300081e0033",
			"opcodes": "PUSH1 0xA0 PUSH1 0x40 MSTORE PUSH1 0x64 PUSH0 SSTORE CALLVALUE DUP1 ISZERO PUSH1 0x12 JUMPI PUSH0 PUSH0 REVERT JUMPDEST POP PUSH2 0x1F4 PUSH1 0x80 DUP2 DUP2 MSTORE POP POP PUSH1 0x80 MLOAD PUSH2 0xA7D PUSH2 0x35 PUSH0 CODECOPY PUSH0 PUSH2 0x3EF ADD MSTORE PUSH2 0xA7D PUSH0 RETURN INVALID PUSH1 0x80 PUSH1 0x40 MSTORE CALLVALUE DUP1 ISZERO PUSH2 0xF JUMPI PUSH0 PUSH0 REVERT JUMPDEST POP PUSH1 0x4 CALLDATASIZE LT PUSH2 0x91 JUMPI PUSH0 CALLDATALOAD PUSH1 0xE0 SHR DUP1 PUSH4 0x793816EC GT PUSH2 0x64 JUMPI DUP1 PUSH4 0x793816EC EQ PUSH2 0x131 JUMPI DUP1 PUSH4 0x9080B79B EQ PUSH2 0x14F JUMPI DUP1 PUSH4 0x9B05BF81 EQ PUSH2 0x16B JUMPI DUP1 PUSH4 0xB9C03B9A EQ PUSH2 0x189 JUMPI DUP1 PUSH4 0xED36B3D8 EQ PUSH2 0x1B9 JUMPI PUSH2 0x91 JUMP JUMPDEST DUP1 PUSH4 0x27E235E3 EQ PUSH2 0x95 JUMPI DUP1 PUSH4 0x2C8D37AA EQ PUSH2 0xC5 JUMPI DUP1 PUSH4 0x507AAB7F EQ PUSH2 0xF5 JUMPI DUP1 PUSH4 0x52BA01EF EQ PUSH2 0x113 JUMPI JUMPDEST PUSH0 PUSH0 REVERT JUMPDEST PUSH2 0xAF PUSH1 0x4 DUP1 CALLDATASIZE SUB DUP2 ADD SWAP1 PUSH2 0xAA SWAP2 SWAP1 PUSH2 0x4B7 JUMP JUMPDEST PUSH2 0x1D7 JUMP JUMPDEST PUSH1 0x40 MLOAD PUSH2 0xBC SWAP2 SWAP1 PUSH2 0x4FA JUMP JUMPDEST PUSH1 0x40 MLOAD DUP1 SWAP2 SUB SWAP1 RETURN JUMPDEST PUSH2 0xDF PUSH1 0x4 DUP1 CALLDATASIZE SUB DUP2 ADD SWAP1 PUSH2 0xDA SWAP2 SWAP1 PUSH2 0x535 JUMP JUMPDEST PUSH2 0x1EC JUMP JUMPDEST PUSH1 0x40 MLOAD PUSH2 0xEC SWAP2 SWAP1 PUSH2 0x635 JUMP JUMPDEST PUSH1 0x40 MLOAD DUP1 SWAP2 SUB SWAP1 RETURN JUMPDEST PUSH2 0xFD PUSH2 0x20A JUMP JUMPDEST PUSH1 0x40 MLOAD PUSH2 0x10A SWAP2 SWAP1 PUSH2 0x4FA JUMP JUMPDEST PUSH1 0x40 MLOAD DUP1 SWAP2 SUB SWAP1 RETURN JUMPDEST PUSH2 0x11B PUSH2 0x210 JUMP JUMPDEST PUSH1 0x40 MLOAD PUSH2 0x128 SWAP2 SWAP1 PUSH2 0x4FA JUMP JUMPDEST PUSH1 0x40 MLOAD DUP1 SWAP2 SUB SWAP1 RETURN JUMPDEST PUSH2 0x139 PUSH2 0x3B9 JUMP JUMPDEST PUSH1 0x40 MLOAD PUSH2 0x146 SWAP2 SWAP1 PUSH2 0x4FA JUMP JUMPDEST PUSH1 0x40 MLOAD DUP1 SWAP2 SUB SWAP1 RETURN JUMPDEST PUSH2 0x169 PUSH1 0x4 DUP1 CALLDATASIZE SUB DUP2 ADD SWAP1 PUSH2 0x164 SWAP2 SWAP1 PUSH2 0x7BF JUMP JUMPDEST PUSH2 0x3BE JUMP JUMPDEST STOP JUMPDEST PUSH2 0x173 PUSH2 0x3ED JUMP JUMPDEST PUSH1 0x40 MLOAD PUSH2 0x180 SWAP2 SWAP1 PUSH2 0x4FA JUMP JUMPDEST PUSH1 0x40 MLOAD DUP1 SWAP2 SUB SWAP1 RETURN JUMPDEST PUSH2 0x1A3 PUSH1 0x4 DUP1 CALLDATASIZE SUB DUP2 ADD SWAP1 PUSH2 0x19E SWAP2 SWAP1 PUSH2 0x806 JUMP JUMPDEST PUSH2 0x411 JUMP JUMPDEST PUSH1 0x40 MLOAD PUSH2 0x1B0 SWAP2 SWAP1 PUSH2 0x4FA JUMP JUMPDEST PUSH1 0x40 MLOAD DUP1 SWAP2 SUB SWAP1 RETURN JUMPDEST PUSH2 0x1C1 PUSH2 0x42B JUMP JUMPDEST PUSH1 0x40 MLOAD PUSH2 0x1CE SWAP2 SWAP1 PUSH2 0x4FA JUMP JUMPDEST PUSH1 0x40 MLOAD DUP1 SWAP2 SUB SWAP1 RETURN JUMPDEST PUSH1 0x1 PUSH1 0x20 MSTORE DUP1 PUSH0 MSTORE PUSH1 0x40 PUSH0 KECCAK256 PUSH0 SWAP2 POP SWAP1 POP SLOAD DUP2 JUMP JUMPDEST PUSH2 0x1F4 PUSH2 0x433 JUMP JUMPDEST PUSH0 DUP3 PUSH2 0x1FF SWAP1 PUSH2 0x952 JUMP JUMPDEST SWAP1 POP DUP1 SWAP2 POP POP SWAP2 SWAP1 POP JUMP JUMPDEST PUSH2 0x3E8 DUP2 JUMP JUMPDEST PUSH0 PUSH0 PUSH1 0x3 PUSH8 0xFFFFFFFFFFFFFFFF DUP2 GT ISZERO PUSH2 0x22D JUMPI PUSH2 0x22C PUSH2 0x659 JUMP JUMPDEST JUMPDEST PUSH1 0x40 MLOAD SWAP1 DUP1 DUP3 MSTORE DUP1 PUSH1 0x20 MUL PUSH1 0x20 ADD DUP3 ADD PUSH1 0x40 MSTORE DUP1 ISZERO PUSH2 0x25B JUMPI DUP2 PUSH1 0x20 ADD PUSH1 0x20 DUP3 MUL DUP1 CALLDATASIZE DUP4 CALLDATACOPY DUP1 DUP3 ADD SWAP2 POP POP SWAP1 POP JUMPDEST POP SWAP1 POP PUSH0 PUSH1 0x40 MLOAD DUP1 PUSH1 0x40 ADD PUSH1 0x40 MSTORE DUP1 PUSH1 0x5 DUP2 MSTORE PUSH1 0x20 ADD PUSH32 0x48656C6C6F000000000000000000000000000000000000000000000000000000 DUP2 MSTORE POP SWAP1 POP PUSH0 PUSH1 0xA PUSH8 0xFFFFFFFFFFFFFFFF DUP2 GT ISZERO PUSH2 0x2B3 JUMPI PUSH2 0x2B2 PUSH2 0x659 JUMP JUMPDEST JUMPDEST PUSH1 0x40 MLOAD SWAP1 DUP1 DUP3 MSTORE DUP1 PUSH1 0x1F ADD PUSH1 0x1F NOT AND PUSH1 0x20 ADD DUP3 ADD PUSH1 0x40 MSTORE DUP1 ISZERO PUSH2 0x2E5 JUMPI DUP2 PUSH1 0x20 ADD PUSH1 0x1 DUP3 MUL DUP1 CALLDATASIZE DUP4 CALLDATACOPY DUP1 DUP3 ADD SWAP2 POP POP SWAP1 POP JUMPDEST POP SWAP1 POP PUSH0 PUSH1 0x7B SWAP1 POP PUSH0 PUSH1 0x1 SWAP1 POP PUSH0 CALLER SWAP1 POP PUSH0 PUSH1 0xFF SWAP1 POP PUSH0 PUSH1 0x2 SWAP1 POP PUSH0 PUSH1 0x1 SWAP1 POP PUSH0 PUSH1 0x40 MLOAD DUP1 PUSH1 0x40 ADD PUSH1 0x40 MSTORE DUP1 PUSH1 0x64 DUP2 MSTORE PUSH1 0x20 ADD PUSH1 0x40 MLOAD DUP1 PUSH1 0x40 ADD PUSH1 0x40 MSTORE DUP1 PUSH1 0x4 DUP2 MSTORE PUSH1 0x20 ADD PUSH32 0x5465737400000000000000000000000000000000000000000000000000000000 DUP2 MSTORE POP DUP2 MSTORE POP SWAP1 POP PUSH0 PUSH0 SWAP1 POP JUMPDEST PUSH1 0x3 DUP2 PUSH1 0xFF AND LT ISZERO PUSH2 0x3A8 JUMPI PUSH0 PUSH1 0x2 DUP3 PUSH2 0x372 SWAP2 SWAP1 PUSH2 0x99D JUMP JUMPDEST PUSH1 0xFF AND SWAP1 POP DUP1 DUP13 DUP4 PUSH1 0xFF AND DUP2 MLOAD DUP2 LT PUSH2 0x38E JUMPI PUSH2 0x38D PUSH2 0x9D9 JUMP JUMPDEST JUMPDEST PUSH1 0x20 MUL PUSH1 0x20 ADD ADD DUP2 DUP2 MSTORE POP POP POP DUP1 DUP1 PUSH1 0x1 ADD SWAP2 POP POP PUSH2 0x358 JUMP JUMPDEST POP DUP7 SWAP11 POP POP POP POP POP POP POP POP POP POP POP SWAP1 JUMP JUMPDEST PUSH0 SLOAD DUP2 JUMP JUMPDEST PUSH0 DUP2 SWAP1 POP PUSH1 0x2 PUSH1 0x64 SWAP1 DUP1 PUSH1 0x1 DUP2 SLOAD ADD DUP1 DUP3 SSTORE DUP1 SWAP2 POP POP PUSH1 0x1 SWAP1 SUB SWAP1 PUSH0 MSTORE PUSH1 0x20 PUSH0 KECCAK256 ADD PUSH0 SWAP1 SWAP2 SWAP1 SWAP2 SWAP1 SWAP2 POP SSTORE POP POP JUMP JUMPDEST PUSH32 0x0 DUP2 JUMP JUMPDEST PUSH0 PUSH0 PUSH1 0x2 DUP4 PUSH2 0x420 SWAP2 SWAP1 PUSH2 0xA06 JUMP JUMPDEST SWAP1 POP DUP1 SWAP2 POP POP SWAP2 SWAP1 POP JUMP JUMPDEST PUSH0 PUSH0 SLOAD SWAP1 POP SWAP1 JUMP JUMPDEST PUSH1 0x40 MLOAD DUP1 PUSH1 0x40 ADD PUSH1 0x40 MSTORE DUP1 PUSH0 DUP2 MSTORE PUSH1 0x20 ADD PUSH1 0x60 DUP2 MSTORE POP SWAP1 JUMP JUMPDEST PUSH0 PUSH1 0x40 MLOAD SWAP1 POP SWAP1 JUMP JUMPDEST PUSH0 PUSH0 REVERT JUMPDEST PUSH0 PUSH0 REVERT JUMPDEST PUSH0 PUSH20 0xFFFFFFFFFFFFFFFFFFFFFFFFFFFFFFFFFFFFFFFF DUP3 AND SWAP1 POP SWAP2 SWAP1 POP JUMP JUMPDEST PUSH0 PUSH2 0x486 DUP3 PUSH2 0x45D JUMP JUMPDEST SWAP1 POP SWAP2 SWAP1 POP JUMP JUMPDEST PUSH2 0x496 DUP2 PUSH2 0x47C JUMP JUMPDEST DUP2 EQ PUSH2 0x4A0 JUMPI PUSH0 PUSH0 REVERT JUMPDEST POP JUMP JUMPDEST PUSH0 DUP2 CALLDATALOAD SWAP1 POP PUSH2 0x4B1 DUP2 PUSH2 0x48D JUMP JUMPDEST SWAP3 SWAP2 POP POP JUMP JUMPDEST PUSH0 PUSH1 0x20 DUP3 DUP5 SUB SLT ISZERO PUSH2 0x4CC JUMPI PUSH2 0x4CB PUSH2 0x455 JUMP JUMPDEST JUMPDEST PUSH0 PUSH2 0x4D9 DUP5 DUP3 DUP6 ADD PUSH2 0x4A3 JUMP JUMPDEST SWAP2 POP POP SWAP3 SWAP2 POP POP JUMP JUMPDEST PUSH0 DUP2 SWAP1 POP SWAP2 SWAP1 POP JUMP JUMPDEST PUSH2 0x4F4 DUP2 PUSH2 0x4E2 JUMP JUMPDEST DUP3 MSTORE POP POP JUMP JUMPDEST PUSH0 PUSH1 0x20 DUP3 ADD SWAP1 POP PUSH2 0x50D PUSH0 DUP4 ADD DUP5 PUSH2 0x4EB JUMP JUMPDEST SWAP3 SWAP2 POP POP JUMP JUMPDEST PUSH0 PUSH0 REVERT JUMPDEST PUSH0 PUSH1 0x40 DUP3 DUP5 SUB SLT ISZERO PUSH2 0x52C JUMPI PUSH2 0x52B PUSH2 0x513 JUMP JUMPDEST JUMPDEST DUP2 SWAP1 POP SWAP3 SWAP2 POP POP JUMP JUMPDEST PUSH0 PUSH1 0x20 DUP3 DUP5 SUB SLT ISZERO PUSH2 0x54A JUMPI PUSH2 0x549 PUSH2 0x455 JUMP JUMPDEST JUMPDEST PUSH0 DUP3 ADD CALLDATALOAD PUSH8 0xFFFFFFFFFFFFFFFF DUP2 GT ISZERO PUSH2 0x567 JUMPI PUSH2 0x566 PUSH2 0x459 JUMP JUMPDEST JUMPDEST PUSH2 0x573 DUP5 DUP3 DUP6 ADD PUSH2 0x517 JUMP JUMPDEST SWAP2 POP POP SWAP3 SWAP2 POP POP JUMP JUMPDEST PUSH2 0x585 DUP2 PUSH2 0x4E2 JUMP JUMPDEST DUP3 MSTORE POP POP JUMP JUMPDEST PUSH0 DUP2 MLOAD SWAP1 POP SWAP2 SWAP1 POP JUMP JUMPDEST PUSH0 DUP3 DUP3 MSTORE PUSH1 0x20 DUP3 ADD SWAP1 POP SWAP3 SWAP2 POP POP JUMP JUMPDEST DUP3 DUP2 DUP4 MCOPY PUSH0 DUP4 DUP4 ADD MSTORE POP POP POP JUMP JUMPDEST PUSH0 PUSH1 0x1F NOT PUSH1 0x1F DUP4 ADD AND SWAP1 POP SWAP2 SWAP1 POP JUMP JUMPDEST PUSH0 PUSH2 0x5CD DUP3 PUSH2 0x58B JUMP JUMPDEST PUSH2 0x5D7 DUP2 DUP6 PUSH2 0x595 JUMP JUMPDEST SWAP4 POP PUSH2 0x5E7 DUP2 DUP6 PUSH1 0x20 DUP7 ADD PUSH2 0x5A5 JUMP JUMPDEST PUSH2 0x5F0 DUP2 PUSH2 0x5B3 JUMP JUMPDEST DUP5 ADD SWAP2 POP POP SWAP3 SWAP2 POP POP JUMP JUMPDEST PUSH0 PUSH1 0x40 DUP4 ADD PUSH0 DUP4 ADD MLOAD PUSH2 0x610 PUSH0 DUP7 ADD DUP3 PUSH2 0x57C JUMP JUMPDEST POP PUSH1 0x20 DUP4 ADD MLOAD DUP5 DUP3 SUB PUSH1 0x20 DUP7 ADD MSTORE PUSH2 0x628 DUP3 DUP3 PUSH2 0x5C3 JUMP JUMPDEST SWAP2 POP POP DUP1 SWAP2 POP POP SWAP3 SWAP2 POP POP JUMP JUMPDEST PUSH0 PUSH1 0x20 DUP3 ADD SWAP1 POP DUP2 DUP2 SUB PUSH0 DUP4 ADD MSTORE PUSH2 0x64D DUP2 DUP5 PUSH2 0x5FB JUMP JUMPDEST SWAP1 POP SWAP3 SWAP2 POP POP JUMP JUMPDEST PUSH0 PUSH0 REVERT JUMPDEST PUSH32 0x4E487B7100000000000000000000000000000000000000000000000000000000 PUSH0 MSTORE PUSH1 0x41 PUSH1 0x4 MSTORE PUSH1 0x24 PUSH0 REVERT JUMPDEST PUSH2 0x68F DUP3 PUSH2 0x5B3 JUMP JUMPDEST DUP2 ADD DUP2 DUP2 LT PUSH8 0xFFFFFFFFFFFFFFFF DUP3 GT OR ISZERO PUSH2 0x6AE JUMPI PUSH2 0x6AD PUSH2 0x659 JUMP JUMPDEST JUMPDEST DUP1 PUSH1 0x40 MSTORE POP POP POP JUMP JUMPDEST PUSH0 PUSH2 0x6C0 PUSH2 0x44C JUMP JUMPDEST SWAP1 POP PUSH2 0x6CC DUP3 DUP3 PUSH2 0x686 JUMP JUMPDEST SWAP2 SWAP1 POP JUMP JUMPDEST PUSH0 PUSH8 0xFFFFFFFFFFFFFFFF DUP3 GT ISZERO PUSH2 0x6EB JUMPI PUSH2 0x6EA PUSH2 0x659 JUMP JUMPDEST JUMPDEST PUSH1 0x20 DUP3 MUL SWAP1 POP PUSH1 0x20 DUP2 ADD SWAP1 POP SWAP2 SWAP1 POP JUMP JUMPDEST PUSH0 PUSH0 REVERT JUMPDEST PUSH2 0x709 DUP2 PUSH2 0x4E2 JUMP JUMPDEST DUP2 EQ PUSH2 0x713 JUMPI PUSH0 PUSH0 REVERT JUMPDEST POP JUMP JUMPDEST PUSH0 DUP2 CALLDATALOAD SWAP1 POP PUSH2 0x724 DUP2 PUSH2 0x700 JUMP JUMPDEST SWAP3 SWAP2 POP POP JUMP JUMPDEST PUSH0 PUSH2 0x73C PUSH2 0x737 DUP5 PUSH2 0x6D1 JUMP JUMPDEST PUSH2 0x6B7 JUMP JUMPDEST SWAP1 POP DUP1 DUP4 DUP3 MSTORE PUSH1 0x20 DUP3 ADD SWAP1 POP PUSH1 0x20 DUP5 MUL DUP4 ADD DUP6 DUP2 GT ISZERO PUSH2 0x75F JUMPI PUSH2 0x75E PUSH2 0x6FC JUMP JUMPDEST JUMPDEST DUP4 JUMPDEST DUP2 DUP2 LT ISZERO PUSH2 0x788 JUMPI DUP1 PUSH2 0x774 DUP9 DUP3 PUSH2 0x716 JUMP JUMPDEST DUP5 MSTORE PUSH1 0x20 DUP5 ADD SWAP4 POP POP PUSH1 0x20 DUP2 ADD SWAP1 POP PUSH2 0x761 JUMP JUMPDEST POP POP POP SWAP4 SWAP3 POP POP POP JUMP JUMPDEST PUSH0 DUP3 PUSH1 0x1F DUP4 ADD SLT PUSH2 0x7A6 JUMPI PUSH2 0x7A5 PUSH2 0x655 JUMP JUMPDEST JUMPDEST DUP2 CALLDATALOAD PUSH2 0x7B6 DUP5 DUP3 PUSH1 0x20 DUP7 ADD PUSH2 0x72A JUMP JUMPDEST SWAP2 POP POP SWAP3 SWAP2 POP POP JUMP JUMPDEST PUSH0 PUSH1 0x20 DUP3 DUP5 SUB SLT ISZERO PUSH2 0x7D4 JUMPI PUSH2 0x7D3 PUSH2 0x455 JUMP JUMPDEST JUMPDEST PUSH0 DUP3 ADD CALLDATALOAD PUSH8 0xFFFFFFFFFFFFFFFF DUP2 GT ISZERO PUSH2 0x7F1 JUMPI PUSH2 0x7F0 PUSH2 0x459 JUMP JUMPDEST JUMPDEST PUSH2 0x7FD DUP5 DUP3 DUP6 ADD PUSH2 0x792 JUMP JUMPDEST SWAP2 POP POP SWAP3 SWAP2 POP POP JUMP JUMPDEST PUSH0 PUSH1 0x20 DUP3 DUP5 SUB SLT ISZERO PUSH2 0x81B JUMPI PUSH2 0x81A PUSH2 0x455 JUMP JUMPDEST JUMPDEST PUSH0 PUSH2 0x828 DUP5 DUP3 DUP6 ADD PUSH2 0x716 JUMP JUMPDEST SWAP2 POP POP SWAP3 SWAP2 POP POP JUMP JUMPDEST PUSH0 PUSH0 REVERT JUMPDEST PUSH0 PUSH0 REVERT JUMPDEST PUSH0 PUSH0 REVERT JUMPDEST PUSH0 PUSH8 0xFFFFFFFFFFFFFFFF DUP3 GT ISZERO PUSH2 0x857 JUMPI PUSH2 0x856 PUSH2 0x659 JUMP JUMPDEST JUMPDEST PUSH2 0x860 DUP3 PUSH2 0x5B3 JUMP JUMPDEST SWAP1 POP PUSH1 0x20 DUP2 ADD SWAP1 POP SWAP2 SWAP1 POP JUMP JUMPDEST DUP3 DUP2 DUP4 CALLDATACOPY PUSH0 DUP4 DUP4 ADD MSTORE POP POP POP JUMP JUMPDEST PUSH0 PUSH2 0x88D PUSH2 0x888 DUP5 PUSH2 0x83D JUMP JUMPDEST PUSH2 0x6B7 JUMP JUMPDEST SWAP1 POP DUP3 DUP2 MSTORE PUSH1 0x20 DUP2 ADD DUP5 DUP5 DUP5 ADD GT ISZERO PUSH2 0x8A9 JUMPI PUSH2 0x8A8 PUSH2 0x839 JUMP JUMPDEST JUMPDEST PUSH2 0x8B4 DUP5 DUP3 DUP6 PUSH2 0x86D JUMP JUMPDEST POP SWAP4 SWAP3 POP POP POP JUMP JUMPDEST PUSH0 DUP3 PUSH1 0x1F DUP4 ADD SLT PUSH2 0x8D0 JUMPI PUSH2 0x8CF PUSH2 0x655 JUMP JUMPDEST JUMPDEST DUP2 CALLDATALOAD PUSH2 0x8E0 DUP5 DUP3 PUSH1 0x20 DUP7 ADD PUSH2 0x87B JUMP JUMPDEST SWAP2 POP POP SWAP3 SWAP2 POP POP JUMP JUMPDEST PUSH0 PUSH1 0x40 DUP3 DUP5 SUB SLT ISZERO PUSH2 0x8FE JUMPI PUSH2 0x8FD PUSH2 0x831 JUMP JUMPDEST JUMPDEST PUSH2 0x908 PUSH1 0x40 PUSH2 0x6B7 JUMP JUMPDEST SWAP1 POP PUSH0 PUSH2 0x917 DUP5 DUP3 DUP6 ADD PUSH2 0x716 JUMP JUMPDEST PUSH0 DUP4 ADD MSTORE POP PUSH1 0x20 DUP3 ADD CALLDATALOAD PUSH8 0xFFFFFFFFFFFFFFFF DUP2 GT ISZERO PUSH2 0x93A JUMPI PUSH2 0x939 PUSH2 0x835 JUMP JUMPDEST JUMPDEST PUSH2 0x946 DUP5 DUP3 DUP6 ADD PUSH2 0x8BC JUMP JUMPDEST PUSH1 0x20 DUP4 ADD MSTORE POP SWAP3 SWAP2 POP POP JUMP JUMPDEST PUSH0 PUSH2 0x95D CALLDATASIZE DUP4 PUSH2 0x8E9 JUMP JUMPDEST SWAP1 POP SWAP2 SWAP1 POP JUMP JUMPDEST PUSH0 PUSH1 0xFF DUP3 AND SWAP1 POP SWAP2 SWAP1 POP JUMP JUMPDEST PUSH32 0x4E487B7100000000000000000000000000000000000000000000000000000000 PUSH0 MSTORE PUSH1 0x11 PUSH1 0x4 MSTORE PUSH1 0x24 PUSH0 REVERT JUMPDEST PUSH0 PUSH2 0x9A7 DUP3 PUSH2 0x964 JUMP JUMPDEST SWAP2 POP PUSH2 0x9B2 DUP4 PUSH2 0x964 JUMP JUMPDEST SWAP3 POP DUP3 DUP3 MUL PUSH2 0x9C0 DUP2 PUSH2 0x964 JUMP JUMPDEST SWAP2 POP DUP1 DUP3 EQ PUSH2 0x9D2 JUMPI PUSH2 0x9D1 PUSH2 0x970 JUMP JUMPDEST JUMPDEST POP SWAP3 SWAP2 POP POP JUMP JUMPDEST PUSH32 0x4E487B7100000000000000000000000000000000000000000000000000000000 PUSH0 MSTORE PUSH1 0x32 PUSH1 0x4 MSTORE PUSH1 0x24 PUSH0 REVERT JUMPDEST PUSH0 PUSH2 0xA10 DUP3 PUSH2 0x4E2 JUMP JUMPDEST SWAP2 POP PUSH2 0xA1B DUP4 PUSH2 0x4E2 JUMP JUMPDEST SWAP3 POP DUP3 DUP3 MUL PUSH2 0xA29 DUP2 PUSH2 0x4E2 JUMP JUMPDEST SWAP2 POP DUP3 DUP3 DIV DUP5 EQ DUP4 ISZERO OR PUSH2 0xA40 JUMPI PUSH2 0xA3F PUSH2 0x970 JUMP JUMPDEST JUMPDEST POP SWAP3 SWAP2 POP POP JUMP INVALID LOG2 PUSH5 0x6970667358 0x22 SLT KECCAK256 SHR DUP5 PUSH10 0xD663CBDB58401A54D92F JUMPDEST CALLDATASIZE SDIV 0xCC PUSH25 0xA80102DB3A50EA01152CB983511764736F6C634300081E0033 "
		},
		"gasEstimates": {
			"creation": {
				"codeDepositCost": "537000",
				"executionCost": "infinite",
				"totalCost": "infinite"
			},
			"external": {
				"CONSTANT_VAR()": "370",
				"IMMUTABLE_VAR()": "infinite",
				"balances(address)": "2803",
				"calldataTempstruct((uint256,string))": "infinite",
				"claimVar()": "infinite",
				"pureFunction(uint256)": "infinite",
				"referenceExample(uint256[])": "infinite",
				"stateVar()": "2424",
				"viewFunction()": "2519"
			}
		},
		"methodIdentifiers": {
			"CONSTANT_VAR()": "507aab7f",
			"IMMUTABLE_VAR()": "9b05bf81",
			"balances(address)": "27e235e3",
			"calldataTempstruct((uint256,string))": "2c8d37aa",
			"claimVar()": "52ba01ef",
			"pureFunction(uint256)": "b9c03b9a",
			"referenceExample(uint256[])": "9080b79b",
			"stateVar()": "793816ec",
			"viewFunction()": "ed36b3d8"
		}
	},
	"abi": [
		{
			"inputs": [],
			"stateMutability": "nonpayable",
			"type": "constructor"
		},
		{
			"inputs": [],
			"name": "CONSTANT_VAR",
			"outputs": [
				{
					"internalType": "uint256",
					"name": "",
					"type": "uint256"
				}
			],
			"stateMutability": "view",
			"type": "function"
		},
		{
			"inputs": [],
			"name": "IMMUTABLE_VAR",
			"outputs": [
				{
					"internalType": "uint256",
					"name": "",
					"type": "uint256"
				}
			],
			"stateMutability": "view",
			"type": "function"
		},
		{
			"inputs": [
				{
					"internalType": "address",
					"name": "",
					"type": "address"
				}
			],
			"name": "balances",
			"outputs": [
				{
					"internalType": "uint256",
					"name": "",
					"type": "uint256"
				}
			],
			"stateMutability": "view",
			"type": "function"
		},
		{
			"inputs": [
				{
					"components": [
						{
							"internalType": "uint256",
							"name": "value",
							"type": "uint256"
						},
						{
							"internalType": "string",
							"name": "name",
							"type": "string"
						}
					],
					"internalType": "struct ExampleContract.TempStruct",
					"name": "ts",
					"type": "tuple"
				}
			],
			"name": "calldataTempstruct",
			"outputs": [
				{
					"components": [
						{
							"internalType": "uint256",
							"name": "value",
							"type": "uint256"
						},
						{
							"internalType": "string",
							"name": "name",
							"type": "string"
						}
					],
					"internalType": "struct ExampleContract.TempStruct",
					"name": "",
					"type": "tuple"
				}
			],
			"stateMutability": "view",
			"type": "function"
		},
		{
			"inputs": [],
			"name": "claimVar",
			"outputs": [
				{
					"internalType": "uint256",
					"name": "",
					"type": "uint256"
				}
			],
			"stateMutability": "view",
			"type": "function"
		},
		{
			"inputs": [
				{
					"internalType": "uint256",
					"name": "x",
					"type": "uint256"
				}
			],
			"name": "pureFunction",
			"outputs": [
				{
					"internalType": "uint256",
					"name": "",
					"type": "uint256"
				}
			],
			"stateMutability": "pure",
			"type": "function"
		},
		{
			"inputs": [
				{
					"internalType": "uint256[]",
					"name": "inputArray",
					"type": "uint256[]"
				}
			],
			"name": "referenceExample",
			"outputs": [],
			"stateMutability": "nonpayable",
			"type": "function"
		},
		{
			"inputs": [],
			"name": "stateVar",
			"outputs": [
				{
					"internalType": "uint256",
					"name": "",
					"type": "uint256"
				}
			],
			"stateMutability": "view",
			"type": "function"
		},
		{
			"inputs": [],
			"name": "viewFunction",
			"outputs": [
				{
					"internalType": "uint256",
					"name": "",
					"type": "uint256"
				}
			],
			"stateMutability": "view",
			"type": "function"
		}
	]
}