{
	"data": {
		"bytecode": {
			"linkReferences": {},
			"object": "6080604052348015600e575f5ffd5b506104b08061001c5f395ff3fe608060405234801561000f575f5ffd5b5060043610610029575f3560e01c8063456e5af11461002d575b5f5ffd5b610047600480360381019061004291906102af565b61005d565b6040516100549190610356565b60405180910390f35b60605f5f90505f6001845161007291906103ac565b90505b80821015610158578381815181106100905761008f6103df565b5b602001015160f81c60f81b8483815181106100ae576100ad6103df565b5b602001015160f81c60f81b8584815181106100cc576100cb6103df565b5b602001018684815181106100e3576100e26103df565b5b60200101827effffffffffffffffffffffffffffffffffffffffffffffffffffffffffffff19165f1a9053827effffffffffffffffffffffffffffffffffffffffffffffffffffffffffffff19165f1a9053505081806101429061040c565b925050808061015090610453565b915050610075565b8392505050919050565b5f604051905090565b5f5ffd5b5f5ffd5b5f5ffd5b5f5ffd5b5f601f19601f8301169050919050565b7f4e487b71000000000000000000000000000000000000000000000000000000005f52604160045260245ffd5b6101c18261017b565b810181811067ffffffffffffffff821117156101e0576101df61018b565b5b80604052505050565b5f6101f2610162565b90506101fe82826101b8565b919050565b5f67ffffffffffffffff82111561021d5761021c61018b565b5b6102268261017b565b9050602081019050919050565b828183375f83830152505050565b5f61025361024e84610203565b6101e9565b90508281526020810184848401111561026f5761026e610177565b5b61027a848285610233565b509392505050565b5f82601f83011261029657610295610173565b5b81356102a6848260208601610241565b91505092915050565b5f602082840312156102c4576102c361016b565b5b5f82013567ffffffffffffffff8111156102e1576102e061016f565b5b6102ed84828501610282565b91505092915050565b5f81519050919050565b5f82825260208201905092915050565b8281835e5f83830152505050565b5f610328826102f6565b6103328185610300565b9350610342818560208601610310565b61034b8161017b565b840191505092915050565b5f6020820190508181035f83015261036e818461031e565b905092915050565b5f819050919050565b7f4e487b71000000000000000000000000000000000000000000000000000000005f52601160045260245ffd5b5f6103b682610376565b91506103c183610376565b92508282039050818111156103d9576103d861037f565b5b92915050565b7f4e487b71000000000000000000000000000000000000000000000000000000005f52603260045260245ffd5b5f61041682610376565b91507fffffffffffffffffffffffffffffffffffffffffffffffffffffffffffffffff82036104485761044761037f565b5b600182019050919050565b5f61045d82610376565b91505f820361046f5761046e61037f565b5b60018203905091905056fea2646970667358221220d0529c727a96b6fee313c4d3d6a1c9c5f8412b35e08d049f972603eb4cf2f07664736f6c634300081e0033",
			"opcodes": "PUSH1 0x80 PUSH1 0x40 MSTORE CALLVALUE DUP1 ISZERO PUSH1 0xE JUMPI PUSH0 PUSH0 REVERT JUMPDEST POP PUSH2 0x4B0 DUP1 PUSH2 0x1C PUSH0 CODECOPY PUSH0 RETURN INVALID PUSH1 0x80 PUSH1 0x40 MSTORE CALLVALUE DUP1 ISZERO PUSH2 0xF JUMPI PUSH0 PUSH0 REVERT JUMPDEST POP PUSH1 0x4 CALLDATASIZE LT PUSH2 0x29 JUMPI PUSH0 CALLDATALOAD PUSH1 0xE0 SHR DUP1 PUSH4 0x456E5AF1 EQ PUSH2 0x2D JUMPI JUMPDEST PUSH0 PUSH0 REVERT JUMPDEST PUSH2 0x47 PUSH1 0x4 DUP1 CALLDATASIZE SUB DUP2 ADD SWAP1 PUSH2 0x42 SWAP2 SWAP1 PUSH2 0x2AF JUMP JUMPDEST PUSH2 0x5D JUMP JUMPDEST PUSH1 0x40 MLOAD PUSH2 0x54 SWAP2 SWAP1 PUSH2 0x356 JUMP JUMPDEST PUSH1 0x40 MLOAD DUP1 SWAP2 SUB SWAP1 RETURN JUMPDEST PUSH1 0x60 PUSH0 PUSH0 SWAP1 POP PUSH0 PUSH1 0x1 DUP5 MLOAD PUSH2 0x72 SWAP2 SWAP1 PUSH2 0x3AC JUMP JUMPDEST SWAP1 POP JUMPDEST DUP1 DUP3 LT ISZERO PUSH2 0x158 JUMPI DUP4 DUP2 DUP2 MLOAD DUP2 LT PUSH2 0x90 JUMPI PUSH2 0x8F PUSH2 0x3DF JUMP JUMPDEST JUMPDEST PUSH1 0x20 ADD ADD MLOAD PUSH1 0xF8 SHR PUSH1 0xF8 SHL DUP5 DUP4 DUP2 MLOAD DUP2 LT PUSH2 0xAE JUMPI PUSH2 0xAD PUSH2 0x3DF JUMP JUMPDEST JUMPDEST PUSH1 0x20 ADD ADD MLOAD PUSH1 0xF8 SHR PUSH1 0xF8 SHL DUP6 DUP5 DUP2 MLOAD DUP2 LT PUSH2 0xCC JUMPI PUSH2 0xCB PUSH2 0x3DF JUMP JUMPDEST JUMPDEST PUSH1 0x20 ADD ADD DUP7 DUP5 DUP2 MLOAD DUP2 LT PUSH2 0xE3 JUMPI PUSH2 0xE2 PUSH2 0x3DF JUMP JUMPDEST JUMPDEST PUSH1 0x20 ADD ADD DUP3 PUSH31 0xFFFFFFFFFFFFFFFFFFFFFFFFFFFFFFFFFFFFFFFFFFFFFFFFFFFFFFFFFFFFFF NOT AND PUSH0 BYTE SWAP1 MSTORE8 DUP3 PUSH31 0xFFFFFFFFFFFFFFFFFFFFFFFFFFFFFFFFFFFFFFFFFFFFFFFFFFFFFFFFFFFFFF NOT AND PUSH0 BYTE SWAP1 MSTORE8 POP POP DUP2 DUP1 PUSH2 0x142 SWAP1 PUSH2 0x40C JUMP JUMPDEST SWAP3 POP POP DUP1 DUP1 PUSH2 0x150 SWAP1 PUSH2 0x453 JUMP JUMPDEST SWAP2 POP POP PUSH2 0x75 JUMP JUMPDEST DUP4 SWAP3 POP POP POP SWAP2 SWAP1 POP JUMP JUMPDEST PUSH0 PUSH1 0x40 MLOAD SWAP1 POP SWAP1 JUMP JUMPDEST PUSH0 PUSH0 REVERT JUMPDEST PUSH0 PUSH0 REVERT JUMPDEST PUSH0 PUSH0 REVERT JUMPDEST PUSH0 PUSH0 REVERT JUMPDEST PUSH0 PUSH1 0x1F NOT PUSH1 0x1F DUP4 ADD AND SWAP1 POP SWAP2 SWAP1 POP JUMP JUMPDEST PUSH32 0x4E487B7100000000000000000000000000000000000000000000000000000000 PUSH0 MSTORE PUSH1 0x41 PUSH1 0x4 MSTORE PUSH1 0x24 PUSH0 REVERT JUMPDEST PUSH2 0x1C1 DUP3 PUSH2 0x17B JUMP JUMPDEST DUP2 ADD DUP2 DUP2 LT PUSH8 0xFFFFFFFFFFFFFFFF DUP3 GT OR ISZERO PUSH2 0x1E0 JUMPI PUSH2 0x1DF PUSH2 0x18B JUMP JUMPDEST JUMPDEST DUP1 PUSH1 0x40 MSTORE POP POP POP JUMP JUMPDEST PUSH0 PUSH2 0x1F2 PUSH2 0x162 JUMP JUMPDEST SWAP1 POP PUSH2 0x1FE DUP3 DUP3 PUSH2 0x1B8 JUMP JUMPDEST SWAP2 SWAP1 POP JUMP JUMPDEST PUSH0 PUSH8 0xFFFFFFFFFFFFFFFF DUP3 GT ISZERO PUSH2 0x21D JUMPI PUSH2 0x21C PUSH2 0x18B JUMP JUMPDEST JUMPDEST PUSH2 0x226 DUP3 PUSH2 0x17B JUMP JUMPDEST SWAP1 POP PUSH1 0x20 DUP2 ADD SWAP1 POP SWAP2 SWAP1 POP JUMP JUMPDEST DUP3 DUP2 DUP4 CALLDATACOPY PUSH0 DUP4 DUP4 ADD MSTORE POP POP POP JUMP JUMPDEST PUSH0 PUSH2 0x253 PUSH2 0x24E DUP5 PUSH2 0x203 JUMP JUMPDEST PUSH2 0x1E9 JUMP JUMPDEST SWAP1 POP DUP3 DUP2 MSTORE PUSH1 0x20 DUP2 ADD DUP5 DUP5 DUP5 ADD GT ISZERO PUSH2 0x26F JUMPI PUSH2 0x26E PUSH2 0x177 JUMP JUMPDEST JUMPDEST PUSH2 0x27A DUP5 DUP3 DUP6 PUSH2 0x233 JUMP JUMPDEST POP SWAP4 SWAP3 POP POP POP JUMP JUMPDEST PUSH0 DUP3 PUSH1 0x1F DUP4 ADD SLT PUSH2 0x296 JUMPI PUSH2 0x295 PUSH2 0x173 JUMP JUMPDEST JUMPDEST DUP2 CALLDATALOAD PUSH2 0x2A6 DUP5 DUP3 PUSH1 0x20 DUP7 ADD PUSH2 0x241 JUMP JUMPDEST SWAP2 POP POP SWAP3 SWAP2 POP POP JUMP JUMPDEST PUSH0 PUSH1 0x20 DUP3 DUP5 SUB SLT ISZERO PUSH2 0x2C4 JUMPI PUSH2 0x2C3 PUSH2 0x16B JUMP JUMPDEST JUMPDEST PUSH0 DUP3 ADD CALLDATALOAD PUSH8 0xFFFFFFFFFFFFFFFF DUP2 GT ISZERO PUSH2 0x2E1 JUMPI PUSH2 0x2E0 PUSH2 0x16F JUMP JUMPDEST JUMPDEST PUSH2 0x2ED DUP5 DUP3 DUP6 ADD PUSH2 0x282 JUMP JUMPDEST SWAP2 POP POP SWAP3 SWAP2 POP POP JUMP JUMPDEST PUSH0 DUP2 MLOAD SWAP1 POP SWAP2 SWAP1 POP JUMP JUMPDEST PUSH0 DUP3 DUP3 MSTORE PUSH1 0x20 DUP3 ADD SWAP1 POP SWAP3 SWAP2 POP POP JUMP JUMPDEST DUP3 DUP2 DUP4 MCOPY PUSH0 DUP4 DUP4 ADD MSTORE POP POP POP JUMP JUMPDEST PUSH0 PUSH2 0x328 DUP3 PUSH2 0x2F6 JUMP JUMPDEST PUSH2 0x332 DUP2 DUP6 PUSH2 0x300 JUMP JUMPDEST SWAP4 POP PUSH2 0x342 DUP2 DUP6 PUSH1 0x20 DUP7 ADD PUSH2 0x310 JUMP JUMPDEST PUSH2 0x34B DUP2 PUSH2 0x17B JUMP JUMPDEST DUP5 ADD SWAP2 POP POP SWAP3 SWAP2 POP POP JUMP JUMPDEST PUSH0 PUSH1 0x20 DUP3 ADD SWAP1 POP DUP2 DUP2 SUB PUSH0 DUP4 ADD MSTORE PUSH2 0x36E DUP2 DUP5 PUSH2 0x31E JUMP JUMPDEST SWAP1 POP SWAP3 SWAP2 POP POP JUMP JUMPDEST PUSH0 DUP2 SWAP1 POP SWAP2 SWAP1 POP JUMP JUMPDEST PUSH32 0x4E487B7100000000000000000000000000000000000000000000000000000000 PUSH0 MSTORE PUSH1 0x11 PUSH1 0x4 MSTORE PUSH1 0x24 PUSH0 REVERT JUMPDEST PUSH0 PUSH2 0x3B6 DUP3 PUSH2 0x376 JUMP JUMPDEST SWAP2 POP PUSH2 0x3C1 DUP4 PUSH2 0x376 JUMP JUMPDEST SWAP3 POP DUP3 DUP3 SUB SWAP1 POP DUP2 DUP2 GT ISZERO PUSH2 0x3D9 JUMPI PUSH2 0x3D8 PUSH2 0x37F JUMP JUMPDEST JUMPDEST SWAP3 SWAP2 POP POP JUMP JUMPDEST PUSH32 0x4E487B7100000000000000000000000000000000000000000000000000000000 PUSH0 MSTORE PUSH1 0x32 PUSH1 0x4 MSTORE PUSH1 0x24 PUSH0 REVERT JUMPDEST PUSH0 PUSH2 0x416 DUP3 PUSH2 0x376 JUMP JUMPDEST SWAP2 POP PUSH32 0xFFFFFFFFFFFFFFFFFFFFFFFFFFFFFFFFFFFFFFFFFFFFFFFFFFFFFFFFFFFFFFFF DUP3 SUB PUSH2 0x448 JUMPI PUSH2 0x447 PUSH2 0x37F JUMP JUMPDEST JUMPDEST PUSH1 0x1 DUP3 ADD SWAP1 POP SWAP2 SWAP1 POP JUMP JUMPDEST PUSH0 PUSH2 0x45D DUP3 PUSH2 0x376 JUMP JUMPDEST SWAP2 POP PUSH0 DUP3 SUB PUSH2 0x46F JUMPI PUSH2 0x46E PUSH2 0x37F JUMP JUMPDEST JUMPDEST PUSH1 0x1 DUP3 SUB SWAP1 POP SWAP2 SWAP1 POP JUMP INVALID LOG2 PUSH5 0x6970667358 0x22 SLT KECCAK256 0xD0 MSTORE SWAP13 PUSH19 0x7A96B6FEE313C4D3D6A1C9C5F8412B35E08D04 SWAP16 SWAP8 0x26 SUB 0xEB 0x4C CALLCODE CREATE PUSH23 0x64736F6C634300081E0033000000000000000000000000 "
		},
		"gasEstimates": {
			"creation": {
				"codeDepositCost": "240000",
				"executionCost": "279",
				"totalCost": "240279"
			},
			"external": {
				"reverseString2(bytes)": "infinite"
			}
		},
		"methodIdentifiers": {
			"reverseString2(bytes)": "456e5af1"
		}
	},
	"abi": [
		{
			"inputs": [
				{
					"internalType": "bytes",
					"name": "str",
					"type": "bytes"
				}
			],
			"name": "reverseString2",
			"outputs": [
				{
					"internalType": "bytes",
					"name": "",
					"type": "bytes"
				}
			],
			"stateMutability": "pure",
			"type": "function"
		}
	]
}