{
	"data": {
		"bytecode": {
			"linkReferences": {},
			"object": "6080604052348015600e575f5ffd5b506105a08061001c5f395ff3fe608060405260043610610033575f3560e01c8063037106681461003757806348c981e214610074578063f8b2cb4f14610090575b5f5ffd5b348015610042575f5ffd5b5061005d60048036038101906100589190610356565b6100cc565b60405161006b92919061042a565b60405180910390f35b61008e60048036038101906100899190610493565b610148565b005b34801561009b575f5ffd5b506100b660048036038101906100b191906104be565b61018f565b6040516100c39190610501565b60405180910390f35b5f60605f5f8573ffffffffffffffffffffffffffffffffffffffff16856040516100f69190610554565b5f604051808303815f865af19150503d805f811461012f576040519150601f19603f3d011682016040523d82523d5f602084013e610134565b606091505b509150915081819350935050509250929050565b8073ffffffffffffffffffffffffffffffffffffffff166108fc3490811502906040515f60405180830381858888f1935050505015801561018b573d5f5f3e3d5ffd5b5050565b5f8173ffffffffffffffffffffffffffffffffffffffff16319050919050565b5f604051905090565b5f5ffd5b5f5ffd5b5f73ffffffffffffffffffffffffffffffffffffffff82169050919050565b5f6101e9826101c0565b9050919050565b6101f9816101df565b8114610203575f5ffd5b50565b5f81359050610214816101f0565b92915050565b5f5ffd5b5f5ffd5b5f601f19601f8301169050919050565b7f4e487b71000000000000000000000000000000000000000000000000000000005f52604160045260245ffd5b61026882610222565b810181811067ffffffffffffffff8211171561028757610286610232565b5b80604052505050565b5f6102996101af565b90506102a5828261025f565b919050565b5f67ffffffffffffffff8211156102c4576102c3610232565b5b6102cd82610222565b9050602081019050919050565b828183375f83830152505050565b5f6102fa6102f5846102aa565b610290565b9050828152602081018484840111156103165761031561021e565b5b6103218482856102da565b509392505050565b5f82601f83011261033d5761033c61021a565b5b813561034d8482602086016102e8565b91505092915050565b5f5f6040838503121561036c5761036b6101b8565b5b5f61037985828601610206565b925050602083013567ffffffffffffffff81111561039a576103996101bc565b5b6103a685828601610329565b9150509250929050565b5f8115159050919050565b6103c4816103b0565b82525050565b5f81519050919050565b5f82825260208201905092915050565b8281835e5f83830152505050565b5f6103fc826103ca565b61040681856103d4565b93506104168185602086016103e4565b61041f81610222565b840191505092915050565b5f60408201905061043d5f8301856103bb565b818103602083015261044f81846103f2565b90509392505050565b5f610462826101c0565b9050919050565b61047281610458565b811461047c575f5ffd5b50565b5f8135905061048d81610469565b92915050565b5f602082840312156104a8576104a76101b8565b5b5f6104b58482850161047f565b91505092915050565b5f602082840312156104d3576104d26101b8565b5b5f6104e084828501610206565b91505092915050565b5f819050919050565b6104fb816104e9565b82525050565b5f6020820190506105145f8301846104f2565b92915050565b5f81905092915050565b5f61052e826103ca565b610538818561051a565b93506105488185602086016103e4565b80840191505092915050565b5f61055f8284610524565b91508190509291505056fea26469706673582212206c7c18fc1f15bc9c36c697ed5b0929b0fa92dddfd0aceb35ec48dc97534926dd64736f6c634300081e0033",
			"opcodes": "PUSH1 0x80 PUSH1 0x40 MSTORE CALLVALUE DUP1 ISZERO PUSH1 0xE JUMPI PUSH0 PUSH0 REVERT JUMPDEST POP PUSH2 0x5A0 DUP1 PUSH2 0x1C PUSH0 CODECOPY PUSH0 RETURN INVALID PUSH1 0x80 PUSH1 0x40 MSTORE PUSH1 0x4 CALLDATASIZE LT PUSH2 0x33 JUMPI PUSH0 CALLDATALOAD PUSH1 0xE0 SHR DUP1 PUSH4 0x3710668 EQ PUSH2 0x37 JUMPI DUP1 PUSH4 0x48C981E2 EQ PUSH2 0x74 JUMPI DUP1 PUSH4 0xF8B2CB4F EQ PUSH2 0x90 JUMPI JUMPDEST PUSH0 PUSH0 REVERT JUMPDEST CALLVALUE DUP1 ISZERO PUSH2 0x42 JUMPI PUSH0 PUSH0 REVERT JUMPDEST POP PUSH2 0x5D PUSH1 0x4 DUP1 CALLDATASIZE SUB DUP2 ADD SWAP1 PUSH2 0x58 SWAP2 SWAP1 PUSH2 0x356 JUMP JUMPDEST PUSH2 0xCC JUMP JUMPDEST PUSH1 0x40 MLOAD PUSH2 0x6B SWAP3 SWAP2 SWAP1 PUSH2 0x42A JUMP JUMPDEST PUSH1 0x40 MLOAD DUP1 SWAP2 SUB SWAP1 RETURN JUMPDEST PUSH2 0x8E PUSH1 0x4 DUP1 CALLDATASIZE SUB DUP2 ADD SWAP1 PUSH2 0x89 SWAP2 SWAP1 PUSH2 0x493 JUMP JUMPDEST PUSH2 0x148 JUMP JUMPDEST STOP JUMPDEST CALLVALUE DUP1 ISZERO PUSH2 0x9B JUMPI PUSH0 PUSH0 REVERT JUMPDEST POP PUSH2 0xB6 PUSH1 0x4 DUP1 CALLDATASIZE SUB DUP2 ADD SWAP1 PUSH2 0xB1 SWAP2 SWAP1 PUSH2 0x4BE JUMP JUMPDEST PUSH2 0x18F JUMP JUMPDEST PUSH1 0x40 MLOAD PUSH2 0xC3 SWAP2 SWAP1 PUSH2 0x501 JUMP JUMPDEST PUSH1 0x40 MLOAD DUP1 SWAP2 SUB SWAP1 RETURN JUMPDEST PUSH0 PUSH1 0x60 PUSH0 PUSH0 DUP6 PUSH20 0xFFFFFFFFFFFFFFFFFFFFFFFFFFFFFFFFFFFFFFFF AND DUP6 PUSH1 0x40 MLOAD PUSH2 0xF6 SWAP2 SWAP1 PUSH2 0x554 JUMP JUMPDEST PUSH0 PUSH1 0x40 MLOAD DUP1 DUP4 SUB DUP2 PUSH0 DUP7 GAS CALL SWAP2 POP POP RETURNDATASIZE DUP1 PUSH0 DUP2 EQ PUSH2 0x12F JUMPI PUSH1 0x40 MLOAD SWAP2 POP PUSH1 0x1F NOT PUSH1 0x3F RETURNDATASIZE ADD AND DUP3 ADD PUSH1 0x40 MSTORE RETURNDATASIZE DUP3 MSTORE RETURNDATASIZE PUSH0 PUSH1 0x20 DUP5 ADD RETURNDATACOPY PUSH2 0x134 JUMP JUMPDEST PUSH1 0x60 SWAP2 POP JUMPDEST POP SWAP2 POP SWAP2 POP DUP2 DUP2 SWAP4 POP SWAP4 POP POP POP SWAP3 POP SWAP3 SWAP1 POP JUMP JUMPDEST DUP1 PUSH20 0xFFFFFFFFFFFFFFFFFFFFFFFFFFFFFFFFFFFFFFFF AND PUSH2 0x8FC CALLVALUE SWAP1 DUP2 ISZERO MUL SWAP1 PUSH1 0x40 MLOAD PUSH0 PUSH1 0x40 MLOAD DUP1 DUP4 SUB DUP2 DUP6 DUP9 DUP9 CALL SWAP4 POP POP POP POP ISZERO DUP1 ISZERO PUSH2 0x18B JUMPI RETURNDATASIZE PUSH0 PUSH0 RETURNDATACOPY RETURNDATASIZE PUSH0 REVERT JUMPDEST POP POP JUMP JUMPDEST PUSH0 DUP2 PUSH20 0xFFFFFFFFFFFFFFFFFFFFFFFFFFFFFFFFFFFFFFFF AND BALANCE SWAP1 POP SWAP2 SWAP1 POP JUMP JUMPDEST PUSH0 PUSH1 0x40 MLOAD SWAP1 POP SWAP1 JUMP JUMPDEST PUSH0 PUSH0 REVERT JUMPDEST PUSH0 PUSH0 REVERT JUMPDEST PUSH0 PUSH20 0xFFFFFFFFFFFFFFFFFFFFFFFFFFFFFFFFFFFFFFFF DUP3 AND SWAP1 POP SWAP2 SWAP1 POP JUMP JUMPDEST PUSH0 PUSH2 0x1E9 DUP3 PUSH2 0x1C0 JUMP JUMPDEST SWAP1 POP SWAP2 SWAP1 POP JUMP JUMPDEST PUSH2 0x1F9 DUP2 PUSH2 0x1DF JUMP JUMPDEST DUP2 EQ PUSH2 0x203 JUMPI PUSH0 PUSH0 REVERT JUMPDEST POP JUMP JUMPDEST PUSH0 DUP2 CALLDATALOAD SWAP1 POP PUSH2 0x214 DUP2 PUSH2 0x1F0 JUMP JUMPDEST SWAP3 SWAP2 POP POP JUMP JUMPDEST PUSH0 PUSH0 REVERT JUMPDEST PUSH0 PUSH0 REVERT JUMPDEST PUSH0 PUSH1 0x1F NOT PUSH1 0x1F DUP4 ADD AND SWAP1 POP SWAP2 SWAP1 POP JUMP JUMPDEST PUSH32 0x4E487B7100000000000000000000000000000000000000000000000000000000 PUSH0 MSTORE PUSH1 0x41 PUSH1 0x4 MSTORE PUSH1 0x24 PUSH0 REVERT JUMPDEST PUSH2 0x268 DUP3 PUSH2 0x222 JUMP JUMPDEST DUP2 ADD DUP2 DUP2 LT PUSH8 0xFFFFFFFFFFFFFFFF DUP3 GT OR ISZERO PUSH2 0x287 JUMPI PUSH2 0x286 PUSH2 0x232 JUMP JUMPDEST JUMPDEST DUP1 PUSH1 0x40 MSTORE POP POP POP JUMP JUMPDEST PUSH0 PUSH2 0x299 PUSH2 0x1AF JUMP JUMPDEST SWAP1 POP PUSH2 0x2A5 DUP3 DUP3 PUSH2 0x25F JUMP JUMPDEST SWAP2 SWAP1 POP JUMP JUMPDEST PUSH0 PUSH8 0xFFFFFFFFFFFFFFFF DUP3 GT ISZERO PUSH2 0x2C4 JUMPI PUSH2 0x2C3 PUSH2 0x232 JUMP JUMPDEST JUMPDEST PUSH2 0x2CD DUP3 PUSH2 0x222 JUMP JUMPDEST SWAP1 POP PUSH1 0x20 DUP2 ADD SWAP1 POP SWAP2 SWAP1 POP JUMP JUMPDEST DUP3 DUP2 DUP4 CALLDATACOPY PUSH0 DUP4 DUP4 ADD MSTORE POP POP POP JUMP JUMPDEST PUSH0 PUSH2 0x2FA PUSH2 0x2F5 DUP5 PUSH2 0x2AA JUMP JUMPDEST PUSH2 0x290 JUMP JUMPDEST SWAP1 POP DUP3 DUP2 MSTORE PUSH1 0x20 DUP2 ADD DUP5 DUP5 DUP5 ADD GT ISZERO PUSH2 0x316 JUMPI PUSH2 0x315 PUSH2 0x21E JUMP JUMPDEST JUMPDEST PUSH2 0x321 DUP5 DUP3 DUP6 PUSH2 0x2DA JUMP JUMPDEST POP SWAP4 SWAP3 POP POP POP JUMP JUMPDEST PUSH0 DUP3 PUSH1 0x1F DUP4 ADD SLT PUSH2 0x33D JUMPI PUSH2 0x33C PUSH2 0x21A JUMP JUMPDEST JUMPDEST DUP2 CALLDATALOAD PUSH2 0x34D DUP5 DUP3 PUSH1 0x20 DUP7 ADD PUSH2 0x2E8 JUMP JUMPDEST SWAP2 POP POP SWAP3 SWAP2 POP POP JUMP JUMPDEST PUSH0 PUSH0 PUSH1 0x40 DUP4 DUP6 SUB SLT ISZERO PUSH2 0x36C JUMPI PUSH2 0x36B PUSH2 0x1B8 JUMP JUMPDEST JUMPDEST PUSH0 PUSH2 0x379 DUP6 DUP3 DUP7 ADD PUSH2 0x206 JUMP JUMPDEST SWAP3 POP POP PUSH1 0x20 DUP4 ADD CALLDATALOAD PUSH8 0xFFFFFFFFFFFFFFFF DUP2 GT ISZERO PUSH2 0x39A JUMPI PUSH2 0x399 PUSH2 0x1BC JUMP JUMPDEST JUMPDEST PUSH2 0x3A6 DUP6 DUP3 DUP7 ADD PUSH2 0x329 JUMP JUMPDEST SWAP2 POP POP SWAP3 POP SWAP3 SWAP1 POP JUMP JUMPDEST PUSH0 DUP2 ISZERO ISZERO SWAP1 POP SWAP2 SWAP1 POP JUMP JUMPDEST PUSH2 0x3C4 DUP2 PUSH2 0x3B0 JUMP JUMPDEST DUP3 MSTORE POP POP JUMP JUMPDEST PUSH0 DUP2 MLOAD SWAP1 POP SWAP2 SWAP1 POP JUMP JUMPDEST PUSH0 DUP3 DUP3 MSTORE PUSH1 0x20 DUP3 ADD SWAP1 POP SWAP3 SWAP2 POP POP JUMP JUMPDEST DUP3 DUP2 DUP4 MCOPY PUSH0 DUP4 DUP4 ADD MSTORE POP POP POP JUMP JUMPDEST PUSH0 PUSH2 0x3FC DUP3 PUSH2 0x3CA JUMP JUMPDEST PUSH2 0x406 DUP2 DUP6 PUSH2 0x3D4 JUMP JUMPDEST SWAP4 POP PUSH2 0x416 DUP2 DUP6 PUSH1 0x20 DUP7 ADD PUSH2 0x3E4 JUMP JUMPDEST PUSH2 0x41F DUP2 PUSH2 0x222 JUMP JUMPDEST DUP5 ADD SWAP2 POP POP SWAP3 SWAP2 POP POP JUMP JUMPDEST PUSH0 PUSH1 0x40 DUP3 ADD SWAP1 POP PUSH2 0x43D PUSH0 DUP4 ADD DUP6 PUSH2 0x3BB JUMP JUMPDEST DUP2 DUP2 SUB PUSH1 0x20 DUP4 ADD MSTORE PUSH2 0x44F DUP2 DUP5 PUSH2 0x3F2 JUMP JUMPDEST SWAP1 POP SWAP4 SWAP3 POP POP POP JUMP JUMPDEST PUSH0 PUSH2 0x462 DUP3 PUSH2 0x1C0 JUMP JUMPDEST SWAP1 POP SWAP2 SWAP1 POP JUMP JUMPDEST PUSH2 0x472 DUP2 PUSH2 0x458 JUMP JUMPDEST DUP2 EQ PUSH2 0x47C JUMPI PUSH0 PUSH0 REVERT JUMPDEST POP JUMP JUMPDEST PUSH0 DUP2 CALLDATALOAD SWAP1 POP PUSH2 0x48D DUP2 PUSH2 0x469 JUMP JUMPDEST SWAP3 SWAP2 POP POP JUMP JUMPDEST PUSH0 PUSH1 0x20 DUP3 DUP5 SUB SLT ISZERO PUSH2 0x4A8 JUMPI PUSH2 0x4A7 PUSH2 0x1B8 JUMP JUMPDEST JUMPDEST PUSH0 PUSH2 0x4B5 DUP5 DUP3 DUP6 ADD PUSH2 0x47F JUMP JUMPDEST SWAP2 POP POP SWAP3 SWAP2 POP POP JUMP JUMPDEST PUSH0 PUSH1 0x20 DUP3 DUP5 SUB SLT ISZERO PUSH2 0x4D3 JUMPI PUSH2 0x4D2 PUSH2 0x1B8 JUMP JUMPDEST JUMPDEST PUSH0 PUSH2 0x4E0 DUP5 DUP3 DUP6 ADD PUSH2 0x206 JUMP JUMPDEST SWAP2 POP POP SWAP3 SWAP2 POP POP JUMP JUMPDEST PUSH0 DUP2 SWAP1 POP SWAP2 SWAP1 POP JUMP JUMPDEST PUSH2 0x4FB DUP2 PUSH2 0x4E9 JUMP JUMPDEST DUP3 MSTORE POP POP JUMP JUMPDEST PUSH0 PUSH1 0x20 DUP3 ADD SWAP1 POP PUSH2 0x514 PUSH0 DUP4 ADD DUP5 PUSH2 0x4F2 JUMP JUMPDEST SWAP3 SWAP2 POP POP JUMP JUMPDEST PUSH0 DUP2 SWAP1 POP SWAP3 SWAP2 POP POP JUMP JUMPDEST PUSH0 PUSH2 0x52E DUP3 PUSH2 0x3CA JUMP JUMPDEST PUSH2 0x538 DUP2 DUP6 PUSH2 0x51A JUMP JUMPDEST SWAP4 POP PUSH2 0x548 DUP2 DUP6 PUSH1 0x20 DUP7 ADD PUSH2 0x3E4 JUMP JUMPDEST DUP1 DUP5 ADD SWAP2 POP POP SWAP3 SWAP2 POP POP JUMP JUMPDEST PUSH0 PUSH2 0x55F DUP3 DUP5 PUSH2 0x524 JUMP JUMPDEST SWAP2 POP DUP2 SWAP1 POP SWAP3 SWAP2 POP POP JUMP INVALID LOG2 PUSH5 0x6970667358 0x22 SLT KECCAK256 PUSH13 0x7C18FC1F15BC9C36C697ED5B09 0x29 0xB0 STATICCALL SWAP3 0xDD 0xDF 0xD0 0xAC 0xEB CALLDATALOAD EOFCREATE 0x48 0xDC SWAP8 MSTORE8 BLOBHASH 0x26 0xDD PUSH5 0x736F6C6343 STOP ADDMOD 0x1E STOP CALLER "
		},
		"gasEstimates": {
			"creation": {
				"codeDepositCost": "288000",
				"executionCost": "322",
				"totalCost": "288322"
			},
			"external": {
				"callContract(address,bytes)": "infinite",
				"getBalance(address)": "3269",
				"sendEther(address)": "infinite"
			}
		},
		"methodIdentifiers": {
			"callContract(address,bytes)": "03710668",
			"getBalance(address)": "f8b2cb4f",
			"sendEther(address)": "48c981e2"
		}
	},
	"abi": [
		{
			"inputs": [
				{
					"internalType": "address",
					"name": "addr",
					"type": "address"
				},
				{
					"internalType": "bytes",
					"name": "data",
					"type": "bytes"
				}
			],
			"name": "callContract",
			"outputs": [
				{
					"internalType": "bool",
					"name": "",
					"type": "bool"
				},
				{
					"internalType": "bytes",
					"name": "",
					"type": "bytes"
				}
			],
			"stateMutability": "nonpayable",
			"type": "function"
		},
		{
			"inputs": [
				{
					"internalType": "address",
					"name": "addr",
					"type": "address"
				}
			],
			"name": "getBalance",
			"outputs": [
				{
					"internalType": "uint256",
					"name": "",
					"type": "uint256"
				}
			],
			"stateMutability": "view",
			"type": "function"
		},
		{
			"inputs": [
				{
					"internalType": "address payable",
					"name": "recipient",
					"type": "address"
				}
			],
			"name": "sendEther",
			"outputs": [],
			"stateMutability": "payable",
			"type": "function"
		}
	]
}